:020000042000DA
:10000000A0870020C5010020CD010020A50600200A
:1000100000000000000000000000000000000000E0
:10002000000000000000000000000000D1010020DE
:100030000000000000000000D3010020D5010020D6
:10004000D7010020D7010020D7010020D7010020D0
:10005000D7010020D7010020D7010020D7010020C0
:10006000D7010020D7010020D7010020D7010020B0
:10007000D7010020D7010020D7010020D7010020A0
:10008000D7010020D7010020D70100205D0F0020FC
:10009000610F0020650F0020690F00206D0F002008
:1000A00000F002F800F046F80CA030C80838241818
:1000B0002D18A246671EAB4654465D46AC4201D1A0
:1000C00000F038F87E460F3E0FCCB646012633428C
:1000D00000D0FB1AA246AB4633431847CC3E000083
:1000E000EC3E0000103A02D378C878C1FAD8520723
:1000F00001D330C830C101D504680C6070470000DE
:100100000023002400250026103A01D378C1FBD833
:10011000520700D330C100D50B6070471FB5C046F1
:10012000C0460098019901F08EF901F028F81FBD32
:1001300010B510BD01F0E1F91146FFF7EFFF00F037
:1001400085FC01F0F9F903B4FFF7F2FF03BC01F0FD
:1001500027FA000030B40C490C684A68236810681C
:10016000C0181060241D121D8C4207D28A4208D28A
:100170000C604A6030BC4000400870470C00DC3C1A
:10018000F6E70A00DC3AF3E73884002070B505464C
:100190000C46164602E00FCC0FC5103E102EFAD2C8
:1001A000082E02D303CC03C5083E042E07D301CC8E
:1001B00001C5361F03E021782970641C6D1C761E72
:1001C000F9D270BD0748804707480047FEE7FEE7C1
:1001D000FEE7FEE7FEE7FEE704480549054A064B51
:1001E00070470000FD010020A1000020A084002035
:1001F000A0870020A0850020A08500200449034896
:1002000008607047024901480860704700E1F50541
:1002100000800020F8B50F46064699482E214A4333
:100220001518002400950F350FE03119487809287A
:1002300007D1325D891C284600F0D7FF0098315D58
:100240008173305D641C0019C4B2BC42EDD3F8BDAB
:1002500010B58B490120087000F076FC002010BD1D
:1002600010B53F2A01D100F02BFC002010BD8449BD
:1002700000200870704782480078042802D00020CF
:10028000C04370470020704770B57D4C0D46207804
:10029000002801D0012821D100F0E0FA02202070CE
:1002A000784C28882081294606220A31601C00F0FB
:1002B0009CFF2046FF21603041750175C174042305
:1002C0003F220121704800F0FEF8218901800021C1
:1002D000817000F0DFF8002000F086FC002070BD87
:1002E00010B5684A08881289904209D18A78014677
:1002F000102000F046FD62490020087000F008FC64
:10030000002010BD5F4809786030417500207047BB
:10031000F8B50C465B4809782030022906D003293D
:1003200035D0052905D0072935D114E00121817385
:1003300031E054481022A11C4C3000F056FF5148C7
:100340002146102212315C3000F04FFF4D48217ED3
:10035000603081701FE04B4D608A40352880214617
:100360001431A81C08220F46064600F03EFF207FED
:10037000A8722846227FA11C103800F036FF608A40
:10038000288008223946304600F02FFF03E0002184
:10039000817300F03EFC0020F8BD10B53F2A08D163
:1003A000374900200870394902228A71087200F02A
:1003B000A3FB002010BD10B5084600F088FC00200B
:1003C00010BD70B518460D4601461223304800F0A6
:1003D0007AF804462B482030807B00281BD029481F
:1003E0000822A91C423000F0D3FE002813D1254872
:1003F0002A884030018891420DD101212170817AF3
:1004000061740146827A1039601C00F0EEFE012012
:1004100000F0EAFB01E000202070204600F03AF8EE
:10042000002070BD0020704710B50878002809D161
:1004300014484B88028915489A4201D1097900E095
:100440000021C17100F0F9FB002010BD10B50C486F
:100450000078002801D100F05BFB002010BD10B532
:100460008878002806D0012807D0022801D100F0A2
:10047000D2F910BD00F0F2F910BD00F0AAF910BDDC
:1004800028800020C8810020030400001C80002078
:100490001838000070B56C4D0446287E083C0128D1
:1004A00007D02146694800F053F9688B401C6883E7
:1004B00070BDE0882146083080B200F0C4FD2046BF
:1004C00000F01FFE70BDFFB50746184681B01D46FF
:1004D0000E46093000F0E4FD07800446468003988C
:1004E000A080E580002D04D020462946083000F089
:1004F000D9FE2046083005B0F0BD10B5083800F030
:1005000000FE10BD0020C043704770B51C464B78FC
:10051000002B09D10D782B0001F0F0F8040603063A
:1005200008062346FFF739FF002070BD2346FFF77A
:100530008FFE70BD70B542883F2A1AD10488444DA1
:100540000146631B0831AC424FD020DC414BE51A19
:100550009C4240D00EDC404BE3185FD03F4D5B190E
:100560002FD0012B32D0072B03D183882046FFF7F1
:100570007EFE70BD3F231B01EB1AFAD0012B2FD05A
:10058000032BF6D183882046FFF7AAFE70BD102BFF
:100590003AD00ADC0A2B32D00C2B2BD00E2BF5D103
:1005A00083882046FFF70DFF70BDFF24E4001B1B6E
:1005B000FAD0012B2DD0032BF6D11046FFF746FFC2
:1005C00070BD83882046FFF7A0FF70BD838820465A
:1005D000FFF746FE70BD83882046FFF74CFE70BDD6
:1005E00083882046FFF750FE70BD83882046FFF7C2
:1005F00089FE70BD83882046FFF78AFE70BD838820
:100600002046FFF7D8FE70BD83882046FFF70AFF1B
:1006100070BD83881046FFF722FF70BD83880E48A7
:100620004042FFF701FF70BD10B50D48006800287B
:1006300008D00B4800F09EF80446FFF77BFF2046E9
:1006400000F05FFD10BD0000288200200C8000201B
:100650000938000010340000F1FBFFFF0FD0FFFF4E
:100660000480002070B501250F48EC0404600F4899
:1006700000F08CFC0E48C5810E4804600A488038A2
:10068000046070BD10B501240748240504600849C2
:100690000220C88100F0E2F8064804600248803871
:1006A000046010BDFEE7000080E100E0468200200B
:1006B0000014005080E200E038B5012003252D022F
:1006C0000146009008232A46002000F08FFF0024F6
:1006D00007232A4621462046009400F087FF062380
:1006E0002A4603210020009400F080FF0022052309
:1006F00002211046009400F079FF002301225202EB
:1007000007211846009400F071FF38BD0021052034
:10071000000701808188032212029143FF31FF31DB
:1007200002318180094A08211180418A2022114327
:100730004182418A802211434182018A02229143EF
:100740000182818A0907FCD5B6E70000003300501A
:1007500070B504460D46082000F0A2FC002145605B
:1007600001602168002903D061680860606070BD85
:100770002060FBE710B501460068002805D002683C
:100780000A60446800F0BDFC204610BD31204E498F
:1007900000018881052000078188032211438180A0
:1007A000828808210A438280484802888A4302805E
:1007B0000188022291430180018804229143018033
:1007C0007D21C9018180C1800188012211430180FE
:1007D000704731203C49000148810520000781888D
:1007E000032211438180828808210A43828037488E
:1007F00002888A4302800188022291430180018895
:1008000004229143018032498180C1800188012204
:1008100011430180704731202B4900014881052098
:1008200000078188032211438180828808210A43BE
:100830008280264802888A430280018802229143EE
:10084000018001880422914301807D2189018180FA
:10085000C1800188012211430180704710B51B48F7
:100860000188490849000180174A0021518191817E
:1008700005221207948808239C4394808180C180BC
:1008800041809088502198430843908010BD0121F9
:100890001048090501600C4A081310810E48028AAD
:1008A000CB121A430282028A02231A4302820A22CC
:1008B00042800A4802684023120A12021A43026068
:1008C00004488038016070472030005000340050E8
:1008D000C05D000080E100E00014005014E400E07E
:1008E000F8B50E460746564C00F087FA00F07EFA3F
:1008F000002520E0002F04D0012F12D0022F18D1A4
:1009000026E0207800F0EFFA20880004000E00F0C6
:10091000EAFA20680002000E00F0E5FA2068000EF6
:1009200005E0208880B200F0DEFA2068000C00F0BC
:10093000DAFA241D6D1CB542DCD300F05EFA00F03B
:1009400055FA002000F0CFFAC0B2AA2808D101E081
:100950002068ECE7002000F0C6FAC0B2022803D0FD
:1009600000F04BFA0020F8BD00F047FA0120F8BD76
:1009700070B515460E46044600F038FA702000F0B7
:10098000B2FA502000F0AFFA002000F0ACFAE0B26A
:1009900000F0A9FA02280BD12004000E00F0A3FAFF
:1009A000304600F0A0FA284600F09DFA022803D055
:1009B00000F023FA002070BD002000F094FA00F04F
:1009C0001CFA012070BD30B50446FF2000211C4DEB
:1009D0000CE08A00AA58130E43401002000E584043
:1009E00013041B0E4340D0B25840491CA142F0D31F
:1009F00030BDF0B5134885B0012646700024124F73
:100A000004703846FFF7DFFF0025039000942B4663
:100A10002A462946029601940A4800F0F5F93C4618
:100A20002A4620460399FFF7A3FF0006000EF7D0E1
:100A300021460020FFF754FF00F03CFA05B0F0BD5E
:100A40002017002014800020220A00000EB5D44890
:100A50000125457000260670FFF758FED14C26761A
:100A60006683A683FFF7C5FF002300961A46194642
:100A7000CB480296019500F0C7F900F07DFAFFF728
:100A800006FF207E012812D1608B00280FD0C648B7
:100A9000FFF770FE0546C0882946083080B200F096
:100AA000D2FA284600F02DFB608B401E6083A08B9D
:100AB0000028E6D0FFF7B8FDA08B401EA083E0E73A
:100AC00070B501233F220D21B848FFF7FCFC01253A
:100AD0000021B74C0570217061700A462E235343E4
:100AE0001B199D70D970D9739973521C5973092AB7
:100AF000F4DBFFF7CFFC70BD10B501233F221021BE
:100B0000AC48FFF7E0FC01210170FFF7C3FC10BD0A
:100B1000A64810B522233F220D21801CFFF7D3FCED
:100B2000032101700A214170002141820175417544
:100B3000082202831022428381836422C2832022FE
:100B40001154FFF7A7FC10BDF0B5984891B05023A1
:100B50003F220D210C30FFF7B6FC04460E2020701A
:100B6000002060700121C902A181E1810720207469
:100B70000120607425461F20203528740822204655
:100B8000E27414308CA1109000F02FFB0A22204652
:100B90002A748CA1313000F028FBE67C1A20801BDF
:100BA00007063F0E1BD008252A4689A16846FFF795
:100BB000EDFA082F00D83D461099681C7054E27C6D
:100BC0002046092115301154E17C401C08182A46A2
:100BD000694600F00AFBE07CAD1C4019E074204639
:100BE000FFF758FC11B0F0BD10B504466D482C233A
:100BF0006038007A3F2200020E3081B27748FFF75A
:100C000062FC014620310C7200224A72FFF742FC5E
:100C100010BD644810B56038007A022300020E301F
:100C200081B26E483F22801CFFF74DFC012101700C
:100C300013214170FFF72EFC10BD10B510210623C3
:100C40003F228802FFF73FFC56496039098901803D
:100C50000121817062498A79C270C9790171FFF7F7
:100C600019FC10BDF8B54F4F0646203FB87200245E
:100C70004F4DFFF76FFA2919FF31E131641CE4B2DF
:100C80008870082CF5D300241020001BB04201DD31
:100C9000002007E0FFF75EFAC117090E0918090ADC
:100CA0000902401A2919FF31C131641CE4B20874E9
:100CB000102CE9D3FFF74EFA3880F8BD10B5FFF7D6
:100CC00049FA484900F0FCFA4748081810BDF8B541
:100CD000074634481E236038007A3F2200020E3057
:100CE00081B23E481230FFF7EEFB04463878042606
:100CF0000125002807D0042812D0072824D0204638
:100D0000FFF7FBFBF8BD257065700020E070102137
:100D100061710321A1702571A671E57120722CE02B
:100D20007878012829D1FFF7C9FF0746267065703A
:100D30001021A01C00F0B6FA380EA073380CE07336
:100D4000380A2074677418E07878FFF78BFF072063
:100D50002070144865702038817A2177008860827D
:100D60001049204608221E39143000F03EFA0D4981
:100D700010223039A01C00F038FA2046FFF78AFB19
:100D8000F8BD70B50D4601461448144604233F22B1
:100D9000401CFFF798FB05808470FFF77BFB70BD5C
:100DA00016800020288200200C80002002340000E1
:100DB00028800020034000000703031802180418CD
:100DC0000000000009FF006052572D424C45000012
:100DD00046455F50524F5852000000000238000054
:100DE0001C800020A0BB0D00A086010010B54F485C
:100DF0004178007800F068FC10BD10B54B48417890
:100E0000007800F055FC10BDF8B50E461546474970
:100E10000278079F0A7040781C464870FFF7EDFF84
:100E20000520000781880122D202114381804048B9
:100E300001884908490001800188FF2281329143DD
:100E4000F20111430180018840229143AA0111431C
:100E50000180018804229143A2001143018001888E
:100E600002229143069A5200114301800188012217
:100E700092039143BA0311430180018818229143E0
:100E8000089AD20011430180018801221143018098
:100E9000F8BD27490A88520852000A800A88FF23B1
:100EA00081339A43C00102430A800888012210431B
:100EB0000880704710B51E48018849084900018024
:100EC0000520000781880122D202914381801748C2
:100ED0004178007800F0ECFB10BD15480188490806
:100EE00049000180704710B5114900230A88D205D6
:100EF000920F012A01D9040C8C8048800888800454
:100F0000FCD50120C880012A01D9888803044888BB
:100F1000C01810BD10B50446FFF768FF2046FFF764
:100F2000E2FF0446FFF769FF204610BD188000204D
:100F30000012005010B5044600F06EFB0C49A000F2
:100F400040188038406B002801D0804710BDE10672
:100F5000C90E012088400749086010BD1320E9E749
:100F60001420E7E71520E5E71620E3E71720E1E77F
:100F70004883002080E200E04448082101802221CB
:100F8000018201204249C00408607047F8B5044658
:100F9000801C0090FFF731FFFFF728FF0820FFF7C4
:100FA000A2FF0020FFF79FFF2070641C204620381E
:100FB000C07F384D052808D006283CD007283ED0F1
:100FC0000024FFF71AFF2046F8BD641C002600200D
:100FD000FFF789FF2070761C641CB6B2062EF6D38C
:100FE0000020FFF780FFC6B226700020FFF77BFFCE
:100FF0006070A41C0002801986B2002706E0002061
:10100000FFF771FF2070641C7F1CBFB2B742F6D39C
:1010100030460830064600F043F804463246009950
:1010200000F0E3F821461C48FFF792FBA88B401C18
:10103000A8830124C5E7012028760224C1E7002007
:1010400028760324BDE7F8B5064601271048FF04BB
:1010500080300D460760114801880906FCD4FFF76F
:10106000CCFEFFF7C3FE0520FFF73DFF002405E09F
:1010700028786D1CFFF737FF641CA4B2B442F7D385
:10108000FFF7BBFE02480760F8BD000000140050E7
:1010900000E100E0288200200480002000300050A1
:1010A00070B5064600F0B2F9056830460B30C4084A
:1010B000E400B44201D8002070BD68682A460028C8
:1010C00018D00168A14211D30B46214608318B424A
:1010D00008D3436801194B6003681B1B0B60516008
:1010E000046001E041685160001D70BD0246406827
:1010F0000028E6D12146284600F090F90028DCD1EE
:1011000070BD70B50446051F00F080F90068002C22
:101110001AD0446801E020466468002C01D0AC423B
:10112000F9D301680A18AA4204D12A680546891829
:10113000016000E0456028684119A14205D161685D
:10114000696021684018286070BD6C6070BD000047
:101150000C4A30B511460C4C44310B46C03B0B6277
:10116000CA61372106E0020C8D0012185A51074A55
:10117000504300190A46491E002AF4DC30BD012004
:10118000E6E70000D8830020E119D666CD0D010006
:10119000034610B50B439B070FD1042A0DD308C893
:1011A00010C9121FA342F8D018BA21BA884201D937
:1011B000012010BD0020C04310BD002A03D0D3077A
:1011C00003D0521C07E0002010BD03780C78401CAF
:1011D000491C1B1B07D103780C78401C491C1B1BA6
:1011E00001D1921EF1D1184610BDF8B5042A2CD3B6
:1011F000830712D00B78491C0370401C521E8307D2
:101200000BD00B78491C0370401C521E830704D07E
:101210000B78491C0370401C521E8B079B0F05D096
:10122000C91ADF002023DE1B08C90AE0FEF7AEFF63
:10123000F8BD1D4608C9FD401C46B4402C4310C0F3
:10124000121F042AF5D2F308C91A521EF0D40B78E3
:10125000491C0370401C521EEAD40B78491C0370D1
:10126000401C521EE4D409780170F8BD01E004C0AE
:10127000091F0429FBD28B0701D50280801CC907F6
:1012800000D00270704700290BD0C30702D0027053
:10129000401C491E022904D3830702D50280801C0A
:1012A000891EE3E70022EEE70022DFE700220309C0
:1012B0008B422CD3030A8B4211D300239C464EE071
:1012C00003460B433CD4002243088B4231D303092D
:1012D0008B421CD3030A8B4201D394463FE0C309DF
:1012E0008B4201D3CB01C01A524183098B4201D3F7
:1012F0008B01C01A524143098B4201D34B01C01AE2
:10130000524103098B4201D30B01C01A5241C30859
:101310008B4201D3CB00C01A524183088B4201D3C8
:101320008B00C01A524143088B4201D34B00C01AB4
:101330005241411A00D201465241104670475DE0C9
:10134000CA0F00D04942031000D34042534000224C
:101350009C4603098B422DD3030A8B4212D3FC22F5
:10136000890112BA030A8B420CD3890192118B4274
:1013700008D3890192118B4204D389013AD092118A
:1013800000E08909C3098B4201D3CB01C01A524145
:1013900083098B4201D38B01C01A524143098B420E
:1013A00001D34B01C01A524103098B4201D30B01F7
:1013B000C01A5241C3088B4201D3CB00C01A52411C
:1013C00083088B4201D38B00C01A5241D9D2430803
:1013D0008B4201D34B00C01A5241411A00D2014640
:1013E000634652415B10104601D34042002B00D5AA
:1013F0004942704763465B1000D3404201B500206C
:10140000C046C04602BD70477047704700487047ED
:1014100048840020704770477047704738B50446CD
:101420000A4600206946C046C046002805D002464C
:101430002046009900F040F8012038BD10B5012089
:1014400000F054F810BDF8B5C046C046054600206F
:101450000C461020C0460646A819A0420DD93246B7
:1014600069460020C046C046070001D100F03EF8A2
:101470000098A04200D00546C419FFF7C7FFF61D2B
:1014800007460560F008C0004619284600F008F835
:10149000B44204D031463868A21B00F00DF8F8BD04
:1014A000002101604160806070471020704700009B
:1014B000004870474084002010B50346406801E0B2
:1014C00003464068002801D08842F9D31868C31841
:1014D0008B4206D0CB1CD808C000001D411A521AFE
:1014E0000146081D0A60FFF70CFE10BD10B500F0A4
:1014F0002FF800F027F810BD70477546FFF7D8FFAA
:10150000AE46050069465346C008C000854618B07F
:1015100020B5FEF761FE60BC00274908B6460026EC
:10152000C0C5C0C5C0C5C0C5C0C5C0C5C0C5C0C593
:10153000403D49008D4670470446C046C04620469F
:10154000FEF701FE10B5002801D000F029F810BD0B
:1015500010B5012805D0002103A000F027F80120D4
:1015600010BD09A1F8E7000053494752544D454DBD
:101570003A204F7574206F662068656170206D6534
:101580006D6F7279000000003A2048656170206D2F
:10159000656D6F727920636F727275707465640027
:1015A00001491820ABBEFEE72600020070B50546D3
:1015B0000C460A2000E06D1C00F012F8002D06D049
:1015C00028780028F7D102E0641C00F009F8002C0C
:1015D00002D020780028F7D10A2000F001F870BD71
:1015E00008B5694608700320ABBE08BDF8B50746CC
:1015F00006981C46002815460E46384602D000F0D4
:1016000057F801E000F060F823462A463146384694
:1016100000F066F8F8BD000010B5244CE389012203
:101620001338114681408B43C80701D0002038E0B1
:10163000880701D5012034E0480701D5022030E0B9
:10164000080701D503202CE0C80601D5042028E0B6
:10165000880601D5052024E0480601D5062020E0B3
:10166000080601D507201CE0C80501D5082018E0B0
:10167000880501D5092014E0480501D50A2010E0AD
:10168000080501D50B200CE0C80401D50C2008E0AA
:10169000880401D50D2004E0480401D50E2000E0A7
:1016A0000F2082401343E38110BD0000001400505E
:1016B000032800D10420034A4001801801228A40F7
:1016C0004280704700300050032800D10420034AB4
:1016D0004001801801228A4082807047003000500B
:1016E00010B5032800D10420034C40010019490023
:1016F00008181A43C28010BD0030005030B4744640
:10170000641E2578641CAB4200D21D46635D5B00FD
:10171000E31830BC18470000000000000000000083
:1017200000980020DD040020E5040020FD040020D6
:1017300000000000000000000000000000000000A9
:10174000000000000000000000000000150500205F
:1017500000000000000000002D0500202F050020E3
:1017600045180020352F03003D2F0300452F0300AF
:10177000F9180020BD2F03004F1900205719002031
:101780004B1B0200AF1300206F190020DD2F030058
:10179000A77E0200310500204B1B02002913002008
:1017A0004B1B02004B1B02004B1B02004B1B020099
:1017B0004B1B02004B1B0200310500204B1B02009B
:1017C000FFFFFFFFFFFFFFFFFFFFFFFFFFFFFFFF29
:1017D000FFFFFFFFFFFFFFFFFFFFFFFFFFFFFFFF19
:1017E000FFFFFFFFFFFFFFFFFFFFFFFFFFFFFFFF09
:1017F000FFFFFFFFFFFFFFFFFFFFFFFFFFFFFFFFF9
:10180000FFFFFFFFFFFFFFFFFFFFFFFFFFFFFFFFE8
:10181000FFFFFFFFFFFFFFFFFFFFFFFFFFFFFFFFD8
:10182000FFFFFFFFFFFFFFFFFFFFFFFFFFFFFFFFC8
:10183000FFFFFFFFFFFFFFFFFFFFFFFFFFFFFFFFB8
:10184000FFFFFFFFFFFFFFFFFFFFFFFFFFFFFFFFA8
:10185000FFFFFFFFFFFFFFFFFFFFFFFFFFFFFFFF98
:10186000FFFFFFFFFFFFFFFFFFFFFFFFFFFFFFFF88
:10187000FFFFFFFFFFFFFFFFFFFFFFFFFFFFFFFF78
:101880003F0000004D0600208F0F0020811E002029
:101890000000000000000000A77D0200017E0200A1
:1018A0000F7E02004B7E0200697E0200857E0200F0
:1018B000AD7E0200CB18002033060020B90D0020B9
:1018C000D10D002000000000000000003F000000DB
:1018D000F48B002000040000140D08004C010000EF
:1018E00008090800000400006C0E08002005000034
:1018F0000000000020000000480000005800000028
:1019000068000000260300003A0300004E030000B8
:1019100054030000D02800008E2E000001000000BB
:1019200088130000191000200D5D020011910200C3
:101930005723030013260300977102005914002057
:10194000030000004D0E00208D1E0020040000004A
:1019500087450200BF440200F91B02007B8E020093
:10196000CF8E0200D78E0200577F0200C57F020093
:10197000E8250020BB8002009B8102004982020012
:10198000E98202000D830200738302008983020052
:101990000B8502003186020033870200E5890200D0
:1019A0001F8A0200278D02005B8A02003F8B020023
:1019B000118C02005F8C0200B18C0200ED8C0200E1
:1019C000474D0200754D02002F4E0200100000002E
:1019D00020030000803E00003F0000000D000000DA
:1019E00027000000000000000000000000000000D0
:1019F000504600030003983A6400F401B80B000C51
:101A0000B80B120030003000CD009A011200240003
:101A100030006400B0001800280012001200D00747
:101A20000000FFFF000000000000000000000000B8
:101A30001F000002444131343538310000000000FD
:101A40000000000000000000000000000000000096
:101A500000000000FFFFFFFFFFFFFFFFFFFFFFFF92
:101A6000FFFFFFFFFFFFFFFFFFFFFFFFFFFFFFFF86
:101A7000FFFF010000C201000000000000000000A4
:101A80000000F4010100011B0A071AFFD200021531
:101A9000585CDE931B0142CC9A1325009BEDC65E79
:101AA00000000000C5000000000009FF0060525760
:101AB0002D424C4500000000000000000000000026
:101AC00000000000000000000000444131343538BF
:101AD000780000000000000000000000000000008E
:101AE00000000000000000000000000000000000F6
:101AF00000000000000000000000000000000000E6
:101B00000000000000000000010000CAEA80D007C9
:101B100006406432FFFFFFFFFFFFFFFFFFFFFFFFF5
:101B2000FFFFFFFFFFFFFFFFFFFFFFFFFFFFFFFFC5
:101B3000FFFFFFFFFFFFFFFFFFFFFFFFFFFFFFFFB5
:101B4000FFFFFFFFFFFFFFFFFFFFFFFFFFFFFFFFA5
:101B5000FFFFFFFFFFFFFFFFFFFFFFFFFFFFFFFF95
:101B6000FFFFFFFFFFFFFFFFFFFFFFFFFFFFFFFF85
:101B70000348854601F04CFE00480047211C020046
:101B80000098002040BA704740BA7047C0BA70470A
:101B9000C0BA704710B5164906200880FF201549C5
:101BA0000130086005200007818A0906FCD54189BB
:101BB00089088900418141890906FCD50E4A91684E
:101BC0003E2399432E31916000210180028A0F2328
:101BD0001B021A4302820122D204032308461B037C
:101BE00084182160001D9842FADB62B610BD000027
:101BF0000034005080E100E0003300501548804779
:101C00001548004704207146084203D0EFF30980CD
:101C100012490847EFF3088010490847042071462D
:101C2000084203D0EFF309800D490847EFF308801D
:101C30000B49084704207146084203D0EFF309809E
:101C400008490847EFF3088006490847FEE7FEE722
:101C5000FEE700007504002051040020F509002073
:101C6000490500201106002005221207518A802311
:101C700019435182114903680B6043684B608368C4
:101C80008B60C368CB6003690B6143694B618369F7
:101C90008B61C069C8610A48836A0B62C36A4B6280
:101CA000036B8B62C36BCB62436B0B63806B4863CC
:101CB000908A800601D500BE7047FEE70018080034
:101CC00000ED00E070B505460C46103C3F2001F0E9
:101CD000B1FD00280FD0BE488068322806D9BD4922
:101CE0008D4201D03C2801D9002070BD2146B84862
:101CF00001F0A6FD06E0204601F0A8FD01213F20ED
:101D000001F0AAFD012070BD10B5B3490B780A1D82
:101D1000002005E0C400145D3F2C04D0401CC0B27C
:101D20009842F7D310BDC000AC4A4018826010BD85
:101D300081692039897F022904D2A94A8900515832
:101D400081617047FEE7A848A6490161A749416142
:101D5000704710B5A6490020086000F06FFB012015
:101D60008007016B49004908016310BD08B5A1480F
:101D700001240470A0480825058001F073FD01F0DE
:101D800059FF00F08EFA9D48017801709C48017857
:101D90000170012001F06CFD270235203946000159
:101DA00001F06CFD00F0FAFF00F0EAFB00F096FA9B
:101DB000944E308940094001308130890F218902D9
:101DC00088437114401830818F4870822620B08279
:101DD0000720F0828D483083748370881E218843E9
:101DE00014307080042000F0ECF8072000F0E9F8CF
:101DF0000A2000F0E6F8062000F0E3F80B2000F0DF
:101E0000E0F8012000F0DDF8022000F0DAF8002010
:101E100000F0D7F87E48006801F036FDFFF774FF48
:101E2000A00701683943016000F011F9794F386863
:101E3000AA2805D1142000F0BFFA142000F0CAFA35
:101E4000FFF787FFA22005242407E0827088E021A5
:101E50008843A0307080012001F01CFD01F020FDBE
:101E6000022803D001F01CFD012808D1624805803A
:101E7000A08A8006FCD4618A802081436182042785
:101E80002089000621D501208007006B00041CD4A6
:101E900001F00CFDC00718D1042001F00DFD05462E
:101EA00001F010FD002D10D000200090594800686E
:101EB000AA2802D1142000F08DFA0421684601F00E
:101EC00007FD002801D000F0CEFA72B65148006834
:101ED000AA2801D100F0B2FA00F088FF05460428D4
:101EE00006D0022D0BD0032D09D0012862D066E068
:101EF00049480078012801D0032500E00225208A06
:101F0000384320824548C069012810D9032D19D1D2
:101F100001F0E4FC002815D001F0E6FC002811D007
:101F2000032001F0E7FC00280CD0022007E0032D7D
:101F300008D1032001F0DEFC002803D0012038493D
:101F4000087000E002253748016939430161618A60
:101F5000202291436182218A022211432182618AD7
:101F6000022D20D0394361827F212288890180257A
:101F70002A4322800022521CD2B20A2AFBD3628A50
:101F800010231A436282284A491E51612188A943BD
:101F900021807188FF2201329143718030BF016935
:101FA000B94301610BE039436182618A1022914398
:101FB0006182EEE700F0A8FA002800D030BF62B6D8
:101FC0005EE7C106C90E01208840184908607047C5
:101FD000FC050800103400004C0808007828002098
:101FE000E0250020C4A802000084004000DFF8B50E
:101FF000FC0408009813080000330050000008009B
:10200000D0280800200000504E0200007777000022
:1020100020900020A413080078030800E0010020AD
:10202000B007080000ED00E00080004080E200E022
:102030007047000033480178002902D080214170A8
:1020400070473149002008703049C87070472D48EA
:102050000178002902D08121417070472A4901206E
:1020600008702A49C870704726480178002902D0B4
:1020700082214170704724490220087023490120C1
:10208000C87070471F488178002904D0491E09068E
:10209000090E817017D142780021002A04D09207DE
:1020A000920F0270417004E00278002A01D0521EA3
:1020B00002701206120E017005D0012A02D0022A07
:1020C00001D1D1E7C3E7704710B50E4CA078401C92
:1020D000A0702078002805D101F0E2FB421CFFF738
:1020E000A9FF227010BD07490120C870704705493B
:1020F0000020C87070470348C078704704480078D3
:10210000704700009913080078030800B207080020
:10211000D313080005221207118A042319431182E0
:10212000118A022319431182118940231943118115
:10213000174B01211960174B08211980518A802300
:1021400019435182144903680B6143684B618368EA
:102150008B61C368CB6103690B6243694B6283691E
:102160008B62C069C8620D48836A0B63C36A4B63A4
:10217000036B8B63C36BCB63436B074940310B60CD
:10218000806B4860908A800601D500BE7047FEE7EC
:1021900080E200E0003300504018080000ED00E04D
:1021A00070B54A4800220168D243002901D0134685
:1021B00000E00123464903600D68DC174E682B439D
:1021C00034430B604C604368002B01D0134600E0A1
:1021D00001234360DC17DB180D6864414E682B4314
:1021E00034430B604C608368002B01D0144600E040
:1021F0000124E317A50F9B002B4384600D68A40006
:102200004E682C4333430C604B60C368002B01D0F5
:10221000144600E00124E317650FDB002B43C46084
:102220000D68E4004E682C4333430C604B60C36977
:10223000002B00D10122C261D017530EC0011843F8
:102240000C68D2014B68224318430A60486070BD95
:10225000F8B50024FF2207230132214620460094CE
:1022600001F056FC08239D012A460121002000941C
:1022700001F04EFC0623DE013246022100200094CC
:1022800001F046FC05232A4603210020009401F0BA
:102290003FFC0023324607211846009401F038FC29
:1022A000F8BD10B505242407208A02218843208226
:1022B000A08A0007FCD500F034FBFFF744FDFFF7D0
:1022C000C7FF608A20210843608210BD3090002043
:1022D00028900020944900204860704770B505217F
:1022E0000907088930229043088108898022104319
:1022F0000881088980088000401C0881088908231B
:102300001843088189480488144304804C8A9C43FC
:102310004C820D89402425430D810D8A0426B54346
:102320000D828D8AAD07FCD57F4E0025756005882E
:102330000126354305804589AE057D4D068801D5CA
:102340002E4300E0AE43068005887826B543283545
:10235000058005880626354305804D8A1D434D823C
:102360000388934303800A89A2430A814089800538
:1023700003D56E49052060318880012080070168FF
:102380008215914301606B4801683F2252029143DC
:10239000421489180160016802031143016070BD95
:1023A0000321654809028181082242800021491CDD
:1023B0009629FCD3828070476049488008880322B0
:1023C00010430880088804221043088056490120E1
:1023D000087070477CB5544C217800292DD057499E
:1023E0000A885207FCD4CA88009289880191110496
:1023F000019A8918009152494843009901F080FAE6
:102400000090002020700098A060009801F073F9FF
:10241000054629464B4801F024F90A2101F05FF9ED
:1024200001F070F9E060284601F080F9464A474B18
:1024300001F06CFA01F08EF920617CBD10B53A48CC
:102440004168AA290CD07C204149081884B241492E
:10245000204601F055FA081980B201F05DFA10BD6E
:10246000C068000AF0E710B53B490120C863C86B9B
:102470000028FCD101208007C169384802689142D8
:1024800001D20022026019238A1ADB019A4212D378
:10249000016001F047FA324A1188884201D9411A95
:1024A00000E0091A89B2182905D31080012001F033
:1024B0003FFA01F043FA10BD08B51B49896848434B
:1024C000284901F01DFA009008BD08B51649C968F1
:1024D0004843800A009008BD08B51349496800299F
:1024E00003D0FFF7E9FF009008BD01F02DFAFAE7ED
:1024F00008B50D494968002903D0FFF7E6FF0090B1
:1025000008BD01F027FAFAE710B53F2001F092F973
:10251000002805D114488078002803D0032801D072
:10252000002010BD012010BDA013080020000050A5
:102530000010000000020040203000500016005043
:102540000024F400002474497B14AE47E17A443F30
:102550000112000071020000C0000040F8050800F0
:10256000F405080040420F001C0608000146002048
:10257000002901D0022900D1004870470026002020
:1025800030B59B4A9B49D005048880231C430480B6
:10259000994C65892D0701D4521EFAD2974C01221D
:1025A0002260974C0A882280964A498811800188C7
:1025B0009943018030BD00207047704770477047D5
:1025C0000020704701218907086B07221043086328
:1025D0007047704710B58D498B4808608C494C2076
:1025E00008808B4B8B4A203B1A828C498A48488052
:1025F0008C488B4901808A491931418022214181CF
:102600008121890001828849418288490183864964
:102610001131418383498648203188804121854892
:10262000090181808449C180834C1034C4810182B6
:102630004182891C8182611FC182FF214631018351
:102640007E4941837E49592008807D487D4C203059
:102650000480432444807C4C4C82D5218180FF211E
:10266000D331018179494181794981817A49794818
:1026700008806748794960384180C1881024214327
:10268000C18070490A390181614C7549403C6180C3
:102690005A82082141815B48694900884039088293
:1026A000574870490088088010BD4008704700B541
:1026B0008BB06D4A42626D4A82626D4A42616D4AD8
:1026C000C2626D4A02606D4A02626D4A42606D4AA2
:1026D000C2614E4A4C48002110604C484038026BA1
:1026E00003129A430263426B1F231B049A43032382
:1026F0001B04D218426364480268C3129A43026002
:10270000026803139A43026068464154491CC9B2E7
:102710002829FAD3014628225C4801F021F9FFF765
:1027200059FF01F0FFF85A490880002001F000F934
:1027300001F004F90BB000BD10B5344A0F21324846
:102740000902106031484038426B1F231B049A4332
:1027500003231B04D218426300060268D208D20089
:10276000026005200007028992089200521C028133
:10277000028908231A430281028A0A4302821E4800
:10278000018949094901018101890F22920291437E
:1027900042148918018128492031418226218182F1
:1027A0000721C1822B49DC39018301214183418802
:1027B0001E2291431431418036490968002907D10E
:1027C0004189890504D50188782291430831018027
:1027D000FFF700FF3048006B0078002804D02F4836
:1027E00000880B496039C880012001F053F810BD02
:1027F000A0860100087F04002000005000800040F7
:102800007A030800AE0408004C055407800000401D
:10281000602C00507F7F0000AC2900000022005097
:1028200009090000002400502204000030D00000FC
:10283000EE110000002500502E0200004420000090
:10284000402800500D95000002420000E4DC00002A
:102850001092000053780000002A00508B100000F6
:102860009DD5000000260050970E00209B0E0020F2
:10287000A10E0020A50E00209D0E0020B30E00200A
:102880009F0E00208B0F0020000200402000080057
:10289000F4050800A413080020020020CE0508005B
:1028A000F8B57E4A10888007C00FFBD001267C480F
:1028B000F7030760802050807A4801888904FCD59E
:1028C0004188C9B20829F8D1C68077490B68002B26
:1028D00021D04B681C7805882D05FCD444800489E0
:1028E0002407FCD444880C685B1C641E0C604B609D
:1028F000002CEED18023938001E04288C6800288BC
:102900009204D20FF9D1C680002048608A68002A5C
:1029100001D088609047654807606148803807604B
:10292000F8BD0520000781880322120291438180AF
:1029300081880122D202114381805A4801884908C6
:10294000490001800188FF22813291430180018882
:1029500040221143018001880422914301800188B3
:1029600002229143018001885203114301800189B1
:102970008908890001810188520011430180018882
:10298000012211430180484900200861C860486065
:102990000860474801680902090A0160704730B5BC
:1029A0003E4B19888907C90FFBD001223C4CD1034B
:1029B000216080245C803B490D88AD04FCD54D88A6
:1029C000EDB2082DF8D1CA800D882D05ED0FFBD191
:1029D000002801D0062000E00720488008888004F5
:1029E000FCD54888CA8008890007C00FFBD19C80AD
:1029F00030BD00B50120FFF7D2FF01202B49C003F5
:102A0000086027498039086000BD00B50020FFF745
:102A1000C6FF012000BD244B5A61D9601861012016
:102A20002249C00308601E4980390860704710B50C
:102A30001D4B9A60196058600020FFF7B0FFFFF748
:102A40002FFFFFF7D6FF10BD10B500F001F810BD45
:102A500030B40124144813490DE04A88CC80D2B226
:102A60000B891B07FCD403691A705B1CC2680361E5
:102A7000521EC26005D00A889204D20FEDD130BC3C
:102A8000704700220121064BC903026119604169A8
:102A90000029F4D0426130BC0020084700300050CB
:102AA00080E100E000120050B413080080E200E072
:102AB0000CE400E00B480078002802D00020C0435E
:102AC0007047012008494002086000207047052037
:102AD000000701883022914301800188890889001C
:102AE00001807047CC13080080E100E0F3B581B0AD
:102AF000002000900D464A88044601466B46019826
:102B000000F034FF060009D10098C488019800F055
:102B100033FF401E844200D2204684B222460B215D
:102B2000019800F02FFF0746002E06D06A8829780A
:102B3000334600F02DFF0020FEBD7C800099224628
:102B40000831381D00F00CFF384600F027FF688878
:102B500000F02AFF0028EED0019902230A02018921
:102B60000C32044800F026FF6988018000F028FF3D
:102B7000E1E7000012300000F8B50C469449164613
:102B800009680125002702228B1C312873D012DC32
:102B90000C2874D008DC012821D0022840D0072856
:102BA0004FD00B2869D156E010287FD0112876D05D
:102BB0001228F7D18DE00123412871D008DC32289A
:102BC0006FD035286ED036286DD04028EAD1B1E0DC
:102BD000422869D0432868D04428E3D1CFE00622B8
:102BE0007C497D4800F0F2FE002808D006227A4990
:102BF000304600F0B5FE062020700020F8BD744875
:102C000001680878C00738D02078062801D22770DC
:102C1000C2E006229831304600F0A2FE06200EE007
:102C20000A786B48920728D522783E2AEFD30546CA
:102C30004A7E5A31304600F093FE2868407E20706C
:102C4000A7E00878400718D520780228DFD3887CD1
:102C50003070587C78E00A785D4812070DD52278EC
:102C6000202AD4D30546CA7D1A31304600F078FEBA
:102C70002868C07DE3E735E001E077E016E00A78F8
:102C80005348D20672D52278202AC0D305460A7E40
:102C90009831304600F064FE2868007ECFE70EE0F1
:102CA00054E028E034E03BE058E060E0087880063B
:102CB00070D520780428AAD30422091D23E00878BF
:102CC000400667D52078002866D0087D08E022708D
:102CD0005FE0087800065DD5207800285CD0487D4C
:102CE0003070F4E70888C00554D5207804288ED3C6
:102CF00004220C3107E0088880054BD52078042891
:102D000085D304220831304600F02AFE042096E7DD
:102D1000088840053ED5207800283DD0887D36E0E3
:102D20000888000536D5207802288FD3087C3070BB
:102D3000487C09E00888C0042CD52078022885D377
:102D40008231087F3070487F7070C0E70888800447
:102D500020D5207800281FD0A03117E00888400433
:102D600018D52078002817D0A1310FE012E008888C
:102D700000040FD5207800280ED0A23106E00868A4
:102D8000C00307D52078002806D0A331087830701A
:102D9000237000252846F8BD0425FBE770B50F48D1
:102DA0000F49C405228880252A4322800D4A538971
:102DB0001B0701D4401EFAD20B4A012010600622E4
:102DC000054800F0CDFD2088A843208070BD00009C
:102DD000AC070800A83C0300CD130800A086010042
:102DE000D47F04002000005000800040FEB5524D0A
:102DF000524C68690090002620793146022800D1A3
:102E000000914F4F4F483A68002A0FD10278002AAC
:102E10000DD04D4A0123D363D36B002BFCD101228B
:102E20009207D2691923DB019A420ED3017000F098
:102E3000D3FD00287DD0E0780126002879D0052038
:102E40000007808AC00701D0042672E000F02EFD42
:102E500000286ED13D4800683F2804D12079002821
:102E600001D128690090A178684600F0BBFD0028D8
:102E70005FD0A178684600F02BFD002859D000F003
:102E8000B7FD002855D03868AA281BD09720072105
:102E90000125AD07EA6B920A9202521CEA63EA6BC3
:102EA0002B4B80021A400243EA63E86BC002C00A5F
:102EB00049050843E8633868042600280DD0AA288D
:102EC00013D021E02348FFF707FB009A0321521E8D
:102ED0000092A37893422CD8DAE700986421C002CC
:102EE00000F00EFD0BE001210CE0009800F003FC67
:102EF0001949096800F078FB00F004FC0190217981
:102F00000029F0D100F07AFD1448C06A8047286B90
:102F10000004C00FFBD000F077FD00F07BFD1048EF
:102F20000168C905FCD5052000070189802291436D
:102F300001813046FEBD0000A0020020B20708005B
:102F4000A413080098130800C0000040600100208E
:102F5000FF03E0FF01120000B0130800080808009A
:102F60000002004038B5002000905E49082008802B
:102F70000524240721883020014321802188032251
:102F80001143218002E000BF00BF00BFA18A0906F3
:102F9000F9D5618989088900618153494A885208B5
:102FA00052004A8021888143218020888008800047
:102FB0002080A08A400701D5FFF773F9208980217E
:102FC00008432081208A042188432082A08A800728
:102FD000FCD5464841050268D20202D40A6952076C
:102FE00002D4009A002AF6D038BD10B50124A407F7
:102FF000A06BFFF77DFA3E4900F082FC2722120108
:10300000511A00D101213B4A50601160206B082108
:1030100088430843206310BD10B500F001FD052072
:103020000007418A8022914341822E480189490844
:1030300049000181304800683F2801D100F0F6FCCA
:1030400001208007816904221143816100F0F4FCB2
:1030500000F0F8FC00F0FCFC28480068AA2802D127
:103060001420FFF7A9F926490020087010BD10B5FB
:1030700000F0F4FC10BD10B501208007008A0007A5
:1030800004D500F0F1FC1E490320087010BD70B596
:103090001C48008885061548AD0E44681648C030A7
:1030A000006B0078002802D1284600F0E3FC1648A7
:1030B0000089134EC00507D520060BD5E00709D0BF
:1030C000284600F0DDFC03E0200603D5E00701D030
:1030D00002203070200403D5E00501D501203070B6
:1030E00070BD00000033005020000050000200407E
:1030F000710200004000004060010020A41308009D
:10310000D313080000200050002C005010B51221ED
:10311000244800F0BBFC24491C2000F0BDFC002129
:103120001C2000F099FB10BD30B5034601200021A2
:1031300003241A46CA40D20704D04D006D1C224613
:10314000AA401043491CC9B20929F2D330BD024636
:103150000020122901D98D207047062A06D0072A9F
:1031600007D0082AF8D10729F5D170470829F2D1EC
:1031700070470629EFD3704770B50A4C0546218881
:1031800002231C22094800F015FC058000F018FC01
:10319000E088002100F086FC01211C2000F05CFB8F
:1031A00070BD0000D41308002C270020047000001C
:1031B000FEB53B4E1C2070801D46174634460888DD
:1031C000FFF7B2FF029037483346019008331322CD
:1031D00002A90097A01D00F06BFC040008D1F08844
:1031E000002100F05FFC044601211C2000F034FBAC
:1031F00001231C2229462C4800F0DCFB047000F05F
:10320000DFFB0020FEBD70B50C4625490B80207801
:10321000082814D8CA880831415C51188DB2822D13
:103220000BD06178FFF793FF010009D16D1C617825
:10323000A8B2A21C00F042FC08E0822100E081213B
:10324000194B17485B1CDA1C00F05EF9002070BDBA
:1032500070B51D460C46088800F036FC104AFF2861
:103260001071158009D0A178D08800F01BFC0221D4
:103270001C2000F0F1FA002070BD0B4B89219B1C33
:103280009A1C074800F040F9F5E710B5044A180AFF
:103290001279904202D10888FFF76EFF002010BD1E
:1032A000D4130800182600200170000010B50C216E
:1032B000254800F0EBFB2549102000F0EDFB002134
:1032C000102000F0C9FA10BD70B506461E480D4624
:1032D00014460188042310221D4800F06BFB048073
:1032E0008670C57000F06CFB70BD7CB5164C064650
:1032F000E088002100F0D6FB2089002802D00021C0
:1033000000F0D0FB6089002802D0002100F0CAFB49
:103310000F48218804231022401E00F04BFB054675
:10332000E0886A46801C80B201A900F0D3FB2E80A1
:1033300000980078A870284600F042FB0121102078
:1033400000F08AFA7CBD0000E81308000028002085
:1033500002400000FFB5674C83B0102060806648D3
:1033600016460F4600230092019003221946A01D25
:1033700000F09EFB0546E088002100F093FB3878C2
:10338000C0071CD05D480190002320460322194647
:103390000096083000F08CFB2089002100F082FBB1
:1033A00057480190002320460322194600960A3010
:1033B00000F07EFB05466089002100F073FB002DC4
:1033C00003D10121102000F047FA012310224D48BB
:1033D000069900F0EFFA057000F0F2FA002007B04D
:1033E000F0BD70B5434C0D462380088800F06CFB9F
:1033F0002071FF2823D0A978E08800F053FBE088F3
:10340000EA1C801C80B2012100F058FB20890028B2
:1034100002D0A97800F046FB6089002809D0801C02
:1034200080B22A1D012100F049FBA978608900F0D3
:1034300039FB0221102000F00FFA002070BD01239B
:103440009B035A1D89212B4800F05EF8F5E770B503
:10345000284D0C4629798022180A88422AD1E98809
:103460002088891C884201D1012604E02989891C11
:1034700088421FD10226217A02290AD82246083220
:10348000012100F01BFBE079002801D0022E03D0BF
:103490000022012E0AD00DE0287900F021FB237ACA
:1034A000024631461846FFF70FFF03E021882879CE
:1034B00000F01CFB002070BD1CB50E480C460279C4
:1034C000190A914214D1A17813290ED016290CD0D3
:1034D000C0886A46801C80B201A900F0FBFA0098FF
:1034E000228800780121FFF7EFFE2088FFF7FDFE1C
:1034F00000201CBDE81308007C270020A027002026
:10350000C427002004400000F8B514460F461E46AC
:103510000546428801880623204600F04BFA0446FF
:10352000287900F0DDFA208027716680204600F0BF
:1035300047FAF8BD70B51446428800790D4601027D
:103540000C310423274800F035FA002D01D0132157
:1035500000E012210170448000F032FA70BD0A8848
:103560000270120A42708A788270CA78C2700A7930
:1035700002714A79427189798171072070474278D6
:10358000037812021A430A8082788A70C278CA705D
:1035900002790A7142794A718079887107207047EF
:1035A00010B5FFF7B3FDFFF781FE10BD70B50646FD
:1035B00015460C46102000F03DF9022805D1E2B274
:1035C00010232946304600F097FA1C2000F032F90B
:1035D000022805D1E2B21C232946304600F08CFABD
:1035E00070BD00000D300000024670B54A40D30F98
:1035F000DB0740002DD04A002AD0010E140E091915
:1036000000021202400A520A8418E501044654439B
:10361000000A120A2E045043A4194219200CC54373
:10362000AA18120C01257F39521CAD03521912043D
:10363000240400D0521C104301D44000491EC2B2E1
:103640000C06C0092018401C4008802A02D003E064
:10365000002070BD40084000002900DA0020184317
:1036600070BD70B502464A40D50F40004A00ED07D4
:1036700040085208002814D0002A12D0C40DD30DDF
:1036800041020120C0055202490A520AE41A0918EF
:1036900012187D34914201D3641C00E04900002CD3
:1036A00001DA002070BD0023914201D3891A03433F
:1036B000400849000028F7D100290AD0914202D1E0
:1036C0000121C90705E0914201D2012101E0012158
:1036D000C943E005C018401900F058F870BD420019
:1036E00005D04200120E52428A4201DB0020704790
:1036F000C9050818704710B500229623114600F03E
:103700004DF810BD410040020122400AD205090EC9
:1037100080187F2901DA00207047962903DC962261
:10372000511AC8407047963988407047C20FD20777
:10373000400040080BD0C10D0723DB01C91840022F
:103740000905400A1143C208400711437047002091
:1037500001467047CB0FDB07490010B54908024608
:103760000A4307D00A0D07240903E401090B121BC1
:10377000002A01DC002010BDC900440F0C43C10029
:10378000E018D205801800F001F810BD002904DA15
:10379000401C490001D140084000704770B400242B
:1037A000050C05D11024000402D1002922D01124D7
:1037B000050E01D108340002050F01D1241D0001BE
:1037C000850F01D1A41C8000002801DB641C40008F
:1037D000002908D020252E1B0D46F540A14000D021
:1037E0000121294308431B1B0106DB1D000A002B96
:1037F00002DA002070BC7047DB0518188018002919
:10380000F8DA401C4900F5D170BC40084000704710
:10381000064C0125064E05E02046E36807C82B4309
:1038200098471034B442F7D3FEF7A6F95028002089
:103830007028002003B40148019001BDAD240300AD
:1038400003B40148019001BD431D020003B40148C7
:10385000019001BD238E020003B40148019001BD17
:103860002924030003B40148019001BD9D1B0200FF
:1038700003B40148019001BD6F39030003B401484E
:10388000019001BDDF29030003B40148019001BD8F
:10389000032B030003B40148019001BD218D0200F8
:1038A00003B40148019001BD7B1B020003B4014831
:1038B000019001BDF92B030003B40148019001BD43
:1038C000BD1E030003B40148019001BD012C03009B
:1038D00003B40148019001BD7F65020003B40148B3
:1038E000019001BD1B30030003B40148019001BDEC
:1038F0006B30030003B40148019001BD8F1F03002A
:1039000003B40148019001BD0739030003B4014825
:10391000019001BDF539030003B40148019001BDD8
:10392000672D030003B40148019001BDAB8C020078
:1039300003B40148019001BDDF89020003B40148CE
:10394000019001BD598C020003B40148019001BDF2
:103950007B64020003B40148019001BD8D64020044
:1039600003B40148019001BD8139030003B401484B
:10397000019001BD3DA4020003B40148019001BDC6
:103980000FB0020003B40148019001BDA3A20200E0
:1039900003B40148019001BDFBA2020003B4014839
:1039A000019001BD99A2020003B40148019001BD3C
:1039B0006B96020003B40148019001BD7D21030014
:1039C00003B40148019001BDAD21030003B40148D7
:1039D000019001BDD939030003B40148019001BD34
:1039E0002D1E030003B40148019001BD2D270300E3
:1039F00003B40148019001BDF18D020003B40148F8
:103A0000019001BD1B65020003B40148019001BD96
:103A1000452A030003B40148019001BD61C50200BD
:103A200003B40148019001BD9D2A030003B401487D
:103A3000019001BD0B91020003B40148019001BD4A
:103A4000132D030003B40148019001BDED1B0200DA
:103A500003B40148019001BDFB2A030003B40148EF
:103A6000019001BD6F62020003B40148019001BDE5
:103A70005F62020003B40148019001BD198A02008F
:103A800003B40148019001BDE78C020003B4014872
:103A9000019001BDB339030003B40148019001BD99
:103AA0006B23030003B40148019001BD9D990200FE
:103AB00003B40148019001BD619C020003B40148B8
:103AC000019001BD8B98020003B40148019001BD33
:103AD0005FE1020003B40148019001BDC3980200F8
:103AE00003B40148019001BD8BE1020003B4014819
:103AF000019001BD23AD020003B40148019001BD56
:103B00003DE1020003B40148019001BDF13B030017
:103B1000FFB581B00C4605460A461F46012000212C
:103B20000A9EFFF7EFFF2A01FFF7ECFF0C4B1A6824
:103B30005B6810401940084300D100BE002E2146AA
:103B4000284602D000F00EF801E000F02DF83B46C8
:103B500021462846039A00F049F805B0F0BD000060
:103B60002890002070B504460D460A460120002129
:103B7000FFF7C8FF2201FFF7C5FF094A1368526823
:103B800018401140084300D100BE032C00D104248A
:103B90000449600140180121A940418070BD000026
:103BA000289000200030005070B504460D460A46AB
:103BB00001200021FFF7A6FF2201FFF7A3FF094A1A
:103BC0001368526818401140084300D100BE032C0E
:103BD00000D104240449600140180121A9408180DA
:103BE00070BD00002890002000300050F8B5164647
:103BF00004460D460A461F4601200021FFF782FFBA
:103C00002201FFF77FFF094B1A685B6810401940DB
:103C1000084300D100BE032C00D1042404496001F4
:103C20004018690008183E43C680F8BD289000205F
:103C300000300050FEB50020214E0346282200210E
:103C4000424392198C00491C13510A29FADB401C8B
:103C50000428F3DBFEF7A4FA1948002208380260B2
:103C600042601546002417486900475A0120A040C9
:103C700080B207421CD0282068438019A100405818
:103C8000411C19D0002810D0C1172246FFF73AFF77
:103C90002A01FFF737FF0A4B083B1A685B6810439D
:103CA000074A1943083A10605160641C0A2CDDDB96
:103CB0006D1C042DD6DBFEBD0095019400BEE3E72C
:103CC000309000201026002002E008C8121F08C112
:103CD000002AFAD170477047002001E001C1121F8D
:103CE000002AFBD170470000FFFF0000A50500205F
:103CF00002FC0000958F020003FC0000A18F02006F
:103D0000CD130020000000000101000A04280A046D
:103D10000203AA0055032A00A001FFFF2C010000A6
:103D2000F71200200F130020D3120020EB12002006
:103D3000FF003F00FF03FF01002801000200020016
:103D4000FC2600200328010005000500FE260020B7
:103D5000292A0100120000000000000003280100D1
:103D60000500050003270020242A0100120000009E
:103D700000000000032801000500050008270020BE
:103D8000252A0100120000000000000003280100A5
:103D9000050005000D270020272A01001200000061
:103DA0000000000003280100050005001227002084
:103DB000262A010012000000000000000328010074
:103DC0000500050017270020282A01001200000026
:103DD0000000000003280100050005001C2700204A
:103DE000232A010008000000000000000328010051
:103DF00005000500212700202A2A010012000000EA
:103E0000000000000328010005000500262700200F
:103E1000502A010007000000000000000A180200FC
:103E200000292A020100242A020200252A02030096
:103E3000272A020400262A020500282A0206002357
:103E40002A0207002A2A020800502A005C270020C4
:103E500074270020E6130800030001000070000032
:103E6000911A002002700000E71A00200370000081
:103E7000311B0020033800006B1B00203C27002072
:103E800001000000442700200200000000000000A4
:103E9000000000005427002001000000002801005D
:103EA00002000200E82700200328010005000500A9
:103EB000EA270020062A0900010000000000000097
:103EC0000028010002000200F02700200328010062
:103ED00005000500F2270020062A08000100000066
:103EE000000000000028010002000200F827002066
:103EF0000328010005000500FA270020072A010019
:103F0000010000000000000003180A0000062A005B
:103F10000218040000062A000418020000072A0004
:103F20003028002048280020F41308000300010076
:103F300003400000351C002000400000C31C00208E
:103F40000E3000002F1D002003380000991D0020B6
:103F500010280020010000001828002001000000A7
:103F60002028002001000000282800200100000077
:103F70008828002020900020B0000000B8250020F4
:103F800008090800F8130800081C0000B8250020E4
:103F9000C825002003000000000000007028002059
:103FA0002006080002000100C83F00200080002019
:103FB0001C000000E4000020E43F00201C800020E2
:103FC000840700000001002000E1F505000000006A
:103FD00000000000000000000000000000000000E1
:043FE00000000000DD
:04000005200000A136
:00000001FF
