:100000000206B2C2AFF508614AFFFFC2AFF5086150
:100010005CFFFFC2AFF508616EFFFFC2AFF508617C
:1000200080FFFFC2AFF5086192FFFFC2AFF5086124
:10003000A4FFFFC2AFF50861B6FFFFC2AFF50861CC
:10004000C8FFFFC2AFF50861DAFFFFC2AFF5086174
:10005000ECFFFFC2AFF50861FEFFFFC2AFF50881FC
:1000600010FFFFC2AFF5088122FFFFC2AFF5088184
:1000700034FFFFC2AFF5088146FFFFC2AFF508812C
:1000800058FFFFC2AFF508816AFFFFC2AFF50881D4
:100090007CFFFFFF758701002274F712057FE9FEE0
:1000A000750A00750B08780A1206837C807D017A38
:1000B000007B001204927402120640900186E0F563
:1000C0000AA3E0F50B7409780A120694E50A2EF5E6
:1000D0000A74016E7006743D250AF50A53B4F3756F
:1000E000BC0075BC007CFC7D077A047B00EEF91235
:1000F00002BC74012EFFC3950A501B74086F700276
:100100007F457C007D087A007B00EFF91202BC0F6E
:10011000EFC3950A40E5E5BDF9E5BCFAE9FB7F02CE
:100120000205E574F612057F890CEAFEEBFF53BE6B
:10013000FBE59DA2E650FAE5C654804449F5C6E5C4
:100140009E547F644970F853C67FE59EA2E740FA4B
:1001500053C680E59E547F70FA43BE04906270746B
:1001600008F01200998E828F83E0F8A3E0F9EA6824
:100170007002EB6970498E828F83A3A3E8F0A3E934
:10018000F08E828F8374FFF0A3F07409F5D575D4D7
:1001900080750A01750B00780A120683EEFCEFFDEC
:1001A000850C0A7409780A120670FAAB0B1205194D
:1001B0007402120640C2AF75C9AB75C95B80FE7F81
:1001C000030205E574FC12065A750A04750B0078E3
:1001D0000A12068374021206CEAC82AD837A007BCB
:1001E0000079081204927402120640851A82E0F423
:1001F0007003A3E0F4603C851A82851B83E0F8A3BA
:10020000E0F9E849602D74021206CEE0687003A39D
:10021000E0697010750901024030C2AF75C9AB7555
:10022000C95B80FE851A82851B83AA82AB8379080D
:10023000120123780A12068374021206CEAC82AD34
:10024000837A007B007901120492740212064085C1
:100250001A82E0F47003A3E0F46051851A82851BD2
:1002600083E0F8A3E0F9E849604274021206CEE0A8
:10027000F8A3E0F9851A82851B83E0687003A3E088
:10028000697010750900020830C2AF75C9AB75C935
:100290005B80FE74FF68700374FF69700F851A82BB
:1002A000851B83AA82AB83790112012343BE03120B
:1002B0000094C2AF75C9AB75C95B80FE74F71205B7
:1002C0007FE9FEE5C7FF740F5EF50A750B00740B3E
:1002D000780A120670EA2400F8EB350BF9E82400DE
:1002E000E93480F9A2AFE433F50AC2AFEEC4540F8B
:1002F000FAE5C754F84AF5C7E9900980F0E8A3F099
:10030000A37470F0A374BDF0EC900985F0EDFC903F
:100310000984E054E04CF09009867420F0A3744204
:10032000F07409F5D575D48075D601000000000081
:1003300000000000000075D701E5D7A2E040FA8F69
:10034000C7E50AA2E092AF02011EE5096007E508D1
:10035000D2AF024033E508D2AF020833E5096007A7
:10036000E508D2AF02403BE508D2AF02083BE50901
:100370006007E508D2AF024043E508D2AF02084368
:10038000E5096007E508D2AF02404BE508D2AF02AD
:10039000084BE5096007E508D2AF024053E508D2F3
:1003A000AF020853E5096007E508D2AF02405BE5FC
:1003B00008D2AF02085BE5096007E508D2AF02404A
:1003C00063E508D2AF020863E5096007E508D2AF2C
:1003D00002406BE508D2AF02086BE5096007E5084B
:1003E000D2AF024073E508D2AF020873E509600797
:1003F000E508D2AF02407BE508D2AF02087BE509F1
:100400006007E508D2AF024083E508D2AF02088357
:10041000E5096007E508D2AF02408BE508D2AF02DC
:10042000088BE5096007E508D2AF024093E508D2E2
:10043000AF020893E5096007E508D2AF02409BE5EB
:1004400008D2AF02089BE5096007E508D2AF024079
:10045000A3E508D2AF0208A3E5096007E508D2AF1B
:100460000240ABE508D2AF0208ABE5096007E5083A
:10047000D2AF0240B3E508D2AF0208B3E509600786
:10048000E508D2AF0240BBE508D2AF0208BB0002CC
:10049000048E74F512057F890A740F550AF50C75E0
:1004A0000D00740B780C120670EA2400F8EB34800F
:1004B000F9E82400E9350DF9E5C7F50BA2AFE433FF
:1004C000F50CC2AFE50AC4540FFAE5C754F84AF573
:1004D000C7740B1206CEE0FEA3E0FFEE4F602CEED9
:1004E000FAEFFB88828983E08C828D83F088828991
:1004F00083A3A882A9838C828D83A3AC82AD83EA77
:1005000024FF1AEB34FFFBEA4B70D8850BC7E50CD0
:10051000A2E092AF7F040205E574F712057FED902B
:100520000980F0ECA3F0A37462F0A37473F0A3E06D
:10053000541FF074091206CEE0F50AA3E0F50BE5AE
:100540000A333354FC900985F07406780A12069435
:10055000E50A900984F09009867412F0A37442F0C1
:1005600053D1FE75D601EA906271F0EBA3F0906270
:1005700070E0D2E1F0E0A2E740FB7F020205E52552
:100580001AC582C0E0E51B34FFC583C0E0E51AC38D
:10059000958224F910AF0885831B85821A8008850F
:1005A000831B85821AD2AFCEF0A3E520F0A3780A90
:1005B000E608F0A3DEFAEFF0A3E58124FBF8E608F5
:1005C000F0A3E608F0A30808E608F0A3E608F0A305
:1005D00015811581D0E0FED0E0F815811581E8C0C5
:1005E000E0EEC0E022851B83851A82E0A3FEE0A333
:1005F000F520780AE0A3F608DFFAE0A3FFE0A3C045
:10060000E0E0A3C0E0E0A3C0E0E0A3C0E010AF08DA
:1006100085821A85831B800885821A85831BD2AF49
:10062000D083D08222251AF58210AF08F51A400235
:10063000151B8008F51A4002151BD2AF851B8322BB
:10064000C0D0251A10AF08F51A5002051B8008F516
:100650001A5002051BD2AFD0D022251A10AF08F5D0
:100660001A4002151B8008F51A4002151BD2AF2252
:10067000700422600D18C6C333C608C633C6D5E061
:10068000F4182274028000C0E0F404120625D0E0C1
:100690001206C122600C08C6C313C618C613C6D5FD
:1006A000E0F4221206DDB900030206AC1201C41206
:1006B00006D875D00075813F751A80751B0102063A
:1006C000A3CAC0E0E6F0A308DAFAD0E0FA22251ABD
:1006D000F582E4351BF5832200000080FB790122BE
:1006E000FFFFFFFFFFFFFFFFFFFFFFFFFFFFFFFF1A
:1006F000FFFFFFFFFFFFFFFFFFFFFFFFFFFFFFFF0A
:10070000FFFFFFFFFFFFFFFFFFFFFFFFFFFFFFFFF9
:10071000FFFFFFFFFFFFFFFFFFFFFFFFFFFFFFFFE9
:10072000FFFFFFFFFFFFFFFFFFFFFFFFFFFFFFFFD9
:10073000FFFFFFFFFFFFFFFFFFFFFFFFFFFFFFFFC9
:10074000FFFFFFFFFFFFFFFFFFFFFFFFFFFFFFFFB9
:10075000FFFFFFFFFFFFFFFFFFFFFFFFFFFFFFFFA9
:10076000FFFFFFFFFFFFFFFFFFFFFFFFFFFFFFFF99
:10077000FFFFFFFFFFFFFFFFFFFFFFFFFFFFFFFF89
:10078000FFFFFFFFFFFFFFFFFFFFFFFFFFFFFFFF79
:10079000FFFFFFFFFFFFFFFFFFFFFFFFFFFFFFFF69
:1007A000FFFFFFFFFFFFFFFFFFFFFFFFFFFFFFFF59
:1007B000FFFFFFFFFFFFFFFFFFFFFFFFFFFFFFFF49
:1007C000FFFFFFFFFFFFFFFFFFFFFFFFFFFFFFFF39
:1007D000FFFFFFFFFFFFFFFFFFFFFFFFFFFFFFFF29
:1007E000FFFFFFFFFFFFFFFFFFFFFFFFFFFFFFFF19
:1007F000FFFFFFFFFFFFFFFFFFFFFFFFFFFFFFFF09
:100800008CE1FFFF6A00007A41414141FFFFFFFF99
:10081000FFFFFFFFFFFFFFFFFFFFFFFFFFFFFFFFE8
:10082000000102030405060708090A0BFFFFFFFF8A
:10083000020C61021F47FFFFFFFFFFFFFFFFFFFFEB
:10084000FFFFFFFFFFFFFFFFFFFFFFFFFFFFFFFFB8
:10085000FFFFFFFFFFFFFFFFFFFFFF0226DEFFFF9F
:10086000FFFFFF0226C9FFFFFFFFFFFFFFFFFFFFA4
:10087000FFFFFFFFFFFFFFFFFFFFFFFFFFFFFFFF88
:10088000FFFFFF021FBAFFFFFFFFFFFFFFFFFFFF9A
:10089000FFFFFFFFFFFFFFFFFFFFFF02267BFFFFC2
:1008A000FFFFFFFFFFFFFFFFFFFFFF0226A3FFFF8A
:1008B000FFFFFF021DB301FF0000B4000028002865
:1008C00000283075A000A000A000A00000080008CB
:1008D000E001F000100010001000100010001000E7
:1008E00050005000500010001000D0070000000021
:1008F00000000F0001000500307507001000010026
:1009000081FF00000000FF00291E290629FF0202C6
:100910000208025000A0000000E803023882010033
:10092000001A82023482010000390F023E82010067
:1009300000B2020234820100003A0F024682010036
:1009400000C8020234820100003B0F025282010003
:1009500000CA020234820100003C0F0258820800E3
:1009600000CB020234820100003D0F0266820100CA
:10097000003E0FFF0100FF200238820100001D82AF
:10098000023482010000A20F026C8200000000000D
:10099000021E810300001803182F182F182F182F7C
:1009A000182F182F182F182F182F182F182F182F0F
:1009B000182FAC31C431A631FF1264FFFFFF02389B
:1009C000820100002382023482010000E40F025AF7
:1009D00082010000E50F021E810300006407FFFF93
:1009E0000A02388201000029820234820100000BD1
:1009F00010025482030000D6084445565F4E414D14
:100A0000454D474D545F42415469446F00FF020217
:100A10000202020238820100002F820234820100A9
:100A2000003910024E82010000268102348201004A
:100A3000003A10024C82010000DD080234820100FD
:100A4000003B10024A82010000EF080234820100DC
:100A5000003C1002488201000045810234820100FE
:100A6000003D10024082010000A180010101053F0C
:100A7000100A88130000900120030100580220038F
:100A8000B00401002003040969446F000000000065
:100A9000000000000000000000000000020106034A
:100AA00019000303020918CC350000D235A8350A15
:100AB0000238820100001782023482010000DA103D
:100AC000026E82030000020A1C0238820100002626
:100AD00082023482010000F3101050800200001DD9
:100AE0000A021E810300001F0A023282010000F286
:100AF00080023482010000F3101060800200001EAA
:100B00000A021E81030000250A0232820100000C45
:100B100081FFFFFF0001030201060000000000004A
:100B200000000000000000000000000000000000C5
:100B3000000000000000FFFF0600800CE8030A052B
:100B40000500003A37403746374C37523758375E42
:100B500037080238820100002C8202348201000032
:100B60007C11024482020000200BFFFFFFFFFFFF09
:100B700001201A0A1E0002002C0102388201000026
:100B800020820234820100009C11025E820000007B
:100B9000BD0E021E81030000CA0E02348201000055
:100BA0009D11026082030000D00E021E810300002E
:100BB000DC0E0234820100009E11026282030000FA
:100BC0009F11026482010000A111E5C754F8440599
:100BD000F5C779012200000080FB120BCAB900039F
:100BE000020C4BE479217808B800028004F709D898
:100BF000FCE479297802B800028004F709D8FCE403
:100C00009002807863790D8002F0A3D8FCD9FA783D
:100C10001C9008B67A01BA00028007E493A3F60894
:100C2000DAF9900EE2AA82AB839008B778147904BF
:100C30008015E493A3AC82AD838A828B83F0A3AA50
:100C400082AB838C828D83D8E9D9E77582C975839D
:100C5000D57407120C737582D575830B7400120C52
:100C60007375D00075813F751A80751B02759F00E2
:100C7000020BDAC09FF59FE473D09F22D083D0820D
:100C8000C09FE493C0E0740193C0E0740293F59FA9
:100C900022E066701008A3E066700A08A3E06670A0
:100CA0000408A3E06622C3E7960809E7960809E767
:100CB000960809E79622C3E09608A3E09608A3E009
:100CC0009608A3E09622C00AC3E096F50A08A3E0BE
:100CD00096420A08A3E096420A08A3E096450A70E5
:100CE00001D3D00A22080808E630E7111212F712E1
:100CF0000CFD080808C64480C618181822181818D1
:100D0000E9799EC608CAC608CBC608CCC6C37020FF
:100D10007996CACBCC7019798ECBCC70137986CCEE
:100D2000700EF9802ACA33CACB33CBCC33CC3319FB
:100D300030E7F2CCCBCA3350147004EA30E00DE453
:100D4000CA3ACACB3BCBCC3CCC500209C3E913C650
:100D5000CC182313C6CB18C6CA18C6F922120D9D8B
:100D600020F01430E72B74FFFCFBFA747F8022E440
:100D7000FCFBFA7480801AB48008BC00F2BB00EF60
:100D8000800F50EBF9E4C39AFAE49BFBE49CFCE48B
:100D900099C6CC18C6CB18C6CA18C6F922E4C9C66B
:100DA00008CAC608CBC6D3330308CCC63392F0C3F7
:100DB000947F402E94184019C9B90704CACBCC229D
:100DC0005025C309CA33CACB33CBCC33CC33D9F487
:100DD00022F4600DC9CCC313CB13CBCA13CAD9F606
:100DE000CC22E4FCFBFA2214FCFBFA22E6C3331803
:100DF000461846184622E7C33319471947194722B0
:100E0000181818E6084608700AE608C3337005E6A5
:100E100033F4220822191919E7094709700AE7096A
:100E2000C3337005E733F4220922E6084608C313EA
:100E30004608336002E633F422E7094709C3134743
:100E400009336002E733F42200120E2A604F120EBB
:100E5000396012E7548066F6120E007011120DF61A
:100E6000703B090909F4F618F618F618F622120E66
:100E7000157015120DEC08080860EAE6447FF618B4
:100E8000768018E4F618F622120DEC6016120DF6B4
:100E90007012E4F608F608F608E65480F609090927
:100EA00018181822EAC0E0EBC0E0ECC0E0EDC0E0AA
:100EB000E687F0A4FBACF008E687F0A42CFCE43550
:100EC000F0FA1809E687F0A42C4B60027401CA35C9
:100ED000F0FCE433FB09E687F0D2F7A42CCB35F025
:100EE000FC1908E687F0A42BCC35F0FBE433FD08B1
:100EF00019E687F0D2E7A42C4ACB35F0CD3400FCBC
:100F000009E687F0D2E7A42DCC35F0FDE433FA09E9
:100F100018E687F0D2F7A42CCD35F0CA3400FC08CF
:100F2000E687F0D2E7D2F7A42ACC35F07A7E20E724
:100F30000B0ACB33CBCD33CDCC33CC33CB335014A6
:100F40007004ED30E00ED2F1E4CD3DCDCC3CCC3B95
:100F50005005DA05C2F1EB547FC63308E63392F050
:100F6000FBE73309E733C39A502D2B70190C0D4C56
:100F70004D70151806E608C333700D20F10AA2F073
:100F800013F6E418800B4024E4F630F00276801863
:100F9000F618F618F68024D33B14501074FFA2F014
:100FA00013F6187680E418F618F6800FA2F013F600
:100FB00018E63303F618ECF618EDF6D0E0FDD0E0B5
:100FC000FCD0E0FBD0E0FA22120E396046120E2A65
:100FD000603DE9687008F618F618F618F622748075
:100FE00067F7120FFC090909748067F722120E2AAD
:100FF000601D120E397005191919801A120E007031
:101000001F120E15C37003E667331919194007182C
:1010100018182208080874FFF618F618F618F622B1
:10102000120E156017120DF6702192F0120DEC7071
:1010300019501720F014080808090909E7F61819CB
:10104000E7F61819E7F61819E7F622120DEC60E634
:10105000E869701F0808E62480F608E436F618549C
:101060007FB47F0CE654806007F6E418F618F62289
:10107000181822E9C6CC08C6CD08C6CE08C6CFC00F
:10108000E0E8C0E0EAC0E0EBC0E009E9F809E7FA0F
:1010900009E7FBE6F918E6F8C3EC98ED99EE9AEB50
:1010A000C2E7F5F0EFC2E795F0500E600CEBCFFB16
:1010B000EACEFAE9CDF9E8CCF8EAA2E7D2E7FAEB12
:1010C00033FB13F5F0EEA2E7D2E7FEEF33FFC5F0F6
:1010D00013A2E730E601B313C5F0C3C0E0C0F07F50
:1010E00000C39BFB605E9418600F401D14601AD013
:1010F000E023F9D0E0F80211CE8AF0E9486003D28B
:10110000F0E4AFF0FAF9F8803BEB30E40D89F0EA57
:101110006003D2F0E4AFF0F9CAF8EB30E30D88F0E9
:10112000EF6002D2F0AFF0E4CAC9F8EB54076014E4
:10113000FBC3EA13FAE913F9E813F8EF135002D2EC
:10114000E0FFDBEDD0E0C0E030E739C3E49FFFF51E
:10115000F0EC98FC42F0ED99FD42F0EE9AFE42F080
:10116000D0E0F9D0E0F8E5F0607AE923F9EE20E785
:1011700042D8028067C3EF33FFEC33FCED33FDEE62
:1011800033FE80EAEC28FCED39FDEE3AFED0E02398
:10119000F9D0E0F84002801BC3EE13FEED13FDEC26
:1011A00013FCEF135002D2E0FF08B800067F7F74F3
:1011B000FF802EEF3350178CF020F00260100CBC33
:1011C000000C0DBD00080EBE000408E860DFE93326
:1011D000E813FFEE2313FE4F4D4C8008E95480FFC7
:1011E000E4FEFDFCEE33EF33F47004FCFD7E80D0B2
:1011F000E0FBD0E0FAD0E0F8D0E0CFC618CEC618B9
:10120000CDC618CCC6F922080808EAC0E0EBC0E059
:1012100086F0E7A4FA180986F0E7A42AFA180986E6
:10122000F0E7A42AFA180986F0E7A42AFA1986F04A
:10123000E7A4FBE5F02AFA190886F0E7A42BFBE502
:10124000F03AFA190886F0E7A42BFBE5F03AFA1811
:10125000180986F0E7A4C5F02BFBE43AFA1908E771
:10126000C5F0C6A426F6E5F03BFBE43AFA1886F092
:10127000E7A4F6E5F00826F6E43B08F6E43A08F6BB
:10128000D0E0FBD0E0FA22E4CFC0E0E4CEC0E0E45E
:10129000CDC0E0E4CCC0E075F020C3E633F608E64C
:1012A00033F608E633F608E633F6181818EC33FC84
:1012B000ED33FDEE33FEEF33FFC3EC9709ED9709F5
:1012C000EE9709EF97191919400FFFEC97FC09EDFC
:1012D00097FD09EE97FE191906D5F0BEECF709ED5A
:1012E000F709EEF709EFF7191919D0E0FCD0E0FD86
:1012F000D0E0FED0E0FF22181818E4C396F608E408
:1013000096F608E496F608E496F6226016080808B1
:10131000C6C313C618C613C618C613C618C613C646
:10132000D5E0EA227009080808226016181818C6C5
:10133000C333C608C633C608C633C608C633C6D5C7
:10134000E0EA22E627F60809E637F60809E637F666
:101350000809E637F622E026F608A3E036F608A3E9
:10136000E036F608A3E036F622E026F008A3E036E1
:10137000F008A3E036F008A3E036F022C3E697F6C3
:101380000809E697F60809E697F60809E697F622AF
:10139000C3E0C696F608A3E0C696F608A3E0C69694
:1013A000F608A3E0C696F622C3E096F008A3E096FE
:1013B000F008A3E096F008A3E096F022E657F608BE
:1013C00009E657F60809E657F60809E657F622E057
:1013D00056F608A3E056F608A3E056F608A3E05632
:1013E000F622E056F008A3E056F008A3E056F00815
:1013F000A3E056F022E046F608A3E046F608A3E094
:1014000046F608A3E046F622E0F608A3E0F608A3B5
:10141000E0F608A3E0F622E6F008A3E6F008A3E66B
:10142000F008A3E6F022E0FAA3E0FBA3E0FCA3E0CF
:10143000FD22EAF0A3EBF0A3ECF0A3EDF022CAC08A
:10144000E0E6F0A308DAFAD0E0FA22CAC0E0E0A3AE
:10145000C582CCC582C583CDC583F0A3C582CCC56A
:1014600082C583CDC583DAE6D0E0CA22C3E498F80A
:10147000E499F91214AD8026C3E49AFAE49BFBE9DF
:1014800020E7E91214ADE498F8E499F922C3E4984E
:10149000F8E499F91214ADE498F8E499F9C3E49AE0
:1014A000FAE49BFB22EB20E7CFE920E7E0B900104C
:1014B000BB0008E88AF084F8AAF022E4FBC8FA220C
:1014C000EB70227B10C833C8C933C9335007C39AA5
:1014D000C3DBF280069A50012ADBEAC833F4C8C99C
:1014E00033F4C9FA2275F008E4C833C8C933C933E4
:1014F000C99AC99B5004C92AC93BD5F0ECFBC83333
:10150000F4C8E4C9FA22600D08C6A2E713C618C6DB
:1015100013C6D5E0F322600C08C6C313C618C61361
:10152000C6D5E0F422700422600D18C6C333C60885
:10153000C633C6D5E0F41822251A10AF08F51A40B4
:1015400002151B8008F51A4002151BD2AF22C0D02D
:10155000251A10AF08F51A5002051B8008F51A501D
:1015600002051BD2AFD0D022251AF58210AF08F5A4
:101570001A4002151B8008F51A4002151BD2AF85D0
:101580001B8322251AF582E4351BF58322E473259B
:101590001AC582C0E0E51B34FFC583C0E0E51AC36D
:1015A000958224F810AF0885831B85821A800885F0
:1015B000831B85821AD2AFCEF0A3E520F0A3780A70
:1015C000E608F0A3DEFAEFF0A3E58124FAF8E608D6
:1015D000F0A3E608F0A3E608F0A30808E608F0A3E5
:1015E000E608F0A315811581D0E0FED0E0F8158162
:1015F00015811581E8C0E0EEC0E022251AC582C041
:10160000E0E51B34FFC583C0E0E51AC3958224F9E9
:1016100010AF0885831B85821A800885831B85820D
:101620001AD2AFCEF0A3E520F0A3780AE608F0A323
:10163000DEFAEFF0A3E58124FBF8E608F0A3E60864
:10164000F0A30808E608F0A3E608F0A315811581C9
:10165000D0E0FED0E0F815811581E8C0E0EEC0E0F2
:1016600022851B83851A82E0A3FEE0A3F520780A79
:10167000E0A3F608DFFAE0A3FFE0A3C0E0E0A3C028
:10168000E0E0A3C0E0E0A3C0E0E0A3C0E010AF084A
:1016900085821A85831B800885821A85831BD2AFB9
:1016A000D083D082020C79851B83851A82E0A3FE49
:1016B000E0A3F520780AE0A3F608DFFAE0A3FFE054
:1016C000A3C0E0E0A3C0E0E0A3C0E0E0A3C0E0105E
:1016D000AF0885821A85831B800885821A85831B43
:1016E000D2AFD083D0822274048006740280027448
:1016F00001C0E0F404121568D0E012143E22740414
:10170000800474028000CCC0E0EDC0E0E51AC39C08
:10171000CCAD1B50011D10AF068C1A8D1B80068CA2
:101720001A8D1BD2AF12144BD0E0FDD0E0FC22D0BA
:1017300083D082E9C0E0E493A3C386F0C5F095F0BE
:10174000F908E493A386F0C5F095F0700BE493A339
:10175000C3994005E9048002A3E475F002A4258240
:10176000F582E5F03583F583D0E0F9E493A3C0E09A
:10177000E493C0E022D083D082ECC0E0EDC0E0E48E
:1017800093A3FCE493A3FDED4C600D1217C1EC2470
:10179000FFFCED34FFFD80EFE493A3FCE493A3FD95
:1017A000ED4C600D121800EC24FFFCED34FFFD80C1
:1017B000EFD0E0FDD0E0FCE493A3C0E0E493C0E010
:1017C00022C0E0C3E49396087401939618400FE496
:1017D0009366700808740193661870007019A3A3CB
:1017E000C3E49396087401939618A3A3400DD0E028
:1017F000D0E0D0E00217B1A3A3A3A3A3A3D0E0221B
:10180000C0E0C0F088F0E493667008087401936645
:10181000187000A8F0A3A3700BD0F0D0E0D0E0D0F7
:10182000E00217B1A3A3D0F0D0E022FF74F51215A7
:10183000FBEAFEEBFFEE2434F8EF3400F9880A8966
:101840000BEE2435F582EF3400F583E0F8EE243713
:10185000F582EF3400F583E0F50CEC850CF0A4FC88
:10186000AAF0850CF0EDA42AFDE82CF8E43DF97A05
:10187000257B001214ADEA850A82850B83F0F8748B
:101880000758F97401B900028004C333D9FCFAE89F
:10189000131313541FF8EE28F8EF3400F9E8245D11
:1018A000F582E93400F583E05A6008EE2434F582CD
:1018B000EF802CEE2434F582EF3400F583E0C0E0B5
:1018C000EE2436F582EF3400F583E0F5F0D0E084C5
:1018D000A8F0EE28F8EF3400F9E82438F582E9346E
:1018E00000F583E0F97F040216A774F51215FBEAF0
:1018F000FEEBFFEE2434F582EF3400F583E0C0E028
:10190000EE2435F582EF3400F583D0E0F08E828F3F
:1019100083A3A3A3A3A3A3A3C082C0838E828F8328
:10192000A3A3A3A3A3E0F8A3E0F9D083D082E0C3EC
:1019300098F50AA3E099F50BEE247FF582EF3400C9
:10194000F583E064017069EE2480F582EF3400F5E0
:1019500083E0F8A3E0F98E828F83A3A3A3A3A3A3BC
:10196000A3E0FCA3E0FD8E828F83A3A3A3A3A3E047
:10197000FAA3E0FBC3EA9CEB9D5010C3EC98ED99F1
:10198000402EC3EA98EB995027800EC3EA98EB9952
:101990004007C3EC98ED9940177CDB7D04EEFAEF2D
:1019A000FB122E76EE247FF582EF3400F583E4F00F
:1019B000EE2434F8EF3400F9E8FCE9FDEE2435F5C7
:1019C00082EF3400F583E0F8EE2437F582EF34003F
:1019D000F583E0F50CE50A850CF0A4F50AAAF0857C
:1019E0000CF0E50BA42AF50BE8250AF8E4350BF911
:1019F0007A257B001214ADEA8C828D83F0F874078F
:101A000058F97401B900028004C333D9FCFAE81311
:101A10001313541FF8EE28F8EF3400F9E8245DF5AD
:101A200082E93400F583E05A6008EE2434F582EF51
:101A3000802CEE2434F582EF3400F583E0C0E0EE34
:101A40002436F582EF3400F583E0F5F0D0E084A889
:101A5000F0EE28F8EF3400F9E82438F582E9340094
:101A6000F583E0F91226670218E5C082C083851A63
:101A700082851B83E0F8A3E0F9C3EA9CEB9D50103C
:101A8000C3EC98ED99401BC3EA98EB995014800E73
:101A9000C3EA98EB994007C3EC98ED9940047901AB
:101AA00080027900D083D08222EAC39CFAEB9DFBAE
:101AB0002274EF1215FB9003A1E064086005E06456
:101AC00007702A9061C8E060249003CFE0F4601DA5
:101AD000E0F875F003A4C8AAF02AF974D128FE74BE
:101AE0000339FF8E828F83A3A3A3E07003021BE15F
:101AF000906060E0C0E0EE2468F582EF3400F5838A
:101B0000D0E0F0750E44750F05750A00750B00E501
:101B1000D914F50CE5D95403F5106017740365105A
:101B2000605CE50C6010EE2467F582EF3400F5830D
:101B3000E07003021BC690053FE06401602AEE24BA
:101B400082F582EF3400F583E06004780480027847
:101B500000850C0AE50AC398FA95E0FB122D208A4D
:101B60000A8B0BEA450B700512307A8074EE2482E2
:101B7000F582EF3400F583E070048A0E8B0FE50CDC
:101B80006012850E82850F83F50DE5D9F0A3150D42
:101B9000E50D70F6EE2482F582EF3400F583E06007
:101BA0004474FC250CF50C780E1216EBAC0CA91045
:101BB000EEFAEFFB122F12740212154EE97026AAEC
:101BC0000AAB0B123662793D8E828F83A3A3A3A347
:101BD000E0FA7B00122BF4EEFAEFFB122E8E122F9E
:101BE0002479008074740365106056850C12751397
:101BF0000078121216EBAC0EAD0FAA0AAB0B122E28
:101C0000EE740212154EEE2468F582EF3400F5836F
:101C1000E064807004747F8001E0F50E780E121687
:101C2000EFE510F50E780E1216EFA90CAC0AAD0B0D
:101C30009003CFE0FA7B00122BB8740212154E808D
:101C4000139003A1E06408600BAC0EAD0FEEFAEF49
:101C5000FB122F7E12308679017F0A0216A774F5D7
:101C60001215FB74FC121538EAFEEBFF890AA2AFCD
:101C7000E433F50BC2AF806AEE2463F8EF3400F969
:101C80007A007B00A2AFE433F50CC2AF888289836F
:101C9000E0FCA3E0FDEC4D603A88828983E0FAA382
:101CA000E0FB8A828B83E0FCA3E0FD88828983ECE1
:101CB000F0A3EDF08A828B83E4F0A3F0888289831D
:101CC000E0FCA3E0FDEC4D700A88828983A3A3E4C5
:101CD000F0A3F0E50CA2E092AF1236629004E2E0CD
:101CE00004F0EE2463F582EF3400F583E0F8A3E01E
:101CF000F9E849603DEE2463F582EF3400F583E0B6
:101D00002402FAA3E03400FBEA2402F50CEB3400D1
:101D1000F50D780C1216EB8A828B83E0FCA3E0F9B8
:101D2000EEFAEFFB122EB2740212154EE9700302A6
:101D30001C789004E2E060639004E3E0F89004E231
:101D4000E0C398500C7402650A70509004E4E0609F
:101D50004A8E828F83A3A3A3A3E0851A82851B8367
:101D6000F0A3E4F09004E2E0F87402121583E8F0C6
:101D7000A3E4F09004E2E0F89004E1E028F07402BB
:101D8000121583AC82AD83851A82851B83AA82AB30
:101D9000837901122BC49004E2E4F0E50BA2E092F7
:101DA000AF740412154E0218E5FFFFFF85218785E9
:101DB00022C622C0E0C0D0E8C0E0E9C0E0EAC0E04E
:101DC000EBC0E0ECC0E0EDC0E0EEC0E0C00AC00B4C
:101DD000C00CC00DC082C083C0F0A2AFE433FEC20D
:101DE000AF759B00906182E0A2E05012E591A2E005
:101DF000500C7591FE740165217003121AB1E0A2B6
:101E0000E55051E591A2E5504B7591DF9003A1E0BB
:101E100064076005E06408702374016521703579FA
:101E2000019003CFE0FA75F003A4CAA8F028FB7470
:101E3000D12AFA74033BFB121C5E8018E0640D701B
:101E4000139003C3E004F064287002E4F07A00E029
:101E5000F912308C906182E0A2E64003021EFAE59E
:101E600091A2E64003021EFA7591BF9003A1E064BF
:101E7000057008122FB4122FC08003122FBA7521DB
:101E80000012301AE99003A2F0790012300E122DE0
:101E9000E07A017B009003A0E0F91232DE90780333
:101EA000E064427055900543E014F0704DC2AF12EB
:101EB0001EB200782AD0E0F618D0E0F6E59F54076D
:101EC0007005750BFF8003750B7FC4C0E07829E6B1
:101ED000F50A08E6550BF50B740B780A121516D0A7
:101EE000E0250AF8906270E0A2E740F8E8C333907A
:101EF0006272F0906270E0D2E0F0906181E0A2E363
:101F00005009E5E9A2E3500375E9F7A3E0A2E75021
:101F100009E591A2E7500375917FEEA2E092AFD060
:101F2000F0D083D082D00DD00CD00BD00AD0E0FE00
:101F3000D0E0FDD0E0FCD0E0FBD0E0FAD0E0F9D07A
:101F4000E0F8D0D0D0E032C0E0C0D0C082C08390F2
:101F50006183E0A2E05009E5BFA2E0500375BFFE37
:101F6000E0A2E15009E5BFA2E1500375BFFDE0A288
:101F7000E25009E5BFA2E2500375BFFBE0A2E350C7
:101F800009E5BFA2E3500375BFF7E0A2E45009E5FD
:101F9000BFA2E4500375BFEFE0A2E55009E5BFA280
:101FA000E5500375BFDFE0A2E65009E5BFA2E650A9
:101FB0000375BFBFD083D0828088C0E0C0D0E8C0A6
:101FC000E0E9C0E0EAC0E0EBC0E0ECC0E0EDC0E07A
:101FD000C0F0E5A7A2E6500FE5A1A2E6500953A77D
:101FE000BF75A1BF12201FE5A7A2E5500CE5A1A275
:101FF000E5500653A7DF75A1DFE5A7A2E15009E58B
:10200000A1A2E1500375A1FDE5A7A2E2500CE5A154
:10201000A2E2500653A7FB75A1FBD0F0021F30745B
:10202000F81215FB7521019003A1E06406701512EA
:102030002F428A828B83A3A3A3A3A3A3E0FAA3E0E6
:10204000FB122FA2A2AFE433FED2AF9003A7E0644D
:102050000170187A207B009003A0E0F912338C7A8B
:10206000207B009003A0E0F91232E4906182E0D27C
:10207000E6F0900540E0602185C62280169003A618
:10208000E064017008E5C654F84405F5C653BEFC8B
:10209000121DAC7401652160E4EEA2E092AF7F01F5
:1020A0000216A7FF8E238F24858228858327851A11
:1020B00082851B83E0CEA3E0CF852882852783EB32
:1020C000C9EAC8EDCBECCA75F010C3E833C8E933F0
:1020D000C9EA33CAEB33CBC3EA9EF526EB9FF5255D
:1020E000B35004AB25AA26EC33CCED33CDD5F0DAD2
:1020F000AE23AF242274E91215FB74F8121538854B
:102100001A82851B83ECF0A3EDF08A0A8B0B9003F7
:10211000A1E024F7C394055006750A0102228C122F
:102120002F428A0C8B0DAE0CAF0DEE4F70030222C6
:1021300089AC0AAD0B7402121583AA82AB83122FED
:10214000D28E828F83A3A3750EFF750FFF7510FFCC
:10215000751100780E1213CF74021215837512FFD9
:102160007513FF7514FF75150078121213CF780ED2
:102170007912120CA6502A780E791212137C750A65
:1021800001750BC8750C00750D00780A790E120CDC
:10219000A65052850E0A850F0B85100C85110D80F7
:1021A000507516017517C875180075190085120A43
:1021B00085130B85140C85150D780A790E12137C86
:1021C0007816790A120CA6401C750A00750B00756A
:1021D0000C00750D01780A791212137C780A790EB9
:1021E000121343800C750A01750B00750C00750DF8
:1021F000007409780A121324750E19F50FF510F5FD
:1022000011780A790E1212878E828F83A3A3A3A35B
:10221000A3A3E0F8A3E0F97AD07B031214AD880EF3
:10222000890FE4F510F511780A790E12134374063C
:10223000121583E0F8A3E0F97AD07B031214ADE81D
:10224000FA8A0EE4F50F780A790E120CA650077878
:102250000A790E12137C9003A1E06408600AE0641E
:10226000066005E06405702D750E0D780E790A1272
:102270000CA64021750EF4750FFF7510FF7511FF48
:10228000780A790E121343800C750A00750B0075DD
:102290000C00750D00851A82851B83E0F8A3E0F51C
:1022A000838882780A121417740812154E7F100260
:1022B00016A774F71215FB122FE490053EE0640197
:1022C0007010906245E4F0A3F053F4F343FE0C5316
:1022D00090F3122F90E5C654804449F5C6E59E540C
:1022E0007F644970F8906185740FF090053CE0F4CC
:1022F0007002A3E0604E90053DE0600814601B147E
:10230000602E8040750A01750B0090053CE0780A4C
:10231000121525E50AF45280802A750A01750B0012
:1023200090053CE0780A121525E50AF452908014D5
:10233000750A01750B0090053CE0780A121525E539
:102340000AF452A079007F020216A774F71215FB57
:10235000E9FEEAFF74016E700C7A807B009003A0A6
:10236000E0F91232DE903888E493F46008E493F9DF
:10237000122DD4800953C680E59E547F70FA122F27
:102380009690053EE064017003122DF890053CE044
:10239000F47002A3E0604B90053DE0600814601A01
:1023A00014602C803D750A01750B0090053CE078A7
:1023B0000A121525E50A42808028750A01750B006E
:1023C00090053CE0780A121525E50A4290801375C5
:1023D0000A01750B0090053CE0780A121525E50A04
:1023E00042A0122FE4122F428A0A8B0BA80AA90BD3
:1023F000E8496015E5E170FCE82414F582E9340051
:10240000F583E0F46003E0F5E174016F700A7A018E
:102410009003A0E0F912335C02234674ED1215FB21
:102420008A0A8B0B8C0C8D0D7413121583780E1287
:102430001408780A790E120CA67512017513C87566
:1024400014007515005012780A790E12137C781258
:10245000790A120CA650168010780E790A12137C95
:102460007812790E120CA640047901800279007F5F
:102470000C0216A774ED1215FB8A0A8B0B8C0C8DBF
:102480000D7413121583780E121408780E790A123F
:102490000CA64011780A790E12137CAA0AAB0BAC79
:1024A0000CAD0D80227512007513007514007515A2
:1024B000017812790E12137C7812790A121343AA4A
:1024C00012AB13AC14AD1580A68A828B83750AFFFC
:1024D000750BFF750CFF750D00780A1213E27F046F
:1024E0000216A774F51215FB8C828D83780A1214DC
:1024F000088A828B83780A1213A8EA2404F8EB3442
:1025000000F98C828D83A3A3A3A3E0FCA3E0FD8844
:10251000828983C3E09CF0A3E09DF088828983C315
:10252000E09420A3E0944E40268A828B83750AFFB4
:10253000750BFF750CFF750DFF780A1213698A82FF
:102540008B83A3A3A3A3E02420F0A3E0344EF002E6
:1025500024C974F51215FBE9FE9004F6E0FAA3E035
:10256000FBEEC333F8E433F974E228F58274803962
:10257000F583E02AF50AA3E03BF50B780A1216EB87
:102580007A407B427C0F7D001220A4740212154E0B
:102590008A0A8B0B8C0C8D0D7410780A12130BAAFF
:1025A0000AAB0B7F040216A774F11215FB8A0E8B7F
:1025B0000F8C108D11740F121583E0FAA3E0FB74D9
:1025C00011121583E0F50AA3E0F50B780A1216EB59
:1025D000EA2401F50AEB3400F50BE4F50CF50D786F
:1025E0000E790A121207750A71750B02780E790AB4
:1025F000121207AA0EAB0FAC10AD111220A4740278
:1026000012154E8B0BEA450B60047A0180027A00AA
:10261000EC2AFCED3400FD7413121583E0F8A3E0FE
:10262000F9E8FEE9FFECF8EDF97A717B021214ADDE
:10263000880A890B8E828F83780A121417ECF8EDC2
:10264000F97A717B021214AD8A0A8B0B7405780A31
:102650001215258E828F83A3A3A3A3E50AF0A3E519
:102660000BF07F080216A7C082C083E9906000F0DB
:10267000D083D08222C2AF02000022C0E0C0D0E8E6
:10268000C0E0E9C0E0E5A8F8D2AFE589758900C2ED
:10269000C5E8A2E7A2E792AFD0E0F9D0E0F8D0D049
:1026A000D0E032C0E0C0D0E8C0E0E9C0E0A2AFE4D2
:1026B00033F8D2AFE58AA2E64002E58A758A007552
:1026C0008A00C2EBE8A2E080CDC0E0C0D0E8C0E064
:1026D000E9C0E0E5A8D2AF758B00C2E880B4C0E0E5
:1026E000C0D0E8C0E0E9C0E0E5A8D2AFC2C7751C21
:1026F00000A2E7A2E792AFD0E0F9D0E0F8D0D0D0C6
:10270000E032120C7CD3C207120C7CEAC207120C16
:102710007C1BC307120C7C56C307120C7C80C307BA
:10272000120C7CAAC307120C7CC1C307120C7CD804
:10273000C307120C7CEFC307120C7C18C407120CE1
:102740007C2BC407120C7C41C407120C7C54C407B8
:10275000120C7C7BC407120C7CB0BE06120C7CB43D
:10276000BF06120C7CECBF06120C7C0FC006120CCC
:102770007C1AC006120C7C3DC006120C7C4CC106B3
:10278000120C7C21C206120C7C9CC206120C7C240A
:10279000C306120C7C5FC306120C7C96C306120C97
:1027A0007C24C406120C7CFDC406120C7C5DC5069C
:1027B000120C7C68C506120C7CE7C506120C7CEA7C
:1027C000C506120C7CEDC506120C7C7CC606120CEC
:1027D0007C7FC606120C7CAFC606120C7CD9C606DE
:1027E000120C7CC7C706120C7C79C806120C7C231D
:1027F0009507120C7C4B9507120C7C799507120CEF
:102800007CB09507120C7C0E9607120C7C5996072B
:10281000120C7CA49607120C7CE49607120C7C2AFE
:102820009707120C7C589707120C7C159807120C0E
:102830007C1F9807120C7C2C9807120C7C5F980761
:10284000120C7C2B9907120C7C379907120C7C4FC9
:102850009907120C7C599907120C7C12D107120CA3
:102860007C20D107120C7C38D107120C7C50D10788
:10287000120C7CCBCE05120C7C77CF05120C7CF2AF
:10288000CF05120C7C13D105120C7C4FD105120C14
:102890007CF8D105120C7CDFD205120C7C43D405E8
:1028A000120C7C9AD405120C7C1BD505120C7C0BE7
:1028B000D605120C7C58D605120C7CDED605120CFF
:1028C0007C10D705120C7C24D905120C7C66D90526
:1028D000120C7C84D905120C7C07DA05120C7CDB07
:1028E000DA05120C7CA3DB05120C7C8C3800120C70
:1028F0007C5F3900120C7C083A00120C7C5B3A00B9
:10290000120C7C0B3B00120C7C973B00120C7C835E
:102910003C00120C7CB23C00120C7CC53D00120C39
:102920007C0D3E00120C7CE23E00120C7C1E3F002F
:10293000120C7C3A3F00120C7C90D407120C7CC91C
:10294000AB07120C7CDFAB07120C7C05AC07120C3A
:102950007C21AD07120C7C2BAD07120C7C60AE07FE
:10296000120C7C58AF07120C7C008007120C7C30D4
:102970008107120C7CAA8107120C7CD68107120CED
:102980007CE98107120C7C338207120C7CFA8307E6
:10299000120C7C28EF04120C7C92EF04120C7CF1D8
:1029A000F004120C7C7BF104120C7C8BF104120CF1
:1029B0007CB8F104120C7C0FF204120C7CB8F20407
:1029C000120C7CBFF304120C7C89F404120C7CE919
:1029D000F504120C7C2CF604120C7CD1F604120CBB
:1029E0007C1EF704120C7C44F704120C7C52F90490
:1029F000120C7C57F904120C7C5CFB04120C7CA9B1
:102A0000FB04120C7C1CFC04120C7C4FFC04120C0A
:102A10007CF1FC04120C7C9AFD04120C7CD2FD04A7
:102A2000120C7CD5FD04120C7C1DFE04120C7C5D86
:102A3000FE04120C7CB4FE04120C7C5BB207120C78
:102A40007C73B207120C7CBBB207120C7CD1B207AC
:102A5000120C7C18B307120C7C2CB407120C7CB936
:102A6000B407120C7C04B507120C7C00A804120CED
:102A70007C0CA804120C7C47A804120C7C8CA804C3
:102A8000120C7C4CA904120C7CDBA904120C7C6196
:102A9000AA04120C7CC6AA04120C7CF2AA04120C22
:102AA0007C2BAB04120C7C69AD04120C7C4DAF0482
:102AB000120C7C33B104120C7C76B204120C7CC470
:102AC000B404120C7CD6B504120C7C21B704120C91
:102AD0007C31B804120C7C4EB804120C7C89B8040A
:102AE000120C7CABB804120C7C0EB904120C7CCF17
:102AF000BD04120C7C64BE04120C7CB5BE04120C26
:102B00007CDCBE04120C7C2EBF04120C7C4CBF0477
:102B1000120C7CA6BF04120C7CA5C004120C7C29EC
:102B2000C104120C7CAD8507120C7CB78507120C12
:102B30007CFA8507120C7C158607120C7CA586078B
:102B4000120C7CCD8607120C7C0A8707120C7C4184
:102B50008707120C7C6A8707120C7CDF8707120C30
:102B60007CF48707120C7C098807120C7C3A8807D2
:102B7000120C7C4E8807120C7C738807120C7CADFB
:102B80008807120C7CD98807120C7C078907120C65
:102B90007C528907120C7CB18907120C7C308A07A1
:102BA000120C7C5B8A07120C7CA48A07120C7CCE68
:102BB0008A07120C7CF98A07120C7C13CF07120CBF
:102BC0007CE99A06120C7C179B06120C7C659C060D
:102BD000120C7C459D06120C7C649D06120C7CE157
:102BE0009D06120C7C249E06120C7C7A9F06120C09
:102BF0007C3BA006120C7CC2A206120C7C63A306CE
:102C0000120C7C59A406120C7C56A506120C7CB042
:102C1000A606120C7C3BA706120C7C3CCB07120CC0
:102C20007CA5CB07120C7CF9CB07120C7C20CC07BF
:102C3000120C7C51CC07120C7C0FA307120C7C7C6D
:102C4000A307120C7CC3A307120C7CDBA407120C95
:102C50007CD7A507120C7CBAA607120C7CEAC80622
:102C6000120C7C2CC906120C7CFEC906120C7CD7F7
:102C7000CA06120C7CD1CB06120C7CB3CC06120C0B
:102C80007C1CCD06120C7CD2CD06120C7C46CE06E6
:102C9000120C7CB2CE06120C7CDBCE06120C7C55DC
:102CA000CF06120C7CEECF06120C7C53D006120C11
:102CB0007C68D006120C7CAED006120C7CC7D00605
:102CC000120C7C2CD106120C7C2FD106120C7C62CB
:102CD000AF07120C7C8AAF07120C7CC8AF07120C2E
:102CE0007C86B007120C7CEDB007120C7C09B10792
:102CF000120C7C31B107120C7C61B107120C7C7094
:102D0000B107120C7CEDB107120C7C13B207120C48
:102D10007CBFBD05120C7C9DBF05120C7CCFC1058C
:102D2000120C7C0BC205120C7C38C205120C7C22E2
:102D3000C305120C7C6DC305120C7CB8C305120CC4
:102D40007CCAC305120C7C0AC405120C7C3FC40566
:102D5000120C7C8DC405120C7CBCC405120C7CDFEB
:102D6000C405120C7C2CC505120C7CB1C505120CD7
:102D70007CCBC705120C7C0ACA05120C7C4BCA0519
:102D8000120C7CEDCB05120C7C2ECC05120C7CA118
:102D9000CC05120C7CEDCC05120C7C9BCD05120CE5
:102DA0007C76CE05120C7CA0CE05120C7CD48D0650
:102DB000120C7CD28E06120C7C6B9506120C7C8C4D
:102DC0009706120C7C579906120C7CBF9A06120CBF
:102DD0007C90C104120C7C3FC204120C7C6CC204B7
:102DE000120C7CB2C204120C7CE8C304120C7C45A9
:102DF000C404120C7C73C404120C7C09C604120CAB
:102E00007C83C604120C7C9EC604120C7C19C70479
:102E1000120C7C73C804120C7CD3C904120C7CD92C
:102E2000CA04120C7C3ACC04120C7C53CC04120C55
:102E30007CB1CC04120C7C9FCD04120C7CD2CD044E
:102E4000120C7C42CE04120C7CBCCE04120C7C060C
:102E5000CF04120C7CD0CF04120C7CA5D004120C31
:102E60007C84D104120C7C0FD204120C7C7DD20421
:102E7000120C7CF1D204120C7C1CD304120C7CDBEF
:102E8000D304120C7C40D504120C7C5DD504120CCA
:102E90007C7CD504120C7C6DD604120C7C92D6047A
:102EA000120C7CBCD604120C7C37D704120C7C911B
:102EB000D704120C7CFAD804120C7CA8D904120C8A
:102EC0007CE9D904120C7C008006120C7C4E800632
:102ED000120C7C5A8006120C7C388106120C7C691C
:102EE0008106120C7C9A8106120C7C1A8206120C46
:102EF0007C528206120C7CA48206120C7CE18206B3
:102F0000120C7CFE8406120C7C248706120C7C0FAB
:102F10008906120C7CF98A06120C7CF03F00120C18
:102F20007C718205120C7CA18205120C7C7A8905C9
:102F3000120C7CFF8A05120C7CFC9005120C7CE4C0
:102F40009105120C7C219205120C7C449205120C06
:102F50007C759205120C7C7E9205120C7C88920581
:102F6000120C7C769305120C7C6C9405120C7C1967
:102F7000DA04120C7C18DE04120C7C1EDE04120C27
:102F80007C59E504120C7C72EA04120C7CE7FB0607
:102F9000120C7C7DFC06120C7C93FC06120C7C0946
:102FA000FD06120C7C7DFD06120C7CBBFD06120C8E
:102FB0007C2FFE06120C7CA8FE06120C7CB1FE06CD
:102FC000120C7CBDFE06120C7CD2FE06120C7C108C
:102FD000FF06120C7C26FF06120C7C85FF06120CE5
:102FE0007C7CA707120C7C89A707120C7CA3A7077F
:102FF000120C7CE2A707120C7C20A807120C7C851F
:10300000A807120C7C9AA807120C7CA5A807120C22
:103010007CB2A807120C7CC9A807120C7CD7A807A1
:10302000120C7CE2A807120C7CEEA807120C7CFDA7
:10303000A807120C7C08A907120C7C2BA907120CFC
:103040007CD2A907120C7CE2A907120C7CFCA90710
:10305000120C7C19AA07120C7C35AA07120C7C5A98
:10306000AA07120C7C65AA07120C7C7AAA07120C1C
:103070007C8EAA07120C7CEFAA07120C7CF5AA071B
:10308000120C7CFBAA07120C7C01AB07120C7C19FA
:10309000AB07120C7C4CAB07120C7C2DEC05120C10
:1030A0007CB1EC05120C7C60ED05120C7CBFEE05CA
:1030B000120C7CE0F005120C7CCCF105120C7C01AA
:1030C000F205120C7C23F205120C7CD2F205120CD4
:1030D0007CCAF405120C7CF3F405120C7C85F50512
:1030E000120C7CB7F505120C7CC4F505120C7C1B88
:1030F000F605120C7C41F605120C7CAEF805120C9C
:103100007CB1F905120C7C09FA05120C7CBCDD05BA
:10311000120C7CC6DE05120C7CADDF05120C7CB7F0
:10312000DF05120C7CD9DF05120C7CE5DF05120CE3
:103130007C7EE105120C7CADE105120C7CC9E20538
:10314000120C7C22E305120C7C88E405120C7C67CF
:10315000E505120C7CC3E505120C7C30E605120C6B
:103160007C6BE605120C7CAAE605120C7C63E90573
:10317000120C7C7DE905120C7C09EA05120C7C1707
:10318000EA05120C7C70EA05120C7C7EEA05120C32
:103190007CF1EA05120C7C55EB05120C7C9FEB05CB
:1031A000120C7C82B306120C7CA4B306120C7CCAEF
:1031B000B506120C7CDFB806120C7CF7B906120CAF
:1031C0007CAABA06120C7C8CBB06120C7CF5C707D5
:1031D000120C7C1AC807120C7C8CC807120C7CCA13
:1031E000E106120C7CD3E106120C7CDCE106120C29
:1031F0007CB3E206120C7C64E406120C7C9AE406B2
:10320000120C7CD4E406120C7C0AE506120C7C44F9
:10321000E506120C7C78E506120C7CA4E506120C7F
:103220007CEDE506120C7C27E606120C7C70E606A7
:10323000120C7CC8E606120C7CFDE606120C7C58CB
:10324000E706120C7C92E706120C7CE3E706120CF0
:103250007C19E806120C7C53E806120C7C81E80607
:10326000120C7CA4E806120C7CAAD207120C7CD6A5
:10327000D207120C7C31D307120C7C3BD307120C03
:103280007C4BD307120C7C57FA05120C7C61FA05B3
:10329000120C7C9FFA05120C7CE8FA05120C7C22B9
:1032A000FB05120C7C7CFB05120C7C9DFB05120CB3
:1032B0007CA6FB05120C7CF3FB05120C7C1CFC05A8
:1032C000120C7C26FC05120C7C92FC05120C7C2452
:1032D000FD05120C7C6EFD05120C7CA4FD05120C84
:1032E0007C30FE05120C7C71FE05120C7CA8FE05DC
:1032F000120C7CBAFE05120C7CD9FE05120C7CE285
:10330000FE05120C7CAFFF05120C7C35F606120C84
:103310007C7BF706120C7C87F706120C7C28F806DB
:10332000120C7C39F806120C7C42F806120C7C5503
:10333000FA06120C7C74FA06120C7CE2C007120C1E
:103340007C18C107120C7C4EC107120C7C99C20775
:10335000120C7CFED307120C7C14D407120C7C1EBA
:10336000D407120C7C68D407120C7C829E07120CC6
:103370007C979E07120C7C479F07120C7C879F0747
:10338000120C7CA09F07120C7CDB9F07120C7C2880
:10339000A007120C7C5AA007120C7C9CA007120CF0
:1033A0007C9DA207120C7C14D507120C7CAF3F0049
:1033B000120C7CC13F00120C7C2CD007120C7C310B
:1033C000D007120C7C43D007120C7C5ED007120C85
:1033D0007C89D007120C7CBFD007120C7CF3D0077D
:1033E000120C7C2EB507120C7C8EB507120C7C21BA
:1033F000B607120C7CC4B607120C7CDBB607120CA5
:103400007C62B707120C7C7FB707120C7C14BA07DA
:10341000120C7C48BA07120C7CEEBA07120C7C3FE7
:10342000BB07120C7CD5CD07120C7CFACD07120C11
:103430007CC4CE07120C7CE09907120C7C649B07BD
:10344000120C7CFE9B07120C7CFD9C07120C7C541A
:103450009D07120C7C3A9E07120C7C42C607120C88
:103460007C5EC607120C7C28C707120C7C73D5073C
:10347000120C7C8EAA05120C7C2FAC05120C7CE37E
:10348000AC05120C7C76AD05120C7CFBAD05120C64
:103490007C20AE05120C7C76B105120C7CFCB105CB
:1034A000120C7C2FB305120C7C69B305120C7C9EA8
:1034B000B305120C7C5EB505120C7CBBB505120C75
:1034C0007C04B605120C7C6FB605120C7CE0B605C8
:1034D000120C7C12B705120C7C2AB705120C7C73F7
:1034E000B805120C7C83B805120C7C9EB905120C31
:1034F0007CC0B905120C7CF6B905120C7CAABB0580
:10350000120C7C37BC05120C7C76BC05120C7C9A24
:10351000BD05120C7CE9D107120C7CFAD107120C04
:103520007C9FD207120C7CE1FF06120C7CECFF069C
:10353000120C7CF1FF06120C7C1CD607120C7C5579
:10354000D307120C7C65D307120C7C71D307120CC5
:103550007CF8D307120C7C8DC407120C7C12C507B3
:10356000120C7C23C507120C7C4BC507120C7CE3A4
:10357000C507120C7CF8C507120C7CF83F00120C32
:103580007CA6B707120C7C6AB907120C7CCBB90772
:10359000120C7C11BA07120C7C95D906120C7CBA5D
:1035A000D906120C7CE0D906120C7CF8D906120C54
:1035B0007C4DDA06120C7C3CDC06120C7C43DE06E9
:1035C000120C7C54DE06120C7C77DE06120C7C8A10
:1035D000DE06120C7C51DF06120C7CCADF06120CD0
:1035E0007C75E006120C7C89E006120C7CB0E006CB
:1035F000120C7CCAE006120C7CE6E006120C7C0081
:10360000E106120C7C19E106120C7CADBE07120C0F
:103610007CBDBE07120C7CEBBE07120C7C18BF07EA
:10362000120C7C50C007120C7C44E906120C7C86FC
:10363000E906120C7CA1E906120C7C75EA06120C54
:103640007C63EB06120C7CC9ED06120C7C3BEE068B
:10365000120C7C23EF06120C7C0FF006120C7C9AE5
:10366000C907120C7CECC907120C7C76CA07120C35
:103670007CDDCA07120C7C68BC07120C7C92BC076C
:10368000120C7C60BD07120C7C3BBE07120C7C53F5
:10369000D106120C7C1AD206120C7C51D206120CE6
:1036A0007C7BD206120C7CDBD206120C7C31D3065A
:1036B000120C7C96D306120C7C2ED406120C7C3D88
:1036C000D506120C7CD4D606120C7C61D706120CDF
:1036D0007CC8D706120C7CDFD706120C7CF9D80602
:1036E000120C7C37D906120C7CBCA706120C7CF598
:1036F000A906120C7C53AA06120C7CA3AA06120C73
:103700007CBAAA06120C7CDCAA06120C7C5AAB0608
:10371000120C7CE2AC06120C7CE5AD06120C7C06A9
:10372000B206120C7CDFB206120C7C218B07120C45
:103730007C728B07120C7CFA8B07120C7C038D07B2
:10374000120C7C158D07120C7C348D07120C7C46F4
:103750008D07120C7C5B8D07120C7C9B8D07120C65
:103760007CBE8D07120C7CD58D07120C7C028E0757
:10377000120C7C278E07120C7CAA8E07120C7C4B35
:103780008F07120C7C708F07120C7CCF8F07120CE6
:103790007C97CC07120C7CBCCC07120C7C84960561
:1037A000120C7C969605120C7C4C9705120C7C4EE4
:1037B0009905120C7CA29905120C7C619B05120CD8
:1037C0007C769C05120C7C189D05120C7C889F054C
:1037D000120C7CE19F05120C7C4EA005120C7C752E
:1037E000A105120C7C6FA305120C7CE4A305120C3E
:1037F0007C7CA405120C7CE1A505120C7CBFA605FF
:10380000120C7CA1FF04120C7C53F006120C7C8677
:10381000F006120C7CFAF206120C7C9BF406120CD9
:103820007C76F506120C7C09F606120C7C1CF6065A
:10383000120C7C3B9007120C7C7D9007120C7C3B99
:103840009107120C7C099207120C7CA29307120CB0
:103850007CE69307120C7CFB9307120C7C03940705
:10386000120C7C0B9407120C7C399407120C7C46CA
:103870009407120C7C5E9407120C7CB5FF06120CA8
:103880007CDDFF05FFFFFFFFFFFFFFFF74F4121554
:103890008F123FA06005791102395C900280E054DC
:1038A0000560309002A5123FA96005123F9B70058C
:1038B000791002395C900280E0A2E0400612294EA5
:1038C000E960158E828F83E0F8740368600A7402E1
:1038D000686005791202395C7A0C7B0012334490DF
:1038E000029B123B05123FA6606E123DBFE50A1215
:1038F0003DA6E4F0750C0AF50D780C1216EBEEFC03
:10390000EFFD90029BE02402FAA3E03400FB1232A8
:103910008A740212154E122906E9FE600512292A40
:103920008038900281E0640370307A1D7B0012279A
:10393000F2900282123B05900282123FA9601B9016
:1039400082031216FE7A047B009002ABE0F9123378
:1039500086740412154E80027E13EEF9023ECE7478
:10396000EE12158F890E8A0C8B0D8C108D11900222
:1039700080E054057003023A017401650C700D90EB
:1039800002A5123FA9607A9002A5800B9002A712AF
:103990003FA9606D9002A7E0FEA3E0FFEBC3942077
:1039A0005008EB6009EC4511700479028055E50E72
:1039B000900F31F08E828F83A385820A85830B7CE2
:1039C0001F7D007900AA0AAB0B1232A2850D127579
:1039D000130078121216EBAC10AD11AA0AAB0B1241
:1039E000328A740212154E8E828F83E50DF0F9E54E
:1039F0000CAA0AAB0B6005122B588007122B5E80B5
:103A00000279127F0A02166174F712158FE9FE120D
:103A10003FA6700479128039123F9B6E60047903CF
:103A2000802F7A027B009002ABE0F912338C900277
:103A3000A9E4F0A3F07A04FB9002ABE0F912338C16
:103A4000900282E4F0A3123DA67403F07900122BD9
:103A500064023AFDD083D082020C7974F712158F7C
:103A60009002A5123FA9600D123ED312334A900274
:103A7000A5E4F0A3F09002A7123FA960109002A75E
:103A8000123ED612334A9002A7E4F0A3F0900280CF
:103A9000E05405605F7A327B0F1229607E0090024D
:103AA00080E05405604A7A207B00123344123B02C6
:103AB0009002A5123FA960367C207D007900123269
:103AC000A27A207B001233449002A7123B05900299
:103AD000A7123FA9600B7C207D0079001232A280E2
:103AE0000F123ED312334A9002A5E4F0A3F07E13E6
:103AF000EEF980097A007B0012296079007F0102CB
:103B000016619002A5EAF0A3EBF02274F612158F6D
:103B10007E018A828B83A3A3A3E0FCA3E0FD8C0A31
:103B20008D0B780A12172F062004913B363B913BF0
:103B3000713B713B473B8A828B83A3A3A3A3A31250
:103B40003DB612290C80268A828B83A3A3A3A3A34C
:103B5000123EDC88828983A3E0FC88828983A3A348
:103B6000E0FBECFA88828983E0F9122912E9FE80F1
:103B70002174086C700374206D70047901800279DF
:103B8000008A828B83A3A3A3123F96FA122918807E
:103B9000011EEEF9023E0074F212158F123FA6705C
:103BA00003023C6F123DADA3E0F50C12294EE96013
:103BB000137A0A7B001227F28A0A8B0BAE0AAF0B2C
:103BC0007A0B802A122930E960137A067B001227CB
:103BD000F28A0A8B0BAE0AAF0B7A0780117A087B48
:103BE000001227F28A0A8B0BAE0AAF0B7A097B0010
:103BF0001227F28A0A8B0B900281E07005750D0086
:103C00008003750D0190029BE02404FAA3E03400C8
:103C1000FB123DA7A3A3E0F912281690029BE0F83F
:103C2000A3E0C8240B123C761216EF90029BE0F83A
:103C3000A3E0C8240A123C761216EF90029BE024FF
:103C400004F50EA3E03400F50F780E1216EBE9F53B
:103C50000E780E1216EF780D1216EFA90CAC0AAD05
:103C60000BEEFAEFFB122B52740612154E800279FE
:103C7000017F06021661F582E83400F583E0F50E57
:103C8000780E2274F712158FE9FE123FA6601EEE21
:103C9000700C123DAD7401F0F9122B64E9FEEE6078
:103CA000087A007B00F91229247901800279000248
:103CB0003AFD74EC12158F890C123FA27003023D7D
:103CC0009F123DADE064016003023D72122930E9AC
:103CD00060557A017B001227F28A0E8B0FE4F510F3
:103CE000F511C3EA9442EB9400402B908203121624
:103CF000FE7A027B009002ABE0F912338674041264
:103D0000154EE50E24C4F8E50F34FFF99002A9E83A
:103D1000F0A3E9F080419081B37812121408780E74
:103D2000791212120780107A007B001227F28A0E95
:103D30008B0FE4F510F511E50E450F4510451160A8
:103D400016780E1216E77A027B009002ABE0F912A9
:103D50003380740412154E123DA77402F090028451
:103D6000E0700BEEFAEFFBA90C122924802DE4F091
:103D70008029900284E070237A037B001232AEEA3D
:103D80004B60158A828B8374D0F0A3E50C123E053C
:103D90007404123DB21232BA12292A7901800279D2
:103DA000007F0C021661F090029BE0F8A3123DBF69
:103DB000A322F090029BE0F8A3123DBFE0F922E0BD
:103DC000F58388822274F612158FE9FEEAFF900FC0
:103DD00031E0F4602B7A047B001232AEEA4B6020B3
:103DE0008A828B8374D0F0EFA3123E057402F0EE4A
:103DF0008A828B83A3A3A3F0900F31E0F91232BA29
:103E00007F02021661F08A828B83A3A32274F412CC
:103E1000158FE9FE74016E6003023EA99002A9129B
:103E20003FA96006900284E06012123FA670030270
:103E30003ECC123F9BF91228F4023ECC9002A9C35B
:103E4000E0943CA3E09400400D9002A9E024C4F06B
:103E5000A3E034FF80507A027B009002ABE0F912BD
:103E6000338C9002A9E0F50AA3E0F50BE50A75F0A2
:103E7000E8A4C50AA8F075F003A428F875F0E8E5F1
:103E80000BA428F50BE4F50CF50D780A1216E77A69
:103E9000027B009002ABE0F9123380740412154EDD
:103EA0009002A9E4F0A3F08023123FA6601E9002C6
:103EB00080E0A2E250167A027B009002ABE0F91299
:103EC000338C9002A9E4F0A3F012292A80007F0429
:103ED0000216619002A5E0FAA3E0FB22E0F8A3E05D
:103EE000F92274F412158F123FA0602F7A057B001F
:103EF0001232AEEA4B601D8A828B8374D0F0A3E548
:103F00000A123E057403123E05A3EEF0A3EF123D24
:103F1000B21232BAE50A600312292A023ECEC082EA
:103F2000C083123FA6601090029B123ED612334A05
:103F300090029BE4F0A3F0023A5474F612158F74C9
:103F4000FF1215389002A5123FA960409002A5E02B
:103F50002401F50AA3E03400F50B780A1216EB9061
:103F600002A5123F98FC7402121583AA82AB8379D2
:103F70000112286A740212154E8A828B83E58245EB
:103F8000836009E0A2E050047901800279007401A5
:103F900012154E023E00A3A3E0F8A3123DBFE0229B
:103FA000890AEAFEEBFF90029B123EDCE84922748C
:103FB000F712158FE9700579FF1232EA7F010216B8
:103FC00061C082C08374FE1215387902851A828519
:103FD0001B83AA82AB83122D50851A82851B83E036
:103FE000FAA3E0FB740212154ED083D082020C7942
:103FF000020C79FFFFFFFFFF851C87C2AF020C791F
:020000040002F8
:10280000C082C083E9900FA1F002AB1E74F71215CD
:102810008FE99002E0F07C187D037AFF7BFF122A9B
:10282000FE9002E174FFF0A3F0A3E4F0A3F07905B9
:10283000122A869002E0E0F91229A27A167B2B1266
:102840002CD27F0102166174F412158F8A0A8B0B49
:10285000EB548060309002E0E0F91232C68A0C8BB3
:102860000DAE0CAF0DEE4F60138E828F83E064B01F
:102870007003122A9EEEFAEFFB1232B4AA0AE50B9D
:102880006480FB80047A007B0002AAED74F21215CA
:102890008F74FC121538EAFEEBFFEE4F60387402BD
:1028A000121583EEF0A3EF12AD52ECF0A3ED12ADD2
:1028B00052AA82AB83122996E9F50A707374121238
:1028C000158312B906E50C450D60658E828F831263
:1028D000A93AEE4F7005750A0280557A067B001200
:1028E00033448A0E8B0FA80EA90FE8497005750AAC
:1028F00013803D88828983E412A944A3A3EEF0A348
:10290000EF12BD9FE50CF0A3E50DF09002E612AAD0
:102910005B9002E66017E0FCA3E08003EAFCEBFDBD
:102920008C828D8312AA5B70F38C828D8312B82BFC
:10293000A90A740412154E02BFA1A3A3A3A3E0FE2B
:10294000A3E0FF22F0A3F0888289832274F5121598
:102950008F74FC1215388A0A8B0BECFEEDFF900287
:10296000E612B5BD7C007D00800BEAFCEBFD8A829F
:102970008B8312B5BDEA4B605E8A828B83A3A3E092
:10298000650A7004A3E0650B70E08A828B8312C035
:1029900070EC4D70059002E680048C828D8312B835
:1029A0002B12334A851A82851B83AC82AD83AA0A17
:1029B000AB0B12299CE97015EE4F601174021215D1
:1029C0008312B5BD8E828F83EAF0A3EBF0740412FC
:1029D000154E7F03021661790180F274F212158F91
:1029E000890CE975F017A4FEAFF09002E5E4F090D1
:1029F00002E312AA5B600A12334A9002E3E4F0A3F6
:102A0000F0EEFAEFFB1233448A0A8B0BEA450B60B7
:102A10002FEEFCEFFD79001232A29002E3E50AF0FE
:102A2000A3E50BF07B00800812AA45E4F0A3F00BAD
:102A3000EBC3950C40F2E50C9002E5F079008002C2
:102A4000791302BFA1EB75F017A4F8A9F09002E387
:102A5000E028FAA3E0398A82F5832212B5C1EA4B55
:102A60002274F412158F750A00750B00740C121580
:102A70008312BD73FEE9FF800CE50A2401F50AE527
:102A80000B3400F50BC3E50A9CE50B9D5032850A1B
:102A90000C850B0D7403780C121525EA250CF8EB48
:102AA000350DF988828983A3A3A3A3A3A312B90632
:102AB000EE650C7003EF650D70BFE8FAE9FB80046A
:102AC0007A007B00802774F412158F7900EAA2E067
:102AD000501B750A51750B81780A1216EB7C047D28
:102AE000007AA37B0F122A7A740212154E7F040219
:102AF0001661C082C0839002E612AB25601C8882FA
:102B00008983A3A3E06A7003A3E06B888289837042
:102B1000E8A3A3A3A312B5BD80047A007B00D083F1
:102B2000D082020C7912C074E8492274EE12158F1B
:102B300074FC121538EAFEEBFF851A82851B83E4CC
:102B4000F0A3F0EE240212B80FEE240512AD40EE11
:102B50002404F510EF12B125E024FE603924FC6056
:102B60004624FE605224FE605E24FE700302AC45E3
:102B700024FE700302ACBD24FE700302ACCC24FE24
:102B8000700302ACDB24FC700302ACEA24FE700389
:102B900002ACF902AD369002FF7417F0A3E412AD57
:102BA0005A12270802AD36851A82851B83AC82AD86
:102BB00083122AA402AD06851A82851B83AC82ADDE
:102BC00083122AAA02AD06850E0A850F0B74021223
:102BD0001583AC82AD83850A82850B8312B5BD1245
:102BE00029C08A0E8B0FAC0EAD0FEC4D6042E4F5A0
:102BF0000EF50F780E1216EB750EFF750F02780E9C
:102C00001216EB750E00750F03780E1216EB740892
:102C1000121583121702791612B5B7122AE6740834
:102C200012154EE9F50E700B12B5B3122720800F66
:102C3000750E01850A82850B8312AD4812B82B856B
:102C40000E0A02AD097402121583AC82AD83850EA3
:102C500082850F8312B5BD1229C08A128B13AC1264
:102C6000AD13EC4D6043850E82850F83A3A312172D
:102C7000027512FF75130278121216EB75120075A9
:102C8000130378121216EB740812158312170279C7
:102C90001612B5B7122AE6740812154EE9F50B7034
:102CA0000B12B5B3122726800F750B01850E828596
:102CB0000F8312AD4812B82B850B0A804C851A82FF
:102CC000851B83AC82AD83122AB0803A851A828537
:102CD0001B83AC82AD83122AB6802B851A82851B9A
:102CE00083AC82AD83122ABC801C851A82851B832B
:102CF000AC82AD83122AC2800D851A82851B83ACFB
:102D000082AD83122AC8E9F50AE50A60298E828F0E
:102D100083A3E06414601F851082851183E0900214
:102D2000FF12AD5212C07090030012B82BE50AA337
:102D300012AD5A122702EEFAEFFB122A3E02B71723
:102D4000F50EEF3400F50F2212C074851A82851B30
:102D50008322F0851A82851B8322F07CFF7D028509
:102D60000C82850D8312B5C12274EE12158F74FC8E
:102D70001215388A0C8B0D8C108D11EA2405F50A7A
:102D8000EB3400F50B7C157D0079007AFF7B021295
:102D900032A2E50A2402F50EE50B12AD43851A8234
:102DA000851B8385821285831378121216EB850AA0
:102DB00082850B83A3A3A3A312B26D1216EBE50ABF
:102DC0002405F512E50B3400F51378121216EB8585
:102DD0000E82850F8312B5C71229BA740612154EDA
:102DE0008A128B13AE12AF13E50C2402F50CE50D1D
:102DF00012B812EE4F700302AF2F80177402121533
:102E00008312B5BD88828983EAF0A3EBF09002FFBC
:102E1000E004F09002FFE0C39405400302AF2FE40A
:102E2000F512F51378121216EB7512E87513027885
:102E3000121216EB7512E975130278121216EB7462
:102E4000061215831217027910EEFCEFFD12B5B7CA
:102E5000122AE6740812154EE9705E850A82850B07
:102E600083A3A3A3A3A3A3A3E0F89002E8E0687060
:102E70004812B26D1216EB7CE97D02E50A2408FACD
:102E8000E50B3400FB12329C740212154EE96029E6
:102E90008E828F83A3A3A3A312B5BD9002FFE0F59A
:102EA000127402781212152574002512F58274032B
:102EB0003513F583EAF0A3EBF074021215838582D3
:102EC0001285831378121216EB74021215831217EF
:102ED00002850E82850F8312C0851229C6740412E2
:102EE000154E8A128B13AE12AF139002FFE0F5124B
:102EF0007513007402781212152574FF2512F874E8
:102F0000023513F988828983A312AA5B700302AD8C
:102F1000F3E82403F8E93400F9EE4F600302ADFC56
:102F20008882898374FFF0A3F09002FFE004F090A0
:102F300002FFE0600A12B5B31227147900800B85F6
:102F40000A82850B8312B822790A02B71774EA1233
:102F5000158F74FE1215388C148D15EA2405F50EA4
:102F6000EB12C08F12A93E750A00750B00EA24020D
:102F7000F512EB3400F513851A82851B8385820CCC
:102F800085830D780C1216EB850E82850F83A3A323
:102F9000A3A312B12F1216EBE50E2405F50CE50FD5
:102FA00012B812780C1216EB850E82850F8312C0B0
:102FB000831229BA740612154E8A0C8B0DEA450D40
:102FC000700302B0E0EA2404F510EB12B12512A957
:102FD0003E8A828B83A3A3A3E0F9851282851383A3
:102FE00012B5BD1229A8E9F50B600302B0E0E4F5C3
:102FF00016F51778161216EB7516E875170278167F
:103000001216EB7516E975170278161216EB740690
:103010001215831217027913AC0CAD0D851282853F
:10302000138312B5BD122AE6740812154EE9F50B8A
:10303000600302B0E09002E8E0F8E50A7009E024DD
:1030400002900300F08017900300E0FCE82402FAED
:10305000E43400FBEA6C7001EB600302B0E4850A23
:1030600082AA8212B264941412B25C5073851082E8
:10307000851183E0C0E074012A12B11CD0E0F00594
:103080000A851082851183A3E0C0E0850A0C7401D3
:10309000250C12B11CD0E0F0050A9002E812B12F05
:1030A0001216EB7CE97D02850A0C7401250CFA747A
:1030B000033400FB12328A740212154E9002E8E0CB
:1030C000250AF50A74FF6E700374FF6F6012EE2418
:1030D000010EEF3400FFE50AC39414500302AF77EA
:1030E000E50A601312B4A885128285138312B5BD58
:1030F00012271A79008014E50B7003750B0A8514EA
:1031000082851583EEF0A3EFF0A90B740212154E21
:103110007F0E021661850A0E7401250EF582740376
:103120003400F583223400F511851082F5832212D4
:10313000BDB22274EE12158F74FE1215388C108DEC
:1031400011EA2405F50EEB12AD43750D009002FF58
:10315000E4F0F50CEA2402F50AEB3400F50B8049A3
:103160009002FFE0FA9002E8E0F812B264941712BD
:10317000B25C400D9002FFE0F87416C3989002E82C
:10318000F012B26D1216EB7CE97D0274002AFA741B
:10319000033400FB12328A740212154E9002E8E0EA
:1031A000F89002FFE028F0050CE50E2416F582E504
:1031B0000F12B120E0F8E50CC398400302B245902D
:1031C00002FFE0C39416507DE50CC333F8E433F9F5
:1031D000E50E28FEE50F39FF851A82851B83AC8238
:1031E000AD838E828F8312B5BD1229C08A128B13D4
:1031F000AC12AD13EC4D7005750D018043E4F51272
:10320000F51378121216EB7512E875130278121284
:1032100016EB7512E975130278121216EB7406128A
:1032200015831217027916850A82850B8312B5BDA4
:10323000122AE6740812154EE9F50D700302B1600A
:1032400012B81E80107CFF7D02850A82850B8312D6
:10325000B5BD12272CA90D740202B719E99400C359
:1032600065D03322EA28F8E43400F9E822E0F512C8
:1032700075130078122274EA12158F74FC12153837
:103280008A0E8B0F8C148D15EA2405F50CEB12B801
:1032900012750A00750B00E50C2402F512E50D34D9
:1032A00000F513740212158385821085831178103E
:1032B0001216EB850C82850D83A3A3A3A312BD5E1A
:1032C0001216EBE50C2405F510E50D3400F5117828
:1032D000101216EB85128285138312B81812B5B737
:1032E0001229BA740612154E8A108B11AE10AF1146
:1032F000E50E2402F510E50F3400F51180408882B8
:10330000898374FFF0050A12B11574FFF0050A9065
:1033100002E8E0F50E750F00780E1216EB7CE97DE1
:1033200002850A0E7401250EFA74033400FB123272
:103330008A740212154E9002E8E0250AF50AEE4F53
:1033400060718E828F83A3A3A3E0F985108285111B
:103350008312B5BD1229A8E9F50BEE240412AD4085
:10336000E97044E4F516F51778161216EB7516E8B1
:1033700075170278161216EB7516E975170278168E
:103380001216EB74081215831217027911EEFCEF76
:10339000FD85108285118312B5BD122AE6740812CC
:1033A000154EE9F50B6027850E82850F8312B49EBA
:1033B00012B82BE50A700302B48412B4A8851082F7
:1033C00085118312B5BD122732790002B499850A9E
:1033D00082AA82EA9002E87009E02404900300F0D7
:1033E0008022E0F8900300E0F516E82404FCE434C1
:1033F00000FDEC65167001ED70C012B264941212FB
:10340000B25C50B6850E82850F83E0C0E074012A5D
:1034100012B11CD0E0F0050A850E82850F83A3E06F
:10342000C0E012B115D0E012B4BA85820E85830FC8
:10343000780E1216EB74041215831217028512828D
:1034400085138312C0851229C6740412154E8A0E84
:103450008B0FAE0EAF0F850A0E7401250EF87403A4
:103460003400F9EE4F700302B2FE851A82851B8389
:10347000E08882898312B4BAA3E0C0E012B115D00B
:10348000E002B30CE50B7003750B0A850C82850D09
:103490008312B49E12B82BA90B740402B10D12C092
:1034A0007485148285158322900300E0F5F0E50A07
:1034B000849002FFF07CFF7D0222F0050A851A82CB
:1034C000851B832274EC12158F74FE1215388A0A3C
:1034D0008B0B8C108D11EA2405FEEB3400FF851A4E
:1034E00082851B83AC82AD838E828F8312B5BD1221
:1034F00029C08A0C8B0DEE241812AD40EA450D70E0
:103500000302B58E12B7005032851A82851B8312D2
:10351000B5BD122ADA8A128B13EA4513606B791251
:10352000AC0CAD0D850A82850B8312B5BD85128268
:1035300085138312158DE9F50C7058E4F50CF50D23
:10354000780C1216EB8E828F83A3A3E0F50C780C17
:103550001216EBEE240312B80F780C1216EB8E82C3
:103560008F8312B5C7122AEC740612154EE9F50CBA
:103570007021850E82850F83E0701F850A82850B7E
:103580008312B5BD1227388011750C0E8009750C99
:10359000018004E50C600312B81E850E82850F833E
:1035A000E0600479008002A90C740212154E7F0CB1
:1035B0000216617CFF7D02850C82850D8312B5C1E8
:1035C00022E0FAA3E0FB22E0FCA3E0FD850A82856D
:1035D0000B8312B5C12274EE12158F74FE121538CA
:1035E0008A0A8B0B8C0E8D0FEA2405FEEB3400FF4C
:1035F000751000851A82851B83AC82AD838E828F05
:103600008312B5BD1229C08A0C8B0DEA450D7003DB
:1036100002B6EC12B7005035851A82851B8312B5AD
:10362000BD122ADA8A108B11EA4511605E7912AC5C
:103630000CAD0D850A82850B8312B5BD8510828580
:10364000118312158DE9F510600302B6EF850A8229
:10365000850B8312B906AA0CFB122ACE8A128B1391
:10366000A812A913E849701E7AFF7BFF122ACE8A9E
:10367000128B13A812A913E849606C88828983E52C
:103680000CF0A3E50DF0750C00800775100E805F3F
:10369000050C9002E5E0FAE50CC39A504AE50C757A
:1036A000F017A4FAABF088828983A3A3E02AFAA3D7
:1036B000E03BFB8A828B8312B818EC4D70D2750CFC
:1036C00017750D00780C1216EBEEFCEFFD12328A26
:1036D000740212154EEEFCEFFD850A82850B8312F3
:1036E000B5BD12273E8014751009800375100112B4
:1036F000C06C850E82850F8312B82BA91002B257B9
:10370000E50A2402F50AE50B3400F50B8A828B8367
:10371000A3A3A3E0A2E522740412154E7F0A0216A9
:103720006174EC12158F8C128D13EA2405F50EEBE3
:1037300012AD43751100EA2402F50CEB12B81285A4
:103740000C82F58312B5BD122ACE8A0A8B0BEA458C
:103750000B700302B8047510008071850E82850F0E
:1037600083E06401704F8E828F83A3A31217028EB1
:10377000828F83A3A3A3A3E0F51475150078141218
:1037800016EBEE2405F514EF3400F5157814121637
:10379000EB12B5B7122AEC740612154EE9F511605A
:1037A00014850E82850F83E4F012C06C8512828529
:1037B000138312B82B7C177D007900EEFAEFFB1211
:1037C00032A28E828F83E4F0A3F005109002E5E030
:1037D000F8E510C398501EE51075F017A4F8A9F08D
:1037E000850A82850B83A3A312C09912B818EC4DE9
:1037F000600302B75B850A82850B8374FFF0A3F038
:10380000E511700612B5B7122744A91102B5AEF53D
:103810000CEF3400F50D22A3E0FCA3E0FD228E8224
:103820008F8312C074851082851183E8F0A3E9F0BC
:1038300022C082C0839002E1E06A7003A3E06B7053
:10384000067AE17B0280047A007B0002AB1EC08214
:10385000C08378008C828D83E06A7003A3E06B7074
:1038600010E875F003A4F8A9F0EC28FAED39FB8014
:1038700015088C828D83A3A3A3E06A7003A3E06B79
:1038800060DF7A007B0002AB1E74F612158F122ADD
:10389000988A828B83E582458370067A007B00805C
:1038A00007A3A3A3A312B5BD02BF1D74F212158F07
:1038B000E9FE740E12158312B906741012158312E4
:1038C000BD7E8C828D83E064027036A312C07AF5CF
:1038D0000EA3E0F9A80E74026870037429697021C0
:1038E000750E02750F00780E1216EB780A1216EBA1
:1038F000780C1216EBEEF9122B10740612154E808E
:1039000002790102BFA1E0F50CA3E0F50D2274E8F5
:1039100012158F74FB121538E9851A82851B83F006
:103920008A188B19ECFEEDFF751200741D121583B9
:1039300012C070741D12158312B82B8E828F83A350
:10394000A3A3E0A2E4502D741D12158312B5BD127D
:103950002ADA8A828B83E5824583700302BD4F7920
:103960000AEEFCEFFDAA18AB1912158DE9F51260ED
:103970000302BD52741F12158312BD7E74211215ED
:103980008312B9067423121583E0F510A3E0F51134
:103990008E828F83E06402600302BCFDA312C070BC
:1039A000850A82850B83A3858214858315EE240600
:1039B00012AD4088828983E0FAA3E0F9EA2400F599
:1039C00016E439F51778161217750100002801283A
:1039D000F2B907000228B7BA032824BA0029EEBBBF
:1039E000012919BC0229BABB0329EEBB042998BCE2
:1039F000FDBCE5104511600302BCF8850E82850F01
:103A00008312BD73FAE9FB8A828B83E0850C828581
:103A10000D8312BDA91216EB8A828B83A3E0FCA34F
:103A2000E002BC82E5104511600302BCF8850C82FF
:103A3000850D837401F012BD86850A82850B83F0A3
:103A40007C007D008E828F83A3A3A3A3E02401FAD0
:103A5000A3E03400FB1229C0EA4B60418A828B83C9
:103A6000E02402F8850C82850D83E028F0EA240426
:103A7000F8EB3400F988828983E085148285158308
:103A800012BDBB12BDA91216EB8A828B8312B81726
:103A9000E50A2403FAE50B3400FB02BC87850C829F
:103AA000850D83E02404F07C047D007900AA14AB2A
:103AB000151232A202BD52E5104511600302BCF896
:103AC00012BD86FEA3E0FF850C82850D837404F091
:103AD000EE850A82850B83F0EF851482851583F0CD
:103AE0007403121583AC82AD83EEFAEFFB1229C08A
:103AF0008A0E8B0FEA450F700302BB9B8A828B8371
:103B0000A3A312A93A74011215838582108583112B
:103B100078101216EB74051215831217027CFF7DC4
:103B2000FF1229C6740412154E8B11EA4511703329
:103B3000850E82850F8312BD5E1216EB850E82857F
:103B40000F83A31217027C027D007A367B82122734
:103B5000E0740412154EE9700A740112158374FFA3
:103B6000F0A3F08E828F83E064027039750E0275C7
:103B70000F00780E1216EB8E828F8312B817E50AAB
:103B80002404FAE50B3400FB12328A740212154E3B
:103B9000850C82850D83E02402800974011215834F
:103BA000EEF0A3EFF0740112158312BD6FF07401F3
:103BB000121583A312BD6702BCF2E5104511600324
:103BC00002BCF8850E82850F8312B818AA18AB19AB
:103BD000122B04850C82850D837402F0EA850A821B
:103BE000850B83F0851482851583EB02BCF5E51007
:103BF0004511600302BCF812BD86F8A3E0F9850CFC
:103C000082850D837402F0E8850A82850B83F0E9D2
:103C100085148285158302BCF5850E82850F83127B
:103C2000B5BD123284EAFC8C82A882C39510E4955B
:103C300011405FE865107002E51170047C0080227D
:103C4000851A82851B83E0FAE5102AFAE511340013
:103C5000FBC3EA98EB94005003E08005E510CCC369
:103C60009CFCEC850C82850D83F08C0C750D007826
:103C70000C1216EB850E82850F83E02510FCA3E065
:103C80003511FDAA0AAB0B12328A740212154E02CC
:103C9000BD5275120702BD52E5104511705A850ECE
:103CA00082850F8312C070850C82850D8374071284
:103CB000A94612BD6712A946A3E085148285158323
:103CC000F0E82402FAE93400FB8A828B8312BD6794
:103CD00012BD9612BD6FA312BD9F12BD78F0E824ED
:103CE00005F8E93400F98882898312BD78A312BDF2
:103CF000BBA3A3A3A3F0805A75120B8055741D12A9
:103D0000158312B5BD122A988A828B83E58245837A
:103D1000603D12C070880E890FE8450F6031781041
:103D20001216EB780C1216EB780A1216EB740612C8
:103D30001583E0F9EEFCEFFDAA18AB19850E82851C
:103D40000F8312158D740612154EE9F51280037556
:103D5000120EA912740512154E7F10021661E0F5BD
:103D600010751100781022E0850A82850B832212DB
:103D7000BDC52212C074E82212BDC5A3A322E0F57E
:103D80000AA3E0F50B22850E82850F83E0F8A3E0FD
:103D9000F5838882E022A3A3F08A828B83A322F09A
:103DA00088828983A3A3A3A322F08A828B8312BD76
:103DB000B222E0F50C750D00780C22F08882898320
:103DC000A312BDC522E0850A82850B83A3A32274BA
:103DD000EE12158F74FE1215388A0C8B0DECFAED6D
:103DE000FB7414121583E0F512A3E0F51374161298
:103DF0001583E0FE7418121583E0F510A3E0F511A9
:103E0000851A82851B83AC82AD831229C08A0E8BF2
:103E10000FEA450F6049851A82851B8312B5BD12D2
:103E20002A988A828B83E5824583602FA3A312BDE3
:103E30007EE50A450B602478101216EB78121216F4
:103E4000EBEEF9AC0EAD0FAA0CAB0D850A82850B1B
:103E50008312158D740412154E8006790E80027936
:103E60000102B25774F612158F74FE121538740CD5
:103E700012158312BD73851A82851B83F07401129B
:103E80001583E9F0E4F50AF50B780A1216EB750ACA
:103E900002780A1216EB740412158385820A858350
:103EA0000B780A1216EB122AEC740612154E7402E5
:103EB00012154E806874F712158FEAFEEBFF890A1F
:103EC0007C187D03122B04EA5402600BA90AEEFA57
:103ED000EFFB1229B48002790102A84274F6121590
:103EE0008F74FF6A700374FF6B70168C828D83125F
:103EF000BF22E4F08C828D83A3A3A312BF22A380F0
:103F000018122AD48A0A8B0BA80AA90BE849600D5B
:103F10008882898374FF12A944A3A3E4F07F02027C
:103F2000166174FFF0A3F08C828D83A3A32274F634
:103F300012158F122AD48A828B83E582458360060C
:103F4000A3A3E0FA80027A007B0080D174F21215FC
:103F50008F8A0A8B0BECFEEDFF740E121583E0F5D1
:103F60000C122AD48A0E8B0FA80EA90FE8497026CE
:103F7000EEFCEFFD7AFF7BFF122AD48A0E8B0FA88E
:103F80000EA90FE84970047911801688828983E5AB
:103F90000AF0A3E50BF088828983A3A3E50CF079EE
:103FA000007F0602166174EE12158FEAFEEBFF8C9D
:103FB0000A8D0B890E741412158312C070741612B8
:103FC000158312B5BD750F00E849600302C0647423
:103FD00002650E600302C05F741212158312C07A6C
:103FE000FCA3E0F9EC2400F510E439F511EAF4F84B
:103FF000EBF4F9EC58F8E51159F9E849705CE50A79
:104000002406F8ED3400F9880C890D8882F58312B6
:10401000C085122B048A128B13E51065127004E51B
:10402000116513604278101216EB850C82850D83A2
:1040300012C085122B0A740212154EE9F50F702773
:1040400078101216EB850A82850B83A3A312C08316
:10405000122B1C740212154E800D750F808008758E
:104060000F0D8003750F0BA90F02B71C8E828F8373
:1040700012C07422E0F8A3E0F92212C07488828989
:1040800083E022A3A3E0FCA3E0FDEEFAEFFB2234E1
:1040900000F50F850E82F58322E028FEA3E039FFAC
:1040A0008E828F832274F212158FEAFEEBFF890D48
:1040B0007401650D600E7402650D706A7901122C31
:1040C000F0E97062EEFAEFFB122ACE8A0A8B0BEA55
:1040D000450B6047750C00800B7C177D0079001242
:1040E00032A2050C9002E5E0F8E50CC3985021E5FA
:1040F0000C75F017A4F8A9F0850A82850B83A3A399
:10410000E028FAA3E039FB8A828B8312AB2570C9C1
:10411000850A82850B8374FFF0A3F07C187D03EE83
:10412000FAEFFB122AFE02BFA174F212158F8A0A5F
:104130008B0BECFEEDFF740E12158312B906900F77
:10414000A1E0F4603D7A097B001232AEEA4B6032A6
:104150008A828B8374B1F0A3E412BD98A312BD963A
:10416000A3E50AF0A3E50B12C185EEF0A3EF12C19F
:1041700085A3A3E50CF0A3E50DF0900FA1E0F912E3
:1041800032BA02BFA1F08A828B83A3A3A3A3A32286
:10419000C082C0839061907404F0A37448F0A3744B
:1041A00002F09061807440F09061BC7403F0906103
:1041B000877419F0906265741BF0906249E0C394B3
:1041C0001390619C400A7409F09060667401800746
:1041D000740DF0906066E4F090619A7433F0A3740B
:1041E00055F09061A0743AF090053EE064017009CA
:1041F000C2919003A5746780059003A57461F09047
:104200003886E493906186F0903888E493F46027D0
:10421000E493540FF8906185E0686012E5C654801D
:104220004449F5C6E59E547F644970F8E8F053C6EA
:1042300080E59E547F70FA790512306E02C46CC01E
:1042400082C083E9540FF9906185E0696012E5C688
:1042500054804449F5C6E59E547F644970F8E9F0FE
:1042600053C680E59E547F70FA02C46CC082C0833E
:10427000E5A8F853A87E906181E4F0A3F0A3F0C212
:10428000BA539AFEC289759B00C2C275E900759146
:104290000075BF0075A91175B905906181F0A3740F
:1042A000C0F0A3E4F0D2BA439A0174805842A80245
:1042B000C46CC082C08374F81215389003A3E0F870
:1042C000A3E0F9E849700302C3E09003A3E054407F
:1042D00060237908851A82851B83AA82AB83122EFC
