:020000021000EC
:1060000000400020E9260200312702003327020069
:106010000000000000000000000000000000000080
:106020000000000000000000000000003527020012
:10603000000000000000000037270200392702009E
:106040003B2702003B2702003B2702003B270200C0
:106050003B2702000000000019240200D1180200B2
:106060003B2702003B2702003B2702003B270200A0
:106070003B2702003B2702003B2702003B27020090
:106080003B270200D5C401003B2702003B2702004A
:106090003B27020065F00100B1BB01003B27020075
:1060A0003B2702003B270200000000000000000028
:1060B00000000000000000000000000000000000E0
:1060C000164B002B00D1144B9D46402292029A1A87
:1060D000924600218B460F461348144A121A0DF0BF
:1060E0005FFF0F4B002B00D098470E4B002B00D0CA
:1060F00098470020002104460D4600200C4900224C
:1061000000230DF067FD0DF007FE2046294601F043
:10611000A1FA0DF0C1FDC0460000080000400020BB
:10612000000000000000000068240020E438002087
:10613000B93C020073DF7047181CC04676DF704719
:10614000181CC04677DF7047181CC04678DF7047C0
:10615000181CC0467ADF7047181CC0467CDF7047A9
:10616000181CC0467DDF7047181CC046A9DF704769
:10617000181CC04660DF7047181CC04634DF7047EB
:10618000181CC04640DF7047181CC04622DF70470D
:10619000181CC04680B584B000AF78600A1CBB1CD8
:1061A0001A807B68FB60FB681B68DAB2FB6804330B
:1061B0001B68101C191C0BF095FABD4604B080BD7D
:1061C00080B584B000AFF860B9607A60154B1B8869
:1061D00001339AB2134B1A80134BFA681A60134BAF
:1061E0007A681A60FB68DBB2112B03D9104B1222BC
:1061F0001A6004E0FB68DBB21A1C0D4B1A60BB6826
:106200001B041A0C7B681B041A43094B5A60084A8A
:10621000084B101C08211A1C06F0FAFFBD4604B0FA
:1062200080BDC046902400209424002098240020A3
:10623000142800209561010080B582B000AF021CD7
:106240003960BB1D1A80BB1D1B881720191C0BF061
:1062500049FAFEE780B588B000AF021CFB1D1A703A
:106260003B1C103300221A703B1C103300225A7062
:106270003B1C103300229A703B1C0C3300221A7016
:106280003B1C0C3300225A703B1C0C3300229A70CA
:106290003B1C1E3300221A80FB1D1B78072B03D9E1
:1062A0003B1C1E331B8857E0FB1D1A780723134045
:1062B000DB00DBB240221343DBB2DAB23B1C10330B
:1062C0001A70FB1D1B78022B03D0FB1D1B78032BC0
:1062D00023D93A1C10323B1C0C330020111C1A1C11
:1062E000032306F043FE031C7B617B69002B06D071
:1062F0007A691B4B101CC5211A1CFFF761FF3B1C60
:106300000C335B781B0299B23B1C0C339B781A1C34
:106310003B1C1E330A431A801BE03A1C10323B1C04
:106320000C330020111C1A1C022306F01FFE031C54
:10633000BB61BB69002B06D0BA69094B101CC82190
:106340001A1CFFF73DFF3B1C0C335A783B1C1E33D5
:106350001A803B1C1E331B88181CBD4608B080BD2C
:106360004843020080B586B000AF0A1CFB1D011C2B
:1063700019703B1D1A803B1C0C3300221A703B1C09
:106380000C3300225A703B1C0C3300229A703B1CC9
:10639000083300221A703B1C083300225A703B1C41
:1063A000083300229A70FB1D1A7807231340DB0084
:1063B000DBB240229343DAB23B1C0C331A70FB1D54
:1063C0001B78012B03D0FB1D1B78052B1CD13B1D1B
:1063D0001B88DAB23B1C0C335A703A1C0C323B1C43
:1063E00008330020111C1A1C022306F0BFFD031CF9
:1063F0003B613B69002B38D03A691E4B101CD721FA
:106400001A1CFFF7DDFE30E0FB1D1B78042B07D0C4
:10641000FB1D1B78062B03D0FB1D1B78072B25D1FA
:106420003B1D1B881B0A9BB2DAB23B1C0C335A7013
:106430003B1D1B88DAB23B1C0C339A703A1C0C32A1
:106440003B1C08330020111C1A1C032306F08EFD90
:10645000031C7B617B69002B08D07A69054B101CFB
:10646000DC211A1CFFF7ACFE00E0C046BD4606B0BA
:1064700080BDC0464843020080B582B000AF78605E
:10648000034AC023DB000349D150BD4602B080BDA2
:10649000000001403546526E80B582B000AF786092
:1064A000104B1B780133DAB20E4B1A700D4B1B7870
:1064B0000B2B14D90B4B00221A700120FFF7CAFED8
:1064C000031CDBB21A1C6023134008D10120602199
:1064D000FFF748FF044B1B685A1C034B1A60BD466C
:1064E00002B080BD11280020A824002080B584B00F
:1064F00000AF7860174B03221A70174BFE221A70F8
:10650000154BFF22DA70144BDA78134B9A70124B4A
:106510009A78114B5A70114A7B68101C191C14226E
:106520000DF09CFC0E4B1B68181C0A21002206F083
:106530007DFA031CFB60FB68002B08D0F9688823F8
:106540005A00084B081C111C1A1CFFF739FEBD46E7
:1065500004B080BD9C240020642D0020682D002004
:10656000882400204843020080B586B000AF7860E0
:10657000454B1B78012B34D10AF068FC031C002B1F
:1065800019D1414B00221A700AF0FCFF3F4B1B68E7
:10659000181C06F091FA031C7B617B69002B07D065
:1065A00079693B4A3B4B081C111C1A1CFFF708FE7B
:1065B00000F02EFA64E0354B1B68181C64210022A1
:1065C00006F034FA031C3B613B69002B58D0396953
:1065D0008E235A002F4B081C111C1A1CFFF7F0FDCC
:1065E0004EE0294B1B78022B22D10AF02FFC031C12
:1065F000002B08D1244B01221A70274B0420191CB0
:1066000014220AF023FF214B1B68181C642100226E
:1066100006F00CFA031CFB60FB68002B30D0F96815
:106620001E4A1C4B081C111C1A1CFFF7C9FD27E051
:10663000154B1B78032B23D10AF008FC031C002BFD
:106640000AD1114B01221A7082239A00124B101C9E
:10665000191C18220AF0FAFE0C4B1B68181C642146
:10666000002206F0E3F9031CBB60BB68002B07D0D7
:10667000B9680B4A074B081C111C1A1CFFF7A0FD38
:10668000BD4606B080BDC0469C2400208824002062
:106690001901000048430200642D0020230100007E
:1066A0002901000080B582B000AF78600BF09CFC3F
:1066B000BD4602B080BDC04680B582B000AF7860F4
:1066C000084B1B780133DAB2064B1A70054B1B7866
:1066D0000B2B04D9034B00221A700BF06DFDBD4645
:1066E00002B080BD10280020B0B584B000AF051CFA
:1066F000B81D05801A480568B81D0088011C0020D7
:10670000021C480CD4030443CB03124A10495B1803
:106710005441181C211C104A104B0CF0BFF8031CEC
:106720000C1C281C191C002206F080F9031CFB60BD
:10673000FB68002B07D0F9680A4A0B4B081C111C98
:106740001A1CFFF73DFDBD4604B0B0BDC046C046B3
:10675000F401000000000000E80300000000000059
:106760008C2400204101000048430200C046C0467E
:1067700080B58AB000AF564B00200E211A1C0023B2
:1067800005F050FF031C7B627B6A3B623B6A002B77
:1067900007D0396A4F4A504B081C111C1A1CFFF7CE
:1067A0000FFD4E4A4E4B101C01211A1C05F0A2FF92
:1067B000031CFB61FB69002B08D0F969A6235A0072
:1067C000454B081C111C1A1CFFF7FAFC454A464BA6
:1067D000101C01211A1C05F08DFF031CBB61BB6955
:1067E000002B07D0B969414A3B4B081C111C1A1CED
:1067F000FFF7E6FC3B4B1A6880231B02101C191C98
:10680000002206F013F9031C7B617B69002B08D082
:106810007969A9235A00304B081C111C1A1CFFF778
:10682000CFFC334A334B101C01211A1C05F062FFC8
:10683000031C3B613B69002B07D039692E4A264B6C
:10684000081C111C1A1CFFF7BBFC294B1A68962365
:106850001B04101C191C002206F0E8F8031CFB6046
:10686000FB68002B08D0F968AC235A001A4B081CAF
:10687000111C1A1CFFF7A4FC204A214B101C0021FC
:106880001A1C05F037FF031CBB60BB68002B07D048
:10689000B9681C4A104B081C111C1A1CFFF790FC0D
:1068A000194A1A4B101C00211A1C05F023FF031C67
:1068B0007B607B68002B08D07968B1235A00064BB7
:1068C000081C111C1A1CFFF77BFCBD460AB080BDDA
:1068D0001826002047010000484302007C240020C5
:1068E000B966010080240020796401005101000094
:1068F00084240020996401005701000088240020AE
:10690000696501005D0100008C240020A56601007E
:1069100080B58EB000AF3B1C1C331A780F218A4320
:1069200001210A431A703B1C1C3319780F220A40BC
:1069300010210A431A703B1D181C0AF09BFE3B1DD8
:10694000181C0DF0B9FB031C9BB2391C1C313A1DFD
:10695000081C111C1A1CFFF701FC031C7B637B6BDA
:106960003B633B6B002B08D0396BBF235A00254B90
:10697000081C111C1A1CFFF723FCC0239B00181CC9
:10698000FFF7E4FB031C7B637B6BFB62FB6A002B62
:1069900007D0F96A1C4A1B4B081C111C1A1CFFF774
:1069A0000FFC3B1C2033181C002108220DF0F8FAC4
:1069B0003B1C2033C82252001A803B1C2033C822C3
:1069C00092005A803B1C203301229A803B1C2033CA
:1069D00096229200DA803B1C2033181CFFF7BAFB8A
:1069E000031C7B637B6BBB62BB6A002B07D0B96A5D
:1069F000064A044B081C111C1A1CFFF7E1FBBD469C
:106A00000EB080BD48430200810100008B010000F0
:106A100080B5A0B000AFFB1D06221A703A1C274BB0
:106A2000111C1A1C0423081C111C1A1C0DF016FA48
:106A30003B1C4033181C002138220DF0B1FA3B1CDE
:106A4000403300221A703B1C403301229A703B1CD9
:106A5000403301229A803B1C4033FA1D9A603B1C54
:106A6000403301221A833B1C40333A1CDA613B1C41
:106A70000833181C002138220DF092FA3B1C083311
:106A800002221A703A1C40323B1C0833101C191C9D
:106A900004F0FCFE031CFB67FB6FBB67BB6F002BA6
:106AA00008D0B96FD6235A00054B081C111C1A1CBC
:106AB000FFF786FBBD4620B080BDC04654430200B0
:106AC0004843020080B500AFFFF7A2FF0B4B181C34
:106AD000002114220DF064FA084B00221A70074BB3
:106AE00000225A60054B00221A72044B044A1A8293
:106AF000024B00225A82BD4680BDC0466824002059
:106B00000808000080B582B000AF786039603B684B
:106B10001B78042B13D89A000B4BD3181B689F4685
:106B200006F01AFF0CE006F083FF09E007F088FA90
:106B300006E006F055FF03E006F0C6FF00E0C046A1
:106B4000BD4602B080BDC0465843020080B584B047
:106B500000AF021CFB1D1A70FB1D1B780F2B01D907
:106B6000202313E0FB1D1B78092B06D83B1C0F3399
:106B7000FA1D127830321A7005E03B1C0F33FA1DF3
:106B8000127857321A703B1C0F331B78181CBD4605
:106B900004B080BD80B582B000AF06F049FF06F0BA
:106BA00093FF01206021FFF7DDFB154B1A88154B81
:106BB0009A4213D0124B1B88181C1321FFF7BEFA00
:106BC000031C7B607B68002B08D0796883239A00C4
:106BD0000D4B081C111C1A1CFFF7F2FA05F04AF9BC
:106BE000031C3B603B68002B07D03968074A064B03
:106BF000081C111C1A1CFFF7E3FABD4602B080BD49
:106C000000200020FFFF0000484302000E020000A9
:106C100090B5A7B000AF3B1C6833181C00210422BC
:106C20000DF0BEF9404BBB66404A3B1C6833101C5C
:106C3000191C01F02BFC031C9021C9190B60902238
:106C4000D21913688C21C9190B608C22D2191368D0
:106C5000002B09D08C23DB191968354A354B081CE9
:106C6000111C1A1CFFF7ACFA3B1C2033181C002126
:106C700040220DF095F93A1C20322F4B101C191CA4
:106C800004F0E2F83B1C20331A1C08322B4B101C7A
:106C9000191C04F0D9F82A4B8821C9190B603B1C38
:106CA000973300221A7060E03B1C97331A78131C4C
:106CB0005B009C183B1C97331B788821C9190A6814
:106CC000D3181B781B09DBB2181CFFF73FFF031C0E
:106CD0001A1C1C4B1A553B1C97331A78131C5B006B
:106CE0009B185C1C3B1C97331B788821C9190A68C8
:106CF000D3181A780F231340DBB2181CFFF726FFB6
:106D0000031C1A1C0F4B1A553B1C97331B78052B81
:106D10001AD13B1C97331A78131C5B009B18023363
:106D2000084A0021D15419E0056B01007C2D002098
:106D300027020000484302006C4302008043020027
:106D4000A4000010F82500203B1C97331A78131C70
:106D50005B009B180233B24A3A21D1543B1C973353
:106D60003A1C9732127801321A703B1C97331B7809
:106D7000052B99D93B1C20331A1C1032A84B101C30
:106D8000191C04F061F83B1C20331A1C2032A54B5F
:106D9000101C191C04F058F83B1C20331A1C283214
:106DA000A14B101C191C04F04FF83A1C20323C2354
:106DB000D15C0F20814301200143D1543A1C203281
:106DC0003C23D05C0F21014010200143D1543A1CD8
:106DD00020323D23D15C0F208143D1543A1C203214
:106DE0003D23D05C0F210140D1543B1C2033181CA3
:106DF00002F030F9031C9022D21913609021C919B6
:106E00000B688422D21913608421C9190B68002BE6
:106E100009D08422D2191168844A854B081C111CA0
:106E20001A1CFFF7CDF93B1C6033181C0021082207
:106E30000DF0B6F83B1C60331A790F218A4301210B
:106E40000A431A713B1C603319790F220A40102142
:106E50000A431A713B1C60335A790F218A4301217E
:106E60000A435A713B1C603359790F220A401021A2
:106E70000A435A713B1C603300221A606D4A3B1C66
:106E80006033101C191C03F0DFFB031C9021C9198F
:106E90000B609022D21913688021C9190B608022DF
:106EA000D2191368002B09D08023DB191968624AB4
:106EB0005F4B081C111C1A1CFFF782F93B1C0C339A
:106EC000181C002114220DF06BF83B1C0C335A7B6C
:106ED0000F218A435A733B1C0C33597B0F220A4003
:106EE0005A733B1C0C339A7B0F218A4301210A43BE
:106EF0009A733B1C0C33997B0F220A4010210A43E2
:106F00009A733B1C0C33DA7B0F218A43DA733B1CE8
:106F10000C33D97B0F220A40DA733B1C0C3300225E
:106F20001A603B1C0C3300221A713B1C0C330022EC
:106F30009A603B1C0C3364221A73404A3B1C0C338E
:106F4000101C191C01F018FE031CFB67FB6F002BC3
:106F500007D0F96F3A4A364B081C111C1A1CFFF770
:106F60002FF903F0D7FE031CBB67BB6F002B08D0C3
:106F7000B96F97239A002E4B081C111C1A1CFFF79F
:106F80001FF93B1D181C002108220DF009F83B1DBC
:106F90002C4A1A603B1D00225A602B4A3B1D101CD4
:106FA000191C02F081FC031C9021C9190B6090226E
:106FB000D21913687B677B6F002B08D0796F9923F8
:106FC0009A001B4B081C111C1A1CFFF7F9F81F4BE9
:106FD000181C0AF081FE1E4B181C03F051F8031C0C
:106FE0003B673B6F002B08D0396F9A239A00104BF8
:106FF000081C111C1A1CFFF7E3F80AF08FFF031C92
:10700000FB66FB6E002B07D0F96E124A084B081C7A
:10701000111C1A1CFFF7D4F8BD4627B090BDC0461E
:10702000F82500208843020094430200410200003A
:1070300048430200FC2D00204A020000E42D0020FD
:10704000590200008D1C0200BC2D0020956B010030
:10705000A42D00206B02000080B582B000AF0B4B66
:10706000181CFFF767F8031C7B607B683B603B687C
:10707000002B07D03968064A064B081C111C1A1C45
:10708000FFF79EF8BD4602B080BDC04668240020D0
:10709000750200004843020080B58CB000AF3B1D74
:1070A000181C002124220CF07BFF3B1D00221A60DB
:1070B0003B1D1B4A9A603B1D02221A733B1D002296
:1070C000DA813B1D00221A743B1D164A5A613B1D92
:1070D00000229A613B1DC82292009A833B1D962292
:1070E000D200DA833B1D01221A843B1DC822920084
:1070F0005A843B1D181C04F063FE031CFB62FB6AF0
:10710000BB62BB6A002B08D0B96AA4239A00064B65
:10711000081C111C1A1CFFF753F8BD460CB080BDAB
:10712000CD0C0000DD2102004843020080B592B082
:1071300000AF786000237B643B1C433300221A704D
:107140003B1C0A3320221A807B681B88192B00D134
:1071500089E004DC102B09D0112B25D0BBE0522B89
:1071600000D1B0E0552B00D193E0B4E07B689A8861
:107170005D4B1A805D4A5E4B101C191CFEF7F2FF36
:10718000031CFB63FB6B002B08D0F96BA9239A004F
:10719000584B081C111C1A1CFFF712F80AF0E2FBEE
:1071A00000200AF0F3FF9BE001200AF0EFFF3A1CF9
:1071B0000C323B1C0A33101C191CFEF7D3FF031CB6
:1071C000BB63BB6B002B08D0B96BAD239A00494B56
:1071D000081C111C1A1CFEF7F3FF454B1A883B1CB8
:1071E0000A331B889A420CD1414B1B883F493A1CF9
:1071F0000C32081C111C1A1C0CF0D6FD031C002BB1
:1072000025D03D4B02221A703B1C0A331B883A1CC6
:107210000C320021D154394A3B1C0C33101C191C70
:1072200014220CF01BFE364B1B68181C0A2100228E
:1072300005F0FCFB031C7B637B6B002B07D0796B99
:10724000304A2C4B081C111C1A1CFEF7B9FF3B1CC2
:1072500043337A6892791A70234B012252421A8082
:10726000FFF7FAFE3CE07B689B79002B35D1FEF7F7
:1072700085FF031C7B647B6C3B633B6B002B2CD03A
:10728000396B214A1B4B081C111C1A1CFEF798FF76
:1072900023E07B689B79002B21D1134B1B88181CA2
:1072A0001321FEF74BFF031C7B647B6CFB62FB6AC4
:1072B000002B14D0F96A154A0E4B081C111C1A1C1D
:1072C000FEF77EFF0BE07B689B88181C00210022E4
:1072D000FEF74CFF04E0C04602E0C04600E0C046B6
:1072E000BD4612B080BDC04600200020D825002039
:1072F00002200020484302009C240020642D00202E
:1073000088240020B9020000D2020000DB02000045
:1073100080B584B000AF78600A1CBB1C1A807B6803
:107320001B68FB60FB68181C09F0CEFDBD4604B06D
:1073300080BDC04680B584B000AF7860104B7A68DD
:107340001A607B68023B012B14D80D4A0D4B101CB0
:1073500004211A1C05F05CFF031CFB60FB68002B7A
:107360000AD0F968084A094B081C111C1A1CFEF7C0
:1073700027FF01E0C04600E0C046BD4604B080BD26
:10738000D4250020117301000603000048430200C9
:1073900090B58BB000AF7861204A7B69101C191C36
:1073A00000F078FC1E4A7B69101C191C03F07AF867
:1073B0001C4A7B69101C191C01F04AFA7B69181CD5
:1073C000FFF7B4FE7B69181C04F056FE164A7B6971
:1073D000101C191C02F0E2FA144A7B69101C191CDB
:1073E00002F08CFC03F0DEFC031C002B12D03C1CD2
:1073F00018343B1C181C03F0C5FC3A1C231C13CA90
:1074000013C312681A603A1C18327B69101C191CCD
:1074100003F0A0FBBD460BB090BDC0467C2D002004
:10742000FC2D0020E42D0020BC2D0020A42D0020E8
:1074300080B582B000AF78607B68181CFFF77AFFD8
:10744000BD4602B080BDC04680B588B000AF304BAD
:107450000E20191C5022002304F03CFB031CFB618E
:10746000FB69BB61BB69002B07D0B969294A2A4B6C
:10747000081C111C1A1CFEF7A3FE3B1D181C002142
:1074800001220CF08DFD3B1D1A7801218A431A70F0
:107490003B1D181CFEF76EFE031C7B617B693B6184
:1074A0003B69002B08D03969D1239A001A4B081C7C
:1074B000111C1A1CFEF784FE184B181C04F050FB1C
:1074C000031C7B617B69FB60FB68002B08D0F968BB
:1074D000D2239A00104B081C111C1A1CFEF770FED8
:1074E0000F4B181C04F050FB031C7B617B69BB60D5
:1074F000BB68002B08D0B968D3239A00064B081C40
:10750000111C1A1CFEF75CFEBD4608B080BDC046CB
:10751000842500203D0300004843020091730100D0
:107520003174010080B582B000AFFEF72BFE031C62
:107530007B607B68002B07D07968054A054B081CE7
:10754000111C1A1CFEF73CFEBD4602B080BDC046B1
:10755000530300004843020080B582B000AF0C4BDB
:1075600008200A211A1C05F00BFE031C7B607B68B7
:107570003B603B68002B08D03968D6239A00054B46
:10758000081C111C1A1CFEF71BFEBD4602B080BD74
:10759000D42400204843020080B500AF0B4A0C4BB6
:1075A0000121D150094A0B4B80214902D150074A91
:1075B0000649A123DB00CB5801211943A123DB009D
:1075C000D150024B01221A60BD4680BD000001402F
:1075D0000C0500000405000080B582B000AF0B4B25
:1075E0000120191C0AF0A6FF031C7B607B683B602E
:1075F0003B68002B07D03968054A064B081C111C54
:107600001A1CFEF7DDFDBD4602B080BDC02400207F
:10761000650300004843020080B582B000AF0A4B0A
:107620000020191CFEF7B2FD031C7B607B68002B59
:1076300007D07968054A064B081C111C1A1CFEF776
:10764000BFFDBD4602B080BD000080FF6A030000A0
:107650004843020080B582B000AFFFF7DDFF09F0BC
:107660007FFDFFF799FFFFF783F8FFF7B5FFFFF7FF
:10767000EBFEFFF771FF364B032000211A1C07F0C9
:10768000FFFC03F01BF807F085FA06F03BFC06F060
:107690003BFF07F04FFB07F0DFFE0AF071FC2D4BBC
:1076A0001A6896231B04101C191C002205F0BEF951
:1076B000031C7B607B68002B07D07968264A274B28
:1076C000081C111C1A1CFEF77BFD0420FEF73AFD76
:1076D000031C3B603B68002B07D03968204A1F4BD6
:1076E000081C111C1A1CFEF76BFDFFF711F9FFF7C0
:1076F000E9F9FFF78DFAFFF7CFFCFFF7ADFC194B67
:10770000181C05F06FFA05F09DFE174B181C05F0CC
:1077100069FA154B1968134B1A68144B081C111C95
:107720001A1C05F06DFA124B1A68104B1B689A422E
:1077300003D20E4B1A680E4B1A600E4B1A680C4B94
:107740001B68D2180B4B1A60FFF7ECFED7E7C04658
:107750008D0E02007C2400209103000048430200AB
:1077600092030000B4240020B8240020BC24002090
:10777000A0240020A4240020A0DF7047181CC046CD
:10778000A2DF7047181CC046A4DF7047181CC04613
:10779000A6DF7047181CC046A8DF7047181CC046FB
:1077A00080B582B000AF021C3960BB1D1A80BB1DC2
:1077B0001B88DAB23B681A703B680133BA1D128825
:1077C000120A92B2D2B21A700223181CBD4602B03D
:1077D00080BDC04680B582B000AF786039607B68FC
:1077E000DAB23B681A703B6801337968FF221202F3
:1077F0000A40120AD2B21A703B6802337968FF223B
:1078000012040A40120CD2B21A703B6803337A6831
:10781000120ED2B21A700423181CBD4602B080BDED
:1078200080B582B000AF78607B681B781A1C7B68DB
:1078300001331B781B029BB213439BB29BB2181CF3
:10784000BD4602B080BDC04690B585B000AF78603F
:107850003C1C0E347B68181CFFF7E2FF031C2380DE
:107860003B1C0E331A88012313405A1E9341DBB28E
:10787000181CBD4605B090BD90B585B000AF7860CE
:107880003C1C0E347B68181CFFF7CAFF031C2380C6
:107890003B1C0E331A88022313405A1E9341DBB25D
:1078A000181CBD4605B090BD90B585B000AF78609E
:1078B00039607B681A883C1C0F343B68101C191C0B
:1078C000FFF76EFF031C23703B1C0F331B783A68D5
:1078D000D3187A6892781A703B1C0F333A1C0F3217
:1078E000127801321A703B1C0F331B783A68D31898
:1078F0007A68D2781A703B1C0F333A1C0F32127818
:1079000001321A703B1C0F331B783A68D3187A681F
:1079100012791A703B1C0F333A1C0F321278013265
:107920001A703B1C0F331B783A68D3187A68527967
:107930001A703B1C0F333A1C0F32127801321A7046
:107940003B1C0F331B783A68D3187A6892791A7007
:107950003B1C0F333A1C0F32127801321A703B1C59
:107960000F331B78181CBD4605B090BD80B582B0A2
:1079700000AF786039603B689A887B689A80BD4622
:1079800002B080BD80B582B000AF786039607B689E
:10799000012252429A80044B00221A70034B0022AB
:1079A0001A70BD4602B080BD1C2800201D28002092
:1079B00080B586B000AF786039603B6806337B6184
:1079C0007B691A887B689B899A4227D17B691B8BCC
:1079D000022B23D17B681B68002B00D175E07B69EB
:1079E0001A33181CFFF748FF031C1A1C384B1A7077
:1079F000374B1B78002B04D03B1C0C3300221A7031
:107A000003E03B1C0C3301221A707B681B68796809
:107A10003A1C0C32081C111C984756E07B691A88E6
:107A20007B689B8A9A4226D17B691B8B022B22D1D1
:107A30007B681B68002B48D07B691A33181CFFF742
:107A400003FF031C1A1C234B1A70224B1B78002BBC
:107A500004D03B1C083303221A7003E03B1C08339C
:107A600004221A707B681B6879683A1C0832081C6B
:107A7000111C984729E07B691A887B681B8A9A4207
:107A800023D17B691B8B0C2B1FD17B691A1C1A32EB
:107A9000114B101C191C0C220CF086F9031C002B36
:107AA0000ED103F037F9031C3B613B69002B0CD06E
:107AB0003A690A4B101C65211A1CFEF781FB04E091
:107AC0007B691A33181C08F091FEBD4606B080BDD4
:107AD0001D2800201C2800209C430200AC4302000B
:107AE00080B590B000AF786039603B1C2033002235
:107AF0001A60043300221A60043300221A6004332F
:107B00003B1C1033FB633B1C1033181C002110225C
:107B10000CF046FA3B680233BB63BB6B1B78012B4E
:107B200032D1BB6B5A887B681B8A9A4200D08BE0AB
:107B30003B1C2033181C08F0EDFE3B1C10330122C7
:107B40001A703B1C10333A1C2032DA603B1C103395
:107B50000C225A813B1C10339A7901210A439A71F5
:107B60007B689A88FB6B101C191CFFF715FE031C21
:107B70007B637B6B002B67D07A6B354B101C7E21AF
:107B80001A1CFEF71DFB5FE0BB6B1B78022B5BD161
:107B9000BB6B5A887B681B8B9A4255D13B1C323396
:107BA00000221A803B1C0E3302221A803B1C103329
:107BB00002221A70BB6B5B8B022B04D03B1C103370
:107BC000244A9A802DE0BB6B5B7F1B029AB2BB6B91
:107BD0001B7F13439AB23B1C32331A803B1C323357
:107BE0001B88FF2B19D83B1C32331B88002B14D069
:107BF0003B1C103300229A803B1C32331B88181C1C
:107C000005F042FE7B68198BBB6B1C333A1C0E32AD
:107C1000081C0021FFF7B8FD03E03B1C10330D4AA0
:107C20009A807B689A88FB6B101C191CFFF7B4FDC7
:107C3000031CFB62FB6A002B06D0FA6A044B101C83
:107C400093211A1CFEF7BCFABD4610B080BDC04699
:107C5000AC4302000D01000080B584B000AF786035
:107C600039603B680633FB60FB681A887B681B89B8
:107C70009A420BD13B1C083302221A707B681B68A6
:107C800079683A1C0832081C111C9847BD4604B09C
:107C900080BDC04680B582B000AF786039603B6877
:107CA0001B88502B18D004DC102B07D0112B0CD0C4
:107CB00028E0512B17D0532B1DD023E07A683B6866
:107CC000101C191CFFF752FE1DE07A683B68101C5F
:107CD000191CFFF757FE16E07A683B68101C191C48
:107CE000FFF766FE0FE03B6804337A68101C191C2E
:107CF000FFF7F6FE07E07A683B68101C191CFFF7D7
:107D0000ABFF00E0C046BD4602B080BD80B584B088
:107D100000AF786039603B1C0F3300221A703B1CA7
:107D20000E3301221A707B681B78002B07D03B1C96
:107D30000F333A1C0F32127801210A431A707B6804
:107D40005B78002B07D03B1C0F333A1C0F321278A4
:107D500002210A431A707B681B78002B13D03B1C4E
:107D60000F333A1C0F32127801210A431A707B68D4
:107D70001B7B5BB21B061A1C7B681B691B021B0A60
:107D80001343BB600AE07B681B795BB21B061A1CBD
:107D90007B689B681B021B0A1343BB603B1C0E33B2
:107DA0001B783A68D318BA68101C191CFFF712FD2B
:107DB000031C191C3B1C0E333A1C0E3212788A1815
:107DC0001A707B685B78002B1CD03B1C0F333A1C6D
:107DD0000F32127802210A431A707B681A1C14327F
:107DE0003B1C0E331B783968CB18101C191CFFF78D
:107DF0005BFD031C191C3B1C0E333A1C0E3212781F
:107E00008A181A707B689B78002B16D03B1C0F33A6
:107E10003A1C0F32127804210A431A703B1C0E33AD
:107E20001B783A68D3187A68127F1A703B1C0E339D
:107E30003A1C0E32127801321A703B683A1C0F322B
:107E400012781A703B1C0E331B78181CBD4604B008
:107E500080BDC04680B59EB000AF78603B1C5833F3
:107E6000181C002103220CF09BF83B1C58331A7895
:107E70000F218A4301210A431A703B1C5833197899
:107E80000F220A4010210A431A703B1C58339A787B
:107E900006218A4302210A439A703B1C58335A78C0
:107EA0000F218A4301210A435A703B1C58335978E9
:107EB0000F220A4010210A435A703B1C5C33181CE5
:107EC00000211C220CF06CF83B1C5C331A7820213A
:107ED0000A431A703B1C5C3300225A603B1C5C3323
:107EE0000022DA603B1C5C3300221A613B1C5C33CD
:107EF0003A1C58325A613B1C5C3300229A613B1C8D
:107F0000403301229A703B1C40333E4A1A803B1C8E
:107F10003C33181C002103220CF042F83B1C3C337C
:107F20009A7806218A4302210A439A703B1C3C330B
:107F30001A780F218A431A703B1C3C3319780F22A0
:107F40000A401A703B1C3C335A780F218A435A70FE
:107F50003B1C3C3359780F220A405A703B1C3C337F
:107F60009A7808218A439A703B1C3C339A781021F6
:107F70008A439A703B1C3C339A7801210A439A70D9
:107F80003B1C4433181C002114220CF009F83B1C44
:107F90001C33181C002120220CF002F83B1C443337
:107FA0003A1C40321A603B1C44333A1C3C325A6043
:107FB0003A1C1C323B1C0833101C191CFFF7A6FE90
:107FC000031C1A1C3B1C44331A813B1C4433002203
:107FD0005A813B1C443314229A813B1C44333A1C83
:107FE00008321A617B68D8887B680833391C5C3199
:107FF0003A1C4432FFF7C4FB031C181CBD461EB0DC
:1080000080BDC0461C2A000080B59EB000AF7860DD
:108010003B1C5833181C002103220BF0C1FF3B1CF2
:1080200058331A780F218A4301210A431A703B1CE6
:10803000583319780F220A4010210A431A703B1C4A
:1080400058339A7806218A4302210A439A703B1CCE
:1080500058335A780F218A4301210A435A703B1C36
:10806000583359780F220A4010210A435A703B1C9A
:108070005C33181C00211C220BF092FF3B1C5C336C
:108080001A7810210A431A703B1C5C331A780221BB
:108090000A431A703B1C5C331A7808210A431A7091
:1080A0003B1C5C3300225A603B1C5C330022DA60CC
:1080B0003B1C5C3300221A613B1C5C333A1C583277
:1080C0005A613B1C5C3300229A613B1C4033012205
:1080D0009A703B1C4033424A1A803B1C3C33181CAC
:1080E000002103220BF05CFF3B1C3C339A780621F5
:1080F0008A4302210A439A703B1C3C331A780F21B1
:108100008A4301210A431A703B1C3C3319780F2221
:108110000A4010210A431A703B1C3C335A780F2145
:108120008A4301210A435A703B1C3C3359780F2281
:108130000A4010210A435A703B1C3C339A780821AC
:108140000A439A703B1C3C339A7810218A439A70F8
:108150003B1C3C339A7801210A439A703B1C443300
:10816000181C002114220BF01BFF3B1C1C33181C95
:10817000002120220BF014FF3B1C44333A1C4032F8
:108180001A603B1C44333A1C3C325A603A1C1C3285
:108190003B1C0833101C191CFFF7B8FD031C1A1CEC
:1081A0003B1C44331A813B1C443300225A813B1C44
:1081B000443314229A813B1C44333A1C08321A611E
:1081C0007B68D8887B681033391C5C313A1C443298
:1081D000FFF7D6FA031C181CBD461EB080BDC04672
:1081E0001E2A000080B592B000AF78603B1C2C3393
:1081F000181C00211C220BF0D3FE3B1C2C331A78D8
:1082000002210A431A703B1C2C331A7808210A43B6
:108210001A703B1C2C3300225A603B1C2C3300226A
:10822000DA603B1C2C3300221A613B1C2C330022E9
:108230005A613B1C2C3300229A613B1C14330122EF
:108240009A703B1C14333D4A1A803B1C1033181C97
:10825000002103220BF0A4FE3B1C10339A78062168
:108260008A4302210A439A703B1C10331A780F216B
:108270008A4301210A431A703B1C103319780F22DC
:108280000A4010210A431A703B1C10335A780F2100
:108290008A4301210A435A703B1C103359780F223C
:1082A0000A4010210A435A703B1C10339A78082167
:1082B0008A439A703B1C10339A7810210A439A70B3
:1082C0003B1C10339A7801218A439A703B1C183367
:1082D000181C002114220BF063FE05F0CBFA031CDE
:1082E0001A1C3B1C0E331A803B1C18333A1C1432E8
:1082F0001A603B1C18333A1C10325A603B1C18336E
:1083000002221A813B1C183300225A813B1C18336D
:1083100002229A813B1C18333A1C0E321A617B6888
:10832000D8887B681833391C2C313A1C1832FFF777
:1083300027FA031C181CBD4612B080BD212A00007C
:1083400080B592B000AF78603B1C2C33181C002124
:108350001C220BF025FE3B1C2C331A7802210A4309
:108360001A703B1C2C3300225A603B1C2C33002219
:10837000DA603B1C2C3300221A613B1C2C33002298
:108380005A613B1C2C3300229A613B1C143301229E
:108390009A703B1C14333C4A1A803B1C1033181C47
:1083A000002103220BF0FCFD3B1C10339A780621C0
:1083B0008A4302210A439A703B1C10331A780F211A
:1083C0008A4301210A431A703B1C103319780F228B
:1083D0000A4010210A431A703B1C10335A780F21AF
:1083E0008A435A703B1C103359780F220A405A7046
:1083F0003B1C10339A7808218A439A703B1C103337
:108400009A7810218A439A703B1C10339A78012184
:108410008A439A703B1C1833181C002114220BF05D
:10842000BFFD3B1C0C3301221A803B1C0C33FF2286
:108430005A803B1C18333A1C14321A603B1C183308
:108440003A1C10325A603B1C183304221A813B1C20
:10845000183300225A813B1C183304229A813B1C9A
:1084600018333A1C0C321A617B68D8887B68203339
:10847000391C2C313A1C1832FFF782F9031C181CE6
:10848000BD4612B080BDC0460629000080B584B04C
:1084900000AF786039603B681A687B681A607B6857
:1084A000012252429A803B1C083301229A703B1CE5
:1084B0000833214A1A807B6806333A1C08320120AF
:1084C000111C1A1CFFF758F9031CFB60FB68002BFA
:1084D00001D0FB682CE07B68181CFFF7BBFC031C79
:1084E000FB60FB68002B01D0FB6821E07B68181C57
:1084F000FFF78AFD031CFB60FB68002B01D0FB68C3
:1085000016E07B68181CFFF76DFE031CFB60FB6820
:10851000002B01D0FB680BE07B68181CFFF710FFF5
:10852000031CFB60FB68002B01D0FB6800E000230C
:10853000181CBD4604B080BD0918000080B58EB07F
:1085400000AF786039607B689A88294B9A4247D09F
:108550003A683B1C1C33101C191CFFF7D7FB031C8B
:108560001A1C3B1C32331A803B1C1A333A1C323221
:1085700012881A803B1C0833181C002110220BF0B3
:108580000FFD7B681A893B1C08331A803B1C08339B
:1085900002229A703B1C083300229A803B1C08334D
:1085A0003A1C1A329A603B1C08333A1C1C32DA60BF
:1085B0007B689A883B1C0833101C191CFFF7E8F8ED
:1085C000031C7B637B6B002B0CD13B1C1A331B8879
:1085D0003A1C323212889A4204D00C237B6301E0A9
:1085E00008237B637B6B181CBD460EB080BDC04664
:1085F000FFFF000080B58EB000AF786039607B6807
:108600009A88294B9A4247D03A683B1C1C33101C6D
:10861000191CFFF77BFB031C1A1C3B1C32331A800E
:108620003B1C1A333A1C323212881A803B1C083326
:10863000181C002110220BF0B3FC7B681A8A3B1C2B
:1086400008331A803B1C083301229A703B1C083304
:1086500000229A803B1C08333A1C1A329A603B1C59
:1086600008333A1C1C32DA607B689A883B1C08335A
:10867000101C191CFFF78CF8031C7B637B6B002B11
:108680000CD13B1C1A331B883A1C323212889A4296
:1086900004D00C237B6301E008237B637B6B181CF5
:1086A000BD460EB080BDC046FFFF0000A0DF704792
:1086B000181CC046A2DF7047181CC046A3DF7047D5
:1086C000181CC046A8DF7047181CC04680B582B091
:1086D00000AF78607B681B781A1C7B6801331B78BD
:1086E0001B029BB213439BB29BB2181CBD4602B047
:1086F00080BDC04690B585B000AF78603C1C0E349C
:108700007B68181CFFF7E2FF031C23803B1C0E3321
:108710001A88012313405A1E9341DBB2181CBD4630
:1087200005B090BD80B582B000AF786039603B681D
:108730009A887B685A82BD4602B080BD80B582B0FF
:1087400000AF786039607B68012252425A82BD4690
:1087500002B080BD80B584B000AF786039607B68BE
:108760001B7D002B29D03B680633FB60FB681A8811
:108770007B685B899A4220D1FB681B8B022B1CD142
:108780007B681B68002B18D0FB681A33181CFFF796
:10879000B1FF031C002B04D03B1C083300221A70CD
:1087A00003E03B1C083301221A707B681B68796860
:1087B0003A1C0832081C111C9847BD4604B080BD05
:1087C00080B58AB000AF786039603B1C0C337B62A7
:1087D0003B1C0C33181C002110220BF0E1FB3B6802
:1087E00002333B623B6A1B78012B2CD13B6A5A88CF
:1087F0007B68DB889A4226D109F0B4F83B1C0C3325
:1088000001221A703B1C0C330022DA603B1C0C3333
:1088100000225A813B1C0C339A7901218A439A71B8
:108820007B685A8A7B6A101C191CFFF74BFF031CDC
:10883000FB61FB69002B06D0FA69044B101C6B210D
:108840001A1CFDF7BDFCBD460AB080BDD443020032
:1088500080B582B000AF786039603B681B88112B0F
:108860000FD002DC102B05D021E0502B10D0512B63
:1088700015D01CE07A683B68101C191CFFF752FFEA
:1088800016E07A683B68101C191CFFF757FF0FE0D1
:108890007A683B68101C191CFFF75CFF08E03B6816
:1088A00004337A68101C191CFFF78AFF00E0C046E9
:1088B000BD4602B080BDC04690B595B000AF7860AF
:1088C00039607B681B7D002B23D03B1C2833181C90
:1088D000002103220BF064FB3B1C28331A780F2184
:1088E0008A4301210A431A703B1C283319780F224E
:1088F0000A4010210A431A703B1C28333A68527B05
:108900005A703B1C28339A7806218A4302210A4375
:108910009A703B1C2C33181C00211C220BF040FBCE
:108920003B1C2C331A7802210A431A707B681B7D8A
:108930001A1C01231340D9B23B1C2C3301220A40DC
:1089400012011978102081430A431A703B1C2C3302
:1089500000225A603B1C2C330022DA603B1C2C3373
:1089600000221A617B681B7D002B02D03A1C283242
:1089700000E000223B1C2C335A613B1C2C330022AC
:108980009A613B1C103301229A703B1C1033784AC9
:108990001A803B1C0C33181C002103220BF000FB37
:1089A0003B1C0C333A68927B1A703B1C0C333A68C0
:1089B000D27B5A703B1C0C339A7806218A430221E1
:1089C0000A439A703B1C0C339A7808210A439A7028
:1089D0003B1C0C339A7810218A439A703B1C0C3351
:1089E0009A7801218A439A703B681A7B3B1C0B33AF
:1089F0001A703B1C1433181C002114220BF0D0FAFF
:108A00003B1C14333A1C10321A603B1C14333A1CC2
:108A10000C325A603B1C143301221A813B1C143364
:108A200000225A813B1C143301229A813B1C1433CF
:108A30003A1C0B321A617B6898887B680633391CB4
:108A40002C313A1C1432FFF735FE031CFB64FB6C1F
:108A5000002B01D0FB6C87E03B689B68002B00D1AA
:108A60007EE03B1C103301229A703B1C1033414ABC
:108A70001A803B1C0C33181C002103220BF090FAC7
:108A80003B1C0C333A68127C1A703B1C0C335A782E
:108A90000F218A435A703B1C0C3359780F220A402D
:108AA0005A703B1C0C339A7806218A4302210A43F0
:108AB0009A703B1C0C339A7808218A439A703B1CAD
:108AC0000C339A7810218A439A703B1C0C339A78A5
:108AD00001218A439A703B689B683C1C4B343A1CCA
:108AE0000832101C191C02F067F9031C23703B1C90
:108AF0001433181C002114220BF052FA3B1C1433BF
:108B00003A1C10321A603B1C14333A1C0C325A6067
:108B10003B1C4B331B789AB23B1C14331A813B1C11
:108B2000143300225A813B1C14331A893B1C143322
:108B30009A813B1C14333A1C08321A617B68D9882D
:108B40007B680E333A1C1432081C111C1A1CFFF7E8
:108B5000B5FD031CFB64FB6C002B04D0FB6C03E035
:108B60007B680022DA810023181CBD4615B090BD39
:108B7000192A00000829000080B584B000AF786091
:108B800039603B681A687B681A607B680122524230
:108B90005A823B681A797B681A757B68FF221A74BF
:108BA0003B1C083301229A703B1C08330E4A1A8082
:108BB0007B6804333A1C08320120111C1A1CFFF791
:108BC00075FD031CFB60FB68002B01D0FB6806E011
:108BD0007A683B68101C191CFFF76EFE031C181CFA
:108BE000BD4604B080BDC0460F18000080B582B0FD
:108BF00000AF021C3960BB1D1A80BB1D1B88DAB296
:108C00003B681A703B680133BA1D1288120A92B28F
:108C1000D2B21A700223181CBD4602B080BDC046F5
:108C2000A0DF7047181CC046A2DF7047181CC04662
:108C3000F0B593B000AFF863B963391C4731BB6B33
:108C40005A1E93410B703B1C47331A780123534043
:108C5000DBB2002B05D0504B002033211A1CFDF74E
:108C6000AFFA391C4631FB6B5A1E93410B703B1C0B
:108C700046331A7801235340DBB2002B05D0464B14
:108C8000002034211A1CFDF79BFABB6B5C681B6843
:108C9000DBB2FA6B1370FB6B581CBB6B19685A681C
:108CA000FF231B020D1C1D400023161C1E40330613
:108CB000290A39633A6B1A433A63330A7B633024D7
:108CC000E41923780370FB6B981CBB6B19685A6816
:108CD000FF231B040C1C1C40BC620023141C1C4002
:108CE000FC62F96A0B04BA6A120C3A623C6A1C43D1
:108CF0003C62F96A090C79622022D2191378037058
:108D0000FB6BDA1CBB6B5C681B68190E0906B9614A
:108D10000021201C0840F861F9690B02BC69240E8F
:108D20003C61386918433861F969090E79613C7C06
:108D3000E3B21370FB6B1A1DBB6B5C681B680021F0
:108D4000181C0840B860FF21201C0840F860F96832
:108D50000900396000237B603C78E3B21370FB6B41
:108D60005A1DBB6B9B68DBB21370FB6B9A1DBB6B10
:108D70009968FF231B020B401B0ADBB21370FB6BCD
:108D8000DA1DBB6B9968FF231B040B401B0CDBB285
:108D90001370BD4613B0F0BDFC43020080B584B033
:108DA00000AF786039603B1C0F3300221A703B1C07
:108DB0000E333A68511E8A411A703B1C0E331B78E1
:108DC00001225340DBB2002B05D03F4B00204B214A
:108DD0001A1CFDF7F5F93B1C0D337A68511E8A41C8
:108DE0001A703B1C0D331B7801225340DBB2002B61
:108DF00005D0354B00204C211A1CFDF7E1F93B1C36
:108E00000F331B787A68D3183A6812781A703B1CB3
:108E10000F333A1C0F32127801321A703B685A88AD
:108E20003B1C0F331B787968CB18101C191CFFF7FB
:108E3000DDFE031C191C3B1C0F333A1C0F32127849
:108E40008A181A703B689A883B1C0F331B78796824
:108E5000CB18101C191CFFF7C9FE031C191C3B1C66
:108E60000F333A1C0F3212788A181A703B68DA886E
:108E70003B1C0F331B787968CB18101C191CFFF7AB
:108E8000B5FE031C191C3B1C0F333A1C0F32127821
:108E90008A181A703B1C0C333A1C0F321278073AAE
:108EA00051424A411A703B1C0C331B78012253403B
:108EB000DBB2002B05D0044B002054211A1CFDF717
:108EC0007FF9BD4604B080BDFC43020080B594B07C
:108ED00000AFB9607B603B1C0E33011C19803B1C4A
:108EE0000C331A803B1C4F33BA68511E8A411A70EA
:108EF0003B1C4F331B7801225340DBB2002B05D0C3
:108F0000524B00206D211A1CFDF75AF93B1C4E33C1
:108F10003A1C0C321288511E8A411A703B1C4E3387
:108F20001B7801225340DBB2002B05D0474B0020B9
:108F30006E211A1CFDF744F93B1C2C33181C002130
:108F40001C220BF02DF83B1C2C331A7802210A430B
:108F50001A703B1C2C3300225A603B1C2C3300221D
:108F6000DA603B1C2C3300221A613B1C2C3300229C
:108F70005A613B1C2C3300229A613B1C483301226E
:108F80009A703B1C48333A1C0E3212881A803B1CE4
:108F90001433181C002103220BF002F83B1C14337D
:108FA0007A6812781A703B1C14337A6852785A70B7
:108FB0003B1C14339A7806218A4302210A439A7093
:108FC0003B1C14339A7808218A439A703B1C143353
:108FD0009A7810218A439A703B1C14339A780121A5
:108FE0008A439A703B1C1833181C002114220AF083
:108FF000D7FF3B1C18333A1C48321A603B1C18330D
:109000003A1C14325A603B1C18333A1C0C3212883A
:109010001A813B1C183300225A813B1C18333A1C1E
:109020000C3212889A813B1C1833BA681A61084BBB
:109030001888391C2C313A1C1832BB6DFFF7F4FD2F
:10904000031C181CBD4614B080BDC046FC43020082
:109050002028002090B58BB002AF78603B1C1833FD
:1090600001229A703B1C1833784A1A803A1C183235
:10907000774B0120111C1A1CFFF7D2FD031CFB616A
:10908000FB69002B01D0FB69DBE07B681B88002BB0
:1090900011D07B6859687B681A887B683C336D48BF
:1090A0006D4C0094FFF712FF031CFB61FB69002B62
:1090B00001D0FB69C5E07B681B89002B11D07B6860
:1090C000D9687B681A897B683C336448644C009497
:1090D000FFF7FCFE031CFB61FB69002B01D0FB6961
:1090E000AFE07B681B8A002B11D07B6859697B68D5
:1090F0001A8A7B683C335B485B4C0094FFF7E6FEC2
:10910000031CFB61FB69002B01D0FB6999E07B68C4
:109110001B8B002B11D07B68D9697B681A8B7B680D
:109120003C335248524C0094FFF7D0FE031CFB61C5
:10913000FB69002B01D0FB6983E07B681B8C002B53
:1091400011D07B68596A7B681A8C7B683C3349482C
:10915000494C0094FFF7BAFE031CFB61FB69002B2E
:1091600001D0FB696DE07B681B8D002B11D07B6803
:10917000D96A7B681A8D7B683C334048404C009428
:10918000FFF7A4FE031CFB61FB69002B01D0FB6908
:1091900057E07B681B6B002B1AD07B681B6B3A1C5B
:1091A0001032101C191CFFF743FD7B683C33354916
:1091B0003A1C103234480090081C111C0822FFF79A
:1091C00085FE031CFB61FB69002B01D0FB6938E0C5
:1091D0007B685B6B002B14D07B685B6B19687B68CA
:1091E0005B6B1B791A1C7B683C332848284C009425
:1091F000FFF76CFE031CFB61FB69002B01D0FB69D0
:109200001FE07B689B6B002B1AD07B689B6B3A1C22
:109210000832101C191CFFF7C1FD7B683C331D4947
:109220003A1C08321C480090081C111C0722FFF74A
:109230004DFE031CFB61FB69002B01D0FB6900E0C4
:109240000023181CBD4609B090BDC0460A18000096
:1092500020280020292A000024280020242A000099
:109260002C280020252A000034280020272A00006E
:109270003C280020262A000044280020282A00003C
:109280004C280020232A0000542800202A2A00000D
:109290005C280020502A000064280020A0DF7047CE
:1092A000181CC046A2DF7047181CC046A5DF7047D7
:1092B000181CC046A6DF7047181CC046A8DF7047C0
:1092C000181CC04663DF7047181CC04680B582B0CA
:1092D00000AF78607B681B781A1C7B6801331B78B1
:1092E0001B029BB213439BB29BB2181CBD4602B03B
:1092F00080BDC04690B585B000AF78603C1C0E3490
:109300007B68181CFFF7E2FF031C23803B1C0E3315
:109310001A88012313405A1E9341DBB2181CBD4624
:1093200005B090BD80B590B000AF78603B1C243391
:10933000181C00211C220AF033FE3B1C24331A782F
:1093400004210A431A703B1C243300225A603B1C40
:1093500024330022DA603B1C243300221A613B1CB8
:10936000243300225A613B1C243300229A617B681B
:109370001A793B1C0C339A703B1C0C33374A1A8009
:109380003B1C0833181C002103220AF009FE3B1C79
:1093900008331A780F218A431A703B1C0833197856
:1093A0000F220A401A703B1C08335A780F218A4357
:1093B00001210A435A703B1C083359780F220A4096
:1093C00010210A435A703B1C08339A7806218A43BD
:1093D00002210A439A703B1C08339A7808218A4379
:1093E0009A703B1C08339A7810218A439A703B1C70
:1093F00008339A7801210A439A703B1C1033181CD9
:10940000002114220AF0CCFD3B1C10333A1C0C3214
:109410001A603B1C10333A1C08325A603B1C103354
:1094200000221A813B1C103300225A813B1C10334E
:1094300014229A813B1C103300221A617B685888E1
:109440007B680633391C24313A1C1032FFF72AFF9F
:10945000031C181CBD4610B080BDC046321500006C
:1094600080B590B000AF78603B1C2433181C0021FD
:109470001C220AF095FD3B1C24331A7808210A436C
:109480001A703B1C24331A7810210A431A703B1CB3
:10949000243300225A603B1C24330022DA603B1C38
:1094A000243300221A613B1C243300225A613B1CE6
:1094B000243300229A617B681A793B1C0C339A7022
:1094C0003B1C0C33374A1A803B1C0833181C002104
:1094D00003220AF065FD3B1C08331A780F218A43EA
:1094E0001A703B1C083319780F220A401A703B1C73
:1094F00008335A780F218A4301210A435A703B1CD2
:10950000083359780F220A4010210A435A703B1C35
:1095100008339A7806218A4302210A439A703B1C39
:1095200008339A7808218A439A703B1C08339A784A
:1095300010210A439A703B1C08339A7801210A4390
:109540009A703B1C1033181C002114220AF028FDCD
:109550003B1C10333A1C0C321A603B1C10333A1C73
:1095600008325A603B1C103300221A813B1C103316
:1095700000225A813B1C103317229A813B1C103366
:1095800000221A617B6858887B680E33391C2431AD
:109590003A1C1032FFF786FE031C181CBD4610B0A3
:1095A00080BDC0463115000080B582B000AF786044
:1095B00039603B689A887B681A80BD4602B080BDDE
:1095C00080B584B000AF78603B1C0A3302221A8059
:1095D0007B68598A3A1C0A323B1C0833081C00215C
:1095E000FFF764FE031CFB60FB68002B0AD07B685E
:1095F0005B6A002B04D07B685B6AFA68101C984792
:10960000002305E03B1C0833181CFFF773FE031C06
:10961000181CBD4604B080BD80B58AB000AF78602C
:1096200039603B1C143302221A707B68181CFFF748
:10963000C7FF031C01225340DBB2002B0DD03B1CA3
:109640001433694A9A807B681A883B1C1433101CB7
:10965000191CFFF733FE031CC2E03B1C143300222D
:109660009A807B681A883B1C1433101C191CFFF766
:1096700025FE031C7B627B6A002B01D07B6AAFE076
:109680003B689B7E082B00D99FE09A00574BD3186C
:109690001B689F463B1C083300221A703B681B8BDB
:1096A000012B04D83B1C083300221A7109E03B1C33
:1096B000083301221A713B681A1C1B323B1C083309
:1096C0009A607B681B6A79683A1C0832081C111C76
:1096D000984784E03B1C083301221A707B681B6AA0
:1096E00079683A1C0832081C111C984777E03B1C2B
:1096F000083302221A707B681B6A79683A1C0832A8
:10970000081C111C98476AE03B1C083303221A709E
:109710007B681B6A79683A1C0832081C111C984740
:109720005DE03B1C083304221A707B681B6A796871
:109730003A1C0832081C111C984750E03B1C0833A7
:1097400005221A707B681B6A79683A1C0832081C6B
:10975000111C984743E03B681B8B022B07D87B68A2
:10976000181C0821032200F057F9031C38E03B685D
:109770001B33181CFFF7AAFD031C1A1C3B1C0833E3
:109780009A803B1C08339B88002B04D13B1C083378
:1097900007221A7003E03B1C083306221A707B680C
:1097A0001B6A79683A1C0832081C111C984716E09D
:1097B0003B1C083309221A707B681B6A79683A1CC3
:1097C0000832081C111C984709E03B689B7E7A68A8
:1097D000101C191C032200F01FF9031C00E00023D9
:1097E000181CBD460AB080BDFD01000024440200E3
:1097F00080B584B000AF786039603B680633FB60A9
:10980000FB681B78022B1AD1FB685A887B68DB89BE
:109810009A4214D1FB6802337A68101C191CFFF7B6
:10982000FBFE031CBB60BB68002B08D07B685B6A37
:10983000002B04D07B685B6ABA68101C9847BD4651
:1098400004B080BD80B586B000AF786039603B68F9
:10985000DA887B68DB889A4217D13B1C0C330822DC
:109860001A703B68DB8BDAB23B1C0C331A713B6815
:109870001A1C20323B1C0C339A607B681B6A796887
:109880003A1C0C32081C111C9847BD4606B080BD1E
:1098900080B582B000AF786039607B6801225242A7
:1098A0001A80BD4602B080BD80B588B000AF786038
:1098B00039607B68002B06D03B68002B03D03B68E7
:1098C0001B68002B01D10E235DE07B680122524210
:1098D0001A803A1C08322E4B111C1A1C1023081C2B
:1098E000111C1A1C0AF0BAFA3B1C1833294A1A80B8
:1098F0003A1C08323B1C18330233101C191CFFF7AA
:10990000E1FC031CFB61FB69002B01D0FB693AE021
:109910007B6802333A1C18320120111C1A1CFFF715
:10992000BDFC031CFB61FB69002B01D0FB692AE035
:109930003B1C18339A787B681A717B68181CFFF7F8
:10994000F1FC031CFB61FB69002B01D0FB691AE0F1
:109950007B68181CFFF784FD031CFB61FB69002B6F
:1099600001D0FB690FE03B681A687B681A623B68AC
:109970005B68002B03D03B685A687B685A62064BD1
:1099800001221A700023181CBD4608B080BDC046D5
:1099900048440200301500006C28002080B582B0D9
:1099A00000AF786039607B68002B31D03B68002BBA
:1099B0002ED07B681B6A002B2BD03B681B88112B99
:1099C00016D002DC102B05D020E0502B09D0512BF3
:1099D00015D01BE07A683B68101C191CFFF7E4FDEA
:1099E00017E07A683B68101C191CFFF72BFF10E08A
:1099F0007A683B68101C191CFFF74AFF09E07A6877
:109A00003B68101C191CFFF7F3FE02E0C04600E0A3
:109A1000C046BD4602B080BD80B588B000AF78605A
:109A2000FB1C1970BB1C1A707B68002B01D10E2324
:109A30005DE07B681A88304B9A4206D02F4B1B782A
:109A400001225340DBB2002B01D008234FE03B1C26
:109A50000E3300221A803B1C0E331B881A1C284927
:109A60001020885401339AB23B1C0E331A803B1CE1
:109A70000E331B881A1C2249F81C007888540133C5
:109A80009AB23B1C0E331A803B1C0E331B881A1CE7
:109A90001B49B81C0078885401339AB23B1C0E3322
:109AA0001A803B1C1033181C002110220AF078FA8F
:109AB0007B68DA893B1C10331A803B1C103301226F
:109AC0009A703B1C103300229A803B1C10333A1CC6
:109AD0000E329A603B1C1033094ADA607B681A88A0
:109AE0003B1C1033101C191CFFF7E4FB031C181C53
:109AF000BD4608B080BDC046FFFF00006C280020B6
:109B00007028002080B582B000AF78607B681B7839
:109B10001A1C7B6801331B781B029BB213439BB258
:109B20009BB2181CBD4602B080BDC046A0DF704786
:109B3000181CC046A2DF7047181CC046A8DF70473B
:109B4000181CC04690B585B000AF78603C1C0E3440
:109B50007B68181CFFF7D6FF031C23803B1C0E33C9
:109B60001A88012313405A1E9341DBB2181CBD46CC
:109B700005B090BD80B582B000AF786039603B68B9
:109B80009A887B68DA82BD4602B080BD80B582B01B
:109B900000AF786039607B6801225242DA82BD46AC
:109BA00002B080BD80B584B000AF786039603B689A
:109BB0000633FB60FB681A887B68DB889A421DD1FC
:109BC000FB681B8B022B32D1FB689A7E7F231340EC
:109BD000DAB2184B1A70FB689B7EDBB25BB2002BCB
:109BE00025DAFB68DA7E144B1A70124B1A78124B86
:109BF0001B78101C191C04F0A5FA18E0FB681A88E1
:109C00007B685B8A9A4212D1FB681B8B022B0ED1B8
:109C1000FB681A33181CFFF795FF031C002B03D0B9
:109C2000064B01221A7002E0044B00221A70BD4656
:109C300004B080BD7828002079280020A2290020C7
:109C400080B58AB000AF786039603B6806337B62CC
:109C50007B6A1B78012B47D17B6A5A887B68DB883B
:109C60009A4241D13B1C08333B62214B1A783B1C82
:109C700018331A701E4B1B78181C04F01DFA031CB5
:109C80001A1C1C4B1A701B4B1A783B1C18335A7049
:109C90003B6A181C002110220AF082F93B1C083391
:109CA00001221A703B1C08333A1C1832DA603B1C44
:109CB000083302225A813B1C08339A7901210A4356
:109CC0009A717B68DA8A3B6A101C191CFFF736FF11
:109CD000031CFB61FB69002B06D0FA69064B101CC4
:109CE0004F211A1CFCF76CFABD460AB080BDC04675
:109CF00078280020792800205844020080B582B0DE
:109D000000AF786039603B681B88112B0FD002DCF4
:109D1000102B05D020E0502B10D0512B15D01BE07C
:109D20007A683B68101C191CFFF724FF15E07A685D
:109D30003B68101C191CFFF729FF0EE07A683B688E
:109D4000101C191CFFF72EFF07E07A683B68101CF7
:109D5000191CFFF775FF00E0C046BD4602B080BD8C
:109D600080B592B000AF78603B1C2C33181C0021EA
:109D70001C220AF015F93B1C2C331A7802210A43E5
:109D80001A703B1C2C331A7808210A431A703B1CAA
:109D90002C3300225A603B1C2C330022DA603B1C1F
:109DA0002C3300221A613B1C2C3300225A613B1CCD
:109DB0002C3300229A613B1C143301229A703B1C05
:109DC00014333D4A1A803B1C1033181C0021032217
:109DD0000AF0E6F83B1C10339A7806218A430221E8
:109DE0000A439A703B1C10331A780F218A430121D1
:109DF0000A431A703B1C103319780F220A401021B5
:109E00000A431A703B1C10335A780F218A430121F0
:109E10000A435A703B1C103359780F220A40102114
:109E20000A435A703B1C10339A7808210A439A70EF
:109E30003B1C10339A7810218A439A703B1C1033D4
:109E40009A7801218A439A703B1C1833181C002110
:109E500014220AF0A5F83B1C0C33181C0021022226
:109E60000AF09EF83B1C18333A1C14321A603B1C53
:109E700018333A1C10325A603B1C183302221A81E4
:109E80003B1C183300225A813B1C183302229A8152
:109E90003B1C18333A1C0C321A617B6898887B682B
:109EA0000633391C2C313A1C1832FFF743FE031CD1
:109EB000181CBD4612B080BD1111000080B59EB0C7
:109EC00000AF78603B1C083300221A600433002284
:109ED0001A60043300221A60043300221A6004332B
:109EE00000221A6004333B1C5833181C0021032243
:109EF0000AF056F83B1C58331A780F218A43012187
:109F00000A431A703B1C583319780F220A4010215B
:109F10000A431A703B1C58339A7806218A4302215F
:109F20000A439A703B1C58335A780F218A43012107
:109F30000A435A703B1C583359780F220A401021AB
:109F40000A435A703B1C5C33181C00211C220AF087
:109F500027F83B1C5C331A7810210A431A703B1C0B
:109F60005C3300225A603B1C5C330022DA603B1CED
:109F70005C3300221A613B1C5C333A1C58325A6134
:109F80003B1C5C3300229A613B1C403301229A70D7
:109F90003B1C4033394A1A803B1C3C33181C0021BF
:109FA000032209F0FDFF3B1C3C339A7806218A43CB
:109FB00002210A439A703B1C3C331A780F218A43D2
:109FC0001A703B1C3C3319780F220A401A703B1C54
:109FD0003C335A780F218A435A703B1C3C335978E2
:109FE0000F220A405A703B1C3C339A7808218A435E
:109FF0009A703B1C3C339A7810218A439A703B1C20
:10A000003C339A7801210A439A703B1C4433181C54
:10A010000021142209F0C4FF3B1C1C33181C002132
:10A02000202209F0BDFF3B1C44333A1C40321A6029
:10A030003B1C44333A1C3C325A603B1C44331422D0
:10A040001A813B1C443300225A813B1C44331422A6
:10A050009A813B1C44333A1C08321A617B68988809
:10A060007B680E33391C5C313A1C4432FFF762FDC9
:10A07000031C181CBD461EB080BDC0461212000055
:10A0800080B584B000AF78601C4B7A681A607B683A
:10A0900001225242DA823B1C083301229A703B1C97
:10A0A0000833174A1A807B6804333A1C08320120AF
:10A0B000111C1A1CFFF73AFD031CFB60FB68002B08
:10A0C00001D0FB6816E07B68181CFFF749FE031CF3
:10A0D000FB60FB68002B01D0FB680BE07B68181C61
:10A0E000FFF7ECFE031CFB60FB68002B01D0FB6854
:10A0F00000E00023181CBD4604B080BD7C28002071
:10A1000010110000A0DF7047181CC046A2DF704786
:10A11000181CC046A8DF7047181CC04680B582B026
:10A1200000AF021C3960BB1D1A80BB1D1B88DAB250
:10A130003B681A703B680133BA1D1288120A92B24A
:10A14000D2B21A700223181CBD4602B080BDC046B0
:10A1500080B582B000AF78607B681B781A1C7B6882
:10A1600001331B781B029BB213439BB29BB2181C9A
:10A17000BD4602B080BDC04690B585B000AF7860E6
:10A1800039607B681A883C1C0F343B68101C191C12
:10A19000FFF7C4FF031C23703B1C0F331B783A6886
:10A1A000D3187A6892781A703B1C0F333A1C0F321E
:10A1B000127801321A703B1C0F331B783A68D3189F
:10A1C0007A68D2781A703B1C0F333A1C0F3212781F
:10A1D00001321A703B1C0F331B783A68D3187A6827
:10A1E00012791A703B1C0F333A1C0F32127801326D
:10A1F0001A703B1C0F331B783A68D3187A6852796F
:10A200001A703B1C0F333A1C0F32127801321A704D
:10A210003B1C0F331B783A68D3187A6892791A700E
:10A220003B1C0F333A1C0F32127801321A703B1C60
:10A230000F331B78181CBD4605B090BD80B584B0A7
:10A2400000AF786039603B1C0F3302221A703B6804
:10A25000181CFFF77DFF031C1A1C7B681A803B1C2F
:10A260000F331B783A68D3181A787B689A703B1CB6
:10A270000F333A1C0F32127801321A703B1C0F3325
:10A280001B783A68D3181A787B68DA703B1C0F3356
:10A290003A1C0F32127801321A703B1C0F331B78B4
:10A2A0003A68D3181A787B681A713B1C0F333A1C32
:10A2B0000F32127801321A703B1C0F331B783A6848
:10A2C000D3181A787B685A713B1C0F333A1C0F3233
:10A2D000127801321A703B1C0F331B783A68D3187E
:10A2E0001A787B689A713B1C0F333A1C0F32127834
:10A2F00001321A703B1C0F331B78181CBD4604B08A
:10A3000080BDC04680B500AF024A034BD358181C2D
:10A31000BD4680BD001001400405000080B582B03C
:10A3200000AF786039603B689A887B68DA81BD4607
:10A3300002B080BD80B582B000AF786039607B68C4
:10A3400001225242DA81BD4602B080BD80B586B09E
:10A3500000AF786039603B6806337B617B691A889F
:10A360007B68DB889A4229D17B691A333A1C0C320C
:10A37000101C191CFFF762FF3B1C0C339B780C2B45
:10A380001CD83B1C0C33DB781F2B17D83B1C0C3321
:10A390001B79172B12D83B1C0C335B793B2B0DD848
:10A3A0003B1C0C339B793B2B08D83B1C0C33181CF3
:10A3B00003F0A4F9031C181C00F072FABD4606B0A5
:10A3C00080BDC04680B58EB000AF786039603B1C60
:10A3D0001C3300221A60043300221A800233002248
:10A3E0001A7001333B6802337B637B6B1B78012B54
:10A3F00053D17B6B5A887B68DB889A424DD13B1CDA
:10A400000C333B633B1C2433181C0021082209F049
:10A41000C7FD00F099FA031C002B08D000F036FAB3
:10A42000031C3A1C2432101C191C03F027F83B1C97
:10A430000C33181C0021102209F0B2FD3B1C0C3318
:10A4400001221A703B1C0C333A1C1C32DA603A1C95
:10A4500024323B1C1C33101C191CFFF78DFE031CFF
:10A460001A1C3B1C0C335A813B1C0C339A7901217A
:10A470000A439A717B68DA893B6B101C191CFFF741
:10A4800049FE031CFB62FB6A002B06D0FA6A044BF0
:10A49000101C89211A1CFBF793FEBD460EB080BD2F
:10A4A0008044020080B582B000AF786039603B68BC
:10A4B0001B88112B0FD002DC102B05D021E0502B74
:10A4C00010D0512B15D01CE07A683B68101C191C69
:10A4D000FFF724FF16E07A683B68101C191CFFF791
:10A4E00029FF0FE07A683B68101C191CFFF72EFF4C
:10A4F00008E03B6804337A68101C191CFFF762FF00
:10A5000000E0C046BD4602B080BDC04680B592B0F6
:10A5100000AF786039603B1C083300221A600433B6
:10A5200000221A80023300221A7001333B1C2C33A4
:10A53000181C00211C2209F033FD3B1C2C331A7817
:10A5400002210A431A703B1C2C331A7808210A4353
:10A550001A703B1C2C3300225A603B1C2C33002207
:10A56000DA603B1C2C3300221A613B1C2C33002286
:10A570005A613B1C2C3300229A613B1C143301228C
:10A580009A703B1C14332F4A1A803B1C1033181C42
:10A590000021032209F004FD3B1C10339A780621A8
:10A5A0008A4302210A439A703B1C10333A6812799D
:10A5B0001A703B1C10333A6852795A703B1C1033A6
:10A5C0009A7808210A439A703B1C10339A7810211C
:10A5D0008A439A703B1C10339A7801218A439A70FF
:10A5E0003B1C1833181C0021142209F0D9FC3B1C19
:10A5F00018333A1C14321A603B1C18333A1C1032C0
:10A600005A603B1C183307221A813B1C1833002266
:10A610005A813B1C183307229A813B1C18333A1C81
:10A6200008321A617B6898887B680633391C2C31A4
:10A630003A1C1832FFF76AFD031C181CBD4612B005
:10A6400080BDC046082A000080B584B000AF7860A5
:10A6500039603B681A687B681A607B680122524245
:10A66000DA813B1C083301229A703B1C0833124AE2
:10A670001A807B6804333A1C08320120111C1A1C12
:10A68000FFF740FD031CFB60FB68002B01D0FB685B
:10A690000DE07A683B68101C191CFFF737FF031C9C
:10A6A000FB60FB68002B01D0FB6800E00023181C56
:10A6B000BD4604B080BDC0460518000080B584B01A
:10A6C00000AF184A184B101C01211A1C02F012F896
:10A6D000031CFB60FB68BB60BB68002B06D0BA683C
:10A6E000124B101CFF211A1CFBF76AFD0D4B1A6858
:10A6F0000F4B101C191C002202F098F9031CFB6080
:10A70000FB687B607B68002B08D0796881235A0046
:10A71000064B081C111C1A1CFBF752FDBD4604B069
:10A7200080BDC046802800200DA8010080440200A2
:10A730006666000080B500AF2F4B1B78002B4ED013
:10A740002D4B1B78012B25D12C4B1B780133DAB212
:10A750002A4B1A70294B1A7801231340DBB2002BC5
:10A7600012D1274B1B689A1C254B1A60254B1B786E
:10A77000013BDAB2234B1A70224B1B78002B33D1EA
:10A780001D4B00221A702FE01D4B1B685A1C1C4BDE
:10A790001A6029E0184B1B78022B25D1174B1B7828
:10A7A0000133DAB2154B1A70144B1A780123134097
:10A7B000DBB2002B0DD1134B1B78013BDAB2114BEE
:10A7C0001A70104B1B78002B0ED10B4B00221A7005
:10A7D0000AE00B4B1B685A1C094B1A6004E0084B3B
:10A7E0001B685A1C064B1A60074B1B685A1C064B09
:10A7F0001A60BD4680BDC0469328002091280020E5
:10A8000088280020922800208C28002080B584B061
:10A8100000AF78600023FB60FFF774FD031CFB6052
:10A820003B1C0C3301331B78DBB25BB2002B0EDA1E
:10A830000F4B1B78802B18D00D4B80221A70FFF71E
:10A8400079FF0C4B1B685A1C0A4B1A600DE0084B31
:10A850001B78802B09D1064B00221A70FFF76AFF84
:10A86000044B1B685A1C034B1A60BD4604B080BDE4
:10A87000842800209428002080B500AF024B1B687C
:10A88000181CBD4680BDC0468C28002080B500AF96
:10A89000024B1B68181CBD4680BDC046882800209E
:10A8A00080B582B000AF7860234B1B78012B36D186
:10A8B000224B1B687A689A4212D9204B1B687A682F
:10A8C000D31AFF2B0CD87B68DAB21C4B1B68DBB2A7
:10A8D000D31ADAB21A4B1A701A4B01221A7027E0F7
:10A8E000164B1B687A689A4212D2144B1A687B681E
:10A8F000D31AFF2B0CD8114B1B68DAB27B68DBB282
:10A90000D31ADAB20E4B1A700E4B02221A700FE0F5
:10A910000A4B7A681A600B4B00221A7008E0064B4B
:10A9200001221A70054B7A681A60064B00221A70D1
:10A93000BD4602B080BDC046902800208828002077
:10A94000922800209328002080B500AF024B1B788E
:10A95000181CBD4680BDC04690280020A0DF70476F
:10A96000181CC046A2DF7047181CC046A8DF7047FD
:10A97000181CC04680B582B000AF786039603B6873
:10A980009A887B68DA81BD4602B080BD80B582B00E
:10A9900000AF786039607B6801225242DA81BD469F
:10A9A00002B080BD80B584B000AF786039603B688C
:10A9B0000633FB60FB681A887B68DB889A4223D1E8
:10A9C000FB681B8B042B1FD1FB689B7EDBB25BB249
:10A9D000002B03DA0E4B01221A7002E00C4B00220E
:10A9E0001A70FB689B7E1A1C7F2313401A06FB68B3
:10A9F000DB7E1B041A43FB681B7F1B021A43FB68A8
:10AA00005B7F1A43034B1A60BD4604B080BDC0464D
:10AA10009D2800209828002080B590B000AF786075
:10AA200039603B680633BB63BB6B1B78012B00D0DE
:10AA300086E0BB6B5A887B68DB889A4200D07FE057
:10AA40003B1C0C337B633B1C3F3300221A703A1CC7
:10AA50001C323D4B1B681B0EDBB213703B1C1C33BE
:10AA60000133394A1168FF2212040A40120CD2B293
:10AA70001A703B1C1C330233334A1168FF22120246
:10AA80000A40120AD2B21A703B1C1C3303332E4AFE
:10AA90001268D2B21A703B1C3F3300221A7014E0C5
:10AAA0003B1C3F3319783B1C3F331A78264B1B68FD
:10AAB000D3181A783B1C1C335B181A713B1C3F33AC
:10AAC0003A1C3F32127801321A703B1C3F331B781C
:10AAD0000F2BE5D91D4B1B78012B05D11A4B1B6899
:10AAE0001A1C1032184B1A607B6B181C00211022A4
:10AAF00009F056FA3B1C0C3301221A703B1C0C3334
:10AB00003A1C1C32DA603B1C0C3314225A813B1C69
:10AB10000C339A7901210A439A717B68DA897B6B3D
:10AB2000101C191CFFF722FF031C3B633B6B002B1F
:10AB300006D03A6B064B101C54211A1CFBF740FB45
:10AB4000BD4610B080BDC046982800209D2800203A
:10AB5000A844020080B582B000AF786039603B68DD
:10AB60001B88112B0FD002DC102B05D020E0502BBE
:10AB700010D0512B15D01BE07A683B68101C191CB3
:10AB8000FFF7F8FE15E07A683B68101C191CFFF708
:10AB9000FDFE0EE07A683B68101C191CFFF702FFEF
:10ABA00007E07A683B68101C191CFFF735FF00E0CE
:10ABB000C046BD4602B080BD80B596B000AF78609B
:10ABC0003B1C3C33181C00211C2209F0E9F93B1CFA
:10ABD0003C331A7802210A431A703B1C3C331A7822
:10ABE00008210A431A703B1C3C3300225A603B1C6C
:10ABF0003C330022DA603B1C3C3300221A613B1CD0
:10AC00003C3300225A613B1C3C3300229A613B1CBE
:10AC1000243301229A703B1C24333D4A1A803B1C8A
:10AC20002033181C0021032209F0BAF93B1C203301
:10AC30009A7806218A4302210A439A703B1C2033EA
:10AC40001A780F218A4301210A431A703B1C2033D2
:10AC500019780F220A4010210A431A703B1C203336
:10AC60005A780F218A4301210A435A703B1C203332
:10AC700059780F220A4010210A435A703B1C203396
:10AC80009A7808210A439A703B1C20339A78102145
:10AC90008A439A703B1C20339A7801218A439A7028
:10ACA0003B1C2833181C0021142209F079F93B1CA5
:10ACB0000C33181C0021142209F072F93B1C2833B4
:10ACC0003A1C24321A603B1C28333A1C20325A604A
:10ACD0003B1C283314221A813B1C283300225A8142
:10ACE0003B1C283314229A813B1C28333A1C0C321B
:10ACF0001A617B6898887B680633391C3C313A1CA2
:10AD00002832FFF72FFE031C181CBD4616B080BD6D
:10AD10006666000080B584B000AF174BFB60FB682F
:10AD200001225242DA813B1D01229A703B1D134AD7
:10AD30001A80FB6804333A1D0120111C1A1CFFF70E
:10AD40000DFE031CBB60BB68002B01D0BB680EE08E
:10AD5000FB68181CFFF730FF031CBB60084B012287
:10AD60001A70BB68002B01D0BB6800E00023181CE0
:10AD7000BD4604B080BDC0460C2E002055550000D5
:10AD80009C28002090B583B000AF78607B68044AAF
:10AD900013CA13C312681A607868BD4603B090BD29
:10ADA0000C2E002080B500AF024B1B78181CBD464E
:10ADB00080BDC0469C28002080B584B000AF78607C
:10ADC00039603B1C0F3300221A703B1C0F331B7879
:10ADD0007A68D3183A6812781A703B1C0F333A1C01
:10ADE0000F32127801321A703B1C0F331B787A68CD
:10ADF000D3183A6852781A703B1C0F333A1C0F3242
:10AE0000127801321A703B1C0E333A1C0F32127842
:10AE1000023A51424A411A703B1C0E331B78012200
:10AE20005340DBB2002B05D0064B002020211A1C1A
:10AE3000FBF7C6F93B1C0F331B78181CBD4604B04A
:10AE400080BDC046D444020080B582B000AF7860B7
:10AE500039603B68181C09F02FF9031C9AB27B6813
:10AE60001A807B683A685A60BD4602B080BDC04611
:10AE700072DF7047181CC04679DF7047181CC04647
:10AE80007DDF7047181CC04665DF7047181CC04640
:10AE900080B582B000AF021C3960BB1D1A80BB1D9B
:10AEA0001B88DAB23B681A703B680133BA1D1288FE
:10AEB000120A92B2D2B21A700223181CBD4602B016
:10AEC00080BDC04680B588B000AFF860B9607A60D8
:10AED0003B1C1C337A6812781A703B1C1C331B789D
:10AEE00002331F2B04DCFB685B7802331F2B01DD70
:10AEF0000C2383E03B1C1C331B789AB23B1C1E3393
:10AF00001D218A1A1A803B1C16333A1C1E321288E5
:10AF10001A803B1C1C331B780233BA68D2183B1CC6
:10AF20001633101C191CFFF7ABFF031CBB61BB6978
:10AF3000002B01D0BB6961E0FB681B78022B12D1AA
:10AF40003B1C16331B883A1C1E3212889A420AD3C5
:10AF50003B1C1D3309221A703B1C1E333A1C16324F
:10AF600012881A801AE03B1C1D3308221A70FB68F5
:10AF70005B78002B0CD0FB685B783A1C1E32128881
:10AF80009A4205D3FB685A783B1C1E331A8005E0B1
:10AF90003B1C1E333A1C163212881A803B1C1C3391
:10AFA0001B78BA68D3183A1C1E321288D2B201320A
:10AFB000D2B21A703B1C1C333A1C1C32127801327C
:10AFC0001A703B1C1C331B78BA68D3183A1C1D320C
:10AFD00012781A703B1C1C333A1C1C321278013256
:10AFE0001A707B681A783B1C1E331B88DBB2D3189F
:10AFF000DBB20233DAB27B681A700023181CBD463C
:10B0000008B080BD90B585B000AF786039603B680E
:10B010001B7804331F2B01DD0C2334E03B1C0A3367
:10B02000181CFFF729FF031CFB60FB68002B01D0F5
:10B03000FB6828E03B681B781A1C79688A18032192
:10B0400011700133DAB23B681A703B681B781A1C26
:10B0500079688A18192111700133DAB23B681A70C5
:10B060003B681C783B1C0A331A883B681B7879685C
:10B07000CB18101C191CFFF70BFF031CE318DAB2E6
:10B080003B681A700023181CBD4605B090BDC04631
:10B0900080B584B000AFF8607A603B603B1C0B3336
:10B0A0000A1C1A70FB685B68002B01D107233CE087
:10B0B0003B681B789A1CFB681B88D3181F2B01DD8B
:10B0C0000C2332E03B681B781A1C79688A18F968EF
:10B0D0000988C9B20131C9B211700133DAB23B68D3
:10B0E0001A703B681B781A1C79688A18391C0B3156
:10B0F000097811700133DAB23B681A703B681B782B
:10B100007A68D118FB685A68FB681B88081C111CF8
:10B110001A1C08F0A3FE3B681A78FB681B88DBB298
:10B12000D318DAB23B681A700023181CBD4604B06D
:10B1300080BDC04680B584B000AFB9607A603B1C6A
:10B140000F33021C1A707B681B7803331F2B01DD41
:10B150000C2323E07B681B781A1CB9688A1802212B
:10B1600011700133DAB27B681A707B681B781A1C85
:10B17000B9688A180A2111700133DAB27B681A7033
:10B180007B681B781A1CB9688A18391C0F3109783A
:10B1900011700133DAB27B681A700023181CBD46A7
:10B1A00004B080BD80B58AB000AFF8607B603B1C06
:10B1B0000B3319703B1C0A331A703B1C23330022DB
:10B1C0001A703B1C22333A6B12781A7000237B6290
:10B1D0007FE0FB685A687B6A9B00D3183A1C1432E4
:10B1E000111C1A1C0423081C111C1A1C08F036FE22
:10B1F0003A1C14323B1C1A33101C191C0022FFF796
:10B2000043FE031CFB61FB69002B01D0FB697CE062
:10B210003B1C1A331B783A1C0A3212789A4255D1D9
:10B220003B1C23331B78002B01D0002300E00223BA
:10B230003A1C1B3213703B6B1B781A1C3B1C1A33D5
:10B240001B78D2183B1C1B331B78D3181F2B01DD36
:10B250000C235AE03B1C23331B7801225340DBB202
:10B26000002B16D03B6B1B780133DAB23B6B1A70A4
:10B270003B6B1B781A1C79688A18391C0B310978CA
:10B2800011700133DAB23B6B1A703B1C233301227D
:10B290001A703B6B1B787A68D318391C14313A1C2E
:10B2A0001A32081C111C1A1CFFF7EEFD031CFB616F
:10B2B000FB69002B01D0FB6927E03B6B1A783B1C34
:10B2C0001A331B78D318DAB23B6B1A707B6A0133DE
:10B2D0007B62FB681B881A1C7B6A9A4200DD78E758
:10B2E0003B1C23331B78002B0ED03B1C22331B78D6
:10B2F0007A68D3183A6B11783A1C22321278D2430A
:10B30000D2B28A18D2B21A700023181CBD460AB0F5
:10B3100080BDC04680B588B002AFF8607B603B1C42
:10B320000B3319703B1C0A331A70F9683B1C0B3342
:10B330001A787B68386A0090081C111C0222FFF7FB
:10B3400031FF031C7B617B69002B01D07B6913E01B
:10B35000F9683B1C0A331A787B68386A0090081C2D
:10B36000111C1022FFF71EFF031C7B617B69002B61
:10B3700001D07B6900E00023181CBD4606B080BDEB
:10B3800080B582B000AF78607B681B88052B0AD936
:10B390007B681A88C8231B019A4206D97B681A88E1
:10B3A000164B9A4201D0072323E07B685B88052B6C
:10B3B0000AD97B685A88C8231B019A4206D97B6840
:10B3C0005A880E4B9A4201D0072312E07B681A88F4
:10B3D0000A4B9A420CD07B685A88084B9A4207D095
:10B3E0007B681A887B685B889A4201D9072300E052
:10B3F0000023181CBD4602B080BDC046FFFF000000
:10B4000090B587B000AFF860B9607A607B681B7850
:10B4100006331F2B01D90C2343E0FB68181CFFF7F0
:10B42000AFFF031C7B617B69002B01D07B6938E097
:10B430007B681B781A1CB9688A18052111700133C2
:10B44000DAB27B681A707B681B781A1CB9688A1894
:10B45000122111700133DAB27B681A707B681C7894
:10B46000FB681A887B681B78B968CB18101C191CFC
:10B47000FFF70EFD031CE318DAB27B681A707B68D5
:10B480001C78FB685A887B681B78B968CB18101C3D
:10B49000191CFFF7FDFC031CE318DAB27B681A7075
:10B4A0000023181CBD4607B090BDC04690B587B0BC
:10B4B00000AFF860B9607A60FB689B88DAB23B1C29
:10B4C000173302321A707B681B789A1C3B1C1733A7
:10B4D0001B78D3181F2B01DD0C234BE07B681B78F6
:10B4E0001A1CB9688A18391C173109780131C9B298
:10B4F00011700133DAB27B681A707B681B781A1CF2
:10B50000B9688A18FF2111700133DAB27B681A70AA
:10B510007B681C78FB681A887B681B78B968CB1835
:10B52000101C191CFFF7B4FC031CE318DAB27B688B
:10B530001A70FB689B88002B1BD0FB689B68002B54
:10B5400001D1072316E07B681B78BA68D118FB6825
:10B550009A68FB689B88081C111C1A1C08F07EFC6A
:10B560007B681A78FB689B88DBB2D318DAB27B68F9
:10B570001A700023181CBD4607B090BD90B589B065
:10B5800000AFF860B9607A60FB681B6B002B01D1DB
:10B59000072371E03B1C1F3300221A7063E0FB6835
:10B5A000196B3B1C1F331A78131C5B009B189B0004
:10B5B000CB18BB61BB699B88DAB23B1C17330232E4
:10B5C0001A707B681B781A1CB9688A18391C1731E5
:10B5D00009780131C9B211700133DAB27B681A708F
:10B5E0007B681B781A1CB9688A1816211170013300
:10B5F000DAB27B681A707B681C78BB691A887B6832
:10B600001B78B968CB18101C191CFFF741FC031CF0
:10B61000E318DAB27B681A70BB699B88002B1BD0D9
:10B62000BB699B68002B01D1072325E07B681B7851
:10B63000BA68D118BB699A68BB699B88081C111C41
:10B640001A1C08F00BFC7B681A78BB699B88DBB27C
:10B65000D318DAB27B681A703B1C1F333A1C1F32B6
:10B66000127801321A70FA683423D35C3A1C1F3204
:10B6700012789A4293D30023181CBD4609B090BD9E
:10B6800080B588B002AFF860B9607A6000237B6152
:10B690007B6800221A70FB681B78002B0ED0F968BB
:10B6A000BA687B68081C111C1A1CFFF70BFC031CF2
:10B6B0007B617B69002B01D07B69B8E0FB689B78DC
:10B6C000002B0CD0BA687B68101C191CFFF79AFC81
:10B6D000031C7B617B69002B01D07B69A7E0FB68C1
:10B6E0009B88002B0ED0FB68191DBA687B68081C6C
:10B6F0000121FFF7CDFC031C7B617B69002B01D08E
:10B700007B6994E0FB68DB68002B11D0FB68DB6889
:10B710001B7859B2BA687B68081C111C1A1CFFF709
:10B7200009FD031C7B617B69002B01D07B697EE0F6
:10B73000FB681B8A002B11D0FB681A1C1032BB68F7
:10B7400079680091101C02210622FFF7E3FD031C1B
:10B750007B617B69002B01D07B6968E0FB681B8BF8
:10B76000002B11D0FB681A1C1832BB687968009155
:10B77000101C03210722FFF7CDFD031C7B617B69B1
:10B78000002B01D07B6952E0FB681B8C002B11D091
:10B79000FB681A1C2032BB6879680091101C1421C8
:10B7A0001522FFF7B7FD031C7B617B69002B01D0DD
:10B7B0007B693CE0FB689B6A002B0FD0FB68996AB1
:10B7C000BA687B68081C111C1A1CFFF719FE031CC1
:10B7D0007B617B69002B01D07B6928E0FB68DB6A19
:10B7E000002B0FD0FB68D96ABA687B68081C111C53
:10B7F0001A1CFFF75BFE031C7B617B69002B01D0E9
:10B800007B6914E0FA683423D35C002B0ED0F9680E
:10B81000BA687B68081C111C1A1CFFF7AFFE031CDA
:10B820007B617B69002B01D07B6900E07B69181C80
:10B83000BD4606B080BDC04680B582B000AF78601E
:10B840007B689B88002B0AD07B689B68002B06D006
:10B850007B689B681B781A1C0423134001D10723C3
:10B8600000E00023181CBD4602B080BD80B582B048
:10B8700000AF78607B689B88002B01D0072300E035
:10B880000023181CBD4602B080BDC04680B596B0EE
:10B8900000AF786039603B1C4B3300221A703B1CB0
:10B8A0004A3300221A707B68002B1FD07B68181C5B
:10B8B000FFF7C2FF031CFB64FB6C002B01D0FB6C89
:10B8C00046E079683A1C28323B1C4B33081C111C9B
:10B8D0001A1CFFF7D5FE031CFB64FB6C002B01D088
:10B8E000FB6C35E03B1C28337B6501E000237B6566
:10B8F0003B68002B1FD03B68181CFFF7B7FF031CE9
:10B90000FB64FB6C002B01D0FB6C21E039683A1C16
:10B9100008323B1C4A33081C111C1A1CFFF7B0FEEE
:10B92000031CFB64FB6C002B01D0FB6C10E03B1C88
:10B9300008333B6501E000233B653B1C4B33197822
:10B940003B1C4A331B78786D3A6DFFF791FA031C64
:10B95000181CBD4616B080BD26DF7047181CC046B7
:10B9600051DF7047181CC04610DF7047181CC046D6
:10B9700080B582B000AF78607A68032313405A42E2
:10B980005341DBB2181CBD4602B080BD61DF704779
:10B99000181CC04680B584B000AFF8607A603B1CCC
:10B9A0000A330A1C1A803B1C0A331A887B68101C55
:10B9B000191CFAF741FCBD4604B080BD80B584B0C7
:10B9C00000AF3E4B1B78DBB201225340DBB2002BB1
:10B9D00000D06EE03A4B1A683B1C0F3351424A418B
:10B9E0001A70384B1A683B1C0E3351424A411A7088
:10B9F00000E0C0463B1C0F331B7801225340DBB2F2
:10BA0000002B1DD03B1D181CFFF7AAFF031CBB60B9
:10BA1000BB68052B04D13B1C0F3301221A700FE0C9
:10BA2000BB68002B07D0BA68274B101C69211A1C71
:10BA3000FAF7C6FB04E0224B1B687A68101C984793
:10BA40003B1C0E331B7801225340DBB2002B25D068
:10BA50001E4B1A88BB1C1A801D4B1A68BB1C101C7D
:10BA6000191CFFF793FF031CBB60BB68052B04D1B7
:10BA70003B1C0E3301221A7010E0BB68002B07D06C
:10BA8000BA68114B101C80211A1CFAF799FB05E0CB
:10BA90000C4B1A680E4B1B68181C90473B1C0F334D
:10BAA0001B78002BA5D03B1C0E331B78002BA0D09D
:10BAB00000E0C046BD4604B080BDC046AA280020B4
:10BAC000B0280020AC28002004450200A82800204F
:10BAD000A428002080B586B000AFF860B9603B6054
