:020000021000EC
:1060000000400020B13B0200F93B0200FB3B0200D4
:106010000000000000000000000000000000000080
:10602000000000000000000000000000FD3B020036
:106030000000000000000000FF3B0200013C0200E5
:10604000033C0200033C0200033C0200033C02004C
:10605000033C020000000000E9C2010091170200A9
:10606000033C0200033C0200033C0200033C02002C
:10607000033C0200033C0200033C0200033C02001C
:10608000033C0200DDD20100033C0200033C02009D
:1060900029D301009D030200BDA70100033C0200BB
:1060A000033C0200033C020000000000000000006E
:1060B00000000000000000000000000000000000E0
:1060C000164B002B00D1144B9D46402292029A1A87
:1060D000924600218B460F461348144A121A0FF0BD
:1060E000C3F90F4B002B00D098470E4B002B00D06C
:1060F00098470020002104460D4600200C4900224C
:1061000000230EF0CBFF0FF06BF82046294601F07C
:1061100093FB0FF025F8C046000008000040002067
:10612000000000000000000058240020FC37002080
:106130008151020073DF7047181CC04676DF70473C
:10614000181CC04677DF7047181CC04678DF7047C0
:10615000181CC0467ADF7047181CC0467CDF7047A9
:10616000181CC0467DDF7047181CC04683DF70478F
:10617000181CC04684DF7047181CC04660DF70479B
:10618000181CC04634DF7047181CC04640DF7047FB
:10619000181CC04622DF7047181CC04680B586B068
:1061A00000AFF860B9607A603B1C173300221A70A8
:1061B00000233B61154B1B8801339AB2134B1A80A5
:1061C000134BFA681A60134B7A681A60FB68DBB2EB
:1061D000112B04D93B1C173312221A7003E03B1C0D
:1061E0001733FA681A70BB681B041A0C7B681B040F
:1061F00013433B613B1C17331A783B69101C191C75
:106200000BF0DEF9BD4606B080BDC046E824002094
:10621000EC240020F024002080B582B000AF021CE6
:106220003960BB1D1A80BB1D1B881720191C0BF081
:10623000C7F9FEE780B58AB002AF021CFB1D1A70D9
:106240003B1C103300221A703B1C103300225A7082
:106250003B1C103300229A703B1C0C3300221A7036
:106260003B1C0C3300225A703B1C0C3300229A70EA
:106270003B1C1E3300221A80FB1D1B78072B03D901
:106280003B1C1E331B8859E0FB1D1A780723134063
:10629000DB00DBB240221343DBB2DAB23B1C10332B
:1062A0001A70FB1D1B78022B03D0FB1D1B78032BE0
:1062B00024D93A1C10323B1C0C33032100910020DE
:1062C000111C032207F0DCFB031C7B617B69002BA4
:1062D00006D07A691B4B101CF7211A1CFFF75EFFD2
:1062E0003B1C0C335B781B0299B23B1C0C339B7834
:1062F0001A1C3B1C1E330A431A801CE03A1C103245
:106300003B1C0C33022100910020111C022207F0DB
:10631000B7FB031CBB61BB69002B06D0BA69094BF4
:10632000101CFA211A1CFFF739FF3B1C0C335A785A
:106330003B1C1E331A803B1C1E331B88181CBD4699
:1063400008B080BD2458020080B588B002AF0A1C96
:10635000FB1D011C19703B1D1A803B1C0C330022D5
:106360001A703B1C0C3300225A703B1C0C33002269
:106370009A703B1C083300221A703B1C0833002221
:106380005A703B1C083300229A70FB1D1A780723B1
:106390001340DB00DBB240229343DAB23B1C0C33E8
:1063A0001A70FB1D1B78012B03D0FB1D1B78052BDE
:1063B0001ED13B1D1B88DAB23B1C0C335A703A1CB1
:1063C0000C323B1C0833022100910020111C0222D8
:1063D00007F056FB031C3B613B69002B3CD039693D
:1063E0001F4A204B081C111C1A1CFFF7D7FE33E074
:1063F000FB1D1B78042B07D0FB1D1B78062B03D03D
:10640000FB1D1B78072B28D13B1D1B881B0A9BB249
:10641000DAB23B1C0C335A703B1D1B88DAB23B1CB2
:106420000C339A703A1C0C323B1C08330321009148
:106430000020111C032207F023FB031C7B617B69F6
:10644000002B0AD0796987235A00064B081C111CBF
:106450001A1CFFF7A3FE00E0C046BD4606B080BD93
:10646000090100002458020080B582B000AF7860B6
:106470000BF0FEF9BD4602B080BDC04680B582B0CB
:1064800000AF7860034AC023DB000349D150BD460A
:1064900002B080BD000001403546526E80B582B02A
:1064A00000AF7860104B1B780133DAB20E4B1A70D4
:1064B0000D4B1B780B2B14D90B4B00221A700120AB
:1064C000FFF7B8FE031CDBB21A1C6023134008D18F
:1064D00001206021FFF738FF044B1B685A1C034B57
:1064E0001A60BD4602B080BDE42A0020FC240020D2
:1064F00080B584B000AF7860114B1B785BB2181C7C
:10650000FFF720FE031C002B16D00E4B1A688023C9
:106510001B02101C191C002207F03CF8031CFB6036
:10652000FB68002B08D0F9689B235A00064B081C17
:10653000111C1A1CFFF732FEBD4604B080BDC046D8
:1065400002200020E02400202458020080B58AB0F8
:1065500002AF4C4B0022009200200A21092206F0D3
:10656000E9FE031CFB61FB69BB61BB69002B07D023
:10657000B969454A454B081C111C1A1CFFF70EFE51
:10658000434A444B101C01211A1C06F08BFF031CCC
:106590007B617B69002B08D07969A1235A003B4BB2
:1065A000081C111C1A1CFFF7F9FD3B4A3B4B101C41
:1065B00001211A1C06F076FF031C3B613B69002B8E
:1065C00007D03969364A314B081C111C1A1CFFF7D9
:1065D000E5FD314B1A6880231B02101C191C002298
:1065E00006F0D8FF031CFB60FB68002B08D0F9689D
:1065F000A4235A00254B081C111C1A1CFFF7CEFDC2
:10660000284A294B101C01211A1C06F04BFF031CC1
:10661000BB60BB68002B07D0B968244A1B4B081C21
:10662000111C1A1CFFF7BAFD1E4B1A6896231B0497
:10663000101C191C002206F0ADFF031C7B607B6858
:10664000002B08D07968A7235A00104B081C111C96
:106650001A1CFFF7A3FD164A164B101C00211A1C2A
:1066600006F020FF031C3B603B68002B07D0396815
:10667000114A064B081C111C1A1CFFF78FFDBD4662
:1066800008B080BD6C2600203D01000024580200A7
:10669000D424002069640100D82400207D64010016
:1066A00047010000DC2400209D6401004D01000032
:1066B000E0240020F16401005301000080B58EB099
:1066C00000AF3B1D00221A60043300221A6004331D
:1066D00000221A60043300221A60043300221A6078
:1066E000043300221A7001333B1C1C331A780F212B
:1066F0008A4301210A431A703B1C1C3319780F226C
:106700000A4010210A431A703B1D181C0AF024FF8E
:106710003B1D181C0EF03EFF031C9BB2391C1C31A4
:106720003A1D081C111C1A1CFFF718FD031C7B6383
:106730007B6B3B633B6B002B08D0396BB4235A0057
:10674000254B081C111C1A1CFFF728FDC0239B00B9
:10675000181CFFF7FBFC031C7B637B6BFB62FB6A73
:10676000002B07D0F96A1D4A1B4B081C111C1A1C70
:10677000FFF714FD3B1C2033181C002108220EF0EB
:1067800073FE3B1C2033C82292001A803B1C20332E
:106790009622D2005A803B1C203301229A803B1C57
:1067A0002033C8229200DA803B1C2033181CFFF7EC
:1067B000D1FC031C7B637B6BBB62BB6A002B07D0E5
:1067C000B96A074A044B081C111C1A1CFFF7E6FCA7
:1067D000BD460EB080BDC046245802006B010000CB
:1067E0007501000080B5A0B000AFFB1D06221A7035
:1067F0003A1C274B111C1A1C0423081C111C1A1CC0
:106800000EF090FD3B1C4033181C002138220EF086
:106810002BFE3B1C403300221A703B1C40330122EC
:106820009A703B1C403301229A803B1C4033FA1D76
:106830009A603B1C403301221A833B1C40333A1CB4
:10684000DA613B1C0833181C002138220EF00CFEC4
:106850003B1C083302221A703A1C40323B1C08339E
:10686000101C191C03F0BCFD031CFB67FB6FBB670E
:10687000BB6F002B08D0B96FCB235A00054B081C07
:10688000111C1A1CFFF78AFCBD4620B080BDC04613
:10689000305802002458020080B500AFFFF7A2FF75
:1068A0000B4B181C002114220EF0DEFD084B0022B9
:1068B0001A70074B00225A60054B00221A72044BD3
:1068C000044A1A82024B00225A82BD4680BDC0464D
:1068D000582400200808000080B5A8B000AF021CB2
:1068E000BB1D1A803B1C233306221A7004235B4213
:1068F0009C22D21913603A1C0C32454B111C1A1CF5
:106900000423081C111C1A1C0EF00CFD3B1C5C33EC
:10691000181C002138220EF0A7FD3B1C5C3300221E
:106920001A703B1C5C3301229A703B1C5C330122C1
:106930009A803B1C5C333A1C23329A603B1C5C33CC
:1069400001221A833B1C5C333A1C0C32DA613A1C7C
:106950005C3234230121D1543B1C14332D4A1A805C
:106960003B1C143304229A80BB1D00229B5E002B2B
:1069700006DABB1D00229B5E274A13433B6103E0FE
:10698000BB1D00229B5E3B619C22D21913681A0634
:106990003B6922494B431B021B0A13433B613B1CCF
:1069A00014333A1C10329A603B1C5C333A1C14328C
:1069B0001A633B1C2433181C002138220EF054FDAE
:1069C0003B1C243302221A703A1C5C323B1C2433D9
:1069D000101C191C03F004FD031C9822D21913602B
:1069E0009822D21913689422D21913609422D219D2
:1069F0001368002B09D09423DB191968084A094B46
:106A0000081C111C1A1CFFF7C9FBBD4628B080BD2D
:106A100030580200091800000000FFFF710200005A
:106A2000D10100002458020080B582B000AF786028
:106A300039603B681B78042B13D89A000B4BD31892
:106A40001B689F4607F03CFD0CE007F0A5FD09E040
:106A500008F084F906E007F077FD03E007F0E8FDB1
:106A600000E0C046BD4602B080BDC04634580200BA
:106A700080B584B000AF786039603B681B78002B2C
:106A800002D0012B18D02BE0194B1A68F0231B04FD
:106A9000101C191C002206F07DFD031CFB60FB6826
:106AA000002B1FD0F96880239A00124B081C111C80
:106AB0001A1CFFF773FB15E00D4B1B68181C06F042
:106AC000AFFD031CBB60BB68002B0DD0B9688123F0
:106AD0009A00084B081C111C1A1CFFF75FFB03E00F
:106AE000C04602E0C04600E0C046BD4604B080BDDE
:106AF000D42400202458020080B584B000AF021CCA
:106B0000FB1D1A703B1C0F3300221A70FB1D1B78F3
:106B10000F2B01D9202313E0FB1D1B78092B06D86E
:106B20003B1C0F33FA1D127830321A7005E03B1C03
:106B30000F33FA1D127857321A703B1C0F331B7833
:106B4000181CBD4604B080BD80B584B000AF07F00E
:106B500023FD07F06DFD01206021FFF7F5FB174BCA
:106B60001A88174B9A4214D0144B1B88181C1321F7
:106B7000FFF7E4FA031CFB60FB68BB60BB68002BFB
:106B800007D0B9680F4A104B081C111C1A1CFFF7DC
:106B900005FB03F0E5FF031CFB60FB687B607B6883
:106BA000002B07D07968094A074B081C111C1A1CD6
:106BB000FFF7F4FABD4604B080BDC04600200020B7
:106BC000FFFF000027020000245802002A020000F4
:106BD00090B5A5B000AF00238821C9190B603B1CFC
:106BE0008F3300221A703B1C6833181C00210422CA
:106BF0000EF03AFCE24BBB66E24A3B1C6833101CC9
:106C0000191C01F059FF031C8422D219136084213E
:106C1000C9190B688022D21913608021C9190B6829
:106C2000002B0AD08022D219116891239A00D64BEA
:106C3000081C111C1A1CFFF7B1FA3B1C2033181C4E
:106C4000002140220EF010FC3A1C2032CF4B101CC9
:106C5000191C03F073FC3B1C20331A1C0832CC4B6C
:106C6000101C191C03F06AFCCA4B8821C9190B605F
:106C70003B1C8F3300221A7050E03B1C8F331A7874
:106C8000131C5B009C183B1C8F331B788821C9198F
:106C90000A68D3181B781B09DBB2181CFFF72CFFFE
:106CA000031C1A1CBC4B1A553B1C8F331A78131C3F
:106CB0005B009B185C1C3B1C8F331B788821C91917
:106CC0000A68D3181A780F231340DBB2181CFFF799
:106CD00013FF031C1A1CB04B1A553B1C8F331B7837
:106CE000052B0AD13B1C8F331A78131C5B009B18B1
:106CF0000233A94A0021D15409E03B1C8F331A7892
:106D0000131C5B009B180233A34A3A21D1543B1C4D
:106D10008F333A1C8F32127801321A703B1C8F333A
:106D20001B78052BA9D93B1C20331A1C10329A4B17
:106D3000101C191C03F002FC3B1C20331A1C2032CF
:106D4000964B101C191C03F0F9FB3B1C20331A1C3A
:106D50002832934B101C191C03F0F0FB3A1C203214
:106D60003C23D15C0F20814301200143D1543A1CC4
:106D700020323C23D05C0F21014010200143D1542C
:106D80003A1C20323D23D15C0F208143D1543A1C60
:106D900020323D23D05C0F210140D1543B1C2033D5
:106DA000181C02F0EBFC031C8422D219136084210E
:106DB000C9190B68FB67FB6F002B07D0F96F794A85
:106DC000714B081C111C1A1CFFF7E8F93B1C6033BF
:106DD000181C002108220EF047FB3B1C60331A7977
:106DE0000F218A4301210A431A713B1C6033197930
:106DF0000F220A4010210A431A713B1C60335A7952
:106E00000F218A4301210A435A713B1C603359798F
:106E10000F220A4010210A435A713B1C60330022A2
:106E20001A60614A3B1C6033101C191C08F078FA88
:106E3000031C8422D21913608421C9190B68BB6713
:106E4000BB6F002B08D0B96F9C239A004E4B081CD7
:106E5000111C1A1CFFF7A2F93B1C0C33181C002153
:106E600014220EF001FB3B1C0C335A7B0F218A438A
:106E700001210A435A733B1C0C33597B0F220A40F1
:106E800010210A435A733B1C0C339A7B0F218A430F
:106E900001210A439A733B1C0C33997B0F220A4051
:106EA00010210A439A733B1C0C33DA7B0F218A436F
:106EB000DA733B1C0C33D97B0F220A40DA733B1C7C
:106EC0000C333A4A1A603B1C0C3301221A713B1CEA
:106ED0000C3300229A603B1C0C3364221A73344A30
:106EE0003B1C0C33101C191C02F074F9031C7B674B
:106EF0007B6F002B07D0796F2E4A234B081C111C87
:106F00001A1CFFF74BF908F0A3FC031C3B673B6F0F
:106F1000002B08D0396FA1239A001B4B081C111CB1
:106F20001A1CFFF73BF93B1D181C002108220EF02C
:106F30009BFA3B1D204A1A603B1D00225A601F4AE3
:106F40003B1D101C191C0CF039FB031C8422D219A8
:106F500013608421C9190B68FB66FB6E002B08D0F7
:106F6000F96EA3239A00084B081C111C1A1CFFF78A
:106F700015F9134B181C0CF087FDBD4625B090BDCC
:106F8000296A01006C24002024580200485802009D
:106F90005C580200A40000104C2600206458020037
:106FA000705802005E0200009C240020716A0100FB
:106FB00088300020810200003D3A0200AC2400200D
:106FC000496B010080B582B000AF0B4B181CFFF776
:106FD000B1F8031C7B607B683B603B68002B07D0EB
:106FE0003968064A064B081C111C1A1CFFF7D6F814
:106FF000BD4602B080BDC046582400209702000064
:107000002458020080B584B000AF78607B681B789C
:10701000002B14D10B4B1B88181C3B21FFF78EF85B
:10702000031CFB60FB68BB60BB68002B07D0B96822
:10703000054A064B081C111C1A1CFFF7AFF8BD4689
:1070400004B080BD00200020AB02000024580200E4
:1070500080B582B000AF78607968054A054B081C9E
:10706000111C1A1CFFF79AF8BD4602B080BDC0463D
:10707000B50200002458020080B58CB000AF3B1D63
:10708000181C002124220EF0EFF93B1D00221A608B
:107090003B1D1D4A5A603B1D1B4A9A603B1D022244
:1070A0001A733B1D0022DA813B1D00221A743B1D1E
:1070B000164A5A613B1D164A9A613B1DC82252006E
:1070C0009A833B1DC8229200DA833B1D01221A8459
:1070D0003B1D962292005A843B1D181C03F0DAFCDB
:1070E000031CFB62FB6ABB62BB6A002B08D0B96A57
:1070F000B4239A00074B081C111C1A1CFFF74EF80A
:10710000BD460CB080BDC046CD0C0000057001002E
:10711000517001002458020080B592B000AF786031
:1071200000237B643B1C433300221A703B1C0C334E
:1071300000221A60043300221A60043300221A600D
:10714000043300221A60043300221A600433002240
:107150001A60043300221A60043300221A600433D8
:107160007B681B88192B00D19DE004DC102B09D013
:10717000112B2CD0CCE01A2B00D1C4E0552B00D120
:10718000A7E0C5E07B689A88664B1A80664A3B1C7C
:107190000A33101C191CFEF7E5FF031CFB63FB6B95
:1071A000002B07D0F96B614A614B081C111C1A1C9B
:1071B000FEF7F4FF0AF05CFBFFF714FB5D4B0022C7
:1071C0001A70584B1B88181CFEF7D0FFA7E0554BD0
:1071D0001B88181CFEF7CEFF574B00221A703A1C72
:1071E0000C323B1C0A33101C191CFEF7BBFF031C9E
:1071F000BB63BB6B002B07D0B96B504A4C4B081CD0
:10720000111C1A1CFEF7CAFF474A3B1C0C33101C0A
:10721000191C0EF0B5F9031C002B0CD03B1C0C33D1
:10722000181C0EF0B7F9031C9BB23A1C0C32101C50
:10723000191C0AF02BF93B1C43337A6892791A70B7
:107240003B1C43331B78082B07D007F0A5F907F048
:10725000EFF9384B00221A700BE007F013FA031C09
:10726000002B03D0334B01221A7002E0314B002275
:107270001A702C4B012252421A80FFF7A3FE304BAA
:107280001B68181C06F0CCF9031C7B637B6B002B7E
:1072900040D0796BC2239A00254B081C111C1A1C84
:1072A000FEF77CFF36E07B689B79002B34D1FEF73C
:1072B00069FF031C7B647B6C3B633B6B002B2BD017
:1072C000396B204A1A4B081C111C1A1CFEF766FF6A
:1072D00022E07B689B79002B20D1124B1B88181C65
:1072E0001321FEF72BFF031C7B647B6CFB62FB6AA4
:1072F000002B13D0F96A144A0D4B081C111C1A1CE0
:10730000FEF74CFF0AE07B689A790B4B1A7006E097
:10731000C04604E0C04602E0C04600E0C046BD46AC
:1073200012B080BD002000202C260020E3020000C7
:1073300024580200E5240020E6240020EE0200008C
:10734000D4240020110300001A03000080B584B08B
:1073500000AF78600A1CBB1C1A800023FB607B68AE
:107360001B68FB60FB68181C09F032FFBD4604B0C7
:1073700080BDC04680B584B000AF7860104B7A689D
:107380001A607B68023B012B14D80D4A0D4B101C70
:1073900004211A1C06F0EEFC031CFB60FB68002BAA
:1073A0000AD0F968084A094B081C111C1A1CFEF780
:1073B000F5FE01E0C04600E0C046BD4604B080BD19
:1073C000282600204D7301003E03000024580200CF
:1073D00090B58BB000AF78611F4A7B69101C191CF7
:1073E00000F0B8FE1D4A7B69101C191C07F0C6FE90
:1073F0001B4A7B69101C191C01F058FD7B69181C85
:10740000FFF78AFE7B69181C03F0C0FC7B69181C1F
:107410000BF0FCF9134A7B69101C191C0CF048F99D
:1074200008F05EFA031C002B12D03C1C18343B1CE5
:10743000181C08F045FA3A1C231C13CA13C312681F
:107440001A603A1C18327B69101C191C08F026F9C6
:10745000BD460BB090BDC0466C2400209C2400208B
:1074600088300020AC24002080B582B000AF786066
:107470007B68181C03F032FE7B68181CFFF77AFF4C
:10748000BD4602B080BDC04680B588B000AF2E4B6F
:107490000E20191C5022002303F022F9031CFB616B
:1074A000FB69BB61BB69002B07D0B969274A284B30
:1074B000081C111C1A1CFEF771FE3B1D181C002134
:1074C00001220DF0D1FF3B1D1A7801218A431A7069
:1074D0003B1D181CFEF752FE031C7B617B693B6160
:1074E0003B69002B07D039691A4A194B081C111C3B
:1074F0001A1CFEF753FE184B181C03F037F9031C37
:107500007B617B69FB60FB68002B07D0F968134A3D
:107510000F4B081C111C1A1CFEF740FE104B181CC8
:1075200003F038F9031C7B617B69BB60BB68002BEF
:1075300007D0B9680B4A064B081C111C1A1CFEF731
:107540002DFEBD4608B080BDD82500207703000081
:10755000245802007E030000D17301008203000062
:10756000697401008603000080B582B000AFFEF7A9
:107570000DFE031C7B607B683B603B68002B07D0E3
:107580003968054A054B081C111C1A1CFEF706FE3B
:10759000BD4602B080BDC0468E03000024580200E4
:1075A00080B582B000AF0C4B08200A211A1C06F0EF
:1075B00099FB031C7B607B683B603B68002B07D01A
:1075C0003968064A064B081C111C1A1CFEF7E6FD1A
:1075D000BD4602B080BDC0462825002093030000B0
:1075E0002458020080B582B000AF0B4B0120191C5B
:1075F00004F008FF031C7B607B683B603B68002B4A
:1076000007D03968054A064B081C111C1A1CFEF7E6
:10761000C5FDBD4602B080BD142500209B030000BF
:107620002458020080B582B000AF7860064A7B68BB
:10763000101C191C01F0A4FA044B1B685A1C034BC4
:107640001A60BD4602B080BD6C24002000250020D9
:1076500080B582B000AF7860064A7B68101C191CA8
:1076600001F0ECFA044B1B685A1C034B1A60BD4630
:1076700002B080BD6C2400200425002080B582B0BB
:1076800000AF021CBB1D1A80064B1B78012B05D1D5
:10769000BB1D00229B5E181CFFF71EF9BD4602B001
:1076A00080BDC046E524002080B584B000AFF860FE
:1076B000B9607A60BB681B78152B00D000E0C0462B
:1076C0000023181CBD4604B080BDC04680B588B0FC
:1076D00000AF04F071F8031CFB61FB69BB61BB697F
:1076E000002B08D0B969F9239A002F4B081C111CF4
:1076F0001A1CFEF753FD3B1C0C33181C0AF04EFEFF
:10770000031CFB61FB697B617B69002B07D07969F6
:10771000264A254B081C111C1A1CFEF73FFD3B1C7A
:107720000633181C002106220DF09EFE3B1C1E2273
:10773000DA803B1C1A7A01210A431A723B1C1A7A1E
:1077400002218A431A723B1C1A7A1C218A430C219B
:107750000A431A723B1C1A7A20218A431A723B1C74
:1077600007225A723B1C10229A723B1C104A1A6064
:107770003B1C01221A710F4A3B1C101C191C0AF0F9
:10778000C3FE031CFB61FB693B613B69002B07D017
:107790003969094A044B081C111C1A1CFEF7FEFC2F
:1077A000BD4608B080BDC04624580200EA03000070
:1077B000A9760100E4240020F903000080B500AFA1
:1077C0000B4A0C4B0121D150094A0B4B8021490235
:1077D000D150074A0649A123DB00CB5801211943A8
:1077E000A123DB00D150024B01221A60BD4680BDAF
:1077F000000001400C0500000405000080B582B0C7
:1078000000AF0A4B0020191CFEF7C4FC031C7B6070
:107810007B68002B07D07968054A064B081C111CB1
:107820001A1CFEF7BBFCBD4602B080BD000080FF05
:10783000060400002458020080B500AFFFF7DEFF09
:10784000FFF7BCFF09F05CFDFEF780FE07F0A2FD2C
:10785000FFF7C8FEFFF718FE2849294A294B081CE4
:10786000111C1A1C07F0C6F9FFF79AFEFFF72EFF4E
:10787000FEF724FFFFF710F8FFF7AAF9FFF7FCFB6C
:1078800008F0CCFA08F0DAFB08F00EFF1E4B0320DC
:1078900000211A1C08F090FDC0460420FEF752FC9F
:1078A000031C002BF9D1FFF78DFB184B181C05F0BA
:1078B000E7FE06F079FB164B181C05F0E1FE144BB1
:1078C0001968124B1A68134B081C111C1A1C05F07E
:1078D000E5FE114B1A680F4B1B689A4203D20D4B01
:1078E0001A680D4B1A600D4B1A680B4B1B68D218A7
:1078F0000A4B1A60FFF738FED7E7C046257601002D
:10790000517601007D76010021110200082500203A
:107910000C25002010250020F4240020F82400204D
:10792000A0DF7047181CC046A2DF7047181CC04675
:10793000A4DF7047181CC046A6DF7047181CC0465D
:10794000A8DF7047181CC04680B582B000AF021C8B
:107950003960BB1D1A80BB1D1B88DAB23B681A70E8
:107960003B680133BA1D1288120A92B2D2B21A7061
:107970000223181CBD4602B080BDC04680B582B04F
:1079800000AF786039607B68DAB23B681A703B6898
:1079900001337968FF2212020A40120AD2B21A7029
:1079A0003B6802337968FF2212040A40120CD2B2FB
:1079B0001A703B6803337A68120ED2B21A7004232D
:1079C000181CBD4602B080BD80B582B000AF7860A3
:1079D0007B681B781A1C7B6801331B781B029BB2E7
:1079E00013439BB29BB2181CBD4602B080BDC0467B
:1079F00090B585B000AF78603C1C0E347B68181CD5
:107A0000FFF7E2FF031C23803B1C0E331A8801237F
:107A100013405A1E9341DBB2181CBD4605B090BD01
:107A200090B585B000AF78603C1C0E347B68181CA4
:107A3000FFF7CAFF031C23803B1C0E331A88022366
:107A400013405A1E9341DBB2181CBD4605B090BDD1
:107A500090B585B000AF786039607B681A883C1CAF
:107A60000F343B68101C191CFFF76EFF031C2370BA
:107A70003B1C0F331B783A68D3187A6892781A70D7
:107A80003B1C0F333A1C0F32127801321A703B1C28
:107A90000F331B783A68D3187A68D2781A703B1C77
:107AA0000F333A1C0F32127801321A703B1C0F331D
:107AB0001B783A68D3187A6812791A703B1C0F3316
:107AC0003A1C0F32127801321A703B1C0F331B78AC
:107AD0003A68D3187A6852791A703B1C0F333A1CF3
:107AE0000F32127801321A703B1C0F331B783A6840
:107AF000D3187A6892791A703B1C0F333A1C0F32F4
:107B0000127801321A703B1C0F331B78181CBD46CB
:107B100005B090BD80B584B000AF786039603B1C83
:107B20000F3302221A703B68181CFFF74DFF031C2D
:107B30001A1C7B681A803B1C0F331B783A68D318D9
:107B40001A787B689A703B1C0F333A1C0F321278FC
:107B500001321A703B1C0F331B783A68D3181A781D
:107B60007B68DA703B1C0F333A1C0F3212780132FB
:107B70001A703B1C0F331B783A68D3181A787B684D
:107B80001A713B1C0F333A1C0F32127801321A70F3
:107B90003B1C0F331B783A68D3181A787B685A71EC
:107BA0003B1C0F333A1C0F32127801321A703B1C07
:107BB0000F331B783A68D3181A787B689A713B1C8C
:107BC0000F333A1C0F32127801321A703B1C0F33FC
:107BD0001B78181CBD4604B080BDC04680B582B07D
:107BE00000AF786039603B689A887B689A80034B65
:107BF00000221A70BD4602B080BDC046EA2A0020AD
:107C000080B582B000AF786039607B680122524253
:107C10009A80064B00221A70054B00221A70054B01
:107C200000221A70BD4602B080BDC046E82A00207E
:107C3000E92A0020EA2A002080B58AB000AF7860E7
:107C400039603B6806337B627B6A1A887B689B8954
:107C50009A4227D17B6A1B8B022B23D17B681B683E
:107C6000002B00D1B5E07B6A1A33181CFFF7D8FE51
:107C7000031C1A1C584B1A70574B1B78002B04D04E
:107C80003B1C1C3300221A7003E03B1C1C330122F6
:107C90001A707B681B6879683A1C1C32081C111C1E
:107CA000984796E07B6A1A887B689B8A9A4227D11C
:107CB0007B6A1B8B022B23D17B681B68002B00D1B6
:107CC00087E07B6A1A33181CFFF792FE031C1A1C0C
:107CD000424B1A70414B1B78002B04D03B1C1833CD
:107CE00003221A7003E03B1C183304221A707B68CD
:107CF0001B6879683A1C1832081C111C984768E008
:107D00007B6A1A887B681B8D9A422ED17B6A1B8BFB
:107D1000072B2AD17B6A1A333A1C1032101C191C0B
:107D2000FFF7F8FE3B1C10339B780B2B50D83B1C05
:107D30001033DB781E2B4BD83B1C10331B79172BD1
:107D400046D83B1C10335B793B2B41D83B1C10338E
:107D50009B793B2B3CD83B1C1033181C06F080FA57
:107D6000031C181C07F09AFB32E07B6A1A887B68B8
:107D70001B8A9A422DD17B6A1B8B0C2B29D17B6AE3
:107D80001A1C1A32164B101C191C0C220DF070FA1A
:107D9000031C002B0ED107F05BFD031C3B623B6A0A
:107DA000002B16D03A6A0F4B101C77211A1CFEF7D5
:107DB000F5F90EE07B6A1F333A1C0832101C191CBF
:107DC000FFF7A8FE3B1C0833181C08F06FFF00E00B
:107DD000C046BD460AB080BDE92A0020E82A00203E
:107DE000785802008858020080B582B000AF7860F1
:107DF0000A1CBB1C1A80064B1B78002B04D1044BB9
:107E000001221A7002F0F2FDBD4602B080BDC046EC
:107E1000EA2A002090B59BB000AF786039603B1C27
:107E2000383300221A60043300221A800233002201
:107E30001A7001333B1C283300221A6004330022DD
:107E40001A60043300221A60043300221A700133CE
:107E50003B1C18337B663B1C1833181C0021102276
:107E60000DF002FB3B6802333B663B6E1B78012B37
:107E700000D0E4E03B6E5A887B681B8D9A4245D166
:107E80003B1C4033181C002108220DF0EDFA07F0CE
:107E900017FB031C002B08D007F0F6FA031C3A1C52
:107EA0004032101C191C06F09BF83B1C18330122B1
:107EB0001A703B1C18333A1C3832DA603A1C4032D4
:107EC0003B1C3833101C191CFFF7C2FD031C1A1C85
:107ED0003B1C18335A813B1C18339A7901210A4301
:107EE0009A717B689A887B6E101C191CFFF728FD1D
:107EF000031CFB65FB6D002B00D100E1FA6D814B8B
:107F0000101C9F211A1CFEF749F9F8E03B6E5A88B5
:107F10007B681B8A9A4200D0F1E03B1C5A33002256
:107F20001A8004235B427B650023FB603B1C0B3300
:107F300000221A70744B002000211A1C05F01AFF51
:107F40003B1C1033181C002108220DF08DFA3C1C3C
:107F50005A343A1C10323B1C0B33101C191C08F00D
:107F60004BFD031C23803A1C10323B1C3833101C81
:107F7000191CFFF76DFD3B1C5A3300229B5E002B42
:107F800007DA3B1C5A3300229B5E604A1343FB60B6
:107F900004E03B1C5A3300229B5EFB607B6D1A069B
:107FA000FB685B494B431B021B0A1343FB603B1CF2
:107FB000283302221A703B1C28335A1C3B1C0C33FA
:107FC000101C191C04220DF0ADF93B1C283305339D
:107FD0003A1C3832191C0723081C111C1A1C0DF0FE
:107FE000A1F93B1C0B331B78DAB23B1C28331A7304
:107FF0003B1C183301221A703B1C18333A1C2832E0
:10800000DA603B1C18330D225A813B1C18339A79D5
:1080100001210A439A717B689A887B6E101C191C97
:10802000FFF78EFC031C3B653B6D002B67D03A6D60
:10803000344B101CBD211A1CFEF7B0F85FE03B6EFC
:108040001B78022B5BD13B6E5A887B681B8B9A4254
:1080500055D13B1C4E3300221A803B1C08330222B0
:108060001A803B1C183302221A703B6E5B8B022B6A
:1080700004D03B1C1833274A9A802DE03B6E5B7F6F
:108080001B029AB23B6E1B7F13439AB23B1C4E33CA
:108090001A803B1C4E331B88FF2B19D83B1C4E33D8
:1080A0001B88002B14D03B1C183300229A803B1CE9
:1080B0004E331B88181C06F09BF97B68198B3B6EAE
:1080C0001C333A1C0832081C0021FFF731FC03E086
:1080D0003B1C18330F4A9A807B689A887B6E101C71
:1080E000191CFFF72DFC031CBB64BB6C002B06D0D6
:1080F000BA6C044B101CD2211A1CFEF74FF8BD4677
:108100001BB090BD88580200E97D01000000FFFF10
:10811000710200000D01000080B584B000AF7860EE
:1081200039603B680633FB60FB681A887B681B89F3
:108130009A420BD13B1C083302221A707B681B68E1
:1081400079683A1C0832081C111C9847BD4604B0D7
:1081500080BDC04680B582B000AF786039603B68B2
:108160001B88502B18D004DC102B07D0112B0CD0FF
:1081700028E0512B17D0532B1DD023E07A683B68A1
:10818000101C191CFFF72AFD1DE07A683B68101CC3
:10819000191CFFF735FD16E07A683B68101C191CA6
:1081A000FFF74AFD0FE03B6804337A68101C191C86
:1081B000FFF730FE07E07A683B68101C191CFFF7D8
:1081C000ABFF00E0C046BD4602B080BD80B586B0C2
:1081D00000AFF860B9607A603B1C173300221A7058
:1081E0003B1C163301221A70BB681B78002B07D08A
:1081F0003B1C17333A1C1732127801210A431A70BC
:10820000BB685B78002B07D03B1C17333A1C173236
:10821000127802210A431A70BB681B78002B13D016
:108220003B1C17333A1C1732127801210A431A708B
:10823000BB681B7B5BB21B061A1CBB681B691B025D
:108240001B0A13433B610AE0BB681B795BB21B0648
:108250001A1CBB689B681B021B0A13433B613B1C37
:1082600016331B787A68D3183A69101C191CFFF76B
:1082700085FB031C191C3B1C16333A1C1632127862
:108280008A181A70BB685B78002B1CD03B1C173314
:108290003A1C1732127802210A431A70BB681A1C62
:1082A00014323B1C16331B787968CB18101C191C30
:1082B000FFF7CEFB031C191C3B1C16333A1C16326D
:1082C00012788A181A70BB689B78002B16D03B1C5A
:1082D00017333A1C1732127804210A431A703B1CD8
:1082E00016331B787A68D318BA68127F1A703B1C51
:1082F00016333A1C1632127801321A707B683A1C17
:10830000173212781A703B1C16331B78181CBD46A6
:1083100006B080BD80B59EB000AF78603B1C58337E
:10832000181C002103220DF09FF83B1C58331A78CB
:108330000F218A4301210A431A703B1C58331978D4
:108340000F220A4010210A431A703B1C58339A78B6
:1083500006218A4302210A439A703B1C58335A78FB
:108360000F218A4301210A435A703B1C5833597824
:108370000F220A4010210A435A703B1C5C33181C20
:1083800000211C220DF070F83B1C5C331A78202170
:108390000A431A703B1C5C3300225A603B1C5C335E
:1083A0000022DA603B1C5C3300221A613B1C5C3308
:1083B0003A1C58325A613B1C5C3300229A613B1CC8
:1083C000403301229A703B1C40333F4A1A803B1CC9
:1083D0003C33181C002103220DF046F83B1C3C33B3
:1083E0009A7806218A4302210A439A703B1C3C3347
:1083F0001A780F218A431A703B1C3C3319780F22DC
:108400000A401A703B1C3C335A780F218A435A7039
:108410003B1C3C3359780F220A405A703B1C3C33BA
:108420009A7808218A439A703B1C3C339A78102131
:108430008A439A703B1C3C339A7801210A439A7014
:108440003B1C4433181C002114220DF00DF83B1C7A
:108450001C33181C002120220DF006F83B1C44336D
:108460003A1C40321A603B1C44333A1C3C325A607E
:1084700079683A1C1C323B1C0833081C111C1A1C5E
:10848000FFF7A4FE031C1A1C3B1C44331A813B1C3F
:10849000443300225A813B1C443314229A813B1CF2
:1084A00044333A1C08321A617B68D8887B680833E9
:1084B000391C5C313A1C4432FFF736FA031C181C95
:1084C000BD461EB080BDC0461C2A000080B59EB0CF
:1084D00000AF78603B1C5833181C002103220CF0BD
:1084E000C3FF3B1C58331A780F218A4301210A43EA
:1084F0001A703B1C583319780F220A4010210A4386
:108500001A703B1C58339A7806218A4302210A4389
:108510009A703B1C58335A780F218A4301210A4331
:108520005A703B1C583359780F220A4010210A43D5
:108530005A703B1C5C33181C00211C220CF094FF69
:108540003B1C5C331A7810210A431A703B1C5C33C5
:108550001A7802210A431A703B1C5C331A780821EE
:108560000A431A703B1C5C3300225A603B1C5C338C
:108570000022DA603B1C5C3300221A613B1C5C3336
:108580003A1C58325A613B1C5C3300229A613B1CF6
:10859000403301229A703B1C4033434A1A803B1CF3
:1085A0003C33181C002103220CF05EFF3B1C3C33C3
:1085B0009A7806218A4302210A439A703B1C3C3375
:1085C0001A780F218A4301210A431A703B1C3C335D
:1085D00019780F220A4010210A431A703B1C3C33C1
:1085E0005A780F218A4301210A435A703B1C3C33BD
:1085F00059780F220A4010210A435A703B1C3C3321
:108600009A7808210A439A703B1C3C339A781021CF
:108610008A439A703B1C3C339A7801210A439A7032
:108620003B1C4433181C002114220CF01DFF3B1C82
:108630001C33181C002120220CF016FF3B1C443375
:108640003A1C40321A603B1C44333A1C3C325A609C
:1086500079683A1C1C323B1C0833081C111C1A1C7C
:10866000FFF7B4FD031C1A1C3B1C44331A813B1C4E
:10867000443300225A813B1C443314229A813B1C10
:1086800044333A1C08321A617B68D8887B681033FF
:10869000391C5C313A1C4432FFF746F9031C181CA4
:1086A000BD461EB080BDC0461E2A000080B592B0F7
:1086B00000AF78603B1C2C33181C00211C220CF0EE
:1086C000D3FE3B1C2C331A7802210A431A703B1C40
:1086D0002C331A7808210A431A703B1C2C330022D1
:1086E0005A603B1C2C330022DA603B1C2C330022E6
:1086F0001A613B1C2C3300225A613B1C2C33002294
:108700009A613B1C143301229A703B1C14333D4A7E
:108710001A803B1C1033181C002103220CF0A4FE0D
:108720003B1C10339A7806218A4302210A439A702F
:108730003B1C10331A780F218A4301210A431A7017
:108740003B1C103319780F220A4010210A431A707B
:108750003B1C10335A780F218A4301210A435A7077
:108760003B1C103359780F220A4010210A435A70DB
:108770003B1C10339A7808218A439A703B1C1033B3
:108780009A7810210A439A703B1C10339A78012181
:108790008A439A703B1C1833181C002114220CF0D9
:1087A00063FE05F019FE031C1A1C3B1C0E331A80D5
:1087B0003B1C18333A1C14321A603B1C18333A1C09
:1087C00010325A603B1C183302221A813B1C1833AA
:1087D00000225A813B1C183302229A813B1C183319
:1087E0003A1C0E321A617B68D8887B681833391CB2
:1087F0002C313A1C1832FFF797F8031C181CBD46A1
:1088000012B080BD212A000080B592B000AF786020
:108810003B1C2C33181C00211C220CF025FE3B1C99
:108820002C331A7802210A431A703B1C2C33002285
:108830005A603B1C2C330022DA603B1C2C33002294
:108840001A613B1C2C3300225A613B1C2C33002242
:108850009A613B1C143301229A703B1C14333C4A2E
:108860001A803B1C1033181C002103220CF0FCFD65
:108870003B1C10339A7806218A4302210A439A70DE
:108880003B1C10331A780F218A4301210A431A70C6
:108890003B1C103319780F220A4010210A431A702A
:1088A0003B1C10335A780F218A435A703B1C1033FB
:1088B00059780F220A405A703B1C10339A780821CD
:1088C0008A439A703B1C10339A7810218A439A701D
:1088D0003B1C10339A7801218A439A703B1C183351
:1088E000181C002114220CF0BFFD3B1C0C3301228C
:1088F0001A803B1C0C33FF225A803B1C18333A1C55
:1089000014321A603B1C18333A1C10325A603B1C5C
:10891000183304221A813B1C183300225A813B1C55
:10892000183304229A813B1C18333A1C0C321A610A
:108930007B68D8887B682033391C2C313A1C18326C
:10894000FEF7F2FF031C181CBD4612B080BDC046E6
:108950000629000080B592B000AF78603B1C083358
:1089600000221A60043300221A80023300221A7097
:1089700001333B1C2C33181C00211C220CF074FD0D
:108980003B1C2C331A7802210A431A703B1C2C33EF
:108990001A7808210A431A703B1C2C3300225A60B3
:1089A0003B1C2C330022DA603B1C2C3300221A6162
:1089B0003B1C2C3300225A613B1C2C3300229A6151
:1089C0003B1C143301229A703B1C1433394A1A8021
:1089D0003B1C1033181C002103220CF045FD3B1CEE
:1089E00010339A7806218A4302210A439A703B1C6D
:1089F00010331A780F218A4301210A431A703B1C55
:108A0000103319780F220A4010210A431A703B1CB8
:108A100010335A780F218A4301210A435A703B1CB4
:108A2000103359780F220A4010210A435A703B1C18
:108A300010339A7808210A439A703B1C10339A78B5
:108A400010218A439A703B1C10339A7801218A4383
:108A50009A703B1C1833181C002114220CF004FDE2
:108A60003B1C18333A1C14321A603B1C18333A1C56
:108A700010325A603B1C183307221A813B1C1833F2
:108A800000225A813B1C183307229A813B1C183361
:108A90003A1C08321A617B68D8887B682833391CF5
:108AA0002C313A1C1832FEF73FFF031C181CBD4640
:108AB00012B080BDAAAAFFFF80B584B000AF786075
:108AC00039603B681A687B681A607B6801225242F1
:108AD0009A803B1C083301229A703B1C0833274ABA
:108AE0001A807B6806333A1C08320120111C1A1CBC
:108AF000FEF716FF031CFB60FB68002B01D0FB6830
:108B000037E07B68181CFFF705FC031CFB60FB6863
:108B1000002B01D0FB682CE07B68181CFFF7D6FC0B
:108B2000031CFB60FB68002B01D0FB6821E07B6825
:108B3000181CFFF7BBFD031CFB60FB68002B01D07A
:108B4000FB6816E07B68181CFFF75EFE031CFB60E9
:108B5000FB68002B01D0FB680BE07B68181CFFF75B
:108B6000F9FE031CFB60FB68002B01D0FB6800E0F2
:108B70000023181CBD4604B080BDC0460918000083
:108B800080B58EB000AF786039607B689A882A4BD8
:108B90009A4249D079683A683B1C1C33081C111C66
:108BA0001A1CFFF713FB031C1A1C3B1C32331A80E0
:108BB0003B1C1A333A1C323212881A803B1C083391
:108BC000181C002110220CF04FFC7B681A893B1CFA
:108BD00008331A803B1C083302229A703B1C08336E
:108BE00000229A803B1C08333A1C1A329A603B1CC4
:108BF00008333A1C1C32DA607B689A883B1C0833C5
:108C0000101C191CFEF798FE031C7B637B6B002B6A
:108C10000CD13B1C1A331B883A1C323212889A4200
:108C200004D00C237B6301E008237B637B6B181C5F
:108C3000BD460EB080BDC046FFFF000080B58EB0BF
:108C400000AF786039607B689A882A4B9A4249D095
:108C500079683A683B1C1C33081C111C1A1CFFF76E
:108C6000B5FA031C1A1C3B1C32331A803B1C1A3306
:108C70003A1C323212881A803B1C0833181C00211F
:108C800010220CF0F1FB7B681A8A3B1C08331A8017
:108C90003B1C083301229A703B1C083300229A8047
:108CA0003B1C08333A1C1A329A603B1C08333A1CAE
:108CB0001C32DA607B689A883B1C0833101C191C34
:108CC000FEF73AFE031C7B637B6B002B0CD13B1C35
:108CD0001A331B883A1C323212889A4204D00C2371
:108CE0007B6301E008237B637B6B181CBD460EB0E1
:108CF00080BDC046FFFF0000A0DF7047181CC046C3
:108D0000A2DF7047181CC046A3DF7047181CC0467E
:108D1000A4DF7047181CC046A6DF7047181CC04669
:108D2000A8DF7047181CC04680B582B000AF7860DD
:108D30007B681B781A1C7B6801331B781B029BB273
:108D400013439BB29BB2181CBD4602B080BDC04607
:108D500090B585B000AF78603C1C0E347B68181C61
:108D6000FFF7E2FF031C23803B1C0E331A8801230C
:108D700013405A1E9341DBB2181CBD4605B090BD8E
:108D800080B582B000AF786039603B689A887B68B4
:108D90005A82BD4602B080BD80B582B000AF786017
:108DA00039607B68012252425A82BD4602B080BDC2
:108DB00080B584B000AF786039607B681B7D002B84
:108DC00029D03B680633FB60FB681A887B685B89A7
:108DD0009A4220D1FB681B8B022B1CD17B681B683D
:108DE000002B18D0FB681A33181CFFF7B1FF031CC7
:108DF000002B04D03B1C083300221A7003E03B1CFC
:108E0000083301221A707B681B6879683A1C0832A3
:108E1000081C111C9847BD4604B080BD80B58AB0BF
:108E200000AF786039603B1C0C337B623B1C0C3319
:108E3000181C002110220CF017FB3B6802333B6228
:108E40003B6A1B78012B2CD13B6A5A887B68DB88F4
:108E50009A4226D108F00CFD3B1C0C3301221A70FB
:108E60003B1C0C330022DA603B1C0C3300225A817D
:108E70003B1C0C339A7901218A439A717B685A8A88
:108E80007B6A101C191CFFF74BFF031CFB61FB697D
:108E9000002B06D0FA69044B101C6B211A1CFDF73D
:108EA0007DF9BD460AB080BD9858020080B582B0F9
:108EB00000AF786039603B681B88112B0FD002DC53
:108EC000102B05D021E0502B10D0512B15D01CE0D9
:108ED0007A683B68101C191CFFF752FF16E07A688D
:108EE0003B68101C191CFFF757FF0FE07A683B68BE
:108EF000101C191CFFF75CFF08E03B6804337A681C
:108F0000101C191CFFF78AFF00E0C046BD4602B0E6
:108F100080BDC04690B595B000AF786039607B6881
:108F20001B7D002B23D03B1C2833181C002103225F
:108F30000CF09AFA3B1C28331A780F218A4301213E
:108F40000A431A703B1C283319780F220A4010215B
:108F50000A431A703B1C28333A68527B5A703B1CF8
:108F600028339A7806218A4302210A439A703B1CCF
:108F70002C33181C00211C220CF076FA3B1C2C33DD
:108F80001A7802210A431A707B681B7D1A1C012380
:108F90001340D9B23B1C2C3301220A40120119782C
:108FA000102081430A431A703B1C2C3300225A6064
:108FB0003B1C2C330022DA603B1C2C3300221A614C
:108FC0007B681B7D002B02D03A1C283200E0002277
:108FD0003B1C2C335A613B1C2C3300229A613B1CF6
:108FE000103301229A703B1C1033784A1A803B1CC4
:108FF0000C33181C002103220CF036FA3B1C0C33F6
:109000003A68927B1A703B1C0C333A68D27B5A70D8
:109010003B1C0C339A7806218A4302210A439A703A
:109020003B1C0C339A7808210A439A703B1C0C3382
:109030009A7810218A439A703B1C0C339A7801214C
:109040008A439A703B681A7B3B1C0B331A703B1C9B
:109050001433181C002114220CF006FA3B1C1433A4
:109060003A1C10321A603B1C14333A1C0C325A6002
:109070003B1C143301221A813B1C143300225A81F9
:109080003B1C143301229A813B1C14333A1C0B32D3
:109090001A617B6898887B680633391C2C313A1C2E
:1090A0001432FFF72DFE031CFB64FB6C002B01D078
:1090B000FB6C87E03B689B68002B00D17EE03B1C8B
:1090C000103301229A703B1C1033414A1A803B1C1A
:1090D0000C33181C002103220CF0C6F93B1C0C3386
:1090E0003A68127C1A703B1C0C335A780F218A4361
:1090F0005A703B1C0C3359780F220A405A703B1CA3
:109100000C339A7806218A4302210A439A703B1C49
:109110000C339A7808218A439A703B1C0C339A7856
:1091200010218A439A703B1C0C339A7801218A43A0
:109130009A703B689B683C1C4B343A1C0832101CEC
:10914000191C01F0B3F9031C23703B1C1433181CC9
:10915000002114220CF088F93B1C14333A1C103205
:109160001A603B1C14333A1C0C325A603B1C4B33C4
:109170001B789AB23B1C14331A813B1C1433002217
:109180005A813B1C14331A893B1C14339A813B1CB3
:1091900014333A1C08321A617B68D9887B680E3315
:1091A0003A1C1432081C111C1A1CFFF7ADFD031CDD
:1091B000FB64FB6C002B04D0FB6C03E07B6800229B
:1091C000DA810023181CBD4615B090BD192A000095
:1091D0000829000080B584B000AF786039603B6832
:1091E0001A687B681A607B68012252425A823B6887
:1091F0001A797B681A757B68FF221A743B1C083346
:1092000001229A703B1C08330E4A1A807B68043393
:109210003A1C08320120111C1A1CFFF76DFD031CBB
:10922000FB60FB68002B01D0FB6806E07A683B68B6
:10923000101C191CFFF76EFE031C181CBD4604B061
:1092400080BDC0460F18000080B588B000AF7860C0
:109250000A1CFB1C1A700023FB617B681A7CFB1C38
:109260001B789A424ED03B1C1A3301221A80FB1CF9
:109270001A787B681A747B68D9883A1C1A32FB1CEE
:10928000081C0021FFF744FD031CFB61FB69002B58
:1092900001D0FB6937E07B685A8A1D4B9A422FD078
:1092A0007B681B7D002B2BD03B1C0833181C002136
:1092B00010220CF0D9F83B1C1A3301221A807B686B
:1092C000DA883B1C08331A803B1C083301229A7051
:1092D0003B1C083300229A803B1C08333A1C1A328C
:1092E0009A603B1C0833FA1CDA607B685A8A3B1C84
:1092F0000833101C191CFFF70FFD031CFB6101E074
:109300000823FB61FB69181CBD4608B080BDC04640
:10931000FFFF000080B582B000AF021C3960BB1DAA
:109320001A80BB1D1B88DAB23B681A703B68013398
:10933000BA1D1288120A92B2D2B21A700223181CF5
:10934000BD4602B080BDC046A0DF7047181CC046B5
:10935000A2DF7047181CC046F0B593B000AFF863A9
:10936000B963391C4731BB6B5A1E93410B703B1CD0
:1093700047331A7801235340DBB2002B05D0504B02
:10938000002033211A1CFCF709FF391C4631FB6B06
:109390005A1E93410B703B1C46331A7801235340ED
:1093A000DBB2002B05D0464B002034211A1CFCF701
:1093B000F5FEBB6B5C681B68DBB2FA6B1370FB6B72
:1093C000581CBB6B19685A68FF231B020D1C1D40FB
:1093D0000023161C1E403306290A39633A6B1A43D0
:1093E0003A63330A7B633024E41923780370FB6B00
:1093F000981CBB6B19685A68FF231B040C1C1C408B
:10940000BC620023141C1C40FC62F96A0B04BA6A9B
:10941000120C3A623C6A1C433C62F96A090C79629C
:109420002022D21913780370FB6BDA1CBB6B5C68CB
:109430001B68190E0906B9610021201C0840F8615B
:10944000F9690B02BC69240E3C6138691843386124
:10945000F969090E79613C7CE3B21370FB6B1A1D4C
:10946000BB6B5C681B680021181C0840B860FF21BA
:10947000201C0840F860F9680900396000237B600F
:109480003C78E3B21370FB6B5A1DBB6B9B68DBB27D
:109490001370FB6B9A1DBB6B9968FF231B020B407B
:1094A0001B0ADBB21370FB6BDA1DBB6B9968FF23E1
:1094B0001B040B401B0CDBB21370BD4613B0F0BD98
:1094C000AC58020080B584B000AF786039603B1CB6
:1094D0000F3300221A703B1C0E333A68511E8A412A
:1094E0001A703B1C0E331B7801225340DBB2002B59
:1094F00005D03F4B00204B211A1CFCF74FFE3B1CB4
:109500000D337A68511E8A411A703B1C0D331B784B
:1095100001225340DBB2002B05D0354B00204C21FB
:109520001A1CFCF73BFE3B1C0F331B787A68D318E0
:109530003A6812781A703B1C0F333A1C0F321278BB
:1095400001321A703B685A883B1C0F331B787968CC
:10955000CB18101C191CFFF7DDFE031C191C3B1C4B
:109560000F333A1C0F3212788A181A703B689A88A7
:109570003B1C0F331B787968CB18101C191CFFF7A4
:10958000C9FE031C191C3B1C0F333A1C0F32127806
:109590008A181A703B68DA883B1C0F331B7879688D
:1095A000CB18101C191CFFF7B5FE031C191C3B1C23
:1095B0000F333A1C0F3212788A181A703B1C0C3386
:1095C0003A1C0F321278073A51424A411A703B1C3A
:1095D0000C331B7801225340DBB2002B05D0044B27
:1095E000002054211A1CFCF7D9FDBD4604B080BDF3
:1095F000AC58020080B594B000AFB9607B603B1CF2
:109600000E33011C19803B1C0C331A803B1C4F335A
:10961000BA68511E8A411A703B1C4F331B780122D5
:109620005340DBB2002B05D0524B00206D211A1C99
:10963000FCF7B4FD3B1C4E333A1C0C321288511E11
:109640008A411A703B1C4E331B7801225340DBB217
:10965000002B05D0474B00206E211A1CFCF79EFD05
:109660003B1C2C33181C00211C220BF0FDFE3B1C64
:109670002C331A7802210A431A703B1C2C33002227
:109680005A603B1C2C330022DA603B1C2C33002236
:109690001A613B1C2C3300225A613B1C2C330022E4
:1096A0009A613B1C483301229A703B1C48333A1C98
:1096B0000E3212881A803B1C1433181C002103221E
:1096C0000BF0D2FE3B1C14337A6812781A703B1CE4
:1096D00014337A6852785A703B1C14339A780621F6
:1096E0008A4302210A439A703B1C14339A7808215A
:1096F0008A439A703B1C14339A7810218A439A70DB
:109700003B1C14339A7801218A439A703B1C18330E
:10971000181C002114220BF0A7FE3B1C18333A1C26
:1097200048321A603B1C18333A1C14325A603B1CF6
:1097300018333A1C0C3212881A813B1C1833002251
:109740005A813B1C18333A1C0C3212889A813B1CFC
:109750001833BA681A61084B1888391C2C313A1C26
:109760001832BB6DFFF7F4FD031C181CBD4614B086
:1097700080BDC046AC580200EC2A002090B58BB0EA
:1097800002AF78603B1C183301229A703B1C1833DF
:10979000784A1A803A1C1832774B0120111C1A1C87
:1097A000FFF7D2FD031CFB61FB69002B01D0FB69B5
:1097B000DBE07B681B88002B11D07B6859687B68D5
:1097C0001A887B683C336D486D4C0094FFF712FF9C
:1097D000031CFB61FB69002B01D0FB69C5E07B68C2
:1097E0001B89002B11D07B68D9687B681A897B683C
:1097F0003C336448644C0094FFF7FCFE031CFB619F
:10980000FB69002B01D0FB69AFE07B681B8A002B52
:1098100011D07B6859697B681A8A7B683C335B4846
:109820005B4C0094FFF7E6FE031CFB61FB69002B19
:1098300001D0FB6999E07B681B8B002B11D07B6802
:10984000D9697B681A8B7B683C335248524C009430
:10985000FFF7D0FE031CFB61FB69002B01D0FB6905
:1098600083E07B681B8C002B11D07B68596A7B6876
:109870001A8C7B683C334948494C0094FFF7BAFE88
:10988000031CFB61FB69002B01D0FB696DE07B6869
:109890001B8D002B11D07B68D96A7B681A8D7B6881
:1098A0003C334048404C0094FFF7A4FE031CFB618E
:1098B000FB69002B01D0FB6957E07B681B6B002B19
:1098C0001AD07B681B6B3A1C1032101C191CFFF756
:1098D00043FD7B683C3335493A1C103234480090D4
:1098E000081C111C0822FFF785FE031CFB61FB69A5
:1098F000002B01D0FB6938E07B685B6B002B14D038
:109900007B685B6B19687B685B6B1B791A1C7B68D7
:109910003C332848284C0094FFF76CFE031CFB6185
:10992000FB69002B01D0FB691FE07B689B6B002B60
:109930001AD07B689B6B3A1C0832101C191CFFF76D
:10994000C1FD7B683C331D493A1C08321C4800901D
:10995000081C111C0722FFF74DFE031CFB61FB696D
:10996000002B01D0FB6900E00023181CBD4609B0A4
:1099700090BDC0460A180000EC2A0020292A0000E9
:10998000F02A0020242A0000F82A0020252A0000BE
:10999000002B0020272A0000082B0020262A000088
:1099A000102B0020282A0000182B0020232A00005A
:1099B000202B00202A2A0000282B0020502A0000FB
:1099C000302B002072DF7047181CC04679DF7047CB
:1099D000181CC0467DDF7047181CC04665DF704705
:1099E000181CC04680B582B000AF021C3960BB1D98
:1099F0001A80BB1D1B88DAB23B681A703B680133C2
:109A0000BA1D1288120A92B2D2B21A700223181C1E
:109A1000BD4602B080BDC04680B588B000AFF860DA
:109A2000B9607A603B1C1C337A6812781A703B1C50
:109A30001C331B7802331F2B04DCFB685B7802337A
:109A40001F2B01DD0C2383E03B1C1C331B789AB2D7
:109A50003B1C1E331D218A1A1A803B1C16333A1CEC
:109A60001E3212881A803B1C1C331B780233BA68E2
:109A7000D2183B1C1633101C191CFFF7ABFF031C3C
:109A8000BB61BB69002B01D0BB6961E0FB681B783F
:109A9000022B12D13B1C16331B883A1C1E32128833
:109AA0009A420AD33B1C1D3309221A703B1C1E33F9
:109AB0003A1C163212881A801AE03B1C1D33082209
:109AC0001A70FB685B78002B0CD0FB685B783A1C43
:109AD0001E3212889A4205D3FB685A783B1C1E330B
:109AE0001A8005E03B1C1E333A1C163212881A807D
:109AF0003B1C1C331B78BA68D3183A1C1E321288E0
:109B0000D2B20132D2B21A703B1C1C333A1C1C3246
:109B1000127801321A703B1C1C331B78BA68D318B8
:109B20003A1C1D3212781A703B1C1C333A1C1C3232
:109B3000127801321A707B681A783B1C1E331B881E
:109B4000DBB2D318DBB20233DAB27B681A700023BF
:109B5000181CBD4608B080BD90B585B000AF7860D8
:109B600039603B681B7804331F2B01DD0C2334E084
:109B70003B1C0A33181CFFF729FF031CFB60FB6822
:109B8000002B01D0FB6828E03B681B781A1C796821
:109B90008A18032111700133DAB23B681A703B68EE
:109BA0001B781A1C79688A18192111700133DAB2EE
:109BB0003B681A703B681C783B1C0A331A883B6868
:109BC0001B787968CB18101C191CFFF70BFF031CBE
:109BD000E318DAB23B681A700023181CBD4605B0C2
:109BE00090BDC04680B584B000AFF8607A603B603D
:109BF0003B1C0B330A1C1A70FB685B68002B01D1FD
:109C000007233CE03B681B789A1CFB681B88D31831
:109C10001F2B01DD0C2332E03B681B781A1C79688E
:109C20008A18F9680988C9B20131C9B211700133C3
:109C3000DAB23B681A703B681B781A1C79688A187C
:109C4000391C0B31097811700133DAB23B681A7094
:109C50003B681B787A68D118FB685A68FB681B88D8
:109C6000081C111C1A1C0BF05DFB3B681A78FB6882
:109C70001B88DBB2D318DAB23B681A700023181CB9
:109C8000BD4604B080BDC04680B584B000AFB960A9
:109C90007A603B1C0F33021C1A707B681B780333FD
:109CA0001F2B01DD0C2323E07B681B781A1CB9688D
:109CB0008A18022111700133DAB27B681A707B684E
:109CC0001B781A1CB9688A180A2111700133DAB29C
:109CD0007B681A707B681B781A1CB9688A18391C53
:109CE0000F31097811700133DAB27B681A700023E2
:109CF000181CBD4604B080BD80B58AB000AFF860C6
:109D00007B603B1C0B3319703B1C0A331A703B1CE5
:109D1000233300221A703B1C22333A6B12781A70DC
:109D200000237B627FE0FB685A687B6A9B00D31844
:109D30003A1C1432111C1A1C0423081C111C1A1C76
:109D40000BF0F0FA3A1C14323B1C1A33101C191C8D
:109D50000022FFF743FE031CFB61FB69002B01D0CF
:109D6000FB697CE03B1C1A331B783A1C0A321278E0
:109D70009A4255D13B1C23331B78002B01D0002382
:109D800000E002233A1C1B3213703B6B1B781A1C39
:109D90003B1C1A331B78D2183B1C1B331B78D3187F
:109DA0001F2B01DD0C235AE03B1C23331B780122BF
:109DB0005340DBB2002B16D03B6B1B780133DAB279
:109DC0003B6B1A703B6B1B781A1C79688A18391C1C
:109DD0000B31097811700133DAB23B6B1A703B1CFE
:109DE000233301221A703B6B1B787A68D318391C15
:109DF00014313A1C1A32081C111C1A1CFFF7EEFD14
:109E0000031CFB61FB69002B01D0FB6927E03B6B66
:109E10001A783B1C1A331B78D318DAB23B6B1A70D2
:109E20007B6A01337B62FB681B881A1C7B6A9A423F
:109E300000DD78E73B1C23331B78002B0ED03B1C46
:109E400022331B787A68D3183A6B11783A1C223285
:109E50001278D243D2B28A18D2B21A700023181CD8
:109E6000BD460AB080BDC04680B588B002AFF8607C
:109E70007B603B1C0B3319703B1C0A331A70F9686A
:109E80003B1C0B331A787B68386A0090081C111C45
:109E90000222FFF731FF031C7B617B69002B01D09D
:109EA0007B6913E0F9683B1C0A331A787B68386ACF
:109EB0000090081C111C1022FFF71EFF031C7B6181
:109EC0007B69002B01D07B6900E00023181CBD4694
:109ED00006B080BD80B582B000AF78607B681B881B
:109EE000052B0AD97B681A88C8231B019A4206D918
:109EF0007B681A88164B9A4201D0072323E07B68BF
:109F00005B88052B0AD97B685A88C8231B019A42B3
:109F100006D97B685A880E4B9A4201D0072312E07B
:109F20007B681A880A4B9A420CD07B685A88084B87
:109F30009A4207D07B681A887B685B889A4201D96D
:109F4000072300E00023181CBD4602B080BDC046B8
:109F5000FFFF000090B587B000AFF860B9607A608D
:109F60007B681B7806331F2B01D90C2343E0FB6869
:109F7000181CFFF7AFFF031C7B617B69002B01D02E
:109F80007B6938E07B681B781A1CB9688A18052140
:109F900011700133DAB27B681A707B681B781A1C67
:109FA000B9688A18122111700133DAB27B681A700D
:109FB0007B681C78FB681A887B681B78B968CB18AB
:109FC000101C191CFFF70EFD031CE318DAB27B68A6
:109FD0001A707B681C78FB685A887B681B78B968A4
:109FE000CB18101C191CFFF7FDFC031CE318DAB298
:109FF0007B681A700023181CBD4607B090BDC04690
:10A0000090B587B000AFF860B9607A60FB689B8854
:10A01000DAB23B1C173302321A707B681B789A1C29
:10A020003B1C17331B78D3181F2B01DD0C234BE08F
:10A030007B681B781A1CB9688A18391C1731097893
:10A040000131C9B211700133DAB27B681A707B68D2
:10A050001B781A1CB9688A18FF2111700133DAB213
:10A060007B681A707B681C78FB681A887B681B7891
:10A07000B968CB18101C191CFFF7B4FC031CE318BB
:10A08000DAB27B681A70FB689B88002B1BD0FB68D8
:10A090009B68002B01D1072316E07B681B78BA6808
:10A0A000D118FB689A68FB689B88081C111C1A1C55
:10A0B0000BF038F97B681A78FB689B88DBB2D31801
:10A0C000DAB27B681A700023181CBD4607B090BD39
:10A0D00090B589B000AFF860B9607A60FB681B6B1F
:10A0E000002B01D1072371E03B1C1F3300221A70A3
:10A0F00063E0FB68196B3B1C1F331A78131C5B0071
:10A100009B189B00CB18BB61BB699B88DAB23B1CD8
:10A11000173302321A707B681B781A1CB9688A18C8
:10A12000391C173109780131C9B211700133DAB223
:10A130007B681A707B681B781A1CB9688A1816210C
:10A1400011700133DAB27B681A707B681C78BB69C6
:10A150001A887B681B78B968CB18101C191CFFF78C
:10A1600041FC031CE318DAB27B681A70BB699B8858
:10A17000002B1BD0BB699B68002B01D1072325E076
:10A180007B681B78BA68D118BB699A68BB699B88E1
:10A19000081C111C1A1C0BF0C5F87B681A78BB69E7
:10A1A0009B88DBB2D318DAB27B681A703B1C1F3372
:10A1B0003A1C1F32127801321A70FA683423D35CC9
:10A1C0003A1C1F3212789A4293D30023181CBD46C2
:10A1D00009B090BD80B588B002AFF860B9607A6010
:10A1E00000237B617B6800221A70FB681B78002BC0
:10A1F0000ED0F968BA687B68081C111C1A1CFFF79E
:10A200000BFC031C7B617B69002B01D07B69B8E0F0
:10A21000FB689B78002B0CD0BA687B68101C191C5B
:10A22000FFF79AFC031C7B617B69002B01D07B69E3
:10A23000A7E0FB689B88002B0ED0FB68191DBA684D
:10A240007B68081C0121FFF7CDFC031C7B617B6947
:10A25000002B01D07B6994E0FB68DB68002B11D0F8
:10A26000FB68DB681B7859B2BA687B68081C111C54
:10A270001A1CFFF709FD031C7B617B69002B01D0D1
:10A280007B697EE0FB681B8A002B11D0FB681A1CDF
:10A290001032BB6879680091101C02210622FFF77A
:10A2A000E3FD031C7B617B69002B01D07B6968E0C7
:10A2B000FB681B8B002B11D0FB681A1C1832BB6883
:10A2C00079680091101C03210722FFF7CDFD031CC4
:10A2D0007B617B69002B01D07B6952E0FB681B8CA2
:10A2E000002B11D0FB681A1C2032BB6879680091E2
:10A2F000101C14211522FFF7B7FD031C7B617B693D
:10A30000002B01D07B693CE0FB689B6A002B0FD0DF
:10A31000FB68996ABA687B68081C111C1A1CFFF755
:10A3200019FE031C7B617B69002B01D07B6928E04F
:10A33000FB68DB6A002B0FD0FB68D96ABA687B68C0
:10A34000081C111C1A1CFFF75BFE031C7B617B6958
:10A35000002B01D07B6914E0FA683423D35C002B16
:10A360000ED0F968BA687B68081C111C1A1CFFF72C
:10A37000AFFE031C7B617B69002B01D07B6900E091
:10A380007B69181CBD4606B080BDC04680B582B052
:10A3900000AF78607B689B88002B0AD07B689B6845
:10A3A000002B06D07B689B681B781A1C0423134083
:10A3B00001D1072300E00023181CBD4602B080BD78
:10A3C00080B582B000AF78607B689B88002B01D09D
:10A3D000072300E00023181CBD4602B080BDC04624
:10A3E00080B596B000AF786039603B1C4B330022DB
:10A3F0001A703B1C4A3300221A707B68002B1FD056
:10A400007B68181CFFF7C2FF031CFB64FB6C002B6E
:10A4100001D0FB6C46E079683A1C28323B1C4B3378
:10A42000081C111C1A1CFFF7D5FE031CFB64FB6CF7
:10A43000002B01D0FB6C35E03B1C28337B6501E031
:10A4400000237B653B68002B1FD03B68181CFFF77F
:10A45000B7FF031CFB64FB6C002B01D0FB6C21E0FD
:10A4600039683A1C08323B1C4A33081C111C1A1C60
:10A47000FFF7B0FE031CFB64FB6C002B01D0FB6CF0
:10A4800010E03B1C08333B6501E000233B653B1CAF
:10A490004B3319783B1C4A331B78786D3A6DFFF7C4
:10A4A00091FA031C181CBD4616B080BD80B584B05F
:10A4B00000AF786039603B1C0F3300221A703B1CE0
:10A4C0000F331B787A68D3183A6812781A703B1CDD
:10A4D0000F333A1C0F32127801321A703B1C0F33C3
:10A4E0001B787A68D3183A6852781A703B1C0F337D
:10A4F0003A1C0F32127801321A703B1C0E333A1C90
:10A500000F321278023A51424A411A703B1C0E3304
:10A510001B7801225340DBB2002B05D0064B0020F4
:10A5200020211A1CFBF73AFE3B1C0F331B78181C2A
:10A53000BD4604B080BDC0460C59020080B582B053
:10A5400000AF786039603B68181C0BF023F8031CDF
:10A550009AB27B681A807B683A685A60BD4602B03E
:10A5600080BDC04626DF7047181CC04651DF7047CB
:10A57000181CC04610DF7047181CC04680B582B05A
:10A5800000AF78607A68032313405A425341DBB22C
:10A59000181CBD4602B080BD61DF7047181CC04664
:10A5A00080B584B000AFF8607A603B1C0A330A1CA7
:10A5B0001A803B1C0A331A887B68101C191CFBF795
:10A5C0002BFEBD4604B080BD80B584B000AF3E4BCD
:10A5D0001B78DBB201225340DBB2002B00D06EE0CF
:10A5E0003A4B1A683B1C0F3351424A411A70384BA0
:10A5F0001A683B1C0E3351424A411A7000E0C046B3
:10A600003B1C0F331B7801225340DBB2002B1DD0C3
:10A610003B1D181CFFF7AAFF031CBB60BB68052B82
:10A6200004D13B1C0F3301221A700FE0BB68002BD2
:10A6300007D0BA68274B101C69211A1CFBF7AEFD26
:10A6400004E0224B1B687A68101C98473B1C0E33B1
:10A650001B7801225340DBB2002B25D01E4B1A88F9
:10A66000BB1C1A801D4B1A68BB1C101C191CFFF761
:10A6700093FF031CBB60BB68052B04D13B1C0E334E
:10A6800001221A7010E0BB68002B07D0BA68114B8A
:10A69000101C80211A1CFBF781FD05E00C4B1A6889
:10A6A0000E4B1B68181C90473B1C0F331B78002B6C
:10A6B000A5D03B1C0E331B78002BA0D000E0C04679
:10A6C000BD4604B080BDC046422B0020482B002070
:10A6D000442B002074590200402B00203C2B00200A
:10A6E00080B586B000AFF860B9603B60BB1D1A80D2
:10A6F000BB68002B01D1072329E0BB68181CFFF7BA
:10A700003DFF031C01225340DBB2002B01D0072385
:10A710001DE0114BBA681A60104BBA1D12881A80DE
:10A720000F4B3A681A60FA680E4B101C191CFFF7A1
:10A7300021FF031C7B617B69002B01D07B6906E054
:10A74000094B01221A701620FFF70CFF031C181C7E
:10A75000BD4606B080BDC0463C2B0020402B0020EB
:10A76000382B0020A1A50100422B002080B582B02B
:10A7700000AF78607B68002B01D10E2303E0044B0F
:10A780007A681A600023181CBD4602B080BDC0461E
:10A79000442B002080B582B000AF78607B68002B2E
:10A7A00001D10E2303E0044B7A681A600023181CC1
:10A7B000BD4602B080BDC046482B002080B582B0A7
:10A7C00000AF0E4B1B68002B13D00C4B1B68984737
:10A7D000031C7B607B683B603B68002B0BD03968B7
:10A7E00099235A00064B081C111C1A1CFBF7D6FCB7
:10A7F00001E0FFF7E9FEBD4602B080BD382B002026
:10A800007459020075DF7047181CC04676DF704728
:10A81000181CC0467ADF7047181CC0467BDF7047A3
:10A82000181CC04680B582B000AF78607B681B788A
:10A830001A1C7B6801331B781B029BB213439BB22B
:10A840009BB2181CBD4602B080BDC04690B585B015
:10A8500000AF78603C1C0E347B68181CFFF7E2FFE9
:10A86000031C23803B1C0E331A88012313405A1EFD
:10A870009341DBB2181CBD4605B090BD80B582B0D7
:10A8800000AF0E4B181CFFF7C9FF031C7B607B68F1
:10A89000002B0FD00A4B9A8B084B1A80084BDA8B8F
:10A8A000064B5A80064B1A8C044B9A80044B5A8CE8
:10A8B000024BDA80BD4602B080BDC046702B00203E
:10A8C0004C2B002080B582B000AF78607B685A883E
:10A8D000084B1B889A4207D37B685A88054B5B88D4
:10A8E0009A4201D8012300E00023181CBD4602B0A3
:10A8F00080BDC046702B002080B586B000AF786068
:10A90000344B1A88344B9A4261D0344B1B78013354
:10A91000DAB2324B1A70324B1A7B304B1B789A42A8
:10A9200029D32E4B1B78012B0FD92D4B9A8B2D4BF6
:10A930001A802B4BDA8B2B4B5A80294B1A8C294BC4
:10A940009A80274B5A8C274BDA80224B1A88254B4A
:10A95000101C191CFFF756FF031C7B617B69002B41
:10A9600035D01F4B9B69002B31D01D4B9B697A69F9
:10A97000101C98472BE0194B00221A70184B1B7CB7
:10A98000002B13D0134B1B88181C3B21FFF73EFFF5
:10A99000031C3B613B69002B08D0114B9B69002BCA
:10A9A00004D00F4B9B693A69101C98470C4B5B69AC
:10A9B000002B09D03B1C0C3300221A70084B5B693A
:10A9C0003A1C0C32101C9847074B01221A70BD46E6
:10A9D00006B080BD7A2B0020FFFF0000782B0020FE
:10A9E0004C2B0020702B00208D2B002080B584B0D4
:10A9F00000AF224B1B78012B27D1214B1A88214B0A
:10AA00009A4237D0204B01221A703B1C50221A80E8
:10AA10003B1C78225A803B1C00229A803B1CC82297
:10AA2000DA80174B1A883B1C101C191CFFF7EAFE32
:10AA3000031CFB60FB68002B1CD0FA68134B101C36
:10AA40009A211A1CFBF7AAFB14E0114B1A68FA238F
:10AA50009B00101C191C002202F09CFD031CBB6013
:10AA6000BB68002B06D0BA68084B101C9D211A1C2D
:10AA7000FBF794FBBD4604B080BDC0468D2B002083
:10AA80007A2B0020FFFF00008C2B0020D8590200F9
:10AA9000882B002090B585B000AF7860284B7A688D
:10AAA00013CA13C313CA13C313CA13C37B681B6827
:10AAB000002B15D07B681B68224A111C1A1C082326
:10AAC000081C111C1A1C0AF02DFC1E4B181CFFF749
:10AAD000A1FE031CFB60FB68002B0CD0FB682AE086
:10AAE000184B181CFFF79AFE031CFB60FB68002B39
:10AAF00001D0FB681FE0144B012252421A80134B15
:10AB000000221A70124B00221A70124A124B101CAB
:10AB100000211A1C02F0C6FC031CFB60FB68002B22
:10AB200001D0FB6807E00D4A0B4B101C00211A1CDA
:10AB300002F0B8FC031C181CBD4605B090BDC04611
:10AB40004C2B0020702B00207A2B0020782B00202B
:10AB50008C2B0020882B0020F9A80100842B0020DA
:10AB600080B500AF044B1B68181C02F059FD031C94
:10AB7000181CBD4680BDC046842B002080B584B023
:10AB800000AF1F4B181CFFF79DFE031C0122534012
:10AB9000DBB2002B21D01B4B1B78002B03D11A4BAF
:10ABA0005B68FB6002E0184B9B68FB60174B1A6800
:10ABB000FB68101C191C002202F0ECFC031CBB609B
:10ABC000BB68002B18D0104B9B69002B14D00E4B88
:10ABD0009B69BA68101C98470EE00B4B5B69002B11
:10ABE00007D03B1D01221A70074B5B693A1D101CF0
:10ABF0009847074B01221A70BD4604B080BDC0467D
:10AC00007C2B0020782B00204C2B0020842B002054
:10AC10008D2B002080B582B000AF78607B689A8869
:10AC20000E4B1A800E497A680E23D2180823081C8E
:10AC3000111C1A1C0AF076FB0A4B00221A700A4BF0
:10AC400000221A70FFF71AFE084BDB89002B01D196
:10AC5000FFF794FFBD4602B080BDC0467A2B0020AE
:10AC60007C2B0020782B00208C2B00204C2B0020EC
:10AC700080B584B000AF7860134B012252421A8035
:10AC8000124B00221A70124B00221A70114B1B68D3
:10AC9000181C02F0C5FC031CFB60FB68002B08D0ED
:10ACA0000D4B9B69002B04D00B4B9B69FA68101C61
:10ACB00098470A4B1B68181C02F0B2FC084B002294
:10ACC0001A70BD4604B080BD7A2B00208C2B00206A
:10ACD000782B0020842B00204C2B0020882B002078
:10ACE0008D2B002080B584B000AF78607B68063380
:10ACF000FB60FB681A88144BDB899A4221D1FB6800
:10AD00001B8B022B1DD1FB681A33181CFFF79EFD0D
:10AD1000031C002B02D0FFF731FF12E00B4B1B6826
:10AD2000181C02F07DFC031CBB60BB68002B08D024
:10AD3000054B9B69002B04D0034B9B69BA68101C20
:10AD40009847BD4604B080BD4C2B0020842B0020CA
:10AD500080B582B000AF78600A4B1B78002B0CD115
:10AD600009497A680623D2180823081C111C1A1CEA
:10AD70000AF0D8FAFFF702FF00E0C046BD4602B075
:10AD800080BDC0468C2B00207C2B002080B582B07B
:10AD900000AF78607B681B88112B0DD002DC102B74
:10ADA00005D018E0122B11D0502B0AD013E07B688D
:10ADB000181CFFF72FFF0FE07B68181CFFF758FFE8
:10ADC0000AE07B68181CFFF78DFF05E07B68181C04
:10ADD000FFF7BEFF00E0C046BD4602B080BDC046E2
:10ADE00021DF7047181CC04620DF7047181CC04682
:10ADF00080B582B000AF78607A68032313405A426E
:10AE00005341DBB2181CBD4602B080BD80B582B094
:10AE100000AF78601D497A68131C9B009B189B004B
:10AE2000CB1800221A7119497A68131C9B009B18D1
:10AE30009B00CB180022DA8014497A68131C9B000F
:10AE40009B189B00CB180C3301221A600F497A68BB
:10AE5000131C9B009B189B00CB18103300221A6018
:10AE60000A497A68131C9B009B189B00CB1814336B
:10AE700000221A6005497A68131C9B009B189B00EE
:10AE8000CB1800221A81BD4602B080BD902B002055
:10AE900080B582B000AF0F4B00221A800E4B00220B
:10AEA0001A700E4B00221A700C4B00225A700B4B7A
:10AEB00000229A7000237B6006E07B68181CFFF775
:10AEC000A5FF7B6801337B607B68092BF5D9BD4604
:10AED00002B080BD642C0020672C0020902B002045
:10AEE00080B586B000AFB9607A601A1C3B1C0F3386
:10AEF000011C19703B1C0C331A803B1C13330022BD
:10AF00001A703D4B5B780A2B6ED03B4B19783A4B4D
:10AF10005A783B1C13338A181A703B1C13331B7866
:10AF2000092B06D93B1C13333A1C133212780A3A08
:10AF30001A703B1C13331A782F49131C9B009B1863
:10AF40009B003A1C0F32CB1812781A713B1C13333A
:10AF50001A782949131C9B009B189B00CB181433AB
:10AF60007A681A603B1C13331A7823480821131C93
:10AF70009B009B189B00C3185B18BA68043303CA74
:10AF800003C33B1C13331A781B49131C9B009B18EB
:10AF90009B003A1C0C32CB181288DA803B1C13330E
:10AFA0001A781549131C9B009B189B003A1C2032F1
:10AFB000CB1812881A8100237B610F4B9B780122EA
:10AFC0005340DBB2002B08D000F0EAFA031C7B618F
:10AFD0007B69112B01D100237B61074B5B78013327
:10AFE000DAB2054B5A7001E004237B617B69181CBF
:10AFF000BD4606B080BDC046902B002080B582B013
:10B0000000AF00237B600A4B5B78002B0BD000F075
:10B01000C7FA031C7B607B68002B04D07B68112B74
:10B0200001D100237B607B68181CBD4602B080BD47
:10B03000902B0020B0B586B002AF7860254B1B780E
:10B040001A1C391C0F312348131C9B009B189B00B2
:10B05000C3181B790B701F4B1B781A1C1D49131C3E
:10B060009B009B189B00CB180C331A681A4B1201DB
:10B07000D358BB60174B1B781A1C131C9B009B18E2
:10B080009B001A1C0832134BD318191D114B1B7847
:10B090001A1C1048131C9B009B189B00C3181433E8
:10B0A0001D680C4B1B781A1C0A48131C9B009B182C
:10B0B0009B00C318DB88181C3B1C0F331A787B6875
:10B0C0000090BC68081C111C1A1C2B1CA047BD4614
:10B0D00004B0B0BD902B0020682C002080B586B055
:10B0E00000AF786000237B616E4B9B78002B00D112
:10B0F000D5E06C4B00229A706B4B1B78082B16D155
:10B100007B68022B03D1684B00221A7002E0674B68
:10B1100000221A70FFF772FF031C7B617B69002B12
:10B1200000D1B9E07B69181CFFF784FFB4E07B68AD
:10B13000022B03D0032B00D1A8E0ABE0594B1B78C6
:10B140001A1C131C9B009B189B00564A9B18043327
:10B150003B61574B1B8801339AB2554B1A803B69B0
:10B160001B78022B08D1524B1B889A023B695B88E3
:10B170009A4201DB012200E000223B1C0F331A70CF
:10B18000197801220A401A703B691B78052B05D1FA
:10B19000454B1B78072B01D1012200E000223B1C0C
:10B1A0000E331A70197801220A401A703B691B7815
:10B1B000042B05D13C4B1B78072B01D1012200E069
:10B1C00000223B1C0D331A70197801220A401A70B4
:10B1D0003B691B78042B0CD1354B1B889A023B69C9
:10B1E0005B889A4205DB304B1B78002B01D1012292
:10B1F00000E000223B1C0C331A70197801220A402F
:10B200001A703B1C0E331B78002B0ED13B1C0D33E8
:10B210001B78002B09D13B1C0C331B78002B04D16D
:10B220003B1C0F331B78002B24D01F4B00221A70BD
:10B230007B69181CFFF7FEFE1A4B1B78181CFFF7E2
:10B24000E5FD1B4B00221A80164B5B78013BDAB2FE
:10B25000144B5A70134B1B780133DAB2114B1A702E
:10B26000104B1B78092B05D90E4B1B780A3BDAB221
:10B270000C4B1A70FFF7C2FE031C7B617B69002B2D
:10B280000CD07B69181CFFF7D5FE07E00D20FFF7F7
:10B29000D1FE04E0C04602E0C04600E0C046BD4624
:10B2A00006B080BD902B0020672C0020662C00206B
:10B2B000642C002090B587B000AFF860B9607A6068
:10B2C0003B6003237B61B34B1B78002B0CD17B6865
:10B2D000002B06D13B68002B03D1AE4B02221A7023
:10B2E00002E0AC4B01221A70AA4B1B78062B00D946
:10B2F0003DE19A00A84BD3181B689F46A74B5B699A
:10B3000001330CD0A54B5A6980235B051B699BB2A6
:10B31000101C191C08F076FC031C023B03E0802380
:10B320005B055B69023B80225205126992B253436E
:10B33000191C80235B051B699BB2BA6853431A1C16
:10B3400080235B051B699BB29B089BB2081C111CE8
:10B350001A1CFFF745FD031C7B617B69002B00D0A5
:10B3600007E18C4B02221A7003E1BB68181CFFF73F
:10B370003BFD031C7B617B69002B00D0FBE07B68FD
:10B38000002B12D13B68002B0BD1FB681B78042BE0
:10B3900003D1804B07221A70EDE07E4B05221A7014
:10B3A000E9E07C4B04221A70E5E07A4B03221A7024
:10B3B000E1E080235B051B699BB2BA6853431C1C08
:10B3C000764B5B6901330CD0744B5A6980235B0563
:10B3D0001B699BB2101C191C08F014FC031C023BD7
:10B3E00003E080235B055B69023B80225205126902
:10B3F00092B253431A1C7B68201C111C1A1CFFF7C5
:10B40000EFFC031C7B617B69002B00D0B5E03B683F
:10B41000002B0BD1FB681B78042B03D15D4B06225C
:10B420001A70AAE05B4B05221A70A6E0594B042261
:10B430001A70A2E080235B051B699BB2BA685A436D
:10B440007B689B00D218FB685B88D3181C1C534B8D
:10B450005B6901330CD0514B5A6980235B051B6932
:10B460009BB2101C191C08F0CDFB031C023B03E02F
:10B4700080235B055B69023B80225205126992B210
:10B480005A437B689B00D218FB685B88D3181A1C50
:10B490003B68201C111C1A1CFFF7A2FC031C7B61DB
:10B4A0007B69002B00D06AE0FB681B78042B03D17A
:10B4B000384B06221A7062E0364B05221A705EE0A5
:10B4C00080235B051B699BB2BA685A437B689B006B
:10B4D000D318191CFB681A69FB685B889B089BB230
:10B4E000081C111C1A1CFFF77BFC031C7B617B6989
:10B4F000002B46D17B68002B06D13B68002B03D183
:10B50000244B07221A703CE0224B06221A7038E0C6
:10B51000224B5B6901330CD0204B5A6980235B05B9
:10B520001B699BB2101C191C08F06CFB031C023B2E
:10B5300003E080235B055B69023B802252051269B0
:10B5400092B25A4380235B051B699BB2101C191CE5
:10B5500008F058FB031C181CFFF746FC031C7B611A
:10B560007B69002B0FD10B4B07221A700BE0C046F2
:10B570000AE0C04608E0C04606E0C04604E0C04617
:10B5800002E0C04600E0C0467B69181CBD4607B01B
:10B5900090BDC046672C0020F45902000010001036
:10B5A00080B58EB000AF0F237B637F4B1B781A1CD6
:10B5B000131C9B009B189B007B4A9B1804333B6326
:10B5C0003B6BDB68FB623B6B1B78042B3AD0052B93
:10B5D00000D1A9E0022B00D0D9E03B6B1B69BB6214
:10B5E000724B1B889B027B623B6B5B881A1C7B6ADD
:10B5F000D31A3B62BA6A7B6AD318BB623B6B9B88E7
:10B600001A1C7B6AD318FA6AD318FB623A6A684B31
:10B610009A420BD8F96A3B6A9B08BA6A081C111C4B
:10B620001A1CFFF7DDFB031C7B63B1E0F96ABA6A01
:10B6300080235B00081C111C1A1CFFF7D1FB031CA4
:10B640007B63A5E03B6B99683B1C1E33594808227D
:10B65000090141188A1812881A803B6B99683B1CB3
:10B660001C3354480822090141188A1852881A804C
:10B670003B6B9B684F4A1B01D31804331B68BB61AB
:10B68000BA69FB6A9A420AD13B1C1E331B883A1CDA
:10B690001C3212885A433B6B5B889A4203D03B6B47
:10B6A0009B68022B14D180235B051B699BB2F86A4F
:10B6B000191C08F0A7FA031C1A1C3C4B1B88D31852
:10B6C0007B617B69181CFFF78FFB031C7B635FE0CA
:10B6D00080235B051B699BB2F86A191C08F092FA7B
:10B6E000031C7B6180235B051B699BB27A69534312
:10B6F000FA6AD31A9B083B617B695A1C80235B055D
:10B700001B699BB25A433B6B5B88191CFB6ACB18C5
:10B71000D31A9B08FB60386B79693A69FB68FFF7BD
:10B72000C9FD031C7B6333E080235B051B699BB26F
:10B73000F86A191C08F066FA031CBB603B6B9B8817
:10B740001A1CFB6AD21880235B051B699BB2B9687F
:10B750004B43D31A9B087B60BB685A1C80235B0554
:10B760001B699BB25A433B6B9B88191CFB6AC91827
:10B770003B6B5B88CB18D31A9B083B60386BB9686E
:10B780007A683B68FFF796FD031C7B6300E0C046C8
:10B790007B6B002B02D1044B01229A707B6B181C2F
:10B7A000BD460EB080BDC046902B0020642C00200A
:10B7B000FF030000682C002080B582B000AFFFF7C7
:10B7C00067FB404B00221A803F4B5B6901330CD072
:10B7D0003D4B5A6980235B051B699BB2101C191CE9
:10B7E00008F010FA031C033B03E080235B055B6950
:10B7F000033B80225205126992B25A43334B1A60BE
:10B80000334B00221A8000237B601FE0314B7A68A3
:10B8100012010021D1502F497A68082312018A1899
:10B82000D31800221A802B497A68082312018A183B
:10B83000D31800229A8027497A68082312018A18AF
:10B84000D31800225A807B6801337B607B68002B11
:10B85000DCD0214B08221A701B4B5B6901330CD0E2
:10B86000194B5A6980235B051B699BB2101C191C7C
:10B8700008F0C8F9031C023B03E080235B055B6909
:10B88000023B80225205126992B25A4380235B0523
:10B890001B699BB2101C191C08F0B4F9031C181C7E
:10B8A000FFF7A2FA031C3B603B68002B05D10B4B52
:10B8B00001229A700A4B01221A703B68181CBD467F
:10B8C00002B080BD5C2C002000100010602C002015
:10B8D000642C0020682C0020672C0020902B002076
:10B8E000662C002090B585B000AF786039607B4B46
:10B8F0001B7801225340DBB2002B01D00823E9E082
:10B900007B68002B01D10E23E4E03B68002B01D1C2
:10B910000E23DFE07B681B68002B01D10E23D9E0EA
:10B920007B689A8880235B051B699BB29A4203D887
:10B930007B689B880F2B01D80723CBE07B68DB88D3
:10B94000002B3DD07B68DB887A68928853431A1CB1
:10B95000634B1B68D418634B5B6901330CD0614B9C
:10B960005A6980235B051B699BB2101C191C08F0E7
:10B9700049F9031C023B03E080235B055B69023B42
:10B9800080225205126992B253439C4218D87B68B8
:10B99000DB887A6892885A4380235B051B699BB2D7
:10B9A0009A420FDD80235B051B699AB27B689B88F6
:10B9B000101C191C08F06AF90B1C9BB2002B01D05B
:10B9C000072387E07B689A88032313409BB2002BF0
:10B9D00001D007237EE0444B1B88012B01D10423B7
:10B9E00078E0414B1B881A1C3B681A603C4B1A6874
:10B9F0003B685A603C4B1B88181C3B685A683B49A3
:10BA00000301CB1804331A60374B1B881A1C7B6860
:10BA10001968364B1201D150334B1B88191C7B68B7
:10BA20009A883248082309014118CB181A802E4BF6
:10BA30001B88191C7B68DA882C48082309014118E7
:10BA4000CB185A803B1C0E3300221A807B689B88DF
:10BA50007A68D2885343BB603B1C0E333A1C0E32CB
:10BA6000128801321A8080235B051B699BB21A1C65
:10BA7000BB689A4207D280235B051B699BB2BA68F8
:10BA8000D31ABB6001E00023BB6080235B051B6908
:10BA90009BB21A1C124B1B68D218114B1A608023E0
:10BAA0005B051B699BB21A1CBB689A42D4D90E4B2A
:10BAB0001B881A1C0D49082312018A18D3183A1C36
:10BAC0000E3212889A80084B1B8801339AB2064BBB
:10BAD0001A800023181CBD4605B090BD662C0020BE
