:0400000080313E28E5
:100008007E14803120007F08F800110CF500F50CF3
:10001800750C0139F6002100110CF700F70C770C6C
:100028000139760503193928200091112400110897
:10003800F5007508F90003307302E83003197202FD
:10004800031833287208700786007308713D87000B
:10005800010891000130F2070030F33D39282000F3
:100068000C118E100E138131B62178082000FF0084
:100078007E1009008031402820308400203085001F
:10008800D030FE000730FF008131E921F001F10195
:10009800F201F301F401B301B401B501B6017E1018
:1000A8002000803157288131A2218031053020007D
:1000B800A0000030A1008131352180318031FC2041
:1000C80080318131F52180318131FC2180318131CC
:1000D8007121803181318C2180318131DC21803165
:1000E80021009D142000111F7628111311113408C6
:1000F800AB003308AA00AA35AB0D3608AC00AD0139
:100108002C08A0002D08A100E830A2000330A300AD
:1001180081315321803120302000AE002030AF00E3
:1001280020082E07B00021082F3DB1002A0830070B
:1001380086002B08313D870021001C08C03F1B08A2
:10014800C13F01302000B3070030B43D0130340214
:10015800F43003193302031CF3283608AA002A08CE
:10016800B500F201F3013508AA00AB012A08A00086
:100178002B08A100E830A2000330A30081315321ED
:10018800803120302000AC002030AD0020082C0742
:10019800F00021082D3DF100240011082000AA00DC
:1001A8002A08B2007208700786007308713D87003C
:1001B8000108240091000130F2070030F33D2000CF
:1001C8000C158E140E178131CA2180312000B3011D
:1001D800B4013608013E0139AA002A08B600FA30EF
:1001E80033063404031D76280C118E100E1376285E
:1001F80023000D148D1421000D148D1420000D10F2
:100208008D1021000C1120000C1121008E102000EF
:100218008E1021000E1320000E1322009D169D1132
:100228001D121C08F93904389C0023008D120E1287
:100238008E110D1221008D120E168E110D16200032
:100248008D120E128E110D1621000C1720000C13A2
:1002580021008C1720008C1321000E1520000E1190
:10026800080004302000A2002208A5003730A300AF
:100278000030A4000130A3020030A43B240823046A
:10028800031D3E290130A502031D3A290130A002B1
:100298000030A13B2108200403190800352920005B
:1002A800A401A501201C5C292208A4072308A53D58
:1002B8000130A235A30D890B5D290130A136A00CB0
:1002C800890B622921082004031D56292508A1014C
:1002D800A1072408A001A007080021001D149D10F3
:1002E8001D08833928389D009D139E1770309E0481
:1002F8001E1103309E041F08F0390C389F001F0898
:100308000F3910389F002000111321001113080025
:1003180001302500920091011308F0390B38930041
:10032800200097019601CF30980598113F30980525
:10033800181418119913210011110800210099139C
:1003480019088739503899001908FC39023899007A
:100358001A1EAC2901302500920091012000970156
:100368009601080021009913190887395038990017
:100378001908FC39023899001A1EC02901302500D5
:10038800920091012000970196010800210099131D
:10039800783099041908FC39023899001A1ED229B4
:1003A8002030250092009101200097019601080055
:1003B800240015121508F039043895009516151300
:1003C8009513941314131712080064008001013167
:1003D8000130FE020030FF3B7F087E040319003421
:1003E800EA298B170B17210091152000911108009D
:0E03F800220097171708FC39023897000800FA
:020000040001F9
:04000E0084CFFFF6A6
:00000001FF
