:020000042000DA
:1000000000980020A9040020B1040020C9040020A9
:1000100000000000000000000000000000000000E0
:10002000000000000000000000000000E1040020CB
:100030000000000000000000F9040020FB04002084
:100040000B210020053103000D3103009121002018
:100050009D2100208D310300EB210020FD21002097
:1000600077150020E71200203D220020AD3103006B
:1000700057810200FD0400204B1B02004B1B0200B5
:100080004B1B0200FD0400204B1B0200B11200209C
:10009000B5120020B9120020BD120020C1120020AC
:020000042000DA
:100160003200000085060020CF1000206D23002003
:10017000000000000000000063800200BD8002005B
:10018000190F0020FB800200198102003581020056
:100190005D810200DD2000206B060020E90E0020BA
:1001A000010F002000000000000000003F000000E0
:1001B000F48B002000040000740B080048010000CC
:1001C0006807080000040000C80C080020050000B3
:1001D000000000002000000048000000580000005F
:1001E0006800000004010000160100002801000062
:1001F0002E010000202A00008E2E000001000000C9
:100200008813000059110020E9600200FD930200EC
:100210004B16002019280300A5740200991C002029
:1002200003000000D5200200752300200400000018
:10023000D74902000F490200831D020063910200AA
:10024000B7910200BF910200078202007182020092
:10025000A4470020AD830200938402004185020080
:1002600015860200378602005F860200758602004E
:10027000F9870200258902005D8A0200D38C020002
:10028000098D02000F900200438D0200278E0200AC
:10029000F98E0200478F02005B0E0020D58F02000E
:1002A00049510200775102002F5202001000000055
:1002B00020030000803E000000000000000000005D
:020000042000DA
:1002C000504600030003983A6400F401B80B000C98
:1002D000B80B120030003000CD009A01120024004B
:1002E00030006400B0001800280012001200D0078F
:1002F0000000FFFF00000000000000000000000000
:100300001F000002444131343538302D30310000B7
:1003100000000000000000000000000000000000DD
:0403200000000000D9
:020000042000DA
:10034000FFFF010000C201000000000000000000EB
:100350000000F4010100011B0A071AFFD200021578
:10036000585CDE931B0142CC9A1325009BEDC65EC0
:1003700000000000C5000000000009FF00605257A7
:100380002D424C450000000000000000000000006D
:100390000000000000000000000044413134353806
:1003A00078000000000000000000000000000000D5
:1003B000000000000000000000000000000000003D
:1003C000000000000000000000000000000000002D
:1003D0000000000000000000010000CAEA80D00711
:0403E000064064323D
:020000042000DA
:100440000348854603F07EFD00480047C7200200B0
:100450000098002010B5114906200880FF2010499F
:10046000013008600F4988683E2290432E30886032
:100470000021052000070180028A0F231B021A4376
:1004800002820122D204032308461B038418216040
:10049000001D9842FADB62B610BD00000034005027
:1004A00080E100E0003300501548804715480047C0
:1004B00004207146084203D0EFF30980124908472F
:1004C000EFF308801049084704207146084203D022
:1004D000EFF309800D490847EFF308800B490847FF
:1004E00004207146084203D0EFF309800849084709
:1004F000EFF3088006490847FEE7FEE7FEE7000045
:100500005504002041040020250B00201505002083
:10051000F305002005221207518A802319435182D6
:10052000114903680B6043684B6083688B60C36844
:10053000CB6003690B6143694B6183698B61C0695F
:10054000C8610A48836A0B62C36A4B62036B8B62A1
:10055000C36BCB62436B0B63806B4863908A8006EE
:1005600001D500BE7047FEE70018080000ED00E06E
:1005700070B505460C46103C3F2003F0F5FC002802
:100580000FD0F6488068322806D9F5498D4201D04F
:100590003C2801D9002070BD2146F04803F0EAFC58
:1005A00006E0204603F0ECFC01213F2003F0EEFCC6
:1005B000012070BD10B5EB490B780A1D002005E045
:1005C000C400145D3F2C04D0401CC0B29842F7D345
:1005D00010BDC000E44A4018826010BD028908893D
:1005E000E249101A80B2884201D9012070470020E8
:1005F000704781692039897F082904D2DC4A890043
:10060000515881617047FEE7DB48DA490161DB49F7
:100610004161DB498161DB49C161DB490162DB4941
:100620004162DB498162DB49C162DB490163DB492D
:100630004163DB498163DB49C163D949CE485C3101
:1006400040300160D8494160D8498160D849C160D3
:100650000120D849C0060860D749CA691202120AA7
:10066000CA61D44980390860704710B5D349002069
:10067000086000F0DDFB01208007016B490049089C
:10068000016310BD1CB5CE4901200870CD4908207A
:10069000088003F081FC03F0C1FF00F0F6FACA48BD
:1006A00001780170C94801780170012003F07AFCDB
:1006B000FF2701370D203946800103F079FC01F056
:1006C000FDFB00F06DFC00F003FB042000F097F947
:1006D000072000F094F90A2000F091F9062000F0BC
:1006E0008EF90B2000F08BF9012000F088F9022030
:1006F00000F085F9002000F082F9B548006803F0A9
:100700005DFCFFF757FFB80501683943016000F051
:1007100081F9B0480068AA2805D1142000F046FBF2
:10072000142000F051FB02F079F8FFF79EFFA220A1
:1007300005210907C882A8484188E0229143A031D9
:100740004180012003F040FC03F0E5F902F076FE61
:1007500003F084F803F011F9A04C0026606FF64313
:10076000002801D0304600E0012060679C4A40022A
:1007700011680025536811601843506003222B460E
:10078000120209210220009503F06AFE09210220CD
:1007900003F0DCFE606E002801D0304600E001204E
:1007A0008F4A6066116840015368116018435060B9
:1007B00003220023120205210220009503F050FEBF
:1007C0000521022003F0C2FEA06A002800D1012604
:1007D000F017834A310C0004A66208431368310401
:1007E00054681943204311605060002003460322DF
:1007F000014600901202012003F032FE0021012088
:1008000003F0A4FE0226052424072089000621D532
:1008100001208007006B00041CD403F0DBFBC00741
:1008200018D1042003F0DCFB054603F0DFFB002DAC
:1008300010D00020009067480068AA2802D1142038
:1008400000F0C2FA0421684603F0D6FB002801D06C
:1008500000F011FB02F023FE624D287C002803D03B
:1008600002F055FB0020287403F027FA0028CCD1B1
:1008700072B601F04BFB69460871042806D00228C5
:100880000CD003280AD0012867D0B6E0564800787B
:10089000012802D00320087100E00E71208A04258F
:1008A000284320825148C0690128087914D90328B7
:1008B0000FD103F0A7FB00280BD003F0A9FB002801
:1008C00007D0032003F0AAFB002802D04848067096
:1008D0000BE06846067108E00328FAD103F09EFB9E
:1008E0000028F6D0424901200870334801692943A5
:1008F0000161618A202291436182218A31432182F0
:10090000694609790229618A20D0294361827F22C0
:100910002388920180210B43238000235B1CDBB2E0
:100920000A2BFBD3638A10210B436382314B521E87
:100930005A61218880229143218027494A88BA43FD
:100940004A8030BF0169A943016156E029436182B1
:10095000618A102291436182EFE74DE08004080034
:100960001034000004060800784B002030750000A9
:1009700084470020942703000084004062B600DF13
:1009800028A30200704701DF1CCA0200F8BD02DF85
:1009900040CB0200F5E703DF84D4020004DF89B016
:1009A000BC330200F8BD05DFF8BD06DFEC0C030028
:1009B00070BD07DF80E100E000ED00E08C0308007F
:1009C000448400200033005000000800202A080062
:1009D0000490002050840020200000500880002057
:1009E00000800020DA91002054020800E00100207D
:1009F000C40608000080004030BF62B605E7C106AB
:100A0000C90E0120884001490860704780E200E07B
:100A1000704700003E480178002902D080214170D3
:100A200070473C49002008703B49C87070473848FF
:100A30000178002902D08121417070473549012099
:100A400008703549C870704731480178002902D0D4
:100A50008221417070472F49022008702E490120E1
:100A6000C87070472A488178002904D0491E0906B9
:100A7000090E817017D142780021002A04D0920714
:100A8000920F0270417004E00278002A01D0521ED9
:100A900002701206120E017005D0012A02D0022A3D
:100AA00001D1D1E7C3E7704710B5194CA078401CBD
:100AB000A0702078002805D103F0B6FA421CFFF799
:100AC000A9FF227010BD12490120C870704710495B
:100AD0000020C87070470E48C07870470020EFF3C0
:100AE0001081012282F31088052212071289120652
:100AF00005D40A48028901231A43028118460029B5
:100B000000D0012181F310887047054800787047B4
:100B10004584002054020800C60608000033005037
:100B20006E84002005221207118A042319431182C2
:100B3000118A02231943118211894023194311811B
:100B4000174B01211960174B08211980518A802306
:100B500019435182144903680B6143684B618368F0
:100B60008B61C368CB6103690B6243694B62836924
:100B70008B62C069C8620D48836A0B63C36A4B63AA
:100B8000036B8B63C36BCB63436B074940310B60D3
:100B9000806B4860908A800601D500BE7047FEE7F2
:100BA00080E200E0003300504018080000ED00E053
:100BB00070B5434800220169D243002901D0114693
:100BC00000E00121CB170C0F1B0123430C01016135
:100BD0003C490D684E682C4333430C604B604369BD
:100BE000002B01D0144600E00124E317E50E5B0161
:100BF0002B4344610D6864014E682C4333430C6001
:100C00004B60C368002B01D0144600E00124E317B9
:100C1000650FDB002B43C4600D68E4004E682C4375
:100C200033430C604B608368002B00D1012282604B
:100C3000D017930F800018430C6892004B68224332
:100C400018430A60486070BD38B5002403252D02A2
:100C500002232A4604212046009403F001FC0022CE
:100C6000012305211046009403F0FAFB14232A46C1
:100C700003210020009403F0F3FB00221323022140
:100C80001046009403F0ECFB38BD10B50524240792
:100C9000208A022188432082A08A0007FCD5A088F0
:100CA00080210843A0800321092003F0C3F9FFF746
:100CB000ABFCFFF7C9FF608A20210843608210BDAA
:100CC0000880002000800020A5490020486070476F
:100CD00070B50521090708893022904308810889E9
:100CE000802210430881088980088000401C088108
:100CF00008890823184308819A480488144304800B
:100D00004C8A9C434C820D89402425430D810D8AD9
:100D10000426B5430D828D8AAD07FCD5904E002583
:100D2000756005880126354305804589AE058E4DE1
:100D3000068801D52E4300E0AE430680058878265C
:100D4000B5432835058005880626354305804D8A3C
:100D50001D434D820388934303800A89A2430A817D
:100D60004089800503D57F490520603188800120B6
:100D7000800701688215914301607C4801683F2229
:100D80005202914342148918016001680203114321
:100D9000016070BD032176480902818108224280EA
:100DA0000021491C9629FCD38280704771494880F4
:100DB0000888032210430880088804221043088012
:100DC00067490120087070477CB5654C217800297F
:100DD0002DD068490A885207FCD4CA8800928988B5
:100DE00001911104019A89180091634948430099BF
:100DF00003F026F90090002020700098A060009871
:100E000003F013F8054629465C4802F0C4FF0A21A6
:100E100002F0FFFF03F010F8E060284603F020F82E
:100E2000574A584B03F012F903F02EF820617CBDAD
:100E300010B54B484168AA2906D07C2052490818B1
:100E400080B203F009F910BDC06819210903884276
:100E500000D900BEFF20EB30F0E770B5414C608850
:100E6000C006050F03F0FEF861881E2291436A0058
:100E70001143618070BD10B544490120C863C86B3F
:100E80000028FCD101208007C169414802689142D5
:100E900001D20022026019238A1ADB019A4212D37E
:100EA000016003F0E5F83B4A1188884201D9411AF4
:100EB00000E0091A89B2182905D31080012003F037
:100EC000DDF803F0E1F810BD08B52549896848430D
:100ED000314903F0B5F8009008BD08B52049C9684C
:100EE0004843800A009008BD08B51D49496800299B
:100EF00003D0FFF7E9FF009008BD03F0CBF8FAE755
:100F000008B517494968002903D0FFF7E6FF0090AC
:100F100008BD03F0C5F8FAE708B5204901204A6981
:100F20005206D20F13D04A699206D20F0FD0002278
:100F30000A610092FF225F32009B5B1C0093934288
:100F4000FAD34969C907C90F02D003F0AFF80020EE
:100F500008BD40183721C000090140187047000043
:100F60004C840020200000500010000000020040CF
:100F700020300050001600500024F4000024744972
:100F80007B14AE47E17A443F01120000C0000040EC
:100F90007C0408007804080040420F000010005054
:100FA00030B58D4A8D49D005048880231C430480C8
:100FB0008B4C65892D0701D4521EFAD2894C01222F
:100FC0002260894C0A882280884A498811800188D9
:100FD0009943018030BD00207047704770477047CB
:100FE0000020704701218907086B0722104308631E
:100FF0007047704710B57F497D4808607E494C2096
:1010000008807D4B7D4A203B1A827E497C4848807F
:101010007E487D4901807C491931418022214181EE
:101020008121890001827A4941827A490183784984
:1010300011314183754978482031888041217748B2
:10104000090181807649C180754C1034C4810182C8
:101050004182891C8182611FC182FF214631018347
:10106000704941837049592008806F486F4C203087
:101070000480432444806E4C4C82D5218180FF2122
:10108000D33101816B4941816B4981816C496B4846
:10109000088059486B4960384180C1881024214339
:1010A000C18062490A390181534C6749403C6180E3
:1010B0005A82082141814D485B49008840390882A5
:1010C000494862490088088010BD4008704700B553
:1010D0008BB05F4A42625F4A82625F4A42615F4A06
:1010E000C2625F4A02605F4A02625F4A42605F4AD0
:1010F000C261404A3E48002110603E484038026BC1
:1011000003129A430263426B1F231B049A43032377
:101110001B04D218426356480268C3129A43026005
:10112000026803139A43026068464154491CC9B2DD
:101130002829FAD3014628224E4802F0BDFFFFF7C6
:1011400059FF02F095FF4C490880002002F096FFFD
:1011500002F09AFF0BB000BD10B5264A0F212448BB
:101160000902106023484038426B1F231B049A4336
:1011700003231B04D218426300060268D208D2007F
:10118000026005200007028992089200521C028129
:10119000028908231A430281028A0A4302823748DD
:1011A0000068002808D10E484189890504D50188C6
:1011B0007822914308310180FFF71CFF3048006B13
:1011C0000078002804D02F4800880B496039C88077
:1011D000012002F0F9FE10BDA0860100087F040086
:1011E0002000005000800040560208004A0308001A
:1011F0004C05540780000040602C00507F7F0000A9
:10120000AC29000000220050090900000024005011
:101210002204000030D00000EE1100000025005034
:101220002E02000044200000402800500D950000D0
:1012300002420000E4DC000010920000537800003D
:10124000002A00508B1000009DD5000000260050A1
:10125000D70F0020DB0F0020E10F0020E50F00205A
:10126000DD0F0020F30F0020DF0F0020CB10002047
:10127000000200402000080078040800508400208C
:10128000200200205204080010B5044603F012F9B1
:101290000C49A00040188038406B002801D08047DE
:1012A00010BDE106C90E012088400749086010BD45
:1012B0001320E9E71420E7E71520E5E71620E3E728
:1012C0001720E1E7A880002080E200E03B4800789A
:1012D000002802D00020C043704701203849400256
:1012E00008600020704705200007018830229143E4
:1012F000018001888908890001808088C0060BD59B
:1013000030480121818001888022914301802B484F
:101310004068002800D000477047F0B50524240736
:10132000A58810263543A580264C00252581D2B2FC
:1013300062802A46D7000546FD40EEB255002D19C1
:101340006E810E46FE40F6B26E82521C042AF1DB1C
:10135000E28903252D020004800FAA430002024304
:10136000E281E08A0904890FA84309020843E08268
:101370000121A180144A480210609A06920E803220
:101380002280124B1A68FF242402A2434401224304
:101390001A600A4A13780B430949137080390860B0
:1013A000F0BD06480178490849000170054801214F
:1013B0008180018880229143018087E7608400203A
:1013C00080E100E00001005080E200E008E400E07D
:1013D00010B54F484178007803F0DAF810BD10B529
:1013E0004B484178007803F0B1F810BDF8B50E46CF
:1013F000154647490278079F0A7040781C46487096
:10140000FFF7EDFF0520000781880122D20211437A
:101410008180404801884908490001800188FF22F5
:1014200081329143F20111430180018840229143AE
:10143000AA0111430180018804229143A2001143B3
:101440000180018802229143069A520011430180D3
:101450000188012292039143BA031143018001885C
:1014600018229143089AD200114301800188012279
:1014700011430180F8BD27490A88520852000A80AA
:101480000A88FF2381339A43C00102430A800888F7
:10149000012210430880704710B51E480188490892
:1014A000490001800520000781880122D202914372
:1014B000818017484178007803F048F810BD15483E
:1014C0000188490849000180704710B5114900237F
:1014D0000A88D205920F012A01D9040C8C80488019
:1014E00008888004FCD50120C880012A01D9888899
:1014F00003044888C01810BD10B50446FFF768FF04
:101500002046FFF7E2FF0446FFF769FF204610BDC3
:10151000209000200012005030B5224B1C68082596
:10152000C907AC43090F0C431C6019680424D20797
:10153000A143520F1143196019680222C007914359
:10154000800F01431960184801688022090A0902C6
:101550001143016030BD154B58809980DA80704787
:10156000FF201349013008607047FF201049013007
:101570008031086070470F480068002800D000479D
:10158000704770B5054614460E46012003F0C4F8B6
:10159000284603F0CDF8304603F0D6F80348C4815E
:1015A00070BD00000034005008E400E0003400503A
:1015B00000E100E02490002070B5EFF310850120D9
:1015C00080F31088264802F07DFD0446002D1DD0D2
:1015D000012080F31088002C23D020462038C08BB7
:1015E000204988421DD16189208902F071FD0500E2
:1015F0000ED021461031A38962892089A84700288E
:1016000006D001280DD002280BD105E00020E0E72C
:10161000204602F063FD04E0114821460C3002F040
:10162000A9FCEFF31084012080F310880C480068B7
:10163000002802D1012002F057FD002C03D0012028
:1016400080F3108870BD0020FAE710B5BC21064871
:1016500002F050FD0549012002F052FD10BD0000CE
:10166000A80508003883000004060800B91500200A
:10167000F8B50D46064681002B48EA884458521CAE
:1016800020686B89018F294F5143009101464031F9
:101690004A89C989511A8AB2991A89B2B94214D2AF
:1016A0009A4212D0294602F031FD2D892049009836
:1016B00002F0C6FC2818801C4034E0823002401C36
:1016C00080B2042102F062FCF8BD2821304602F00D
:1016D00023FDF8BDF8B50546870013480C46C059F0
:1016E000C9880068114E024640325389D2899A1A3D
:1016F00092B28B1A9BB2B34211D20B4E8A420ED0D9
:1017000002F010FDF05905225F30611C02F0D4FC9C
:101710002802401C80B2052102F038FCF8BD2821C7
:10172000284602F0F9FCF8BD4C030800FF7F0000DA
:101730001027000070B516460D46104602F014FC46
:10174000002869D0340A304602F00EFC012812D07D
:10175000A87A1E2811D029460A310E2845D019DC56
:10176000801E030002F0E4FC0B255829582D583147
:101770005839583D5800022070BD3146274802F0C4
:10178000DDFC0021204602F0DFFC0221304602F0A1
:10179000FDFB41E018283CD006DC102819D01228A7
:1017A0002BD0162838D130E0522822D0D22833D17D
:1017B00027E0204602F0CEFC2EE0204602F0D0FCCE
:1017C0002AE0204602F0D2FC26E0204602F0D4FCBB
:1017D00022E0204602F0D6FC1EE0204602F0D8FCB3
:1017E0001AE0204602F0DAFC16E0204602F0DCFCAB
:1017F00012E0204602F0DEFC0EE0204602F0E0FCA3
:101800000AE0204602F0E2FC06E0204602F0E4FC9A
:1018100002E0204602F0E6FC002070BD0128000036
:10182000F3B581B001980C460102CA1D0E310223A6
:10183000344802F0DDFC0470019905460227324865
:101840008E00002C06D0042C16D0062C10D0072CAD
:101850003FD108E0815905224968897C11406970AF
:101860008059C77335E0084602F0C8FC687030E064
:1018700080590F21C1732CE0044680594068417C97
:10188000012902D1007E01280FD0019802F0BCFC92
:1018900001210028A0590BD04268D07D00281CD01F
:1018A00001281AD004280DD00FE0002068700DE048
:1018B0004068C27D022A01D0042A06D1007C022899
:1018C0000BD102E0107C022807D06F70A1590320D1
:1018D000C873284602F09EFCFEBD6970F6E701461B
:1018E0000A780120042A01D9002070474A78002A8A
:1018F00001D0012AF8D10A79082AF5D849790829AE
:10190000F2D87047021C000028050800FFB589B016
:101910000D4600206946059008720B98000A009059
:1019200002F072FC07460B9802F01EFB00287DD0E7
:101930000B982978000A8400764E01295ED004298C
:1019400004D0062943D0072963D120E06878002815
:101950001BD0305910224068A91C02F0ADFB002FAB
:1019600006D03159C87B032807D0042808D050E09E
:101970003059C07B032803D04BE00B20C87348E0EC
:101980000521009802F04CFC43E00120B6E03059FC
:10199000C07B0E283DD1009802F030FC002103E00E
:1019A0002A18401C9170C0B21028F9D3688A694681
:1019B0000883294606A808221431023002F07CFB75
:1019C00006ABAA1C3946009802F030FC21E03059E1
:1019D000C07B0F281DD1AA1C0A21009802F02CFC04
:1019E000002F04D03946009802F02CFC11E00023AF
:1019F0001A463946009802F02BFC0AE0012F08D164
:101A00000B9802F0B1FA01281CD0002801D0022066
:101A100005906846007A002811D002AA0521009896
:101A200002F00AFC6846027A602000E007E0024308
:101A30006846027201233946009802F009FC0598B5
:101A40000DB0F0BD3059C07B0228E2D16878002883
:101A500051D002210B9802F099FA305907224068C0
:101A6000A91C173002F028FBE878002804D130596F
:101A70004068407C01283AD0009802F0EFFB002833
:101A800037D0297A009802F0EFFB002833D0009875
:101A900002F0F0FB0121009802F0F2FB00282CD0AC
:101AA00030594068417E00292BD0042929D0C17EBD
:101AB000027D1140C17630594068017F427D11405E
:101AC00001776846007A0028A7D130590221426880
:101AD0000098173202F0B0FB305941684031897BE1
:101AE000002913D004210098FFF79AFE91E7022005
:101AF00004E0062002E0082000E0032069460872A6
:101B00008BE70021C17630594068D9E70B21C173BA
:101B10007FE700002805080070B50446007800251E
:101B20000D2801D00A2200E002225A494B7A002BEC
:101B300006D00D2804D0637C032B01D0432551E04F
:101B4000097A8A4339D10D2809D00E2802D00F28EE
:101B500003D134E0607C032804D3402542E0607C5C
:101B60000328FAD8A07C0428F7D20A2908D0607C80
:101B7000012822D0022820D06078032809D811E05B
:101B800002F084FB012806D16078032803D00028E6
:101B900001D0492526E002F079FB002802D16078C7
:101BA0000228F6D83020035D22462046E17C3132FF
:101BB000143000F019F8054614E0422512E002F056
:101BC00065FB012807D16078052804D1A01D02F02B
:101BD00063FB0028DDD002F059FB002802D16078B9
:101BE0000228D6D8284670BDFFB5002086B0012156
:101BF0006A461170044605910021002C06D0089D0C
:101C0000099A1F239A4234D9402032E01C23069DB2
:101C1000079AF7E76B185E78330002F089FA1D2601
:101C2000101010101010101010262626262626261A
:101C30002626262626261010101010102600059B9A
:101C400003E06F46FF5CB74204D05B1E5BB2002B23
:101C5000F7DA03E0002B01DB4A2006E0059B6F4624
:101C6000FE54059B5B1CDBB205936B5C491C591849
:101C7000C9B2914201D20028CCD0914202D04A2070
:101C80000AB0F0BD641CE4B2022CF9D20028B3D033
:101C9000F6E7000098050800F8B50C46944916468A
:101CA00009680125002702228B1C312873D012DC21
:101CB0000C2874D008DC012821D0022840D0072845
:101CC0004FD00B2869D156E010287FD0112876D04C
:101CD0001228F7D18DE00123412871D008DC322889
:101CE0006FD035286ED036286DD04028EAD1B1E0CB
:101CF000422869D0432868D04428E3D1CFE00622A7
:101D00007C497D4802F0CEFA002808D006227A49A4
:101D1000304602F0D1F9062020700020F8BD74484A
:101D200001680878C00738D02078062801D22770CB
:101D3000C2E006229831304602F0BEF906200EE0DD
:101D40000A786B48920728D522783E2AEFD30546B9
:101D50004A7E5A31304602F0AFF92868407E207042
:101D6000A7E00878400718D520780228DFD3887CC0
:101D70003070587C78E00A785D4812070DD52278DB
:101D8000202AD4D30546CA7D1A31304602F094F990
:101D90002868C07DE3E735E001E077E016E00A78E7
:101DA0005348D20672D52278202AC0D305460A7E2F
:101DB0009831304602F080F92868007ECFE70EE0C7
:101DC00054E028E034E03BE058E060E0087880062A
:101DD00070D520780428AAD30422091D23E00878AE
:101DE000400667D52078002866D0087D08E022707C
:101DF0005FE0087800065DD5207800285CD0487D3B
:101E00003070F4E70888C00554D5207804288ED3B4
:101E100004220C3107E0088880054BD5207804287F
:101E200085D304220831304602F046F9042096E7B3
:101E3000088840053ED5207800283DD0887D36E0D2
:101E40000888000536D5207802288FD3087C3070AA
:101E5000487C09E00888C0042CD52078022885D366
:101E60008231087F3070487F7070C0E70888800436
:101E700020D5207800281FD0A03117E00888400422
:101E800018D52078002817D0A1310FE012E008887B
:101E900000040FD5207800280ED0A23106E0086893
:101EA000C00307D52078002806D0A3310878307009
:101EB000237000252846F8BD0425FBE770B50F48C0
:101EC0000F49C405228880252A4322800D4A538960
:101ED0001B0701D4401EFAD20B4A012010600622D3
:101EE000054802F0E9F82088A843208070BD000072
:101EF000C0060800383E030068840020A086010068
:101F0000D47F04002000005000800040F0B5514D07
:101F100085B00026686937460190FEF7DCFD002198
:101F20004D4C002802D12079022800D101914B4864
:101F300002684B48002A0FD10278002A0DD0494A86
:101F40000123D363D36B002BFCD101229207D2690A
:101F50001923DB019A427AD3017002F0A9F9002813
:101F600075D0E0780126002871D005200007808A0E
:101F7000C00701D004266AE002F02CF8002866D1E0
:101F80002079002801D128690190A17801A802F0E8
:101F900095F900285BD0A17801A802F02DF800285F
:101FA00055D002F091F9002851D02C480068AA2899
:101FB0001DD0972007210125AD07EA6B920A9202F6
:101FC0007F1C3A43EA63EA6B274B80021A400243C4
:101FD000EA63E86BC002C00A49050843E8631F488A
:101FE00004260068002807D0AA280ED01CE01F484D
:101FF000FEF77AFF0321DEE701986421C00202F0B8
:102000001FF8401E0BE001210CE0019801F00DFFCC
:102010001749096801F082FE01F00EFF0090217956
:102020000029F0D102F056F91248C06A8047286BA7
:102030000004C00FFBD010480168C905FCD502F0B0
:102040004FF9052000070189802291430181304624
:1020500005B0F0BDA0020020C60608005084002094
:1020600044840020C0000040FF03E0FF0112000094
:102070005C8400201C07080000020040F8B50546FB
:1020800085488749047B8548C969006840300089D4
:10209000884201D1002002E00002401C80B27E4E46
:1020A000000A203E870013E02E20B16A6043081822
:1020B0008078C00609D002F019F97A496422C9591A
:1020C0008A56904201DA01F0EBFC641C6407640F4D
:1020D00028466D1EEDB20028E6D1F8BD10B50124EA
:1020E000A407A06BFEF70CFF6F4901F0A9FF2722A0
:1020F0001201511A00D101216C4A50601160206B0D
:10210000082188430843206310BD38B500200090A3
:1021100067490820088005242407218830200143CE
:102120002180218803221143218002E000BF00BFEB
:1021300000BFA18A0906F9D56189890889006181F2
:102140005C494A88520852004A8021888143218094
:102150002088800880002080A08A400701D5FEF7F3
:1021600094FD2089802108432081208A042188430E
:102170002082A08A8007FCD54F4841050268D20220
:1021800002D40A69520702D4009A002AF6D038BD58
:1021900010B502F0B1F802F0B5F810BD10B502F0BC
:1021A000B7F805200007418A8022914341824048C8
:1021B000018949084900018102F0B0F80120800737
:1021C000816904221143816102F0AEF802F0B2F895
:1021D00002F0B6F839480068AA2802D11420FEF7A8
:1021E000E5FD37490020087010BD2D4810B540307E
:1021F000007BFFF743FF02F0A9F810BD10B50120E6
:102200008007008A000718D52E490120087023484E
:102210004E230068224A40300189126859432A4BF4
:10222000C918515AC07C090A081AC0B2FFF726FF24
:1022300002F092F822490320087010BDF8B5234837
:10224000008887061C48BF0E446815484030006B64
:102250000078002802D1384602F084F81C48008932
:102260000125C005164E002807DA20060DD5E00727
:102270000BD0384602F07CF803E0200605D5E007D5
:1022800003D01048456002203070200402D5E005DC
:1022900000D53570F8BD0000380308006C03080055
:1022A000E00100204C0308007102000040000040E3
:1022B00000330050200000500002004050840020F5
:1022C0006E840020289000204A0008000020005062
:1022D000002C0050F8B514460F461E4605464288AD
:1022E00001880623204601F083FF0446287902F086
:1022F00045F8208027716680204601F08BFFF8BDED
:1023000070B51446428800790D4601020C31042351
:10231000204801F06DFF002D01D0132100E01221B3
:102320000170448001F076FF70BD0A880270120AC5
:1023300042708A788270CA78C2700A7902714A79CA
:1023400042718979817107207047427803781202BF
:102350001A430A8082788A70C278CA7002790A7138
:1023600042794A71807988710720704710B500F072
:1023700013F810BD70B5064615460C46362001F020
:10238000F3FD022805D1E2B236232946304601F09A
:10239000FBFF70BD0D30000010B5DC21634801F07B
:1023A000F9FF6349362001F0FBFF0021362001F0E0
:1023B000EDFD10BDFEB50026684686805B4C00969C
:1023C00060896A46801C80B201A901F0EFFF68466F
:1023D0008088022812D1009800280FD000780028A9
:1023E0000CD0E18801233622524801F001FF009908
:1023F00009782182067001F00DFF07E0E6814D4863
:102400002682E1883622401C01F0D6FF0098002881
:1024100000D0007869460881A6810A2702AA022115
:10242000032001F0CFFF00256189A800C01D081816
:1024300080B202AA022101F0C5FFA0896D1C401CD8
:10244000A081BD42F0DB68460089002800D1A6814A
:10245000FEBDFEB50646002768468780334C0097D0
:10246000E08961898000C01D08183D4680B26A4637
:1024700001A901F09BFF0098002817D000880028D0
:1024800014D0E08961898000801D081880B232462E
:10249000142101F097FFE08961898000801D0818F0
:1024A00082B200212046FFF72BFF0127E089401C64
:1024B00080B2E0810A2800D3E5813846FEBDF8B538
:1024C0001A4C0025608A00282ED0052700261420EB
:1024D000684300191430FFF7BCFF002805D0608A5C
:1024E0006D1C401EADB260827F1E761C608A0A2E73
:1024F00004DA002817D0002FE9DC01E0002812D010
:1025000000260DE0142068430119142070430019BF
:1025100014311430142201F0CFFD6D1CADB2761CC5
:10252000608AB042EEDC3846F8BD0000BC80002076
:10253000C447002003D800003EB50020C043B24C81
:102540000290E38008886081B048019000922046A4
:1025500000232D2202A90A3001F03AFF05466089C6
:10256000002101F03BFF002D03D10121362001F0B5
:102570000DFDE18801233622A54801F039FE0570E2
:1025800001F048FE00203EBDF8B5002568469E4C8F
:10259000058062802380E3800E46488801F024FF96
:1025A000207170882081E581A5819A482582007973
:1025B0009949801F087060896A46801C80B2022198
:1025C00001F000FF60896A46C01D80B2022101F05F
:1025D000F9FE60896A460B3080B2022101F0F2FEFA
:1025E00060896A460F3080B2022101F0EBFE6089FB
:1025F0006A46133080B2022101F0E4FE60896A4627
:10260000173080B2022101F0DDFE60896A461B307E
:1026100080B2022101F0D6FE60896A461F3080B286
:10262000022101F0CFFE60896A46233080B2022188
:1026300001F0C8FE6089012101F0D0FE02213620A0
:1026400001F0A4FC0020F8BD10B50121362001F0F6
:102650009DFC002010BD1CB5002069468880044602
:10266000009069486A46408901A9C01D80B201F006
:102670009DFE0098002803D00088002800D0012487
:1026800020461CBD1CB50020694688800446009089
:102690005D486A46408901A9133080B201F086FE88
:1026A0000098002803D00088002800D0012420468C
:1026B0001CBDFFB583B000276846534E0781308AA2
:1026C000002852D0049854490578524800240079D3
:1026D0000870009442E00197F18970898900C91D52
:1026E000401880B201AA02A901F060FE01980028FA
:1026F0001CD00088002819D0F08971898000801DC5
:102700000818214614225143049A80B28A18921C58
:10271000142101F057FEF08971898000801D08188E
:1027200082B200213848FFF7EBFD02E00221684643
:1027300001813948641C01786D1E491E0170F089C1
:10274000A4B2401C80B2ADB2F0810A2801D3F78157
:102750000AE00098401C00900A2805DA002D03D0FA
:102760002D4800780028B6D1002007B0F0BDF8B59C
:102770000C46164623468A880833498820881F4617
:1027800001F038FE204D21886889081A801E030058
:1027900001F0CEFC2A163838381E1938381E193880
:1027A000381E1938381E1938381E1938381E19388D
:1027B000381E1938381E1938381E1938381E19387D
:1027C000FFF7F8FD2188287A002201F019FE19E0B0
:1027D0000F4829881A233246401C01F009FD06469D
:1027E000287901F0CBFD308020887080207A30710C
:1027F000A078707162883946B01D01F05DFC3046EA
:1028000001F008FD0020F8BDBC8000202C4800200D
:1028100006D800001E0508003090002038B50124BD
:10282000684604700C21494801F0B4FD474D6946E3
:10283000EC702A1D352001F0E9FD002800D02C7134
:1028400000F016FA4249322001F0AAFD00213220A0
:1028500001F09CFB00F0B2F838BD10B500F0C5FAED
:1028600010BD10B5394802238078322201020E31A2
:10287000384801F0BDFC012101701321417001F0C5
:10288000C9FC10BD10B5044630482C238078322294
:10289000010230480E31801E01F0AAFC01462030B2
:1028A000047200224272084601F0B4FC10BD10B55B
:1028B000502332220D21284801F09AFC044600F0F2
:1028C0000BFA204601F0A6FC0221322001F05EFB4B
:1028D00010BD214810B5012332220D210B3801F023
:1028E00087FC0221017001F095FC10BD10B500F0CD
:1028F00090FA10BD194B10B59A4201D91A4602E060
:10290000002A00D1012201F087FD10BDF8B506466E
:10291000114815460F46252332220D21C01C01F017
:1029200067FC0446012020772046062239461D30E8
:1029300001F0C2FB2320065565822582204600F067
:1029400092FA204601F066FCF8BD00007084002079
:10295000904A0020043800000E340000307500005A
:1029600010B501F05FFD254901F062FD244808180B
:1029700010BDF8B5234D0646A876002401F052FD9F
:102980002919641CE4B20874082CF7D3002410271A
:10299000381BB04201DD002007E001F043FDC11704
:1029A000090E0918090A0902401A2855641CE4B2E4
:1029B000102CEDD301F036FD2883F8BD10B524218D
:1029C000104801F0E7FC00F054F910BD10B50E48B6
:1029D00002238078322201020E310C4801F008FCFB
:1029E0000D210170074920318978417001F012FCF6
:1029F0000321322001F0CAFA10BD0000A0BB0D0077
:102A0000A08601007C840020708400201A38000019
:102A100010B5084609781C460B0001F089FB080533
:102A200020202008181B1E2000F020FA17E0417813
:102A3000012904D0002902D0022903D00FE000F0C0
:102A400016FA0CE01146204600F01AFA07E000F0F2
:102A50000FFA04E000F00DFA01E000F00BFA00209C
:102A600010BD10B50878304C801E030001F060FBEB
:102A7000020214188878A070C0070AD02B492A4A8D
:102A80004879203AD07628480622891D001F01F097
:102A900013FB00F0F0F903E0FFF7E3FE0020A07065
:102AA000002010BDF8B518460D46014612232048F7
:102AB00001F09EFB0446284600F0DEF900270028BE
:102AC00021D0194EB078C0071DD030460822A91C6D
:102AD000103801F0E7FB002815D130462038018B73
:102AE0002A8891420FD101212170807E6074314685
:102AF00010222039601C01F0DFFAB078FFF7C2FE27
:102B000000F0BDF900E02770204601F083FB20783B
:102B1000002801D1FFF7A5FE0020F8BD10B500F098
:102B2000ADF9002010BD00009C84002070840020BE
:102B30001838000010B5104601F016FA002809D127
:102B4000012332220D21484801F052FB012101707E
:102B500001F060FB002010BD70B5087815460F2805
:102B60002DD008DC01280DD002282CD003281CD041
:102B70000E2830D11FE0102825D0112823D012288C
:102B800029D123E04878002825D137482223322252
:102B90000D21801C01F02CFB04460146284600F064
:102BA00039F9204601F036FB15E04878002812D1AB
:102BB00000F03BF90FE0487800F04EF90BE0487860
:102BC00000F04BF907E000F04DF904E048784428A4
:102BD00001D100F04AF9002070BD70B51C461046C6
:102BE0000D4601F0C1F9022805D12049200A88705C
:102BF000284600F03FF8002070BD70B508781546F3
:102C00000C460A2810D1104601F0AEF904280BD169
:102C10006078002802D000F01DF905E00521284663
:102C200001F0B4F900F017F9002070BD10B510469E
:102C300000F0BCF8002010BD10B510460C4601F0A5
:102C400093F9012808D12078002805D1FFF705FE67
:102C5000002801D000F002F9002010BD10B5084690
:102C600000F002F9002010BD023400007084002042
:102C70007047704770B50446FD488078FF2828D01B
:102C80003221FC4801F05AFA0521322001F07EF988
:102C9000F848092332223F21401F01F0A9FA0546D6
:102CA000012028702078A870607A6870214606227A
:102CB0000A31E81C01F000FA284601F0ABFA6088FE
:102CC00000F0D2FE00F0A2FEEB488078FFF7DAFDBC
:102CD00070BDFFF7ECFD70BDF0B5044693B00E205B
:102CE0002070002565709620A081E0810720207467
:102CF000012060741C20E074274622461F202037E4
:102D0000143238741646511E0B2001F07FFB002848
:102D100005D02A46E574D9A1304601F0CDF9224606
:102D20003132511E0C20119201F070FB002805D0A9
:102D30003D742A46D3A1119801F0BEF9E07C1A2116
:102D4000081A45B2002D2FDD3E206946087001AA01
:102D5000022001F05BFB002806D00D2268460270BD
:102D6000C9A101A801F06AFB6846007800281BD0C1
:102D7000A84200D2054668460570E07C6D1C85556A
:102D8000E27C2046092115301154E17C401C0B18CF
:102D90006846027801A9184601F08EF96846007865
:102DA000E17C801C0818E07413B0F0BD10B50C462F
:102DB00001F0DAF8032803D0052801D0042813D144
:102DC0000221322001F0E2F8B34900200870A9483E
:102DD000092332223F21C01E01F00AFA21788170B6
:102DE00001F018FAFFF763FD10BD70B50024AB4980
:102DF000022008729E4DE878022807D2012801D1EE
:102E000000F0F8FDE878401CE87000E0012420465E
:102E100070BD7047032008700A2048700020488267
:102E2000087548751720C882704710B501213220F7
:102E300001F0ACF8FFF711FD002801D0FFF737FDD6
:102E40008C48042332223F210A3801F0D1F901F0E5
:102E5000E1F910BD704770477047704710B5FFF734
:102E600026FD10BD70477047704770477047704728
:102E70007047704770477047012070477047704730
:102E8000704710B518460C4601467A480123322295
:102E90000B3801F0ADF92178491C017001F0BAF945
:102EA000002010BD10B5087801F09EFA01020E3125
:102EB000022332227A4801F09BF90121017013218B
:102EC000417001F0A7F9002010BD70B50024734DCA
:102ED00026462C351420604340190680801C22466B
:102EE000122101F0B1FA641C202CF3DB70BD10B587
:102EF0004878694C012801D0002005E0207801289D
:102F000001D0FFF7E2FF01202070002010BD10B5B6
:102F1000322001F029F8052814D156480E23322218
:102F20003F21401E01F064F9044600202070504803
:102F30000C22007860705B49A01C01F0BDF82046AF
:102F400001F068F910BDF7B50746012086B000040E
:102F5000049055480E460024416E621E002901D09F
:102F6000114600E00121514D41662B6849016D6811
:102F700029434E4D2B606960016F002901D0114635
:102F800000E001214848494B0167080219685D6863
:102F90001960284358604448406F002801D011460A
:102FA00000E001214048414D41672B6849026D68AE
:102FB00029433E4D2B606960816E002901D0114686
:102FC00000E001213848394B8166880119685D6845
:102FD0001960284358603448C06E002800D101228F
:102FE0003148C266D001196800255A68196010433B
:102FF00058600120032200900823120205210220BC
:1030000001F02EFA03220723120208210220009564
:1030100001F026FA0623DA0109210220009501F0C9
:103020001FFA0523002206210220009501F018FA5C
:10303000012003220090002312020721022001F048
:103040000FFA022168460173052141730320002312
:10305000029000951A461946019503A8FEF7C6F995
:103060000121BB1949040D488B4221D3C76028E0D8
:10307000708400200DC800009C8400200701031804
:103080000000000002FF0000444131343538302098
:1030900054454D504C000000A2840020988100202F
:1030A00004380000DA910020088000200080002011
:1030B00001210904F2198B4205D88E4203D234460D
:1030C000C26005700BE08B4205D38E4203D2049C94
:1030D000E119C16001E03446C260012101700025A0
:1030E0001CE0FEF77CF9FEF773F90220FEF7EDF91C
:1030F0002002000EFEF7E9F92004000EFEF7E5F9C4
:10310000E0B2FEF7E2F9089808990078491C0891A6
:10311000FEF7DBF9FEF763F9641C6D1CBD42E0D3DA
:1031200009B0F0BDF7B5FF49054616460024486EC4
:10313000621E84B0002801D0104600E00120F94949
:103140004866F94940010B684F680B603843486096
:10315000F448006F002801D0104600E00120F14B38
:1031600018670B6800024F680B6038434860ED48F1
:10317000406F002801D0104600E00120E94B58675D
:103180000B6840024F680B6038434860E548806E2A
:10319000002801D0104600E00120E24B98660B4663
:1031A000096880015F68196038435860DD48C06E67
:1031B000002800D10122DB48C266D001196800272F
:1031C0001A465B681160184350600120032200908A
:1031D000082312020521022001F042F903220723ED
:1031E000120208210220009701F03AF90623DA01C1
:1031F00009210220009701F033F90523002206215E
:103200000220009701F02CF90120032200900023F6
:1032100012020721022001F023F9022168460173FE
:103220000521417303200023029000971A46194696
:10323000019703A8FEF7DAF80598BC492A1801207F
:103240000004824203D3059A824200D20F61B7493B
:103250000978002902D0B54807691EE0B349096919
:103260000F181AE0FEF7BBF8FEF7B2F80320FEF7DE
:103270002CF93802000EFEF728F93804000EFEF78C
:1032800024F9F8B2FEF721F90020FEF71EF930709C
:10329000761CFEF7A4F87F1C641CAC42E2D3A34862
:1032A00001694919016107B0F0BDF0B585B000248E
:1032B0009C480494416BC825621E002901D0134626
:1032C00000E00123D9175E0BC904974F31434363D4
:1032D0003E68DB047F683343934E3943336071604B
:1032E0000169002901D0134600E00123D9171E0F00
:1032F00009018D4F314303613E681B017F683343F1
:10330000894E394333607160C168002901D011468C
:1033100000E0012183484B0FC160C817C00018436B
:10332000CB0081490E684F68334338430B604860D7
:103330007C488068002800D101227A48930F82607F
:10334000D017800018430B6892004E681A43304330
:103350000A6048600127032208231202032138462D
:10336000009701F07DF800260322072312020421B2
:103370003046009601F074F80623DA01032100209C
:10338000009601F06DF800220523022110460096F8
:1033900001F066F869460F7303204873002302901A
:1033A0001A4619460097019603A8FEF71FF8FEF784
:1033B0000FF85F4F002000BF401CC0B21428FAD3A2
:1033C0000498FEF782F83855641CA4B2AC42F1D3DD
:1033D000FEF705F85648001F4680FEF75DF8012409
:1033E00003220023120203212046009401F038F842
:1033F00000230322120204211846009601F030F83F
:1034000000230322120203211846009601F028F837
:1034100000231A4602211846009601F021F80020E8
:103420003854401C80B2A842FAD3404E404A284645
:10343000F168FFF788FD747005B0F0BD10B539492B
:10344000086D002802D00020C04300E00120364A69
:1034500008651168536811601843506000231A46CC
:103460001946022001F0B6F8324801F079F900233C
:10347000012219461004FDF750FF10BD10B50520BC
:103480000007808A400701D5FDF7FFFBFFF70DFF1E
:10349000FFF7D4FF10BD0188491C01807047F8B5C3
:1034A000FFF7D9F800281ED0204C607800281AD0E9
:1034B000002060702071204D204E1D4F05E02079C6
:1034C0000A30C0B22071C8280DD200956069718998
:1034D0008000801D0A1820791B2338180A2100F06B
:1034E00026FB0028EBDCF8BDF0B507460D480022AE
:1034F000816AD24385B0002901D0114600E0012144
:10350000CB170C0C1B0423430C04816206490D6885
:103510004E682C4333430C604B600368002B0FD084
:1035200013460EE0088000200080002098810020D3
:10353000A68400207D34002097340020BC80002029
:10354000012303600D68DC174E682B4334430B6086
:103550004C608369002B01D0144600E00124E3177E
:10356000A50E9B012B4384610D68A4014E682C437A
:1035700033430C604B604369002B00D10122426150
:10358000D017D30E400118430C6852014B682243F8
:1035900018430A6048600125032636020823324694
:1035A00000212846009500F05BFF002407233246E7
:1035B00021462046009400F053FF06233246194668
:1035C0000020009400F04CFF05230022194610460D
:1035D000009400F045FF6846057344730320002300
:1035E000029000941A461946019403A8FDF7FEFEC6
:1035F000FDF7F5FEFDF7ECFE0B20FDF766FF384604
:10360000FDF763FF0020FDF760FFC4B2FDF7E7FEA2
:10361000204611E7F3B50746EE480022816AD243FF
:1036200085B0002901D0114600E00121CB170C0C18
:103630001B0423430C048162E7490D684E682C4348
:1036400033430C604B600368002B01D0134600E04D
:10365000012303600D68DC174E682B4334430B6075
:103660004C608369002B01D0144600E00124E3176D
:10367000A50E9B012B4384610D68A4014E682C4369
:1036800033430C604B604369002B00D1012242613F
:10369000D017D30E400118430C6852014B682243E7
:1036A00018430A6048600125032636020823324683
:1036B00000212846009500F0D3FE0024072332465F
:1036C00021462046009400F0CBFE062332461946E0
:1036D0000020009400F0C4FE052300221946104685
:1036E000009400F0BDFE6846057344730320002378
:1036F000029000941A461946019403A8FDF776FE3D
:10370000FDF76DFEFDF764FE0A20FDF7DEFE38468C
:10371000FDF7DBFE0698FDF7D8FEFDF760FE002002
:103720007D21C90000BF00BF401C8842FAD3BAE522
:10373000F0B5A84A0D4604460020916AC04385B002
:10374000002901D0034600E00123D9171E0C09040B
:10375000A14F314393623E681B047F6833439E4E02
:103760003943336071601168002901D0034600E0DD
:103770000123994F13603E68D9177F683343964EF3
:103780003943336071609169002901D0014600E03E
:103790000121904A8B0E9161CA1792011A438B0145
:1037A0008D490E684F6833433A430B604A60894A3B
:1037B0005269002A00D10120864AC30E5061C21707
:1037C00052011A430B6840014E68184332430860A7
:1037D0004A6001270322082312020021384600977D
:1037E00000F03EFE00260322072312023146304637
:1037F000009600F035FE0623DA01194600200096F7
:1038000000F02EFE0523002219461046009600F017
:1038100027FE684607734673032000230290009634
:103820001A461946019603A8FDF7E0FDFDF7D7FDFE
:10383000FDF7CEFD0D20FDF748FE684F7E7107E0D5
:103840000020FDF742FE20707879641C401C7871DE
:103850007879A842F4D3FDF7C2FDEDE510B500215B
:103860002D20FFF7D7FE52211F20FFF7D3FE10BDFA
:103870000188491C01807047F8B5584CE078002851
:1038800015D1FFF731FEAD2864D100212D20FFF7BF
:10389000C1FE02212820FFF7BDFE11212C20FFF7D9
:1038A000B9FE22212D20FFF7B5FE0120E0700D208A
:1038B000FFF71AFE8007850D0C20FFF715FE054364
:1038C000658147D0454F00250A261837A0786189C1
:1038D000321A8A422DDC51064000090EC019FFF74A
:1038E00027FFA0786189301A081A60810020A07033
:1038F000FEF7C8FE002828D00020A07105E0A079BE
:103900000A30C0B2A071142810D235480090354852
:103910001B234189344800688000801D0A18A07963
:103920000A21381800F003F90028E8DA6D1CEDB21E
:103930000BE049064000090EC019FFF7F9FEA07818
:10394000A17A4018A070002060810A2D02D86089F9
:103950000028BBD1F8BD10B5204CE0790A2808D169
:1039600022490020E0710A464800FDF7F4FDFFF708
:1039700083FFE079401CE07110BD10B51549C86D9A
:10398000002802D00020C04300E00120124AC86590
:103990001168C0005368116018435060032210235F
:1039A00012020321022000F015FE012000F09AFE11
:1039B000002101220846FDF7AFFD0C490A464800E8
:1039C000FDF7C9FD0A4800F099FEFDF7C9FD00F0BA
:1039D0009BFE10BD08800020008000209881002000
:1039E00071380020BC800020884B0020DC050000DE
:1039F0005739002010B50223322236210B4800F03F
:103A0000F7FB0021018000F005FC10BD10B5362148
:103A100004233222880200F0EBFB322101800449AA
:103A20000988418000F0F6FB10BD000005D80000B9
:103A30007084002010B510460C4600F095FA01285D
:103A400009D1322201231146900200F0D1FB2178E6
:103A5000017000F0DFFB002010BD10B5487900F0C8
:103A600024F8002010BD00001121821F0C2A05D26D
:103A7000A24A41008A18203A1421515EA04A50807F
:103A800088B21080411C083A1160704710B51221AD
:103A90009C4800F07FFC9C489A498088888110BD32
:103AA00098484189491C418170479649CA88521CEF
:103AB000CA800A8910180881704770B5914CE08956
:103AC000401CE081E0898E494D88FF216843913197
:103AD00088421FDB12222146881800F0EDFA1221DD
:103AE000204600F057FC214612318889A081A08928
:103AF000C889122268430880A089101A4A88121ABD
:103B00004A808B88142242439B1A8B806080A2805B
:103B10000120087470BD10B5FF2191317B4800F081
:103B2000E9FA7A480021001F4170017010BDF0B51C
:103B3000764D964602462D1F68782E1D07018C464D
:103B4000BC19E17B002902D00020C043F0BD012157
:103B5000E173F2516146A17371466160A3810599D9
:103B6000A160411CC9B269701929EFD300216970A5
:103B7000F0BD192802D30020C043704763490001FB
:103B80004018C07B704770B5044661482C2380788C
:103B9000322201020520491D800200F029FB0500A8
:103BA00019D00420A880207BA871A0882881A27B3E
:103BB0006A8128460C30216800F07EFA284600F021
:103BC00029FBA07B00F084FD0020E073A268002A9E
:103BD00001D003CC904770BDF8B54C4C0146241F72
:103BE0002078251D00014019C07B002700281CD02B
:103BF00045488088012818DD461A14E02078000125
:103C00004019FFF7C0FF20787F1C401CC0B2761E11
:103C10002070192801D3002020700006000D4019E3
:103C2000C07B002801D0002EE8DC3846F8BD70B516
:103C3000354933488C8812210B1B3449304A091FFF
:103C400008388D78083A40681268002D01D0A01A13
:103C5000401C012800DA0120934201DD012200E02E
:103C600000228A70C0B2FFF7B7FF264A211A91815D
:103C700070BD70B52449244A8C8821491226083920
:103C8000096892880020331B1E4D92B28B4209DADC
:103C9000112C04DA1D4B1B1F9B78012B02D0701ACC
:103CA00002D004E0AA8170BD122900D00120C0B268
:103CB000FFF792FF211AA98170BDF8B5154C0027B6
:103CC0002078154E3D46012803D03168012909D0DE
:103CD00012E0FFF7CEFF0746022035602070FFF7A5
:103CE000ECFE09E0022807D1FFF7A1FF0746356087
:103CF0002078022800D125703846F8BD284B0020D6
:103D0000944B0020C89100201E0508003890002028
:103D100070840020289000202C900020024670B56E
:103D20004A40D30FDB0740002DD04A002AD0010EB5
:103D3000140E091900021202400A520A8418E50101
:103D400004465443000A120A2E045043A41942198F
:103D5000200CC543AA18120C01257F39521CAD0353
:103D600052191204240400D0521C104301D4400004
:103D7000491EC2B20C06C0092018401C4008802A07
:103D800002D003E0002070BD40084000002900DAA6
:103D90000020184370BD70B502464A40D50F400060
:103DA0004A00ED0740085208002814D0002A12D01B
:103DB000C40DD30D41020120C0055202490A520A26
:103DC000E41A091812187D34914201D3641C00E0F2
:103DD0004900002C01DA002070BD0023914201D37C
:103DE000891A0343400849000028F7D100290AD066
:103DF000914202D10121C90705E0914201D201217E
:103E000001E00121C943E005C018401900F058F84D
:103E100070BD420005D04200120E52428A4201DBC0
:103E200000207047C9050818704710B50022962376
:103E3000114600F04DF810BD410040020122400A39
:103E4000D205090E80187F2901DA002070479629D3
:103E500003DC9622511AC840704796398840704753
:103E6000C20FD207400040080BD0C10D0723DB0171
:103E7000C91840020905400A1143C208400711430E
:103E80007047002001467047CB0FDB07490010B593
:103E9000490802460A4307D00A0D07240903E40132
:103EA000090B121B002A01DC002010BDC900440FC1
:103EB0000C43C100E018D205801800F001F810BDD5
:103EC000002904DA401C490001D140084000704735
:103ED00070B40024050C05D11024000402D100297F
:103EE00022D01124050E01D108340002050F01D1A2
:103EF000241D0001850F01D1A41C8000002801DBD6
:103F0000641C4000002908D020252E1B0D46F540DA
:103F1000A14000D00121294308431B1B0106DB1DE2
:103F2000000A002B02DA002070BC7047DB0518186D
:103F300080180029F8DA401C4900F5D170BC40080F
:103F400040007047064C0125064E05E02046E36818
:103F500007C82B4398471034B442F7D3FCF774FAE0
:103F6000404B0020704B002003B40148019001BD7C
:103F7000B326030003B40148019001BD2F220200C3
:103F800003B40148019001BD0B91020003B4014844
:103F9000019001BD3126030003B40148019001BD29
:103FA000551B020003B40148019001BD0F3B030003
:103FB00003B40148019001BDCF2B030003B40148B5
:103FC000019001BDCB2C030003B40148019001BD59
:103FD0000990020003B40148019001BDC12D030006
:103FE00003B40148019001BD0921030003B4014855
:103FF000019001BDC92D030003B40148019001BD2A
:104000002B69020003B40148019001BDEB310300AC
:1040100003B40148019001BD3D32030003B40148DF
:10402000019001BDD721030003B40148019001BDF7
:104030001F21020003B40148019001BD5D80020010
:1040400003B40148019001BDA73A030003B401483D
:10405000019001BD913B030003B40148019001BDF3
:104060002F2F030003B40148019001BD998F020076
:1040700003B40148019001BD938F020003B40148CD
:10408000019001BDCD8C020003B40148019001BD37
:10409000418F020003B40148019001BD276802006E
:1040A00003B40148019001BD3968020003B401481E
:1040B000019001BDB780020003B40148019001BD29
:1040C000213B030003B40148019001BDBF2202005F
:1040D00003B40148019001BDEB26030003B401487D
:1040E000019001BD3524030003B40148019001BDD6
:1040F000DD20030003B40148019001BD533B0300E0
:1041000003B40148019001BD9D20030003B40148A0
:10411000019001BD3350020003B40148019001BD7C
:104120005548020003B40148019001BD1F50020030
:1041300003B40148019001BDFD3D030003B40148F3
:10414000019001BDA528030003B40148019001BD01
:10415000D5AF020003B40148019001BDA1A5020042
:1041600003B40148019001BDE3A5020003B4014876
:10417000019001BD87A8020003B40148019001BD70
:10418000A7A9020003B40148019001BD93AA02004F
:1041900003B40148019001BD95AB020003B401488E
:1041A000019001BDF9AB020003B40148019001BDCB
:1041B00069AC020003B40148019001BD17AD0200D3
:1041C00003B40148019001BD77AD020003B401487A
:1041D000019001BDF1AD020003B40148019001BDA1
:1041E00085AE020003B40148019001BD11AF020089
:1041F00003B40148019001BDB123030003B4014899
:10420000019001BD49E5020003B40148019001BDE0
:10421000F9E3020003B40148019001BDE12303006A
:1042200003B40148019001BD4BCD020003B4014825
:10423000019001BD99D1020003B40148019001BD74
:10424000ABD0020003B40148019001BD69D0020067
:1042500003B40148019001BD77CF020003B40148C7
:10426000019001BD01CC020003B40148019001BDE1
:1042700029CC020003B40148019001BD15D202000F
:1042800003B40148019001BD8DD2020003B401487E
:10429000019001BD7F0C030003B40148019001BDF2
:1042A000AB0C030003B40148019001BD773B030050
:1042B00003B40148019001BD7920030003B4014813
:1042C000019001BD2129030003B40148019001BD03
:1042D000D990020003B40148019001BDC7680200F3
:1042E00003B40148019001BD0D2C030003B4014843
:1042F000019001BD4975020003B40148019001BD60
:104300001531030003B40148019001BD1B66020092
:1043100003B40148019001BD652C030003B40148BA
:10432000019001BDF793020003B40148019001BD63
:10433000DB2E030003B40148019001BD231D0200E0
:1043400003B40148019001BDC32C030003B401482C
:10435000019001BD3B66020003B40148019001BD1C
:104360002B66020003B40148019001BD038D0200D9
:1043700003B40148019001BDCF8F020003B401488E
:10438000019001BDE3E3020003B40148019001BDC7
:1043900095E3020003B40148019001BD533B0300C3
:1043A00003B40148019001BD8725030003B401480F
:1043B000019001BDA59B020003B40148019001BD1D
:1043C0000D24030003B40148019001BD6D9B020060
:1043D00003B40148019001BD459F020003B40148A8
:1043E000019001BD7B9C020003B40148019001BD16
:1043F000B7E3020003B40148019001BD2B9B02000A
:1044000003B40148019001BDF3AF020003B40148B9
:10441000019001BDD129030003B40148019001BD01
:104420002528030003B40148019001BDFD3A0300B3
:1044300003B40148019001BDD33A030003B401481D
:10444000019001BD213B030003B40148019001BD6F
:10445000453B030003B40148019001BD8D3D0300BD
:10446000FFB581B00C4605460A461F4601200021D3
:104470000A9EFFF7EFFF2A01FFF7ECFF0C4B1A68CB
:104480005B6810401940084300D100BE002E214651
:10449000284602D000F05AF801E000F079F83B46D7
:1044A00021462846039A00F095F805B0F0BD0000BB
:1044B0000080002010B5244CE389012213381146F6
:1044C00081408B43C80701D0002038E0880701D520
:1044D000012034E0480701D5022030E0080701D56B
:1044E00003202CE0C80601D5042028E0880601D569
:1044F000052024E0480601D5062020E0080601D565
:1045000007201CE0C80501D5082018E0880501D562
:10451000092014E0480501D50A2010E0080501D55E
:104520000B200CE0C80401D50C2008E0880401D55C
:104530000D2004E0480401D50E2000E00F20824049
:104540001343E38110BD00000014005070B5044611
:104550000D460A4601200021FFF77CFF2201FFF7EC
:1045600079FF094A1368526818401140084300D186
:1045700000BE032C00D1042404496001401801212D
:10458000A940418070BD0000008000200030005034
:1045900070B504460D460A4601200021FFF75AFF78
:1045A0002201FFF757FF094A13685268184011406B
:1045B000084300D100BE032C00D10424044960014B
:1045C00040180121A940818070BD000000800020BA
:1045D00000300050F8B5164604460D460A461F4600
:1045E00001200021FFF736FF2201FFF733FF094BBF
:1045F0001A685B6810401940084300D100BE032CC4
:1046000000D10424044960014018690008183E43A1
:10461000C680F8BD0080002000300050FEB50020AC
:10462000214E034628220021424392198C00491C46
:1046300013510A29FADB401C0428F3DBFCF7B8FA13
:1046400019480022083802604260154600241748C5
:104650006900475A0120A04080B207421CD02820A0
:1046600068438019A1004058411C19D0002810D07F
:10467000C1172246FFF7EEFE2A01FFF7EBFE0A4BB9
:10468000083B1A685B681043074A1943083A1060F0
:104690005160641C0A2CDDDB6D1C042DD6DBFEBDD5
:1046A0000095019400BEE3E708800020BA4700208F
:1046B00002E008C8121F08C1002AFAD170477047EB
:1046C000002001E001C1121F002AFBD17047000049
:1046D00003494A88521C4A808A881018888070478B
:1046E000C891002004490A680823C0079A43000FB4
:1046F00002430A607047000004000050014908604E
:1047000070470000249000200248016801221143F4
:10471000016070470034005004490A68C00752081D
:104720005200C00F02430A6070470000103400506E
:1047300004490A680423C0079A43400F02430A60F1
:10474000704700001034005004490A680223C00773
:104750009A43800F02430A607047000010340050F3
:10476000014948607047000060840020FFFF00009E
:104770007105002002FC00007D92020003FC000095
:1047800089920200DD050020351700202118002045
:10479000DF1800200D19002071160020D51600200A
:1047A000191B00200101000A04280A040203AA00C0
:1047B00055032A00A001FFFF2C01FF003F00FF036B
:1047C000FF010000704A0020884A0020319000203C
:1047D00003000100A0FF060000A1FF160000A2FFD9
:1047E000160000A3FF160000A4FF160000A5FF1688
:1047F0000000A6FF160000A7FF160000A8FF160085
:1048000000A9FF160000AAFF160000ABFF456E616D
:10481000626C652053747265616D446174612044FB
:1048200065766963650044617461000000280100D9
:1048300002000200D4470020032801000500050003
:10484000D6470020A1FF0900020000000000000080
:1048500002290902020000000000000001290100F5
:10486000180018000D48002003280100050005006D
:10487000DB470020A2FF0902140000000000000036
:1048800002290902020000000000000001290100C5
:10489000040004002648002003280100050005004C
:1048A000E0470020A3FF0902140000000000000000
:1048B0000229090202000000000000000129010095
:1048C000040004002648002003280100050005001C
:1048D000E5470020A4FF09021400000000000000CA
:1048E0000229090202000000000000000129010065
:1048F00004000400264800200328010005000500EC
:10490000EA470020A5FF0902140000000000000093
:104910000229090202000000000000000129010034
:1049200004000400264800200328010005000500BB
:10493000EF470020A6FF090214000000000000005D
:104940000229090202000000000000000129010004
:10495000040004002648002003280100050005008B
:10496000F4470020A7FF0902140000000000000027
:1049700002290902020000000000000001290100D4
:10498000040004002648002003280100050005005B
:10499000F9470020A8FF09021400000000000000F1
:1049A00002290902020000000000000001290100A4
:1049B000040004002648002003280100050005002B
:1049C000FE470020A9FF09021400000000000000BB
:1049D0000229090202000000000000000129010074
:1049E00004000400264800200328010005000500FB
:1049F00003480020AAFF0902140000000000000084
:104A00000229090202000000000000000129010043
:104A100004000400264800200328010005000500CA
:104A200008480020ABFF090214000000000000004D
:104A30000229090202000000000000000129010013
:104A4000040004002648002005D800003925002075
:104A500000D800008925002001D800004926002048
:104A600002D80000B32600200E3000006F2700207F
:104A7000484A002001000000504A002001000000C8
:104A8000584A002003000000000000000000000061
:104A900000000000204B0020A08400200600010040
:104AA00001340000352B002000340000592B002079
:104AB00000380000FB2B002001380000DB2B002019
:104AC000033800002D2C002000C80000392C0020E5
:104AD000103400005D2C002013380000112A002043
:104AE00015380000632A002017380000A52A00208E
:104AF000193800001D2B002001C80000832E002063
:104B000009C80000A52E00200BC80000EF2E0020D1
:104B100006D80000353A002007D800005B3A002094
:104B2000A04A0020100000000700080009000A0049
:104B30000A000C000D000D000F000F001000110006
:104B4000984B00200080002090080000C046002004
:104B5000984B002020900020CC010000C04600208F
:104B600068070800202A0800E0050000C046002071
:104B70006C4700200300000000000000704B002084
:104B8000A404080002000100030000000800000067
:084B900001000000070006000F
:040000052000044192
:00000001FF
