:020000042000DA
:1000000000980020A9040020B1040020C9040020A9
:1000100000000000000000000000000000000000E0
:10002000000000000000000000000000E1040020CB
:100030000000000000000000F9040020FB04002084
:1000400063200020053103000D310300E92000206A
:10005000F52000208D310300432100205521002090
:10006000FD040020DF12002095210020AD310300A7
:1000700057810200FD0400204B1B02004B1B0200B5
:100080004B1B0200FD0400204B1B0200A9120020A4
:10009000AD120020B1120020B5120020B9120020CC
:020000042000DA
:100160003200000085060020C7100020C5220020B4
:10017000000000000000000063800200BD8002005B
:10018000110F0020FB80020019810200358102005E
:100190005D810200352000206B060020E10E00206A
:1001A000F90E002000000000000000003F000000E9
:1001B000F48B002000040000740B080048010000CC
:1001C0006807080000040000C80C080020050000B3
:1001D000000000002000000048000000580000005F
:1001E0006800000004010000160100002801000062
:1001F0002E010000202A00008E2E000001000000C9
:100200008813000051110020E9600200FD930200F4
:10021000A315002019280300A5740200F11B00207B
:1002200003000000D5200200CD22002004000000C1
:10023000D74902000F490200831D020063910200AA
:10024000B7910200BF910200078202007182020092
:1002500078410020AD8302009384020041850200B2
:1002600015860200378602005F860200758602004E
:10027000F9870200258902005D8A0200D38C020002
:10028000098D02000F900200438D0200278E0200AC
:10029000F98E0200478F0200530E0020D58F020016
:1002A00049510200775102002F5202001000000055
:1002B00020030000803E000000000000000000005D
:020000042000DA
:1002C000504600030003983A6400F401B80B000C98
:1002D000B80B120030003000CD009A01120024004B
:1002E00030006400B0001800280012001200D0078F
:1002F0000000FFFF00000000000000000000000000
:100300001F000002444131343538302D30310000B7
:1003100000000000000000000000000000000000DD
:0403200000000000D9
:020000042000DA
:10034000FFFF010000C201000000000000000000EB
:100350000000F4010100011B0A071AFFD200021578
:10036000585CDE931B0142CC9A1325009BEDC65EC0
:1003700000000000C5000000000009FF00605257A7
:100380002D424C450000000000000000000000006D
:100390000000000000000000000044413134353806
:1003A00078000000000000000000000000000000D5
:1003B000000000000000000000000000000000003D
:1003C000000000000000000000000000000000002D
:1003D0000000000000000000010000CAEA80D00711
:0403E000064064323D
:020000042000DA
:100440000348854603F0A6FA00480047C72002008B
:100450000098002010B5114906200880FF2010499F
:10046000013008600F4988683E2290432E30886032
:100470000021052000070180028A0F231B021A4376
:1004800002820122D204032308461B038418216040
:10049000001D9842FADB62B610BD00000034005027
:1004A00080E100E0003300501548804715480047C0
:1004B00004207146084203D0EFF30980124908472F
:1004C000EFF308801049084704207146084203D022
:1004D000EFF309800D490847EFF308800B490847FF
:1004E00004207146084203D0EFF309800849084709
:1004F000EFF3088006490847FEE7FEE7FEE7000045
:1005000055040020410400201D0B0020150500208B
:10051000F305002005221207518A802319435182D6
:10052000114903680B6043684B6083688B60C36844
:10053000CB6003690B6143694B6183698B61C0695F
:10054000C8610A48836A0B62C36A4B62036B8B62A1
:10055000C36BCB62436B0B63806B4863908A8006EE
:1005600001D500BE7047FEE70018080000ED00E06E
:1005700070B505460C46103C3F2003F01DFA0028DC
:100580000FD0F9488068322806D9F8498D4201D049
:100590003C2801D9002070BD2146F34803F012FA2F
:1005A00006E0204603F014FA01213F2003F016FA7A
:1005B000012070BD10B5EE490B780A1D002005E042
:1005C000C400145D3F2C04D0401CC0B29842F7D345
:1005D00010BDC000E74A4018826010BD028908893A
:1005E000E549101A80B2884201D9012070470020E5
:1005F000704781692039897F082904D2DF4A890040
:10060000515881617047FEE7DE48DD490161DE49EE
:100610004161DE498161DE49C161DE490162DE4935
:100620004162DE498162DE49C162DE490163DE4921
:100630004163DE498163DE49C163DC49D1485C31F5
:1006400040300160DB494160DB498160DB49C160CA
:100650000120DB49C0060860DA49CA691202120AA1
:10066000CA61D74980390860704710B5D649002063
:10067000086000F0D9FB01208007016B49004908A0
:10068000016310BD1CB5D14901200870D049082074
:10069000088003F0A9F903F0E9FC00F0F2FACD4874
:1006A00001780170CC4801780170012003F0A2F9B3
:1006B000FF2701370D203946800103F0A1F901F031
:1006C000A9FB00F069FC00F0FFFA042000F044F9F7
:1006D000072000F041F90A2000F03EF9062000F062
:1006E0003BF90B2000F038F9012000F035F9022029
:1006F00000F032F9002000F02FF9B848006803F04C
:1007000085F9FFF757FFB80501683943016000F02C
:100710007DF9B3480068AA2805D1142000F042FBF7
:10072000142000F04DFB02F00FF8FFF79EFFA2200F
:1007300005210907C882AB484188E0229143A031D6
:100740004180012003F068F902F00DFF02F00CFE79
:10075000A54C0026606FF643002801D0304600E02B
:1007600001206067A14A40021168002553681160AA
:100770001843506003222B461202092102200095E3
:1007800003F096FB0921022003F008FC606E0028AC
:1007900001D0304600E00120944A606611684001B3
:1007A0005368116018435060032200231202052190
:1007B0000220009503F07CFB0521022003F0EEFBF4
:1007C000A06A002800D10126F017884A310C0004E5
:1007D000A66208431368310454681943204311602A
:1007E00050600020034603220146009012020120BF
:1007F00003F05EFB0021012003F0D0FB022605245C
:1008000024072089000621D501208007006B000401
:100810001CD403F007F9C00718D1042003F008F92D
:10082000054603F00BF9002D10D0002000906C4815
:100830000068AA2802D1142000F0C2FA04216846F8
:1008400003F002F9002801D000F011FB02F0BFFD17
:10085000674D287C002803D002F0EFFA00202874AE
:1008600002F053FF0028CCD172B601F0FBFA6946C2
:100870000871042806D002280CD003280AD00128C9
:1008800067D067E05B480078012802D00320087138
:1008900000E00E71208A0425284320825648C06952
:1008A0000128087914D903280FD103F0D3F80028C0
:1008B0000BD003F0D5F8002807D0032003F0D6F8BA
:1008C000002802D04D4806700BE06846067108E02B
:1008D0000328FAD103F0CAF80028F6D047490120CE
:1008E00008703848016929430161618A20229143D7
:1008F0006182218A31432182694609790229618A0C
:1009000020D0294361827F222388920180210B43DA
:10091000238000235B1CDBB20A2BFBD3638A1021EC
:100920000B436382364B521E5A61218880229143C9
:1009300021802C494A88BA434A8030BF0169A943C3
:10094000016107E029436182618A1022914361823B
:10095000EFE730BF62B654E7C106C90E01208840F8
:100960002849086070470000800408001034000027
:10097000040608004C450020307500005841002056
:10098000942703000084004062B600DF28A3020021
:10099000704701DF1CCA0200F8BD02DF40CB020035
:1009A000F5E703DF84D4020004DF89B0BC33020022
:1009B000F8BD05DFF8BD06DFEC0C030070BD07DFF6
:1009C00080E100E000ED00E08C0308002C840020B2
:1009D0000033005000000800202A08000490002086
:1009E0003884002020000050088000200080002073
:1009F000D691002054020800E0010020C40608003F
:100A00000080004080E200E0704700003E4801782E
:100A1000002902D08021417070473C4900200870B5
:100A20003B49C870704738480178002902D08121BD
:100A3000417070473549012008703549C8707047CA
:100A400031480178002902D08221417070472F4936
:100A5000022008702E490120C87070472A4881780A
:100A6000002904D0491E0906090E817017D1427869
:100A70000021002A04D09207920F0270417004E016
:100A80000278002A01D0521E02701206120E017066
:100A900005D0012A02D0022A01D1D1E7C3E770476D
:100AA00010B5194CA078401CA0702078002805D102
:100AB00002F0E2FF421CFFF7A9FF227010BD1249AD
:100AC0000120C870704710490020C87070470E4858
:100AD000C07870470020EFF31081012282F3108864
:100AE000052212071289120605D40A480289012339
:100AF0001A4302811846002900D0012181F3108891
:100B000070470548007870472D8400205402080083
:100B1000C606080000330050568400200522120744
:100B2000118A042319431182118A02231943118265
:100B30001189402319431181174B01211960174B6B
:100B400008211980518A802319435182144903686E
:100B50000B6143684B6183688B61C368CB61036938
:100B60000B6243694B6283698B62C069C8620D483E
:100B7000836A0B63C36A4B63036B8B63C36BCB6387
:100B8000436B074940310B60806B4860908A800658
:100B900001D500BE7047FEE780E200E00033005060
:100BA0004018080000ED00E070B5434800220169DC
:100BB000D243002901D0114600E00121CB170C0FD0
:100BC0001B0123430C0101613C490D684E682C4315
:100BD00033430C604B604369002B01D0144600E0A6
:100BE0000124E317E50E5B012B4344610D686401AA
:100BF0004E682C4333430C604B60C368002B01D01C
:100C0000144600E00124E317650FDB002B43C460AA
:100C10000D68E4004E682C4333430C604B608368DE
:100C2000002B00D101228260D017930F800018435F
:100C30000C6892004B68224318430A60486070BDFC
:100C400038B5002403252D0202232A46042120461C
:100C5000009403F02DF90022012305211046009491
:100C600003F026F914232A4603210020009403F000
:100C70001FF90022132302211046009403F018F9F3
:100C800038BD10B505242407208A0221884320821C
:100C9000A08A0007FCD5A08880210843A0800321FA
:100CA000092002F0EFFEFFF7AFFCFFF7C9FF608AF3
:100CB00020210843608210BD0880002000800020B1
:100CC000A54900204860704770B5052109070889CB
:100CD00030229043088108898022104308810889C6
:100CE00080088000401C0881088908231843088177
:100CF0009A480488144304804C8A9C434C820D8992
:100D0000402425430D810D8A0426B5430D828D8A2A
:100D1000AD07FCD5904E002575600588012635434A
:100D200005804589AE058E4D068801D52E4300E02D
:100D3000AE43068005887826B543283505800588AA
:100D40000626354305804D8A1D434D820388934313
:100D500003800A89A2430A814089800503D57F491F
:100D60000520603188800120800701688215914349
:100D700001607C4801683F22520291434214891865
:100D80000160016802031143016070BD03217648D0
:100D900009028181082242800021491C9629FCD346
:100DA0008280704771494880088803221043088078
:100DB00008880422104308806749012008707047A2
:100DC0007CB5654C217800292DD068490A885207E6
:100DD000FCD4CA880092898801911104019A89186B
:100DE000009163494843009902F052FE00900020B0
:100DF00020700098A060009802F03FFD054629464B
:100E00005C4802F0F0FC0A2102F02BFD02F03CFDF0
:100E1000E060284602F04CFD574A584B02F03EFE77
:100E200002F05AFD20617CBD10B54B484168AA29EB
:100E300006D07C205249081880B202F035FE10BD61
:100E4000C06819210903884200D900BEFF20EB3099
:100E5000F0E770B5414C6088C006050F02F02AFE2D
:100E600061881E2291436A001143618070BD10B5F4
:100E700044490120C863C86B0028FCD101208007C9
:100E8000C16941480268914201D2002202601923DF
:100E90008A1ADB019A4212D3016002F011FE3B4A2A
:100EA0001188884201D9411A00E0091A89B218292B
:100EB00005D31080012002F009FE02F00DFE10BDE6
:100EC00008B5254989684843314902F0E1FD0090A1
:100ED00008BD08B52049C9684843800A009008BD8C
:100EE00008B51D494968002903D0FFF7E9FF0090C4
:100EF00008BD02F0F7FDFAE708B51749496800296F
:100F000003D0FFF7E6FF009008BD02F0F1FDFAE71D
:100F100008B5204901204A695206D20F13D04A6908
:100F20009206D20F0FD000220A610092FF225F3298
:100F3000009B5B1C00939342FAD34969C907C90F10
:100F400002D002F0DBFD002008BD40183721C000B0
:100F50000901401870470000348400202000005030
:100F60000010000000020040203000500016005029
:100F70000024F400002474497B14AE47E17A443F16
:100F800001120000C00000407C0408007804080042
:100F900040420F000010005030B58D4A8D49D005F9
:100FA000048880231C4304808B4C65892D0701D461
:100FB000521EFAD2894C01222260894C0A88228072
:100FC000884A4988118001889943018030BD0020FA
:100FD00070477047704770470020704701218907AC
:100FE000086B0722104308637047704710B57F49AC
:100FF0007D4808607E494C2008807D4B7D4A203B1F
:101000001A827E497C4848807E487D4901807C491F
:1010100019314180222141818121890001827A494F
:1010200041827A4901837849113141837549784871
:101030002031888041217748090181807649C1802B
:10104000754C1034C48101824182891C8182611FE8
:10105000C182FF2146310183704941837049592083
:1010600008806F486F4C20300480432444806E4CCD
:101070004C82D5218180FF21D33101816B4941818F
:101080006B4981816C496B48088059486B496038CD
:101090004180C18810242143C18062490A390181FD
:1010A000534C6749403C61805A82082141814D4838
:1010B0005B490088403908824948624900880880B5
:1010C00010BD4008704700B58BB05F4A42625F4A6E
:1010D00082625F4A42615F4AC2625F4A02605F4A5F
:1010E00002625F4A42605F4AC261404A3E48002154
:1010F00010603E484038026B03129A430263426B11
:101100001F231B049A4303231B04D218426356482F
:101110000268C3129A430260026803139A43026092
:1011200068464154491CC9B22829FAD301462822ED
:101130004E4802F0E9FCFFF759FF02F0C1FC4C49B0
:101140000880002002F0C2FC02F0C6FC0BB000BD1B
:1011500010B5264A0F212448090210602348403860
:10116000426B1F231B049A4303231B04D2184263C0
:1011700000060268D208D20002600520000702893A
:1011800092089200521C0281028908231A430281AC
:10119000028A0A43028237480068002808D10E48B4
:1011A0004189890504D5018878229143083101805D
:1011B000FFF71CFF3048006B0078002804D02F4850
:1011C00000880B496039C880012002F025FC10BD61
:1011D000A0860100087F040020000050008000402D
:1011E000560208004A0308004C05540780000040DE
:1011F000602C00507F7F0000AC29000000220050CE
:1012000009090000002400502204000030D0000032
:10121000EE110000002500502E02000044200000C6
:10122000402800500D95000002420000E4DC000060
:101230001092000053780000002A00508B1000002C
:101240009DD5000000260050CF0F0020D30F0020B6
:10125000D90F0020DD0F0020D50F0020EB0F00205C
:10126000D70F0020C310002000020040200008001B
:10127000780408003884002020020020520408006E
:1012800010B5044602F03EFE0C49A000401880381C
:10129000406B002801D0804710BDE106C90E012037
:1012A00088400749086010BD1320E9E71420E7E7EC
:1012B0001520E5E71620E3E71720E1E7A8800020E6
:1012C00080E200E03B480078002802D00020C043C4
:1012D000704701203849400208600020704705200F
:1012E0000007018830229143018001888908890024
:1012F00001808088C0060BD530480121818001889B
:101300008022914301802B484068002800D000478C
:101310007047F0B505242407A58810263543A5801D
:10132000264C00252581D2B262802A46D700054688
:10133000FD40EEB255002D196E810E46FE40F6B20C
:101340006E82521C042AF1DBE28903252D0200047F
:10135000800FAA4300020243E281E08A0904890F58
:10136000A84309020843E0820121A180144A4802EF
:1013700010609A06920E80322280124B1A68FF2467
:101380002402A243440122431A600A4A13780B4301
:101390000949137080390860F0BD06480178490892
:1013A0004900017005480121818001888022914314
:1013B000018087E74884002080E100E000010050C0
:1013C00080E200E008E400E010B54F484178007882
:1013D00002F006FE10BD10B54B484178007802F0CF
:1013E000DDFD10BDF8B50E46154647490278079F4A
:1013F0000A7040781C464870FFF7EDFF0520000793
:1014000081880122D2021143818040480188490825
:10141000490001800188FF2281329143F20111438A
:101420000180018840229143AA0111430180018873
:1014300004229143A20011430180018802229143BA
:10144000069A5200114301800188012292039143C0
:10145000BA0311430180018818229143089AD200EF
:10146000114301800188012211430180F8BD274901
:101470000A88520852000A800A88FF2381339A435F
:10148000C00102430A800888012210430880704787
:1014900010B51E4801884908490001800520000751
:1014A00081880122D20291438180174841780078D7
:1014B00002F074FD10BD15480188490849000180FB
:1014C000704710B5114900230A88D205920F012AEE
:1014D00001D9040C8C80488008888004FCD5012048
:1014E000C880012A01D9888803044888C01810BD23
:1014F00010B50446FFF768FF2046FFF7E2FF0446F9
:10150000FFF769FF204610BD209000200012005018
:1015100070B5EFF31085012080F31088264802F0A3
:10152000F9FA0446002D1DD0012080F31088002C0C
:1015300023D020462038C08B204988421DD16189A4
:10154000208902F0EDFA05000ED021461031A38962
:1015500062892089A847002806D001280DD00228DA
:101560000BD105E00020E0E7204602F0DFFA04E0BE
:10157000114821460C3002F025FAEFF310840120C7
:1015800080F310880C480068002802D1012002F086
:10159000D3FA002C03D0012080F3108870BD002006
:1015A000FAE710B5BC21064802F0CCFA0549012043
:1015B00002F0CEFA10BD0000A80508003883000034
:1015C0000406080011150020F8B50D4606468100F6
:1015D0002B48EA884458521C20686B89018F294F98
:1015E00051430091014640314A89C989511A8AB252
:1015F000991A89B2B94214D29A4212D0294602F0FD
:10160000ADFA2D892049009802F042FA2818801C72
:101610004034E0823002401C80B2042102F0DEF946
:10162000F8BD2821304602F09FFAF8BDF8B505460E
:10163000870013480C46C059C9880068114E0246FD
:1016400040325389D2899A1A92B28B1A9BB2B34212
:1016500011D20B4E8A420ED002F08CFAF0590522BC
:101660005F30611C02F050FA2802401C80B2052154
:1016700002F0B4F9F8BD2821284602F075FAF8BD49
:101680004C030800FF7F00001027000070B51646CD
:101690000D46104602F090F9002869D0340A304611
:1016A00002F08AF9012812D0A87A1E2811D0294602
:1016B0000A310E2845D019DC801E030002F060FAC2
:1016C0000B255829582D58315839583D58000220BB
:1016D00070BD3146274802F059FA0021204602F039
:1016E0005BFA0221304602F079F941E018283CD03B
:1016F00006DC102819D012282BD0162838D130E05B
:10170000522822D0D22833D127E0204602F04AFACC
:101710002EE0204602F04CFA2AE0204602F04EFA73
:1017200026E0204602F050FA22E0204602F052FA6B
:101730001EE0204602F054FA1AE0204602F056FA63
:1017400016E0204602F058FA12E0204602F05AFA5B
:101750000EE0204602F05CFA0AE0204602F05EFA53
:1017600006E0204602F060FA02E0204602F062FA4B
:10177000002070BD01280000F3B581B001980C462F
:101780000102CA1D0E310223344802F059FA0470D6
:1017900001990546022732488E00002C06D0042C01
:1017A00016D0062C10D0072C3FD108E08159052215
:1017B0004968897C114069708059C77335E00846D3
:1017C00002F044FA687030E080590F21C1732CE0B8
:1017D000044680594068417C012902D1007E0128DD
:1017E0000FD0019802F038FA01210028A0590BD03F
:1017F0004268D07D00281CD001281AD004280DD0C2
:101800000FE0002068700DE04068C27D022A01D020
:10181000042A06D1007C02280BD102E0107C0228A9
:1018200007D06F70A1590320C873284602F01AFA36
:10183000FEBD6970F6E701460A780120042A01D945
:10184000002070474A78002A01D0012AF8D10A798D
:10185000082AF5D849790829F2D87047021C0000F7
:1018600028050800FFB589B00D460020694605909F
:1018700008720B98000A009002F0EEF907460B98E8
:1018800002F09AF800287DD00B982978000A84008D
:10189000764E01295ED0042904D0062943D00729B9
:1018A00063D120E0687800281BD0305910224068AE
:1018B000A91C02F029F9002F06D03159C87B032852
:1018C00007D0042808D050E03059C07B032803D04B
:1018D0004BE00B20C87348E00521009802F0C8F9DE
:1018E00043E00120B6E03059C07B0E283DD100987E
:1018F00002F0ACF9002103E02A18401C9170C0B23C
:101900001028F9D3688A69460883294606A8082260
:101910001431023002F0F8F806ABAA1C39460098E0
:1019200002F0ACF921E03059C07B0F281DD1AA1C70
:101930000A21009802F0A8F9002F04D03946009837
:1019400002F0A8F911E000231A463946009802F087
:10195000A7F90AE0012F08D10B9802F02DF8012811
:101960001CD0002801D0022005906846007A00288B
:1019700011D002AA0521009802F086F96846027A81
:10198000602000E007E00243684602720123394606
:10199000009802F085F905980DB0F0BD3059C07B74
:1019A0000228E2D16878002851D002210B9802F079
:1019B00015F8305907224068A91C173002F0A4F826
:1019C000E878002804D130594068407C01283AD09A
:1019D000009802F06BF9002837D0297A009802F0BD
:1019E0006BF9002833D0009802F06CF901210098BF
:1019F00002F06EF900282CD030594068417E002951
:101A00002BD0042929D0C17E027D1140C1763059E6
:101A10004068017F427D114001776846007A0028C6
:101A2000A7D13059022142680098173202F02CF9F0
:101A3000305941684031897B002913D00421009836
:101A4000FFF79AFE91E7022004E0062002E008205A
:101A500000E00320694608728BE70021C176305907
:101A60004068D9E70B21C1737FE700002805080013
:101A700070B50446007800250D2801D00A2200E048
:101A800002225A494B7A002B06D00D2804D0637CE1
:101A9000032B01D0432551E0097A8A4339D10D281F
:101AA00009D00E2802D00F2803D134E0607C03282F
:101AB00004D3402542E0607C0328FAD8A07C0428A7
:101AC000F7D20A2908D0607C012822D0022820D031
:101AD0006078032809D811E002F000F9012806D146
:101AE0006078032803D0002801D0492526E002F0C1
:101AF000F5F8002802D160780228F6D83020035D7E
:101B000022462046E17C3132143000F019F80546B7
:101B100014E0422512E002F0E1F8012807D16078D4
:101B2000052804D1A01D02F0DFF80028DDD002F066
:101B3000D5F8002802D160780228D6D8284670BD92
:101B4000FFB5002086B001216A4611700446059158
:101B50000021002C06D0089D099A1F239A4234D9EF
:101B6000402032E01C23069D079AF7E76B185E7849
:101B7000330002F005F81D26101010101010101080
:101B80001026262626262626262626262626101037
:101B9000101010102600059B03E06F46FF5CB74253
:101BA00004D05B1E5BB2002BF7DA03E0002B01DBF5
:101BB0004A2006E0059B6F46FE54059B5B1CDBB28A
:101BC00005936B5C491C5918C9B2914201D2002897
:101BD000CCD0914202D04A200AB0F0BD641CE4B2DD
:101BE000022CF9D20028B3D0F6E7000098050800CF
:101BF000F8B50C46944916460968012500270222CB
:101C00008B1C312873D012DC0C2874D008DC01281E
:101C100021D0022840D007284FD00B2869D156E0A8
:101C200010287FD0112876D01228F7D18DE001231B
:101C3000412871D008DC32286FD035286ED0362884
:101C40006DD04028EAD1B1E0422869D0432868D05D
:101C50004428E3D1CFE006227C497D4802F04AF8CF
:101C6000002808D006227A49304601F04DFF0620B0
:101C700020700020F8BD744801680878C00738D08B
:101C80002078062801D22770C2E00622983130461B
:101C900001F03AFF06200EE00A786B48920728D53B
:101CA00022783E2AEFD305464A7E5A31304601F06B
:101CB0002BFF2868407E2070A7E00878400718D5E1
:101CC00020780228DFD3887C3070587C78E00A784E
:101CD0005D4812070DD52278202AD4D30546CA7D47
:101CE0001A31304601F010FF2868C07DE3E735E087
:101CF00001E077E016E00A785348D20672D52278E0
:101D0000202AC0D305460A7E9831304601F0FCFEF9
:101D10002868007ECFE70EE054E028E034E03BE0A6
:101D200058E060E00878800670D520780428AAD3AF
:101D30000422091D23E00878400667D52078002892
:101D400066D0087D08E022705FE0087800065DD567
:101D5000207800285CD0487D3070F4E70888C00502
:101D600054D5207804288ED304220C3107E008884B
:101D700080054BD52078042885D3042208313046CD
:101D800001F0C2FE042096E7088840053ED5207881
:101D900000283DD0887D36E00888000536D52078BB
:101DA00002288FD3087C3070487C09E00888C00482
:101DB0002CD52078022885D38231087F3070487F67
:101DC0007070C0E70888800420D5207800281FD0D4
:101DD000A03117E00888400418D52078002817D0D3
:101DE000A1310FE012E0088800040FD52078002808
:101DF0000ED0A23106E00868C00307D5207800287D
:101E000006D0A33108783070237000252846F8BD2D
:101E10000425FBE770B50F480F49C40522888025CB
:101E20002A4322800D4A53891B0701D4401EFAD24F
:101E30000B4A012010600622054801F065FE20884B
:101E4000A843208070BD0000C0060800383E030093
:101E500050840020A0860100D47F040020000050A0
:101E600000800040F0B5514D85B0002668693746C6
:101E70000190FEF72CFE00214D4C002802D1207964
:101E8000022800D101914B4802684B48002A0FD12B
:101E90000278002A0DD0494A0123D363D36B002B6B
:101EA000FCD101229207D2691923DB019A427AD32D
:101EB000017001F025FF002875D0E0780126002888
:101EC00071D005200007808AC00701D004266AE08F
:101ED00001F0A8FD002866D12079002801D12869E9
:101EE0000190A17801A801F011FF00285BD0A17832
:101EF00001A801F0A9FD002855D001F00DFF002830
:101F000051D02C480068AA281DD097200721012510
:101F1000AD07EA6B920A92027F1C3A43EA63EA6BCE
:101F2000274B80021A400243EA63E86BC002C00AF2
:101F300049050843E8631F4804260068002807D0C5
:101F4000AA280ED01CE01F48FEF7CAFF0321DEE7D7
:101F500001986421C00201F09BFD401E0BE00121AD
:101F60000CE0019801F089FC1749096801F0FEFBBB
:101F700001F08AFC009021790029F0D101F0D2FE15
:101F80001248C06A8047286B0004C00FFBD010487D
:101F90000168C905FCD501F0CBFE052000070189C9
:101FA000802291430181304605B0F0BDA00200209F
:101FB000C6060800388400202C840020C0000040A1
:101FC000FF03E0FF01120000448400201C0708000A
:101FD00000020040F8B5054685488749047B8548DE
:101FE000C969006840300089884201D1002002E0C0
:101FF0000002401C80B27E4E000A203E870013E0A3
:102000002E20B16A604308188078C00609D001F01C
:1020100095FE7A496422C9598A56904201DA01F044
:1020200067FA641C6407640F28466D1EEDB2002831
:10203000E6D1F8BD10B50124A407A06BFEF75CFF44
:102040006F4901F025FD27221201511A00D101210B
:102050006C4A50601160206B08218843084320635C
:1020600010BD38B50020009067490820088005247D
:102070002407218830200143218021880322114335
:10208000218002E000BF00BF00BFA18A0906F9D588
:1020900061898908890061815C494A885208520037
:1020A0004A80218881432180208880088000208008
:1020B000A08A400701D5FEF7E4FD2089802108436E
:1020C0002081208A042188432082A08A8007FCD5B1
:1020D0004F4841050268D20202D40A69520702D46D
:1020E000009A002AF6D038BD10B501F02DFE01F09F
:1020F00031FE10BD10B501F033FE05200007418A06
:102100008022914341824048018949084900018168
:1021100001F02CFE012080078169042211438161B6
:1021200001F02AFE01F02EFE01F032FE394800686F
:10213000AA2802D11420FEF735FE37490020087086
:1021400010BD2D4810B54030007BFFF743FF01F074
:1021500025FE10BD10B501208007008A000718D5A4
:102160002E490120087023484E230068224A40303F
:102170000189126859432A4BC918515AC07C090A6F
:10218000081AC0B2FFF726FF01F00EFE2249032015
:10219000087010BDF8B52348008887061C48BF0E9C
:1021A000446815484030006B0078002802D138465A
:1021B00001F000FE1C4800890125C005164E0028CC
:1021C00007DA20060DD5E0070BD0384601F0F8FD00
:1021D00003E0200605D5E00703D010484560022043
:1021E0003070200402D5E00500D53570F8BD000040
:1021F000380308006C030800E00100204C030800CD
:1022000071020000400000400033005020000050E8
:1022100000020040388400205684002024900020D2
:102220004A00080000200050002C0050F8B5144669
:102230000F461E460546428801880623204601F0C7
:10224000FFFC0446287901F0C1FD208027716680DB
:10225000204601F007FDF8BD70B5144642880079AC
:102260000D4601020C310423204801F0E9FC002D49
:1022700001D0132100E012210170448001F0F2FC32
:1022800070BD0A880270120A42708A788270CA7819
:10229000C2700A7902714A79427189798171072085
:1022A00070474278037812021A430A8082788A7053
:1022B000C278CA7002790A7142794A71807988714C
:1022C0000720704710B500F013F810BD70B5064632
:1022D00015460C46362001F06FFB022805D1E2B20C
:1022E00036232946304601F077FD70BD0D300000E1
:1022F00010B5DC21634801F075FD6349362001F01B
:1023000077FD0021362001F069FB10BDFEB50026E7
:10231000684686805B4C009660896A46801C80B265
:1023200001A901F06BFD68468088022812D100984F
:1023300000280FD0007800280CD0E1880123362235
:10234000524801F07DFC009909782182067001F065
:1023500089FC07E0E6814D482682E1883622401C50
:1023600001F052FD0098002800D0007869460881ED
:10237000A6810A2702AA0221032001F04BFD0025B5
:102380006189A800C01D081880B202AA022101F0CC
:1023900041FDA0896D1C401CA081BD42F0DB684658
:1023A0000089002800D1A681FEBDFEB506460027A3
:1023B00068468780334C0097E08961898000C01DA2
:1023C00008183D4680B26A4601A901F017FD009841
:1023D000002817D00088002814D0E0896189800087
:1023E000801D081880B23246142101F013FDE089E7
:1023F00061898000801D081882B200212046FFF705
:102400002BFF0127E089401C80B2E0810A2800D31D
:10241000E5813846FEBDF8B51A4C0025608A0028D3
:102420002ED0052700261420684300191430FFF72A
:10243000BCFF002805D0608A6D1C401EADB26082D2
:102440007F1E761C608A0A2E04DA002817D0002F1F
:10245000E9DC01E0002812D000260DE014206843DA
:10246000011914207043001914311430142201F0A2
:102470004BFB6D1CADB2761C608AB042EEDC384678
:10248000F8BD0000BC8000209841002003D8000067
:102490003EB50020C043A74C0290E38008886081CD
:1024A000A54801900092204600232D2202A90A305F
:1024B00001F0B6FC05466089002101F0B7FC002D53
:1024C00003D10121362001F089FAE1880123362267
:1024D0009A4801F0B5FB057001F0C4FB00203EBD39
:1024E000F8B500256846934C058062802380E38020
:1024F0000E46488801F0A0FC207170882081E5819B
:10250000A5818F48258200798E49801F08706089D7
:102510006A46801C80B2022101F07CFC60896A4618
:10252000C01D80B2022101F075FC60896A460B3043
:1025300080B2022101F06EFC60896A460F3080B2E1
:10254000022101F067FC60896A46133080B20221E3
:1025500001F060FC60896A46173080B2022101F008
:1025600059FC60896A461B3080B2022101F052FC9E
:1025700060896A461F3080B2022101F04BFC6089FD
:102580006A46233080B2022101F044FC60890121B7
:1025900001F04CFC0221362001F020FA0020F8BDA9
:1025A00010B50121362001F019FA002010BD1CB52C
:1025B000002069468880044600905E486A4640894B
:1025C00001A9233080B201F019FC0098002803D043
:1025D0000088002800D0012420461CBDFFB583B030
:1025E00000276846534E0781308A002852D004984D
:1025F000544905785248002400790870009442E05C
:102600000197F18970898900C91D401880B201AA1B
:1026100002A901F0F3FB019800281CD000880028D3
:1026200019D0F08971898000801D08182146142274
:102630005143049A80B28A18921C142101F0EAFBDB
:10264000F08971898000801D081882B20021394804
:10265000FFF702FE02E00221684601813948641C4E
:1026600001786D1E491E0170F089A4B2401C80B231
:10267000ADB2F0810A2801D3F7810AE00098401C2E
:1026800000900A2805DA002D03D02E480078002893
:10269000B6D1002007B0F0BDF8B50C46164623466B
:1026A0008A880833498820881F4601F0CBFB214DDA
:1026B00021886889081A801E030001F061FA2A1631
:1026C0003838381E1938381E1938381E1938381E4F
:1026D0001938381E1938381E1938381E1938381E5E
:1026E0001938381E1938381E1938FFF70FFE21889F
:1026F000287A002201F0ACFB19E0104829881A233F
:102700003246401C01F09CFA0646287901F05EFB37
:10271000308020887080207A3071A0787071628853
:102720003946B01D01F0F0F9304601F09BFA002067
:10273000F8BD0000BC8000200042002006D8000048
:102740001E0508002C90002038B50124684604704E
:102750000C21494801F046FB474D6946EC702A1DA3
:10276000352001F07BFB002800D02C7100F016FA18
:102770004249322001F03CFB0021322001F02EF9C9
:1027800000F0B2F838BD10B500F0C5FA10BD10B5B4
:10279000394802238078322201020E31384801F094
:1027A0004FFA012101701321417001F05BFA10BD55
:1027B00010B5044630482C2380783222010230487C
:1027C0000E31801E01F03CFA0146203004720022D6
:1027D0004272084601F046FA10BD10B5502332226D
:1027E0000D21284801F02CFA044600F00BFA20468F
:1027F00001F038FA0221322001F0F0F810BD214832
:1028000010B5012332220D210B3801F019FA0221F3
:10281000017001F027FA10BD10B500F090FA10BD5C
:10282000194B10B59A4201D91A4602E0002A00D18C
:10283000012201F019FB10BDF8B5064611481546F6
:102840000F46252332220D21C01C01F0F9F9044660
:10285000012020772046062239461D3001F054F928
:102860002320065565822582204600F092FA2046F4
:1028700001F0F8F9F8BD00005884002064440020FD
:10288000043800000E3400003075000010B501F06F
:10289000F1FA254901F0F4FA2448081810BDF8B5FA
:1028A000234D0646A876002401F0E4FA2919641C99
:1028B000E4B20874082CF7D300241027381BB04268
:1028C00001DD002007E001F0D5FAC117090E091853
:1028D000090A0902401A2855641CE4B2102CEDD3F1
:1028E00001F0C8FA2883F8BD10B52421104801F082
:1028F00079FA00F054F910BD10B50E480223807823
:10290000322201020E310C4801F09AF90D210170BA
:10291000074920318978417001F0A4F90321322060
:1029200001F05CF810BD0000A0BB0D00A086010006
:1029300064840020588400201A38000010B508462E
:1029400009781C460B0001F01BF90805202020081F
:10295000181B1E2000F020FA17E04178012904D04E
:10296000002902D0022903D00FE000F016FA0CE093
:102970001146204600F01AFA07E000F00FFA04E0D2
:1029800000F00DFA01E000F00BFA002010BD10B5C8
:102990000878304C801E030001F0F2F8020214188F
:1029A0008878A070C0070AD02B492A4A4879203A73
:1029B000D07628480622891D001F01F0A5F800F0F6
:1029C000F0F903E0FFF7E3FE0020A070002010BD47
:1029D000F8B518460D4601461223204801F030F99B
:1029E0000446284600F0DEF90027002821D0194EC1
:1029F000B078C0071DD030460822A91C103801F05D
:102A000079F9002815D130462038018B2A88914267
:102A10000FD101212170807E60743146102220394F
:102A2000601C01F071F8B078FFF7C2FE00F0BDF94C
:102A300000E02770204601F015F92078002801D128
:102A4000FFF7A5FE0020F8BD10B500F0ADF900209D
:102A500010BD000084840020588400201838000035
:102A600010B5104600F0A8FF002809D1012332223A
:102A70000D21484801F0E4F80121017001F0F2F85D
:102A8000002010BD70B5087815460F282DD008DC41
:102A900001280DD002282CD003281CD00E2830D1BC
:102AA0001FE0102825D0112823D0122829D123E097
:102AB0004878002825D13748222332220D21801C56
:102AC00001F0BEF804460146284600F039F92046D8
:102AD00001F0C8F815E04878002812D100F03BF961
:102AE0000FE0487800F04EF90BE0487800F04BF921
:102AF00007E000F04DF904E04878442801D100F0E7
:102B00004AF9002070BD70B51C4610460D4600F015
:102B100053FF022805D12049200A8870284600F07A
:102B20003FF8002070BD70B5087815460C460A289D
:102B300010D1104600F040FF04280BD16078002827
:102B400002D000F01DF905E00521284600F046FFFF
:102B500000F017F9002070BD10B5104600F0BCF869
:102B6000002010BD10B510460C4600F025FF0128CE
:102B700008D12078002805D1FFF705FE002801D0F4
:102B800000F002F9002010BD10B5084600F002F96F
:102B9000002010BD023400005884002070477047A8
:102BA00070B50446FC488078FF2828D03221FB48C5
:102BB00000F0ECFF0521322000F010FFF748092358
:102BC00032223F21401F01F03BF8054601202870CA
:102BD0002078A870607A6870214606220A31E81CC5
:102BE00000F092FF284601F03DF8608800F064FC98
:102BF00000F034FCEA488078FFF7DAFD70BDFFF79B
:102C0000ECFD70BDF0B5044693B00E202070002599
:102C100065709620A081E0810720207401206074F7
:102C20001C20E074274622461F20203714323874B7
:102C30001646511E0B2001F011F9002805D02A4636
:102C4000E574D8A1304600F05FFF22463132511EB4
:102C50000C20119201F002F9002805D03D742A469B
:102C6000D2A1119800F050FFE07C1A21081A45B259
:102C7000002D2FDD3E206946087001AA022001F0D8
:102C8000EDF8002806D00D2268460270C8A101A800
:102C900001F0FCF86846007800281BD0A84200D25A
:102CA000054668460570E07C6D1C8555E27C204633
:102CB000092115301154E17C401C0B18684602783C
:102CC00001A9184600F020FF68460078E17C801CCE
:102CD0000818E07413B0F0BD10B50C4600F06CFE9F
:102CE000032803D0052801D0042813D10221322063
:102CF00000F074FEB24900200870A848092332226F
:102D00003F21C01E00F09CFF2178817000F0AAFFD7
:102D1000FFF763FD10BD70B50024AA490220C870FA
:102D20009D4DE878022807D2012801D100F08AFBE6
:102D3000E878401CE87000E00124204670BD704730
:102D4000032008700A2048700020488208754875E2
:102D50001720C882704710B50121322000F03EFED6
:102D6000FFF711FD002801D0FFF737FD8B48042342
:102D700032223F210A3800F063FF00F073FF10BDDC
:102D8000704770477047704710B5FFF726FD10BDBC
:102D9000704770477047704770477047704770477B
:102DA000704770470120704770477047704710B5F3
:102DB00018460C4601467948012332220B3800F0B0
:102DC0003FFF2178491C017000F04CFF002010BD2E
:102DD00010B5087801F030F801020E3102233222DA
:102DE000794800F02DFF012101701321417000F09E
:102DF00039FF002010BD70B50024724D26461435F1
:102E00001420604340190680801C2246122101F0E4
:102E100043F8641C202CF3DB70BD10B54878684C77
:102E2000012801D0002005E02078012801D0FFF71B
:102E3000E2FF01202070002010BD10B5322000F00C
:102E4000BBFD052814D155480E2332223F21401ED8
:102E500000F0F6FE0446002020704F480C22007857
:102E600060705A49A01C00F04FFE204600F0FAFEA8
:102E700010BDF7B50646012086B00004544A049000
:102E80000D460024506E611E002801D0084600E067
:102E900001204F4A50664F4A40011368576813603B
:102EA000384350604A48006F002801D0084600E0CF
:102EB0000120474B186713680002576813603843B6
:102EC00050604348406F002801D0084600E00120D0
:102ED0003F4B58671368400257681360384350608F
:102EE0003B48806E002801D0084600E00120384BA6
:102EF00098661368800157681360384350603448FF
:102F0000C06E002800D101213148C166C801116896
:102F1000002753681160184350600120032200907D
:102F2000082312020521022000F0C2FF032207231A
:102F3000120208210220009700F0BAFF0623DA01EE
:102F400009210220009700F0B3FF0523002206218B
:102F50000220009700F0ACFF012003220090002324
:102F600012020721022000F0A3FF0221684601732C
:102F70000521417301200023029000971A4619464B
:102F8000019703A8FEF72EFA0120721940040D4F95
:102F9000824221D3BE6028E0588400200DC8000082
:102FA00084840020070103180000000002FF0000D5
:102FB000444131343538302054454D504C000000E8
:102FC0008A8400209881002004380000D6910020D7
:102FD000088000200080002001200004A9198242FE
:102FE00005D8854203D22C46B96000200AE082420F
:102FF00005D3854203D2049CA019B86001E02C4699
:10300000B9600120387000251FE0FEF7E4F9FEF7F3
:10301000DBF90220FEF755FA2002000EFEF751FA06
:103020002004000EFEF74DFAE0B2FEF74AFA0898C7
:1030300008990078491C0891FEF743FAFEF7CBF98E
:103040007868641C401C6D1C7860B542DDD309B003
:10305000F0BDF7B5F449054616460024486E621ED9
:1030600084B0002801D0104600E00120EE494866F7
:10307000EE4940010B684F680B6038434860EA48EE
:10308000006F002801D0104600E00120E64B1867D1
:103090000B6800024F680B6038434860E248406F9D
:1030A000002801D0104600E00120DF4B58670B6874
:1030B00040024F680B6038434860DB48806E002850
:1030C00001D0104600E00120D74B98660B460968F6
:1030D00080015F68196038435860D348C06E00288B
:1030E00000D10122D048C266D001196800271A46D3
:1030F0005B68116018435060012003220090082390
:1031000012020521022000F0D3FE0322072312023F
:1031100008210220009700F0CBFE0623DA010921E6
:103120000220009700F0C4FE0523002206210220A1
:10313000009700F0BDFE0120032200900023120240
:103140000721022000F0B4FE022168460173052128
:10315000417301200023029000971A4619460197F7
:1031600003A8FEF73FF90598B1492A180120000489
:10317000824203D3059A824200D2CF60AC490978DB
:10318000002902D0AA48C7681EE0A949C9680F18DB
:103190001AE0FEF720F9FEF717F90320FEF791F980
:1031A0003802000EFEF78DF93804000EFEF789F99B
:1031B000F8B2FEF786F90020FEF783F93070761C2E
:1031C000FEF709F97F1C641CAC42E2D39848C16841
:1031D0004919C16007B0F0BDF0B585B0002492492F
:1031E0000494FF25486BF535621E002801D0134674
:1031F00000E00123D8175E0BC0048C4F30434B63B3
:103200003E68DB047F683343884E38433360706028
:103210000869002801D0134600E00123D8171E0FCB
:103220000001824F30430B613E681B017F683343CE
:103230007E4E384333607060C868002801D0104665
:1032400000E001207849430FC860C117C900194345
:10325000C3007648066847683343394303604160DA
:1032600071498968002900D101226F49930F8A6052
:10327000D117890019430368920046681A43314305
:10328000026041600127032208231202032138460D
:10329000009700F00DFE00260322072312020421EE
:1032A0003046009600F004FE0623DA0103210020D8
:1032B000009600F0FDFD0022052302211046009635
:1032C00000F0F6FD68460773032141730023009761
:1032D0001A46194603A802970196FEF783F8FEF7EF
:1032E00073F8544E002000BF401CC0B21428FAD31B
:1032F0000498FEF7E6F83055641CA4B2AC42F1D352
:10330000FEF769F84B480024001F4480FEF7C0F820
:10331000009703273F0200233A460321012000F0D3
:10332000C7FD00233A4604211846009400F0C0FD72
:1033300000233A4603211846009400F0B9FD00230B
:103340001A4602211846009400F0B2FD00203054C5
:10335000401C80B2A842FAD33548364A81682846D4
:10336000FFF787FD05B0F0BD10B52F49086D0028A7
:1033700002D00020C04300E001202C4A08651168FB
:10338000536811601843506000231A461946022002
:1033900000F048FE284800F0CDFE00230122194627
:1033A0001004FDF7B6FF10BD224910B50120091F1A
:1033B000487005200007808A400701D5FDF761FCB1
:1033C000FFF7D2FF10BD0188491C01807047F8B596
:1033D000FFF7EDF8002825D01648001F4178002996
:1033E00020D000254570FFF7F7FE114C01206070DA
:1033F000A570124E124F05E0A0781430C0B2A07034
:10340000C8280ED80096206979898000801D0A1886
:103410000848A1781B234018142100F0B0F80028B8
:10342000EADC6560F8BD0000088000200080002014
:10343000988100208E840020A9330020C73300200B
:10344000BC80002010B50223322236210B4800F048
:10345000F7FB0021018000F005FC10BD10B53621FE
:1034600004233222880200F0EBFB32210180044960
:103470000988418000F0F6FB10BD000005D800006F
:103480005884002010B510460C4600F095FA01282B
:1034900009D1322201231146900200F0D1FB21789C
:1034A000017000F0DFFB002010BD10B5487900F07E
:1034B00024F8002010BD00001121821F0C2A05D223
:1034C000A24A41008A18203A1421515EA04A508035
:1034D00088B21080411C083A1160704710B5122163
:1034E0009C4800F07FFC9C489A498088888110BDE8
:1034F00098484189491C418170479649CA88521CA5
:10350000CA800A8910180881704770B5914CE0890B
:10351000401CE081E0898E494D88FF21684391314C
:1035200088421FDB12222146881800F0EDFA122192
:10353000204600F057FC214612318889A081A089DD
:10354000C889122268430880A089101A4A88121A72
:103550004A808B88142242439B1A8B806080A28011
:103560000120087470BD10B5FF2191317B4800F037
:10357000E9FA7A480021001F4170017010BDF0B5D2
:10358000764D964602462D1F68782E1D07018C4603
:10359000BC19E17B002902D00020C043F0BD01210D
:1035A000E173F2516146A17371466160A38105998F
:1035B000A160411CC9B269701929EFD3002169705B
:1035C000F0BD192802D30020C043704763490001B1
:1035D0004018C07B704770B5044661482C23807842
:1035E000322201020520491D800200F029FB05005E
:1035F00019D00420A880207BA871A0882881A27BF4
:103600006A8128460C30216800F07EFA284600F0D6
:1036100029FBA07B00F084FD0020E073A268002A53
:1036200001D003CC904770BDF8B54C4C0146241F27
:103630002078251D00014019C07B002700281CD0E0
:1036400045488088012818DD461A14E020780001DA
:103650004019FFF7C0FF20787F1C401CC0B2761EC7
:103660002070192801D3002020700006000D401999
:10367000C07B002801D0002EE8DC3846F8BD70B5CC
:10368000354933488C8812210B1B3449304A091FB5
:1036900008388D78083A40681268002D01D0A01AC9
:1036A000401C012800DA0120934201DD012200E0E4
:1036B00000228A70C0B2FFF7B7FF264A211A918113
:1036C00070BD70B52449244A8C88214912260839D6
:1036D000096892880020331B1E4D92B28B4209DA92
:1036E000112C04DA1D4B1B1F9B78012B02D0701A82
:1036F00002D004E0AA8170BD122900D00120C0B21E
:10370000FFF792FF211AA98170BDF8B5154C00276B
:103710002078154E3D46012803D03168012909D093
:1037200012E0FFF7CEFF0746022035602070FFF75A
:10373000ECFE09E0022807D1FFF7A1FF074635603C
:103740002078022800D125703846F8BDFC440020BE
:1037500064450020C49100201E050800349000201C
:10376000588400202490002028900020024670B544
:103770004A40D30FDB0740002DD04A002AD0010E6B
:10378000140E091900021202400A520A8418E501B7
:1037900004465443000A120A2E045043A419421945
:1037A000200CC543AA18120C01257F39521CAD0309
:1037B00052191204240400D0521C104301D44000BA
:1037C000491EC2B20C06C0092018401C4008802ABD
:1037D00002D003E0002070BD40084000002900DA5C
:1037E0000020184370BD70B502464A40D50F400016
:1037F0004A00ED0740085208002814D0002A12D0D1
:10380000C40DD30D41020120C0055202490A520ADB
:10381000E41A091812187D34914201D3641C00E0A7
:103820004900002C01DA002070BD0023914201D331
:10383000891A0343400849000028F7D100290AD01B
:10384000914202D10121C90705E0914201D2012133
:1038500001E00121C943E005C018401900F058F803
:1038600070BD420005D04200120E52428A4201DB76
:1038700000207047C9050818704710B5002296232C
:10388000114600F04DF810BD410040020122400AEF
:10389000D205090E80187F2901DA00207047962989
:1038A00003DC9622511AC840704796398840704709
:1038B000C20FD207400040080BD0C10D0723DB0127
:1038C000C91840020905400A1143C20840071143C4
:1038D0007047002001467047CB0FDB07490010B549
:1038E000490802460A4307D00A0D07240903E401E8
:1038F000090B121B002A01DC002010BDC900440F77
:103900000C43C100E018D205801800F001F810BD8A
:10391000002904DA401C490001D1400840007047EA
:1039200070B40024050C05D11024000402D1002934
:1039300022D01124050E01D108340002050F01D157
:10394000241D0001850F01D1A41C8000002801DB8B
:10395000641C4000002908D020252E1B0D46F54090
:10396000A14000D00121294308431B1B0106DB1D98
:10397000000A002B02DA002070BC7047DB05181823
:1039800080180029F8DA401C4900F5D170BC4008C5
:1039900040007047064C0125064E05E02046E368CE
:1039A00007C82B4398471034B442F7D3FCF74CFDBB
:1039B000144500204445002003B40148019001BD96
:1039C000B326030003B40148019001BD2F22020079
:1039D00003B40148019001BD0B91020003B40148FA
:1039E000019001BD3126030003B40148019001BDDF
:1039F000551B020003B40148019001BD0F3B0300B9
:103A000003B40148019001BDCF2B030003B401486A
:103A1000019001BDCB2C030003B40148019001BD0E
:103A20000990020003B40148019001BDC12D0300BB
:103A300003B40148019001BD0921030003B401480A
:103A4000019001BDC92D030003B40148019001BDDF
:103A50002B69020003B40148019001BDEB31030062
:103A600003B40148019001BD3D32030003B4014895
:103A7000019001BDD721030003B40148019001BDAD
:103A80001F21020003B40148019001BD5D800200C6
:103A900003B40148019001BDA73A030003B40148F3
:103AA000019001BD913B030003B40148019001BDA9
:103AB0002F2F030003B40148019001BD998F02002C
:103AC00003B40148019001BD938F020003B4014883
:103AD000019001BDCD8C020003B40148019001BDED
:103AE000418F020003B40148019001BD2768020024
:103AF00003B40148019001BD3968020003B40148D4
:103B0000019001BDB780020003B40148019001BDDE
:103B1000213B030003B40148019001BDBF22020014
:103B200003B40148019001BDEB26030003B4014832
:103B3000019001BD3524030003B40148019001BD8B
:103B4000DD20030003B40148019001BD533B030095
:103B500003B40148019001BD9D20030003B4014856
:103B6000019001BD3350020003B40148019001BD32
:103B70005548020003B40148019001BD1F500200E6
:103B800003B40148019001BDFD3D030003B40148A9
:103B9000019001BDA528030003B40148019001BDB7
:103BA000D5AF020003B40148019001BDA1A50200F8
:103BB00003B40148019001BDE3A5020003B401482C
:103BC000019001BD87A8020003B40148019001BD26
:103BD000A7A9020003B40148019001BD93AA020005
:103BE00003B40148019001BD95AB020003B4014844
:103BF000019001BDF9AB020003B40148019001BD81
:103C000069AC020003B40148019001BD17AD020088
:103C100003B40148019001BD77AD020003B401482F
:103C2000019001BDF1AD020003B40148019001BD56
:103C300085AE020003B40148019001BD11AF02003E
:103C400003B40148019001BDB123030003B401484E
:103C5000019001BD49E5020003B40148019001BD96
:103C6000F9E3020003B40148019001BDE123030020
:103C700003B40148019001BD4BCD020003B40148DB
:103C8000019001BD99D1020003B40148019001BD2A
:103C9000ABD0020003B40148019001BD69D002001D
:103CA00003B40148019001BD77CF020003B401487D
:103CB000019001BD01CC020003B40148019001BD97
:103CC00029CC020003B40148019001BD15D20200C5
:103CD00003B40148019001BD8DD2020003B4014834
:103CE000019001BD7F0C030003B40148019001BDA8
:103CF000AB0C030003B40148019001BD773B030006
:103D000003B40148019001BD7920030003B40148C8
:103D1000019001BD2129030003B40148019001BDB8
:103D2000D990020003B40148019001BDC7680200A8
:103D300003B40148019001BD0D2C030003B40148F8
:103D4000019001BD4975020003B40148019001BD15
:103D50001531030003B40148019001BD1B66020048
:103D600003B40148019001BD652C030003B4014870
:103D7000019001BDF793020003B40148019001BD19
:103D8000DB2E030003B40148019001BD231D020096
:103D900003B40148019001BDC32C030003B40148E2
:103DA000019001BD3B66020003B40148019001BDD2
:103DB0002B66020003B40148019001BD038D02008F
:103DC00003B40148019001BDCF8F020003B4014844
:103DD000019001BDE3E3020003B40148019001BD7D
:103DE00095E3020003B40148019001BD533B030079
:103DF00003B40148019001BD8725030003B40148C5
:103E0000019001BDA59B020003B40148019001BDD2
:103E10000D24030003B40148019001BD6D9B020015
:103E200003B40148019001BD459F020003B401485D
:103E3000019001BD7B9C020003B40148019001BDCB
:103E4000B7E3020003B40148019001BD2B9B0200BF
:103E500003B40148019001BDF3AF020003B401486F
:103E6000019001BDD129030003B40148019001BDB7
:103E70002528030003B40148019001BDFD3A030069
:103E800003B40148019001BDD33A030003B40148D3
:103E9000019001BD213B030003B40148019001BD25
:103EA000453B030003B40148019001BD8D3D030073
:103EB000FFB581B00C4605460A461F460120002189
:103EC0000A9EFFF7EFFF2A01FFF7ECFF0C4B1A6881
:103ED0005B6810401940084300D100BE002E214607
:103EE000284602D000F05AF801E000F079F83B468D
:103EF00021462846039A00F095F805B0F0BD000071
:103F00000080002010B5244CE389012213381146AB
:103F100081408B43C80701D0002038E0880701D5D5
:103F2000012034E0480701D5022030E0080701D520
:103F300003202CE0C80601D5042028E0880601D51E
:103F4000052024E0480601D5062020E0080601D51A
:103F500007201CE0C80501D5082018E0880501D518
:103F6000092014E0480501D50A2010E0080501D514
:103F70000B200CE0C80401D50C2008E0880401D512
:103F80000D2004E0480401D50E2000E00F208240FF
:103F90001343E38110BD00000014005070B50446C7
:103FA0000D460A4601200021FFF77CFF2201FFF7A2
:103FB00079FF094A1368526818401140084300D13C
:103FC00000BE032C00D104240449600140180121E3
:103FD000A940418070BD00000080002000300050EA
:103FE00070B504460D460A4601200021FFF75AFF2E
:103FF0002201FFF757FF094A136852681840114021
:10400000084300D100BE032C00D104240449600100
:1040100040180121A940818070BD0000008000206F
:1040200000300050F8B5164604460D460A461F46B5
:1040300001200021FFF736FF2201FFF733FF094B74
:104040001A685B6810401940084300D100BE032C79
:1040500000D10424044960014018690008183E4357
:10406000C680F8BD0080002000300050FEB5002062
:10407000214E034628220021424392198C00491CFC
:1040800013510A29FADB401C0428F3DBFCF78CFDF2
:10409000194800220838026042601546002417487B
:1040A0006900475A0120A04080B207421CD0282056
:1040B00068438019A1004058411C19D0002810D035
:1040C000C1172246FFF7EEFE2A01FFF7EBFE0A4B6F
:1040D000083B1A685B681043074A1943083A1060A6
:1040E0005160641C0A2CDDDB6D1C042DD6DBFEBD8B
:1040F0000095019400BEE3E7088000208E41002077
:1041000002E008C8121F08C1002AFAD170477047A0
:10411000002001E001C1121F002AFBD170470000FE
:1041200003494A88521C4A808A8810188880704740
:10413000C491002001494860704700004884002075
:10414000FFFF00007105002002FC00007D920200CC
:1041500003FC000089920200DD0500208D1600207E
:10416000791700203718002065180020C915002095
:104170002D160020711A00200101000A04280A04EB
:104180000203AA0055032A00A001FFFF2C01FF0033
:104190003F00FF03FF010000444400205C44002076
:1041A0002D90002003000100A0FF060000A1FF16D3
:1041B0000000A2FF160000A3FF160000A4FF1600D7
:1041C00000A5FF160000A6FF160000A7FF160000BE
:1041D000A8FF160000A9FF160000AAFF160000ABFA
:1041E000FF456E61626C652053747265616D446158
:1041F0007461204465766963650044617461000000
:104200000028010002000200A8410020032801004C
:1042100005000500AA410020A1FF090002000000DE
:104220000000000002290902020000000000000056
:104230000129010018001800E141002003280100B5
:1042400005000500AF410020A2FF09021400000094
:104250000000000002290902020000000000000026
:104260000129010004000400FA4100200328010094
:1042700005000500B4410020A3FF0902140000005E
:1042800000000000022909020200000000000000F6
:104290000129010004000400FA4100200328010064
:1042A00005000500B9410020A4FF09021400000028
:1042B00000000000022909020200000000000000C6
:1042C0000129010004000400FA4100200328010034
:1042D00005000500BE410020A5FF090214000000F2
:1042E0000000000002290902020000000000000096
:1042F0000129010004000400FA4100200328010004
:1043000005000500C3410020A6FF090214000000BB
:104310000000000002290902020000000000000065
:104320000129010004000400FA41002003280100D3
:1043300005000500C8410020A7FF09021400000085
:104340000000000002290902020000000000000035
:104350000129010004000400FA41002003280100A3
:1043600005000500CD410020A8FF0902140000004F
:104370000000000002290902020000000000000005
:104380000129010004000400FA4100200328010073
:1043900005000500D2410020A9FF09021400000019
:1043A00000000000022909020200000000000000D5
:1043B0000129010004000400FA4100200328010043
:1043C00005000500D7410020AAFF090214000000E3
:1043D00000000000022909020200000000000000A5
:1043E0000129010004000400FA4100200328010013
:1043F00005000500DC410020ABFF090214000000AD
:104400000000000002290902020000000000000074
:104410000129010004000400FA41002005D8000031
:104420009124002000D80000E124002001D80000E1
:10443000A125002002D80000DD2500200E3000005C
:10444000992600201C440020010000002444002084
:10445000010000002C4400200300000000000000C8
:104460000000000000000000F444002088840020C8
:104470000600010001340000612A00200034000021
:10448000852A002000380000272B0020013800007A
:10449000072B002003380000592B002000C8000023
:1044A000652B002010340000892B002013380000F9
:1044B0003D290020153800008F2900201738000002
:1044C000D129002019380000492A002001C8000025
:1044D000AF2D002009C80000D12D00200BC800001E
:1044E0001B2E002006D800008534002007D80000CD
:1044F000AB340020744400201000000007000800C6
:1045000009000A000A000C000D000D000F000F004A
:10451000100011006845002000800020D004000039
:10452000104100206845002020900020C8010000B4
:104530001041002068070800202A0800E00500005C
:104540001041002040410020030000000000000056
:1045500044450020A40408000200010008000000F7
:08456000010000000700060045
:040000052000044192
:00000001FF
