:020000040000FA
:100800005372FFFF0600007A41414141FFFFFFFFA5
:10081000FFFFFFFFFFFFFFFFFFFFFFFFFFFFFFFFE8
:10082000000102030405060708090A0BFFFFFFFF8A
:10083000020C64021FF7FFFFFFFFFFFFFFFFFFFF38
:10084000FFFFFFFFFFFFFFFFFFFFFFFFFFFFFFFFB8
:10085000FFFFFFFFFFFFFFFFFFFFFF02278EFFFFEE
:10086000FFFFFF022779FFFFFFFFFFFFFFFFFFFFF3
:10087000FFFFFFFFFFFFFFFFFFFFFFFFFFFFFFFF88
:10088000FFFFFF02206AFFFFFFFFFFFFFFFFFFFFE9
:10089000FFFFFFFFFFFFFFFFFFFFFF02272BFFFF11
:1008A000FFFFFFFFFFFFFFFFFFFFFF022753FFFFD9
:1008B000FFFFFF021E6301FF0000B40000280028B4
:1008C00000283075A000A000A000A00000080008CB
:1008D000E001F000100010001000100010001000E7
:1008E00050005000500010001000D0070000000021
:1008F00000000F0001000500307507001000010026
:1009000081FF00000000FFB029CE29B629FF0202B6
:100910000208025000A0000000E803024382010028
:10092000002F82023B820100003A0D023F8201004B
:1009300000E702023B820100003B0D024182010000
:1009400000FD02023B820100003C0D0249820100D1
:1009500000FF02023B820100003D0D024D820800B3
:10096000000003023B820100003E0D025B82010099
:10097000003F0DFF0100FF2002438201000026829C
:10098000023B82010000A30D026182000000000012
:100990000237820300004D03B02FB02FB02FB02FCD
:1009A000B02FB02FB02FB02FB02FB02FB02FB02F4F
:1009B000B02F44325C323E32FF1264FFFFFF04016D
:1009C0000243820100002082023B82010000E50D0B
:1009D000026382010000E60D0237820300009707E0
:1009E000027382010000EA0DFFFF0A024382010048
:1009F000002382023B82010000160E025D8203008A
:100A00000001084445565F4E414D454D474D545FEA
:100A100042415469446FFF02020202020243820112
:100A200000002982023B82010000430E0253820132
:100A300000002681023B82010000440E0251820127
:100A400000000808023B82010000450E024F8201AF
:100A500000001C08023B82010000460E0275820164
:100A600000004581023B82010000470E024B8201DB
:100A70000000A18001E803053F100AD00700000F25
:100A80000F0F0F0F0E040969446F000000000000F3
:100A90000000000000000000000000020106031931
:100AA00000030302091802010603190003030209E7
:100AB0001807160918000000FC6A36000070364C52
:100AC000360A0243820100003282023B82010000AA
:100AD000ED0E021E8103000052091C024382010038
:100AE000002C82023B82010000060F1030800200C1
:100AF000006D090237820300006F0902398201008C
:100B000000F280023B82010000060F1040800200CC
:100B1000006E090237820300007509023982010064
:100B2000000C81FFFFFF0001307503020106000089
:100B300000000000000000000000000000000000B5
:100B400000000000000000000000FFFF0600800C15
:100B5000E8030ACC37D237D837DE37E437EA37F044
:100B600037FF01201A0A1E0002002C010A024382EC
:100B70000100001D82023B820100008F0F0269828A
:100B8000000000B50C023782030000C20C023B8259
:100B9000010000900F026B82030000C80C02378234
:100BA000030000D40C023B82010000910F026D8211
:100BB000030000920F026F82010000940F023B823B
:100BC000010000980F027182030000DA0CE5C7549F
:100BD000F84405F5C779012200000080FB120BCD17
:100BE000B90003020C4EE479217808B800028004B1
:100BF000F709D8FCE479297802B800028004F709E3
:100C0000D8FCE49002B5782F790B8002F0A3D8FCD1
:100C1000D9FA781C9008B67A01BA00028007E493EA
:100C2000A3F608DAF9900CE3AA82AB839008B778B0
:100C30001779048015E493A3AC82AD838A828B83F9
:100C4000F0A3AA82AB838C828D83D8E9D9E7758221
:100C5000597583D37407120C767582D875830B741B
:100C600000120C7675D00075813F751A80751B02D5
:100C7000759F00020BDDC09FF59FE473D09F22D0CB
:100C800083D082C09FE493C0E0740193C0E07402FB
:100C900093F59F22E066701008A3E066700A08A32F
:100CA000E066700408A3E06622C00AC3E096F50A75
:100CB00008A3E096420A08A3E096420A08A3E09639
:100CC000420AA2D265D033E50A7001D3D00A22C30A
:100CD000E7960809E7960809E7960809E79622C308
:100CE000E09608A3E09608A3E09608A3E09622C049
:100CF0000AC3E096F50A08A3E096420A08A3E09624
:100D0000420A08A3E096450A7001D3D00A220808D7
:100D100008E630E711121393120D26080808C6449E
:100D200080C618181822181818E9799EC608CAC66D
:100D300008CBC608CCC6C370207996CACBCC701934
:100D4000798ECBCC70137986CC700EF9802ACA3399
:100D5000CACB33CBCC33CC331930E7F2CCCBCA334C
:100D600050147004EA30E00DE4CA3ACACB3BCBCC55
:100D70003CCC500209C3E913C6CC182313C6CB18C8
:100D8000C6CA18C6F922120DD130F039120E1680DB
:100D900034120DD120F01430E72B74FFFCFBFA74F1
:100DA0007F8022E4FCFBFA7480801AB48008BC00C7
:100DB000F2BB00EF800F50EBF9E4C39AFAE49BFB1F
:100DC000E49CFCE499C6CC18C6CB18C6CA18C6F970
:100DD00022E4C9C608CAC608CBC6D3330308CCC6AA
:100DE0003392F0C3947F402E94184019C9B9070478
:100DF000CACBCC225025C309CA33CACB33CBCC33A0
:100E0000CC33D9F422F4600DC9CCC313CB13CBCAB5
:100E100013CAD9F6CC22E4FCFBFA2214FCFBFA221A
:100E2000E6C33318461846184622E7C33319471954
:100E300047194722181818E6084608700AE608C33A
:100E4000337005E633F4220822191919E709470916
:100E5000700AE709C3337005E733F4220922E60874
:100E60004608C3134608336002E633F422E7094715
:100E700009C3134709336002E733F42200120E5E00
:100E8000604F120E6D6012E7548066F6120E3470D9
:100E900011120E2A703B090909F4F618F618F61813
:100EA000F622120E497015120E2008080860EAE6B4
:100EB000447FF618768018E4F618F622120E2060A9
:100EC00016120E2A7012E4F608F608F608E65480A8
:100ED000F609090918181822EAC0E0EBC0E0ECC0D6
:100EE000E0EDC0E0E687F0A4FBACF008E687F0A4F4
:100EF0002CFCE435F0FA1809E687F0A42C4B6002CC
:100F00007401CA35F0FCE433FB09E687F0D2F7A49C
:100F10002CCB35F0FC1908E687F0A42BCC35F0FB80
:100F2000E433FD0819E687F0D2E7A42C4ACB35F06C
:100F3000CD3400FC09E687F0D2E7A42DCC35F0FDD6
:100F4000E433FA0918E687F0D2F7A42CCD35F0CABD
:100F50003400FC08E687F0D2E7D2F7A42ACC35F0BB
:100F60007A7E20E70B0ACB33CBCD33CDCC33CC33D9
:100F7000CB3350147004ED30E00ED2F1E4CD3DCD12
:100F8000CC3CCC3B5005DA05C2F1EB547FC63308AC
:100F9000E63392F0FBE73309E733C39A502D2B7009
:100FA000190C0D4C4D70151806E608C333700D2052
:100FB000F10AA2F013F6E418800B4024E4F630F0B6
:100FC00002768018F618F618F68024D33B145010D9
:100FD00074FFA2F013F6187680E418F618F6800F66
:100FE000A2F013F618E63303F618ECF618EDF6D077
:100FF000E0FDD0E0FCD0E0FBD0E0FA22120E6D6004
:1010000046120E5E603DE9687008F618F618F6188C
:10101000F622748067F7121030090909748067F7A7
:1010200022120E5E601D120E6D7005191919801ABC
:10103000120E34701F120E49C37003E6673319197C
:101040001940071818182208080874FFF618F6182F
:10105000F618F622120E496017120E2A702192F02D
:10106000120E207019501720F014080808090909F9
:10107000E7F61819E7F61819E7F61819E7F6221235
:101080000E2060E6E869701F0808E62480F608E490
:1010900036F618547FB47F0CE654806007F6E418E7
:1010A000F618F622181822E9C6CC08C6CD08C6CE16
:1010B00008C6CFC0E0E8C0E0EAC0E0EBC0E009E964
:1010C000F809E7FA09E7FBE6F918E6F8C3EC98ED4A
:1010D00099EE9AEBC2E7F5F0EFC2E795F0500E609B
:1010E0000CEBCFFBEACEFAE9CDF9E8CCF8EAA2E7BF
:1010F000D2E7FAEB33FB13F5F0EEA2E7D2E7FEEF0F
:1011000033FFC5F013A2E730E601B313C5F0C3C047
:10111000E0C0F07F00C39BFB605E9418600F401D31
:1011200014601AD0E023F9D0E0F80212028AF0E944
:10113000486003D2F0E4AFF0FAF9F8803BEB30E41A
:101140000D89F0EA6003D2F0E4AFF0F9CAF8EB30B1
:10115000E30D88F0EF6002D2F0AFF0E4CAC9F8EB1B
:1011600054076014FBC3EA13FAE913F9E813F8EF24
:10117000135002D2E0FFDBEDD0E0C0E030E739C32E
:10118000E49FFFF5F0EC98FC42F0ED99FD42F0EEA3
:101190009AFE42F0D0E0F9D0E0F8E5F0607AE92379
:1011A000F9EE20E742D8028067C3EF33FFEC33FC4F
:1011B000ED33FDEE33FE80EAEC28FCED39FDEE3A2E
:1011C000FED0E023F9D0E0F84002801BC3EE13FE0E
:1011D000ED13FDEC13FCEF135002D2E0FF08B80052
:1011E000067F7F74FF802EEF3350178CF020F002C3
:1011F00060100CBC000C0DBD00080EBE000408E819
:1012000060DFE933E813FFEE2313FE4F4D4C8008F7
:10121000E95480FFE4FEFDFCEE33EF33F47004FC90
:10122000FD7E80D0E0FBD0E0FAD0E0F8D0E0CFC681
:1012300018CEC618CDC618CCC6F922080808EAC0D0
:10124000E0EBC0E086F0E7A4FA180986F0E7A42AEC
:10125000FA180986F0E7A42AFA180986F0E7A42A02
:10126000FA1986F0E7A4FBE5F02AFA190886F0E7F8
:10127000A42BFBE5F03AFA190886F0E7A42BFBE56E
:10128000F03AFA18180986F0E7A4C5F02BFBE43A07
:10129000FA1908E7C5F0C6A426F6E5F03BFBE43AE8
:1012A000FA1886F0E7A4F6E5F00826F6E43B08F61F
:1012B000E43A08F6D0E0FBD0E0FA22E4CFC0E0E464
:1012C000CEC0E0E4CDC0E0E4CCC0E075F020C3E6E1
:1012D00033F608E633F608E633F608E633F6181870
:1012E00018EC33FCED33FDEE33FEEF33FFC3EC9728
:1012F00009ED9709EE9709EF97191919400FFFECBF
:1013000097FC09ED97FD09EE97FE191906D5F0BE79
:10131000ECF709EDF709EEF709EFF7191919D0E025
:10132000FCD0E0FDD0E0FED0E0FF221213961818AA
:10133000181212BB121382191919221213821919C9
:1013400019080808E618181820E7E01212BB121353
:101350009618181822090909E719191920E7DC0855
:101360000808E618181820E7030212BB1213961893
:1013700018181212BB121396181818121382191982
:101380001922E4C397F709E497F709E497F709E40A
:1013900097F722181818E4C396F608E496F608E4BE
:1013A00096F608E496F6226016080808C6C313C627
:1013B00018C613C618C613C618C613C6D5E0EA2247
:1013C0007009080808226016181818C6C333C60822
:1013D000C633C608C633C608C633C6D5E0EA22E619
:1013E00027F60809E637F60809E637F60809E6376A
:1013F000F622E026F608A3E036F608A3E036F60863
:10140000A3E036F622E026F008A3E036F008A3E0D9
:1014100036F008A3E036F022C3E697F60809E6970F
:10142000F60809E697F60809E697F622C3E0C6969D
:10143000F608A3E0C696F608A3E0C696F608A3E071
:10144000C696F622C3E096F008A3E096F008A3E063
:1014500096F008A3E096F022E657F60809E657F65C
:101460000809E657F60809E657F622E056F608A3FB
:10147000E056F608A3E056F608A3E056F622E0563A
:10148000F008A3E056F008A3E056F008A3E056F0F9
:1014900022E647F60809E647F60809E647F608098E
:1014A000E647F622E046F608A3E046F608A3E04643
:1014B000F608A3E046F622E0F608A3E0F608A3E06B
:1014C000F608A3E0F622E6F008A3E6F008A3E6F0AB
:1014D00008A3E6F022E0FAA3E0FBA3E0FCA3E0FD12
:1014E00022EAF0A3EBF0A3ECF0A3EDF022CAC0E0F7
:1014F000E6F0A308DAFAD0E0FA22CAC0E0E0A3C519
:1015000082CCC582C583CDC583F0A3C582CCC582FC
:10151000C583CDC583DAE6D0E0CA22C3E498F8E4F7
:1015200099F912155C8026C3E49AFAE49BFBE92042
:10153000E7E912155CE498F8E499F922C3E498F815
:10154000E499F912155CE498F8E499F9C3E49AFA7D
:10155000E49BFB22EB20E7CFE920E7E0B90010BBDA
:101560000008E88AF084F8AAF022E4FBC8FA22EB2B
:1015700070227B10C833C8C933C9335007C39AC31C
:10158000DBF280069A50012ADBEAC833F4C8C9337B
:10159000F4C9FA2275F008E4C833C8C933C933C99D
:1015A0009AC99B5004C92AC93BD5F0ECFBC833F457
:1015B000C8E4C9FA22600D08C6A2E713C618C6130C
:1015C000C6D5E0F322600C08C6C313C618C613C6FE
:1015D000D5E0F422700422600D18C6C333C608C6D5
:1015E00033C6D5E0F41822251A10AF08F51A4002C8
:1015F000151B8008F51A4002151BD2AF22C0D0255A
:101600001A10AF08F51A5002051B8008F51A50028F
:10161000051BD2AFD0D022251AF58210AF08F51ADB
:101620004002151B8008F51A4002151BD2AF851B1E
:101630008322251AF582E4351BF58322E473251AEB
:10164000C582C0E0E51B34FFC583C0E0E51AC39541
:101650008224F810AF0885831B85821A8008858351
:101660001B85821AD2AFCEF0A3E520F0A3780AE65C
:1016700008F0A3DEFAEFF0A3E58124FAF8E608F01B
:10168000A3E608F0A3E608F0A30808E608F0A3E63E
:1016900008F0A315811581D0E0FED0E0F815811582
:1016A000811581E8C0E0EEC0E022251AC582C0E0C5
:1016B000E51B34FFC583C0E0E51AC3958224F91009
:1016C000AF0885831B85821A800885831B85821A53
:1016D000D2AFCEF0A3E520F0A3780AE608F0A3DEAF
:1016E000FAEFF0A3E58124FBF8E608F0A3E608F0A2
:1016F000A30808E608F0A3E608F0A315811581D039
:10170000E0FED0E0F815811581E8C0E0EEC0E022EF
:10171000851B83851A82E0A3FEE0A3F520780AE00A
:10172000A3F608DFFAE0A3FFE0A3C0E0E0A3C0E077
:10173000E0A3C0E0E0A3C0E0E0A3C0E010AF0885F4
:10174000821A85831B800885821A85831BD2AFD0BD
:1017500083D082020C7C851B83851A82E0A3FEE085
:10176000A3F520780AE0A3F608DFFAE0A3FFE0A3E0
:10177000C0E0E0A3C0E0E0A3C0E0E0A3C0E010AFA1
:101780000885821A85831B800885821A85831BD26F
:10179000AFD083D082227404800674028002740168
:1017A000C0E0F404121617D0E01214ED2274048085
:1017B0000474028000CCC0E0EDC0E0E51AC39CCC0C
:1017C000AD1B50011D10AF068C1A8D1B80068C1AA4
:1017D0008D1BD2AF1214FAD0E0FDD0E0FC22D083F2
:1017E000D082E9C0E0E493A3C386F0C5F095F0F998
:1017F00008E493A386F0C5F095F0700BE493A3C3BF
:10180000994005E9048002A3E475F002A42582F55D
:1018100082E5F03583F583D0E0F9E493A3C0E0E4FA
:1018200093C0E022D083D082ECC0E0EDC0E0E4932E
:10183000A3FCE493A3FDED4C600D121870EC24FFA3
:10184000FCED34FFFD80EFE493A3FCE493A3FDEDF6
:101850004C600D1218AFEC24FFFCED34FFFD80EF5F
:10186000D0E0FDD0E0FCE493A3C0E0E493C0E0222C
:10187000C0E0C3E49396087401939618400FE49374
:1018800066700808740193661870007019A3A3C3EA
:10189000E49396087401939618A3A3400DD0E0D06A
:1018A000E0D0E0021860A3A3A3A3A3A3D0E022C0CA
:1018B000E0C0F088F0E4936670080874019366183D
:1018C0007000A8F0A3A3700BD0F0D0E0D0E0D0E07F
:1018D000021860A3A3D0F0D0E022FFFF74F5121627
:1018E000AAEAFEEBFFEE2434F8EF3400F9880A8907
:1018F0000BEE2435F582EF3400F583E0F8EE243763
:10190000F582EF3400F583E0F50CEC850CF0A4FCD7
:10191000AAF0850CF0EDA42AFDE82CF8E43DF97A54
:10192000257B0012155CEA850A82850B83F0F8742A
:101930000758F97401B900028004C333D9FCFAE8EE
:10194000131313541FF8EE28F8EF3400F9E8245D60
:10195000F582E93400F583E05A6008EE2434F5821C
:10196000EF802CEE2434F582EF3400F583E0C0E004
:10197000EE2436F582EF3400F583E0F5F0D0E08414
:10198000A8F0EE28F8EF3400F9E82438F582E934BD
:1019900000F583E0F97F0402175674F51216AAEADF
:1019A000FEEBFFEE2434F582EF3400F583E0C0E077
:1019B000EE2435F582EF3400F583D0E0F08E828F8F
:1019C00083A3A3A3A3A3A3A3C082C0838E828F8378
:1019D000A3A3A3A3A3E0F8A3E0F9D083D082E0C33C
:1019E00098F50AA3E099F50BEE247FF582EF340019
:1019F000F583E064017069EE2480F582EF3400F530
:101A000083E0F8A3E0F98E828F83A3A3A3A3A3A30B
:101A1000A3E0FCA3E0FD8E828F83A3A3A3A3A3E096
:101A2000FAA3E0FBC3EA9CEB9D5010C3EC98ED9940
:101A3000402EC3EA98EB995027800EC3EA98EB99A1
:101A40004007C3EC98ED9940177C107D05EEFAEF46
:101A5000FB122F0EEE247FF582EF3400F583E4F0C5
:101A6000EE2434F8EF3400F9E8FCE9FDEE2435F516
:101A700082EF3400F583E0F8EE2437F582EF34008E
:101A8000F583E0F50CE50A850CF0A4F50AAAF085CB
:101A90000CF0E50BA42AF50BE8250AF8E4350BF960
:101AA0007A257B0012155CEA8C828D83F0F874072E
:101AB00058F97401B900028004C333D9FCFAE81361
:101AC0001313541FF8EE28F8EF3400F9E8245DF5FD
:101AD00082E93400F583E05A6008EE2434F582EFA1
:101AE000802CEE2434F582EF3400F583E0C0E0EE84
:101AF0002436F582EF3400F583E0F5F0D0E084A8D9
:101B0000F0EE28F8EF3400F9E82438F582E93400E3
:101B1000F583E0F9122717021995C082C083851A50
:101B200082851B83E0F8A3E0F9C3EA9CEB9D50108B
:101B3000C3EC98ED99401BC3EA98EB995014800EC2
:101B4000C3EA98EB994007C3EC98ED9940047901FA
:101B500080027900D083D08222EAC39CFAEB9DFBFD
:101B60002274EF1216AA9003D6E064086005E064C0
:101B700007702A9061C8E06024900404E0F4601DBE
:101B8000E0F875F003A4C8AAF02AF9740628FE74D8
:101B90000439FF8E828F83A3A3A3E07003021C91FC
:101BA000906060E0C0E0EE2468F582EF3400F583D9
:101BB000D0E0F0750E79750F05750A00750B00E51C
:101BC000D914F50CE5D95403F510601774036510AA
:101BD000605CE50C6010EE2467F582EF3400F5835D
:101BE000E07003021C76900574E06401602AEE2424
:101BF00082F582EF3400F583E06004780480027897
:101C000000850C0AE50AC398FA95E0FB122DBE8AFE
:101C10000A8B0BEA450B70051231128074EE248298
:101C2000F582EF3400F583E070048A0E8B0FE50C2B
:101C30006012850E82850F83F50DE5D9F0A3150D91
:101C4000E50D70F6EE2482F582EF3400F583E06056
:101C50004474FC250CF50C780E12179AAC0CA910E4
:101C6000EEFAEFFB122FAA74021215FDE97026AAF4
:101C70000AAB0B1236F4793D8E828F83A3A3A3A304
:101C8000E0FA7B00122C92EEFAEFFB122F26122FB5
:101C9000BC79008074740365106056850C1275134E
:101CA00000781212179AAC0EAD0FAA0AAB0B122FC6
:101CB0008674021215FDEE2468F582EF3400F58378
:101CC000E064807004747F8001E0F50E780E1217D6
:101CD0009EE510F50E780E12179EA90CAC0AAD0BFE
:101CE000900404E0FA7B00122C5674021215FD8059
:101CF000139003D6E06408600BAC0EAD0FEEFAEF64
:101D0000FB12301612311E79017F0A02175674F544
:101D10001216AA74FC1215E7EAFEEBFF890AA2AFBD
:101D2000E433F50BC2AF806AEE2463F8EF3400F9B8
:101D30007A007B00A2AFE433F50CC2AF88828983BE
:101D4000E0FCA3E0FDEC4D603A88828983E0FAA3D1
:101D5000E0FB8A828B83E0FCA3E0FD88828983EC30
:101D6000F0A3EDF08A828B83E4F0A3F0888289836C
:101D7000E0FCA3E0FDEC4D700A88828983A3A3E414
:101D8000F0A3F0E50CA2E092AF1236F4900517E054
:101D900004F0EE2463F582EF3400F583E0F8A3E06D
:101DA000F9E849603DEE2463F582EF3400F583E005
:101DB0002402FAA3E03400FBEA2402F50CEB340021
:101DC000F50D780C12179A8A828B83E0FCA3E0F958
:101DD000EEFAEFFB122F4A74021215FDE9700302AE
:101DE0001D28900517E06063900518E0F89005172E
:101DF000E0C398500C7402650A7050900519E060B9
:101E00004A8E828F83A3A3A3A3E0851A82851B83B6
:101E1000F0A3E4F0900517E0F87402121632E8F02F
:101E2000A3E4F0900517E0F8900516E028F074029E
:101E3000121632AC82AD83851A82851B83AA82ABCF
:101E4000837901122C62900517E4F0E50BA2E09271
:101E5000AF74041215FD021995FFFFFF85218785D8
:101E600022C622C0E0C0D0E8C0E0E9C0E0EAC0E09D
:101E7000EBC0E0ECC0E0EDC0E0EEC0E0C00AC00B9B
:101E8000C00CC00DC082C083C0F0A2AFE433FEC25C
:101E9000AF759B00906182E0A2E05012E591A2E054
:101EA000500C7591FE740165217003121B61E0A254
:101EB000E55051E591A2E5504B7591DF9003D6E0D6
:101EC00064076005E064087023740165217035794A
:101ED00001900404E0FA75F003A4CAA8F028FB748A
:101EE000062AFA74043BFB121D0E8018E0640D7084
:101EF000139003F8E004F064287002E4F07A00E044
:101F0000F9123124906182E0A2E64003021FAAE5A3
:101F100091A2E64003021FAA7591BF9003D6E06428
:101F200005700812304C123058800312305275215F
:101F3000001230B2E99003D7F079001230A6122EC9
:101F4000787A017B009003D5E0F91233769078031C
:101F5000E064427055900578E014F0704DC2AF1205
:101F60001F6200782AD0E0F618D0E0F6E59F54070B
:101F70007005750BFF8003750B7FC4C0E07829E600
:101F8000F50A08E6550BF50B740B780A1215C5D047
:101F9000E0250AF8906270E0A2E740F8E8C33390C9
:101FA0006272F0906270E0D2E0F0906181E0A2E3B2
:101FB0005009E5E9A2E3500375E9F7A3E0A2E75071
:101FC00009E591A2E7500375917FEEA2E092AFD0B0
:101FD000F0D083D082D00DD00CD00BD00AD0E0FE50
:101FE000D0E0FDD0E0FCD0E0FBD0E0FAD0E0F9D0CA
:101FF000E0F8D0D0D0E032C0E0C0D0C082C0839042
:102000006183E0A2E05009E5BFA2E0500375BFFE86
:10201000E0A2E15009E5BFA2E1500375BFFDE0A2D7
:10202000E25009E5BFA2E2500375BFFBE0A2E35016
:1020300009E5BFA2E3500375BFF7E0A2E45009E54C
:10204000BFA2E4500375BFEFE0A2E55009E5BFA2CF
:10205000E5500375BFDFE0A2E65009E5BFA2E650F8
:102060000375BFBFD083D0828088C0E0C0D0E8C0F5
:10207000E0E9C0E0EAC0E0EBC0E0ECC0E0EDC0E0C9
:10208000C0F0E5A7A2E6500FE5A1A2E6500953A7CC
:10209000BF75A1BF1220CFE5A7A2E5500CE5A1A214
:1020A000E5500653A7DF75A1DFE5A7A2E15009E5DA
:1020B000A1A2E1500375A1FDE5A7A2E2500CE5A1A4
:1020C000A2E2500653A7FB75A1FBD0F0021FE074FB
:1020D000F81216AA7521019003D6E0640670151255
:1020E0002FDA8A828B83A3A3A3A3A3A3E0FAA3E09E
:1020F000FB12303AA2AFE433FED2AF9003DCE064CF
:102100000170187A207B009003D5E0F91234247A0C
:10211000207B009003D5E0F912337C906182E0D2FD
:10212000E6F0900575E0602185C62280169003DBFD
:10213000E064017008E5C654F84405F5C653BEFCDA
:10214000121E5C7401652160E4EEA2E092AF7F0193
:10215000021756FF8E238F24858228858327851AB0
:1021600082851B83E0CEA3E0CF852882852783EB81
:10217000C9EAC8EDCBECCA75F010C3E833C8E9333F
:10218000C9EA33CAEB33CBC3EA9EF526EB9FF525AC
:10219000B35004AB25AA26EC33CCED33CDD5F0DA21
:1021A000AE23AF242274E91216AA74F81215E7853B
:1021B0001A82851B83ECF0A3EDF08A0A8B0B900347
:1021C000D6E024F7C394055006750A0102233C1299
:1021D0002FDA8A0C8B0DAE0CAF0DEE4F700302237D
:1021E00039AC0AAD0B7402121632AA82AB831230DC
:1021F0006A8E828F83A3A3750EFF750FFF7510FF84
:10220000751100780E12146B74021216327512FFDB
:102210007513FF7514FF751500781212146B780E84
:102220007912120CCF502A780E7912121418750AEE
:1022300001750BC8750C00750D00780A790E120C2B
:10224000CF5052850E0A850F0B85100C85110D801D
:10225000507516017517C875180075190085120A92
:1022600085130B85140C85150D780A790E12141838
:102270007816790A120CCF401C750A00750B007590
:102280000C00750D01780A7912121418780A790E6B
:102290001213DF800C750A01750B00750C00750DAB
:1022A000007409780A1213C0750E19F50FF510F5B0
:1022B00011780A790E1212BB8E828F83A3A3A3A377
:1022C000A3A3E0F8A3E0F97AD07B0312155C880E93
:1022D000890FE4F510F511780A790E1213DF7406F0
:1022E000121632E0F8A3E0F97AD07B0312155CE80D
:1022F000FA8A0EE4F50F780A790E120CCF5007789F
:102300000A790E1214189003D6E06408600AE0649B
:10231000066005E06405702D750E0D780E790A12C1
:102320000CCF4021750EF4750FFF7510FF7511FF6E
:10233000780A790E1213DF800C750A00750B007590
:102340000C00750D00851A82851B83E0F8A3E0F56B
:10235000838882780A1214C674081215FD7F100251
:10236000175674F71216AA12307C900573E06401B8
:102370007010906245E4F0A3F053F4F343FE0C5365
:1023800090F3123028E5C654804449F5C6E59E54C2
:102390007F644970F8906185740FF0900571E0F4E6
:1023A0007002A3E0604E900572E0600814601B1498
:1023B000602E8040750A01750B00900571E0780A67
:1023C0001215D4E50AF45280802A750A01750B00B3
:1023D000900571E0780A1215D4E50AF45290801441
:1023E000750A01750B00900571E0780A1215D4E5A5
:1023F0000AF452A079007F0202175674F71216AA47
:10240000E9FEEAFF74016E700C7A807B009003D5C0
:10241000E0F91233769038D4E493F46008E493F949
:10242000122E6C800953C680E59E547F70FA1230DC
:102430002E900573E064017003122E90900571E0F8
:10244000F47002A3E0604B900572E0600814601A1B
:1024500014602C803D750A01750B00900571E078C1
:102460000A1215D4E50A42808028750A01750B000E
:10247000900571E0780A1215D4E50A429080137530
:102480000A01750B00900571E0780A1215D4E50A6F
:1024900042A012307C122FDA8A0A8B0BA80AA90BF1
:1024A000E8496015E5E170FCE82414F582E93400A0
:1024B000F583E0F46003E0F5E174016F700A7A01DE
:1024C0009003D5E0F91233F40223F674ED1216AA44
:1024D0008A0A8B0B8C0C8D0D7413121632780E1227
:1024E00014B7780A790E120CCF7512017513C875DE
:1024F00014007515005012780A790E12141878120B
:10250000790A120CCF50168010780E790A1214181E
:102510007812790E120CCF40047901800279007F85
:102520000C02175674ED1216AA8A0A8B0B8C0C8DAE
:102530000D7413121632780E1214B7780E790A122F
:102540000CCF4011780A790E121418AA0AAB0BAC02
:102550000CAD0D80227512007513007514007515F1
:10256000017812790E1214187812790A1213DFAA60
:1025700012AB13AC14AD1580A68A828B83750AFF4B
:10258000750BFF750CFF750D00780A12147E7F0421
:1025900002175674F51216AA8C828D83780A1214CB
:1025A000B78A828B83780A121444EA2404F8EB3445
:1025B00000F98C828D83A3A3A3A3E0FCA3E0FD8894
:1025C000828983C3E09CF0A3E09DF088828983C365
:1025D000E09420A3E0944E40268A828B83750AFF04
:1025E000750BFF750CFF750DFF780A1214058A82B2
:1025F0008B83A3A3A3A3E02420F0A3E0344EF00236
:10260000257974F51216AAE9FE90052BE0FAA3E0ED
:10261000FBEEC333F8E433F974C228F582748039D1
:10262000F583E02AF50AA3E03BF50B780A12179A26
:102630007A407B427C0F7D0012215474021215FDFA
:102640008A0A8B0B8C0C8D0D7410780A1213A7AAB2
:102650000AAB0B7F0402175674F11216AA8A0E8B6E
:102660000F8C108D11740F121632E0FAA3E0FB7478
:1026700011121632E0F50AA3E0F50B780A12179A48
:10268000EA2401F50AEB3400F50BE4F50CF50D78BE
:102690000E790A12123B750A71750B02780E790ACF
:1026A00012123BAA0EAB0FAC10AD111221547402E2
:1026B0001215FD8B0BEA450B60047A0180027A004B
:1026C000EC2AFCED3400FD7413121632E0F8A3E09E
:1026D000F9E8FEE9FFECF8EDF97A717B0212155C7E
:1026E000880A890B8E828F83780A1214C6ECF8ED63
:1026F000F97A717B0212155C8A0A8B0B7405780AD1
:102700001215D48E828F83A3A3A3A3E50AF0A3E5B9
:102710000BF07F08021756C082C083E9906000F07A
:10272000D083D08222C2AF02000022C0E0C0D0E835
:10273000C0E0E9C0E0E5A8F8D2AFE589758900C23C
:10274000C5E8A2E7A2E792AFD0E0F9D0E0F8D0D098
:10275000D0E032C0E0C0D0E8C0E0E9C0E0A2AFE421
:1027600033F8D2AFE58AA2E64002E58A758A0075A1
:102770008A00C2EBE8A2E080CDC0E0C0D0E8C0E0B3
:10278000E9C0E0E5A8D2AF758B00C2E880B4C0E034
:10279000C0D0E8C0E0E9C0E0E5A8D2AFC2C7751C70
:1027A00000A2E7A2E792AFD0E0F9D0E0F8D0D0D015
:1027B000E032120C7F59C507120C7F70C507120C4E
:1027C0007FA1C507120C7FDCC507120C7F06C60768
:1027D000120C7F30C607120C7F47C607120C7F5EB3
:1027E000C607120C7F75C607120C7F9EC607120C17
:1027F0007FB1C607120C7FC7C607120C7FDAC60767
:10280000120C7F01C707120C7FECC006120C7FF080
:10281000C106120C7F28C206120C7F4BC206120C96
:102820007F56C206120C7F79C206120C7F88C3063F
:10283000120C7F5DC406120C7FD8C406120C7F6098
:10284000C506120C7F9BC506120C7FD2C506120C62
:102850007F60C606120C7F39C706120C7F99C70627
:10286000120C7FA4C706120C7F23C806120C7F2609
:10287000C806120C7F29C806120C7FB8C806120CB5
:102880007FBBC806120C7FEBC806120C7F15C90669
:10289000120C7F03CA06120C7FB5CA06120C7F65A4
:1028A0009507120C7F8D9507120C7FBB9507120CB4
:1028B0007FF29507120C7F509607120C7F9B9607AC
:1028C000120C7FE69607120C7F269707120C7F6C7E
:1028D0009707120C7F9A9707120C7F579807120CD4
:1028E0007F619807120C7F6E9807120C7FA19807E2
:1028F000120C7F6D9907120C7F799907120C7F914A
:102900009907120C7F9B9907120C7F0FFF04120C82
:102910007F1DFF04120C7F35FF04120C7F4DFF0456
:10292000120C7F7BBC05120C7F27BD05120C7FA209
:10293000BD05120C7FC3BE05120C7FFFBE05120C35
:102940007FA8BF05120C7F8FC005120C7FF3C10555
:10295000120C7F4AC205120C7FCBC205120C7FBB42
:10296000C305120C7F08C405120C7F8EC405120C1F
:102970007FC0C405120C7FD4C605120C7F16C70594
:10298000120C7F34C705120C7FB7C705120C7F8B62
:10299000C805120C7F53C905120C7F85E206120C84
:1029A0007F58E306120C7F01E406120C7F54E40604
:1029B000120C7F04E506120C7F90E506120C7F7C5A
:1029C000E606120C7FABE606120C7FBEE706120C81
:1029D0007F06E806120C7FDBE806120C7F17E9067B
:1029E000120C7F33E906120C7F16D207120C7FAA55
:1029F000A607120C7FC0A607120C7FE6A607120CD2
:102A00007F02A807120C7F0CA807120C7F41A907B0
:102A1000120C7F39AA07120C7F008007120C7F303E
:102A20008107120C7FAA8107120C7FD68107120C36
:102A30007FE98107120C7F338207120C7FFA83072C
:102A4000120C7F20EF04120C7F8AEF04120C7FE936
:102A5000F004120C7FF9F004120C7F26F104120C22
:102A60007F7DF104120C7F26F204120C7F2DF304FB
:102A7000120C7FF7F304120C7F57F504120C7F9AA7
:102A8000F504120C7F3FF604120C7F8CF604120C36
:102A90007FB2F604120C7FC0F804120C7FC5F80454
:102AA000120C7FCAFA04120C7F17FB04120C7F8AE7
:102AB000FB04120C7FBDFB04120C7F5FFC04120CA4
:102AC0007F08FD04120C7F40FD04120C7F43FD04BF
:102AD000120C7F8BFD04120C7FCBFD04120C7F22A5
:102AE000FE04120C7FABB307120C7FC3B307120CAA
:102AF0007F0BB407120C7F21B407120C7F68B40758
:102B0000120C7F7CB507120C7F09B607120C7F549C
:102B1000B607120C7F00A804120C7F0CA804120C3C
:102B20007F47A804120C7F8CA804120C7F4CA904C8
:102B3000120C7FD2A904120C7F37AA04120C7F63F7
:102B4000AA04120C7F9CAA04120C7FDAAC04120CAB
:102B50007FBEAE04120C7FA4B004120C7FE7B10458
:102B6000120C7F35B404120C7F47B504120C7F920F
:102B7000B604120C7FA2B704120C7FBFB704120C6C
:102B80007FFAB704120C7F1CB804120C7F7FB804C4
:102B9000120C7F40BD04120C7FD5BD04120C7F26A1
:102BA000BE04120C7F4DBE04120C7F9FBE04120C9B
:102BB0007FBDBE04120C7F17BF04120C7F16C00429
:102BC000120C7F9AC004120C7F338B07120C7F3DCE
:102BD0008B07120C7F808B07120C7F9B8B07120CCC
:102BE0007F2B8C07120C7F538C07120C7F908C0765
:102BF000120C7FC78C07120C7FF08C07120C7F65BC
:102C00008D07120C7F7A8D07120C7F8F8D07120CA7
:102C10007FC08D07120C7FD48D07120C7FF98D07B2
:102C2000120C7F338E07120C7F5F8E07120C7F8D84
:102C30008E07120C7FD88E07120C7F378F07120C6D
:102C40007FB68F07120C7FFF8F07120C7F2990072A
:102C5000120C7F549007120C7F56CE07120C7FEB9C
:102C6000A806120C7F19A906120C7F67AA06120C7F
:102C70007F47AB06120C7F66AB06120C7FE3AB06F8
:102C8000120C7F26AC06120C7F7CAD06120C7F3D29
:102C9000AE06120C7FC4B006120C7F65B106120C92
:102CA0007F5BB206120C7F58B306120C7FB2B406DB
:102CB000120C7F3DB506120C7FD0CB07120C7F396A
:102CC000CC07120C7F8DCC07120C7FB4CC07120CF2
:102CD0007FE5CC07120C7F229A07120C7F8F9A0790
:102CE000120C7FD69A07120C7FEE9B07120C7FEA1C
:102CF0009C07120C7FCD9D07120C7F3DF605120C30
:102D00007F7FF605120C7F51F705120C7F2AF8051C
:102D1000120C7F24F905120C7F06FA05120C7F6F46
:102D2000FA05120C7F25FB05120C7F99FB05120C8E
:102D30007F05FC05120C7F2EFC05120C7FA8FC05FC
:102D4000120C7F41FD05120C7FA6FD05120C7FBB06
:102D5000FD05120C7F01FE05120C7F1AFE05120CF8
:102D60007F7FFE05120C7F82FE05120C7FD4AD071B
:102D7000120C7FFCAD07120C7F3AAE07120C7FF8E5
:102D8000AE07120C7F5FAF07120C7F7BAF07120CF0
:102D90007FA3AF07120C7FD3AF07120C7FE2AF0700
:102DA000120C7F5FB007120C7F85B007120C7F9A60
:102DB000AB05120C7F78AD05120C7FAAAF05120C83
:102DC0007FE6AF05120C7F13B005120C7FFDB00536
:102DD000120C7F48B105120C7F93B105120C7FA530
:102DE000B105120C7FE5B105120C7F1AB205120C69
:102DF0007F68B205120C7F97B205120C7FBAB2053C
:102E0000120C7F07B305120C7F8CB305120C7FA642
:102E1000B505120C7FE5B705120C7F26B805120C1C
:102E20007FC8B905120C7F09BA05120C7F7CBA0560
:102E3000120C7FC8BA05120C7F76BB05120C7F51AD
:102E4000BC05120C7FD69B06120C7FD49C06120C7C
:102E50007F6DA306120C7F8EA506120C7F59A70664
:102E6000120C7FC1A806120C7F01C104120C7FB0A6
:102E7000C104120C7FDDC104120C7F23C204120CAA
:102E80007F59C304120C7FB6C304120C7FE4C30441
:102E9000120C7F7AC504120C7FF4C504120C7F0F4C
:102EA000C604120C7F8AC604120C7FE4C704120CFD
:102EB0007F44C904120C7F4ACA04120C7FABCB04B6
:102EC000120C7FC4CB04120C7F22CC04120C7F1096
:102ED000CD04120C7F43CD04120C7FB3CD04120C31
:102EE0007F2DCE04120C7F77CE04120C7F41CF04CD
:102EF000120C7F16D004120C7FF5D004120C7F80C8
:102F0000D104120C7FEED104120C7F62D204120C99
:102F10007F8DD204120C7F4CD304120C7FB1D404E9
:102F2000120C7FCED404120C7FEDD404120C7FDE81
:102F3000D504120C7F03D604120C7F2DD604120C7C
:102F40007FA8D604120C7F02D704120C7F6BD80422
:102F5000120C7F19D904120C7F5AD904120C7F026B
:102F60008E06120C7F508E06120C7F5C8E06120CA1
:102F70007F3A8F06120C7F6B8F06120C7F9C8F0698
:102F8000120C7F1C9006120C7F549006120C7FA628
:102F90009006120C7FE39006120C7F009306120C31
:102FA0007F269506120C7F119706120C7FFB980660
:102FB000120C7FF13F00120C7F879705120C7FB730
:102FC0009705120C7F909E05120C7F15A005120C20
:102FD0007F12A605120C7FFAA605120C7F37A705F3
:102FE000120C7F5AA705120C7F8BA705120C7F9439
:102FF000A705120C7F9EA705120C7F8CA805120C4A
:103000007F82A905120C7F788205120C7F778605D6
:10301000120C7F7D8605120C7FB88D05120C7FD1B6
:103020009205120C7FDCA207120C7F72A307120C10
:103030007F88A307120C7FFEA307120C7F72A407E0
:10304000120C7FB0A407120C7F24A507120C7F9DE1
:10305000A507120C7FA6A507120C7FB2A507120CBC
:103060007FC7A507120C7F05A607120C7F1BA607BA
:10307000120C7F7AA607120C7F8F9E07120C7F9C82
:103080009E07120C7FB69E07120C7FF59E07120C4E
:103090007F339F07120C7F989F07120C7FAD9F070D
:1030A000120C7FB89F07120C7FC59F07120C7FDCA4
:1030B0009F07120C7FEA9F07120C7FF59F07120CE7
:1030C0007F01A007120C7F10A007120C7F1BA00726
:1030D000120C7F3EA007120C7FE5A007120C7FF5B3
:1030E000A007120C7F0FA107120C7F2CA107120C56
:1030F0007F48A107120C7F6DA107120C7F78A107F2
:10310000120C7F8DA107120C7FA1A107120C7F0268
:10311000A207120C7F08A207120C7F0EA207120C46
:103120007F14A207120C7F2CA207120C7F5FA2074C
:10313000120C7F13E805120C7F97E805120C7F46EE
:10314000E905120C7FA5EA05120C7FC6EC05120CEE
:103150007FB2ED05120C7FE7ED05120C7F09EE053D
:10316000120C7FB8EE05120C7FB0F005120C7FD95F
:10317000F005120C7F6BF105120C7F9DF105120C0E
:103180007FAAF105120C7F01F205120C7F27F205D0
:10319000120C7F94F405120C7F97F505120C7FEF4B
:1031A000F505120C7F6CCB05120C7F76CC05120C4A
:1031B0007F5DCD05120C7F67CD05120C7F89CD0593
:1031C000120C7F95CD05120C7F2ECF05120C7F5D62
:1031D000CF05120C7F79D005120C7FD2D005120CCE
:1031E0007F38D205120C7F17D305120C7F73D305DD
:1031F000120C7FE0D305120C7F1BD405120C7F5AF2
:10320000D405120C7F13D705120C7F2DD705120C95
:103210007FB9D705120C7FC7D705120C7F20D805C0
:10322000120C7F2ED805120C7FA1D805120C7F0539
:10323000D905120C7F4FD905120C7FBEB506120CB2
:103240007FE0B506120C7F06B806120C7F1BBB068A
:10325000120C7F33BC06120C7FE6BC06120C7FC832
:10326000BD06120C7F13C707120C7F38C707120C5C
:103270007FAAC707120C7F0BDB06120C7F14DB063C
:10328000120C7F1DDB06120C7FF4DB06120C7FA5EF
:10329000DD06120C7FDBDD06120C7F15DE06120C3C
:1032A0007F4BDE06120C7F85DE06120C7FB9DE0630
:1032B000120C7FE5DE06120C7F2EDF06120C7F68F3
:1032C000DF06120C7FB1DF06120C7F09E006120C3C
:1032D0007F3EE006120C7F99E006120C7FD3E006D9
:1032E000120C7F24E106120C7F5AE106120C7F9427
:1032F000E106120C7FC2E106120C7FE5E106120C1A
:103300007F30D007120C7F5CD007120C7FB7D0073C
:10331000120C7FC1D007120C7FD1D007120C7FADE9
:103320008507120C7FB78507120C7FF58507120CF5
:103330007F3E8607120C7F788607120C7FD28607A5
:10334000120C7FF38607120C7FFC8607120C7F4954
:103350008707120C7F728707120C7F7C8707120C7D
:103360007FE88707120C7F7A8807120C7FC48807D2
:10337000120C7FFA8807120C7F868907120C7FC710
:103380008907120C7FFE8907120C7F108A07120C26
:103390007F2F8A07120C7F388A07120C7F058B0754
:1033A000120C7F7C9007120C7F7B9107120C7F869A
:1033B0009107120C7FA69107120C7FB79107120C90
:1033C0007FC09107120C7FD39307120C7FF29307F3
:1033D000120C7F68C307120C7F9EC307120C7FD4A8
:1033E000C307120C7F1FC507120C7F84D107120C74
:1033F0007F9AD107120C7FA4D107120C7FEED10760
:10340000120C7F46FB06120C7F5BFB06120C7F0B37
:10341000FC06120C7F4BFC06120C7F64FC06120C9F
:103420007F9FFC06120C7FECFC06120C7F1EFD0633
:10343000120C7F60FD06120C7F61FF06120C7FFAF2
:10344000D207120C7F5BD407120C7F6DD407120CCD
:103450007F2BCD07120C7F30CD07120C7F48CD0794
:10346000120C7F63CD07120C7F8ECD07120C7FC428
:10347000CD07120C7F11CE07120C7F50B907120C2A
:103480007FB0B907120C7F8BBA07120C7F2CBB07D9
:10349000120C7F43BB07120C7FCABB07120C7FE7DD
:1034A000BB07120C7FCDB007120C7FF5B007120CD2
:1034B0007F2BB107120C7FD1B107120C7F22B2070C
:1034C000120C7F5FB307120C7FA6FE05120C7FCB98
:1034D000FE05120C7FA1FF05120C7FD8EF06120C1F
:1034E0007F8DF106120C7F37F206120C7F18F4065E
:1034F000120C7F71F406120C7F4FF506120C7F0E32
:10350000BC07120C7F2ABC07120C7FF4BC07120CFC
:103510007FB3D307120C7F8AD904120C7FEFDB0430
:10352000120C7F90DD04120C7F44DE04120C7FD756
:10353000DE04120C7F5CDF04120C7F81DF04120CAE
:103540007FD7E204120C7F5DE304120C7F90E40449
:10355000120C7FCAE404120C7FFFE404120C7FBF3C
:10356000E604120C7F1CE704120C7F65E704120CC2
:103570007FD0E704120C7F41E804120C7F73E8044B
:10358000120C7F8BE804120C7FD4E904120C7FE448
:10359000E904120C7FFFEA04120C7F21EB04120CE9
:1035A0007F57EB04120C7F0BED04120C7F98ED0497
:1035B000120C7FD7ED04120C7FFBEE04120C7F6F10
:1035C000CF07120C7F80CF07120C7F25D007120C7B
:1035D0007FBAD407120C7FC5D407120C7FCAD40758
:1035E000120C7FD6D407120C7FDBD007120C7FEBB6
:1035F000D007120C7FF7D007120C7F7ED107120C78
:103600007F5ACA07120C7FDFCA07120C7FF0CA0765
:10361000120C7F18CB07120C7FB0CB07120C7FF86F
:103620003F00120C7F7EB607120C7FA6B807120C63
:103630007F07B907120C7F4DB907120C7F00800677
:10364000120C7F318006120C7F568006120C7F6EA2
:103650008006120C7F1F8106120C7FEA8306120C73
:103660007FBE8606120C7FE78606120C7FFA86065E
:10367000120C7FF98806120C7F6A8906120C7FD71C
:103680008A06120C7FFA8A06120C7F3D8B06120CFA
:103690007F5B8B06120C7F768B06120C7F8F8B065E
:1036A000120C7FA78B06120C7F9EBE07120C7FCCDC
:1036B000BE07120C7F3FC007120C7FD83800120CD7
:1036C0007F1A3900120C7F353900120C7F163A0030
:1036D000120C7F043B00120C7F673D00120C7FD957
:1036E0003D00120C7FC13E00120C7FAD3F00120C5A
:1036F0007FB8C807120C7F0AC907120C7F94C9074C
:10370000120C7FFBC907120C7F23C107120C7F4DDF
:10371000C107120C7F1BC207120C7FF6C207120CE6
:103720007F26CB06120C7FEDCB06120C7F24CC0635
:10373000120C7F4ECC06120C7FAECC06120C7F040E
:10374000CD06120C7F69CD06120C7F01CE06120C3D
:103750007F10CF06120C7FA7D006120C7F34D10643
:10376000120C7F9BD106120C7FB2D106120C7FCCBB
:10377000D206120C7F0AD306120C7FD8D905120C80
:103780007F59DD05120C7FE1DE05120C7F31DF056C
:10379000120C7F48DF05120C7F6ADF05120C7FE8F0
:1037A000DF05120C7F73E105120C7F6DE205120C30
:1037B0007F92E605120C7F6BE705120C7F43AA0788
:1037C000120C7F94AA07120C7F34AB07120C7F0FE8
:1037D000AC07120C7F29AC07120C7F3EAC07120C11
:1037E0007F41AC07120C7F44AC07120C7F84AC07FE
:1037F000120C7FA7AC07120C7FBEAC07120C7FEB3C
:10380000AC07120C7F10AD07120C7F93AD07120CA2
:103810007FC3AD07120C7F68D306120C7F7AD306E4
:10382000120C7F8CD406120C7F37D506120C7F0148
:10383000D706120C7F0FD906120C7F9AD207120CF2
:103840007FE6FF04120C7FA8E906120C7FD7E90679
:10385000120C7F7CEC06120C7F1DEE06120C7F080A
:10386000EF06120C7F9EEF06120C7FA9EF06120CDA
:103870007FC0EF06120C7F93F506120C7FE5F5066C
:10388000120C7F5BF606120C7F00F706120C7FCB42
:10389000F806120C7F7FFA06120C7FCAFA06120C89
:1038A0007FDFFA06120C7FE9FA06120C7FF3FA06A4
:1038B000120C7F21FB06120C7F2EFB06120C7F09D7
:1038C000D407120C7FD3FF06120C7F9CD407FFFF96
:1038D000FFFFFFFFFFFFFFFF74F612163E7C6F7DB8
:1038E000097AFF7BFF122BA27C757D097AFF7BFF93
:1038F000122BA27AE87B36122D70750A51750B8156
:10390000780A12179A7C097D007A077B0F122B2404
:1039100074021215FD7F02021710C082C083740268
:10392000121632123D6188828983E4F07901D083D6
:10393000D082020C7C74F012163EEAFEEBFF890C7A
:103940007412121632E0F50EA3E0F50F8C828D830F
:10395000A385820A85830BE0FAA3E0FB741012169C
:1039600032E0F510A3E0F5118C828D83E0640270E3
:103970003E8A828B83E0F50AA3E0F9A80A74026804
:1039800070037429696003023A0F750A01750B0010
:10399000780A12179A780E12179A781012179AA9A5
:1039A0000CEEFAEFFB122BB474061215FD80627553
:1039B0000E10750F00780E12179A7C307D8012332E
:1039C0003474021215FDE9601A7902122C32790062
:1039D0001237F612363AAC10AD11EEFAEFFB123692
:1039E000CA802E780E12179A7C407D80850A8285C7
:1039F0000B83E0FAA3E0FB12333474021215FDE9E5
:103A0000600DAC10AD11EEFAEFFB1236D0800279EA
:103A10000A7F0802171074F612163E74E41215E7B6
:103A2000EAFEEBFF8C828D83E0FAA3E0F9EAF874FA
:103A300002121632E8F0A3E9F08C828D83123D4F1A
:103A4000E0F9EAF87404121632E8F0A3E9F0750A16
:103A500004750B00780A12179AEC2404FCED34006C
:103A6000FD7408121632AA82AB831233227402123A
:103A700015FD750A0E780A12179A7410121632ACD8
:103A800082AD837A027B0079011235FE7402121531
:103A9000FD7404121632E0F50AA3E0F50B74027807
:103AA0000A1215C5900F4FE50AF0A3E50BF074025A
:103AB000121632E0A2E092F07410121632E0A2E088
:103AC00020F001B34027900F4FC3E09481A3E0940E
:103AD0001E501A900F4F123D5B601290097BE4F06C
:103AE000A3F0FCFDEEFAEFFB1236D68010740E1236
:103AF0001632AC82AD83EEFAEFFB1236DC7900743D
:103B00001C02391274EE12163E74EE1215E78A0E7C
:103B10008B0F8C0A8D0B8C828D83E0FAA3E0F9EA7F
:103B20002400F8751000496003023BB08C828D833D
:103B3000A3A3A3A3A3A3E0FE8C828D83A3A3A3A32B
:103B4000A3A3123D4FA3A3A3A3A3A3E0F9EAF512F5
:103B5000E439F513740278121215C585120C851319
:103B60000D75120EF513781212179A74061216328A
:103B7000AC82AD837A027B0079011235FE740212A9
:103B800015FD90097B123D5B7021900F4FE0650C95
:103B90007004A3E0650D7013EEA2E092F0740612BB
:103BA0001632E0A2E020F001B350117903023D4546
:103BB00090097BE0687003A3E069706290097BE084
:103BC000F50CA3E0F50D7402780C1215D4E50C2465
:103BD00000FEE50D3410FF90097BE02401F0A3E026
:103BE0003400F0EEF8EF5401F9E849700E8F0D74CF
:103BF00009780C1215C5A90C123616750C04750D32
:103C000000780C12179AE50A2402FCE50B3400FD3B
:103C1000EEFAEFFB12361074021215FD80037510D8
:103C20000190097B123D61900F4FE0687003A3E0A3
:103C3000696003023D2E750A04750B00780A12179D
:103C40009A7402121632AC82AD837A007B00790836
:103C50001235FE74021215FD851A82851B83E0F46D
:103C60007003A3E0F47003023D43851A82851B8331
:103C7000123D5B7003023D437402121632E0F47091
:103C800003A3E0F470541236E27402121632EAF022
:103C9000A3EBF0851A82851B8374FFF0A3F0750AED
:103CA00001780A12179A7402121632AC82AD837A26
:103CB000007B1012361074021215FD750A04780A82
:103CC00012179A7402121632AC82AD837A007B000E
:103CD00079081235FE74021215FD851A82851B8340
:103CE000123D617402121632E0687003A3E069703D
:103CF0005290818DC082851A82851B83AC82AD83F0
:103D0000758381D08274041214FA123604750A0184
:103D1000780A12179A7402121632AC82AD837A00B6
:103D20007B0212361074021215FDC2AF80FEE51040
:103D3000A2E0500F90097BE0FCA3E0FDAA0EAB0FC0
:103D40001236D6790074121215FD7F0A021710A3DD
:103D5000A3E0FA8C828D83A3A3A322123D61E849DC
:103D600022E0F8A3E0F92274F412163E74E9121569
:103D7000E7EAFEEBFF8C0A8D0B7C757D09122BA800
:103D8000EAA2E0504A750C6E750D09780C12179A6C
:103D90007C097D007A077B0F122B3074021215FD0F
:103DA000123EA81216327402F004121632E50AF01E
:103DB000E50BF50A7404121632E50AF07900851A4B
:103DC00082851B83AC82AD83EEFAEFFB122A8274EC
:103DD000171215FD7F0402171074F412163E74E9D1
:103DE0001215E7EAFEEBFF8C0A8D0B7C6F7D091242
:103DF0002BA8EAA2E04003023E99750C6D750D09EF
:103E0000780C12179A7C097D007A077B0F122B30F1
:103E100074021215FD123EA81216327408F0E50A5B
:103E20002402123E9CC0E07403121632D0E0F088E7
:103E3000828983A3E0C0E07404121632D0E0F0E57A
:103E40000A2404123E9CC0E07405121632D0E0F041
:103E500088828983A3E0C0E07406121632D0E0F0B5
:103E6000750C04750D00780C12179AE50A2406FCEF
:103E7000E50B3400FD7409121632AA82AB831233AB
:103E80002274021215FD7900851A82851B83AC828B
:103E9000AD83EEFAEFFB122A82023DCFF8E50B3438
:103EA00000F988828983E0228A828B83A3A3A3A35B
:103EB000123D61851A82851B83E8F0A3E9F0740244
:103EC0002274F112163E74FC1215E7900F4FE0F5C4
:103ED0000AA3E0F50B7407780A1215C5E50AF50D7B
:103EE000900F4F750B007407780A1215D4E0C39534
:103EF0000AF50EA3E0950BF50F7404780E1215D495
:103F0000850E0A850F0B7408250DF50D7A007B00D0
:103F10001235DA750C088057750E04750F00780E8F
:103F200012179A7402121632AC82AD83EEFAEFFBCE
:103F3000A90C1235FE74021215FD75100085100EC5
:103F4000851A82851B83E582250EF582E583340080
:103F5000F583E0F91235D40510E510C3940440DD73
:103F6000EE2404FEEF3400FFC394084016050CE570
:103F7000C9540F44A0F5C9E5C9540F4450F5C97E92
:103F8000007F007408650C7004EE4F60D3E50D658A
:103F90000C7085E50A6E7003E50B6F6003023F1835
:103FA0001235CE74041215FD7F0702171074F71234
:103FB000163EEAFEEBFF890A74FE6E700374FF6F13
:103FC000602A7401650A600E7402650A701E790128
:103FD000122D8EE970167C6F7D09EEFAEFFB122B25
:103FE000A27C757D09EEFAEFFB122BA27F0102176E
:103FF00010020C7CFFFFFFFF851C87C2AF020C7C08
:020000040002F8
:10280000C082C083E9900DA2F002AA8F74F712165D
:102810003EE9900315F07C4D7D037AFF7BFF122B80
:10282000A290031674FFF0A3F0A3E4F0A3F07905DF
:10283000122B2A900315E0F9122A4C7ABA7B2B123C
:102840002D707F0102171074F412163E8A0A8B0B4A
:10285000EB54806030900315E0F912335E8A0C8BE4
:102860000DAE0CAF0DEE4F60138E828F83E064B01F
:102870007003122B42EEFAEFFB12334CAA0AE50B5F
:102880006480FB80047A007B0002AA5E74F2121658
:102890003E74FC1215E7EAFEEBFFEE4F603874025F
:1028A000121632EEF0A3EF12ACC3ECF0A3ED12ACB3
:1028B000C3AA82AB83122A46E9F50A707374121216
:1028C000163212B877E50C450D60658E828F831243
:1028D000A93AEE4F7005750A0280557A067B001200
:1028E00033DC8A0E8B0FA80EA90FE8497005750A14
:1028F00013803D88828983E412A944A3A3EEF0A348
:10290000EF12BD10E50CF0A3E50DF090031B12A92A
:10291000CC90031B6017E0FCA3E08003EAFCEBFD16
:102920008C828D8312A9CC70F38C828D8312B79C1C
:10293000A90A74041215FD02BF12A3A3A3A3E0FE0B
:10294000A3E0FF22F0A3F0888289832274F212169A
:102950003E890CE975F017A4FEAFF090031AE4F07D
:1029600090031812A9CC600A1233E2900318E4F025
:10297000A3F0EEFAEFFB1233DC8A0A8B0BEA450B6D
:10298000602FEEFCEFFD790012333A900318E50A50
:10299000F0A3E50BF07B00800812A9B6E4F0A3F0E9
:1029A0000BEBC3950C40F2E50C90031AF079008014
:1029B00002791302BF12EB75F017A4F8A9F0900387
:1029C00018E028FAA3E0398A82F5832212B532EAA8
:1029D0004B2274F412163E750A00750B00740C122B
:1029E000163212BCE4FEE9FF800CE50A2401F50A68
:1029F000E50B3400F50BC3E50A9CE50B9D503285D1
:102A00000A0C850B0D7403780C1215D4EA250CF80A
:102A1000EB350DF988828983A3A3A3A3A3A312B8DE
:102A200077EE650C7003EF650D70BFE8FAE9FB8087
:102A3000047A007B00802774F412163E7900EAA223
:102A4000E0501B750A3F750B81780A12179A7C04B7
:102A50007D007AA47B0D122B2474021215FD7F04D5
:102A6000021710C082C08390031B12AA96601C88B4
:102A7000828983A3A3E06A7003A3E06B88828983C1
:102A800070E8A3A3A3A312B52E80047A007B00D024
:102A900083D082020C7C12BFE5E8492274EE121644
:102AA0003E74FC1215E7EAFEEBFF851A82851B8354
:102AB000E4F0A3F0EE240212B780EE240512ACB1CC
:102AC000EE2404F510EF12B096E024FE603924FCE9
:102AD000604624FE605224FE605E24FE700302AB5A
:102AE000B624FE700302AC2E24FE700302AC3D241B
:102AF000FE700302AC4C24FC700302AC5B24FE703D
:102B00000302AC6A02ACA79003347417F0A3E4127A
:102B1000ACCB1227B802ACA7851A82851B83AC8286
:102B2000AD83122B4802AC77851A82851B83AC8259
:102B3000AD83122B4E02AC77850E0A850F0B740203
:102B4000121632AC82AD83850A82850B8312B52EB4
:102B5000122A6A8A0E8B0FAC0EAD0FEC4D6042E468
:102B6000F50EF50F780E12179A750E34750F03785F
:102B70000E12179A750E35750F03780E12179A7488
:102B8000081216321217B1791612B528122B8A7450
:102B9000081215FDE9F50E700B12B5241227D0802E
:102BA0000F750E01850A82850B8312ACB912B79C92
:102BB000850E0A02AC7A7402121632AC82AD83859D
:102BC0000E82850F8312B52E122A6A8A128B13ACDD
:102BD00012AD13EC4D6043850E82850F83A3A312C3
:102BE00017B1751234751303781212179A751235CE
:102BF000751303781212179A74081216321217B14D
:102C0000791612B528122B8A74081215FDE9F50BF6
:102C1000700B12B5241227D6800F750B01850E821A
:102C2000850F8312ACB912B79C850B0A804C851AAC
:102C300082851B83AC82AD83122B54803A851A8225
:102C4000851B83AC82AD83122B5A802B851A82851B
:102C50001B83AC82AD83122B60801C851A82851B7E
:102C600083AC82AD83122B66800D851A82851B830F
:102C7000AC82AD83122B6CE9F50AE50A60298E82DD
:102C80008F83A3E06414601F851082851183E09018
:102C9000033412ACC312BFE190033512B79CE50AAE
:102CA000A312ACCB1227B2EEFAEFFB122AE802B65F
:102CB00088F50EEF3400F50F2212BFE5851A8285E4
:102CC0001B8322F0851A82851B8322F07C347D03CE
:102CD000850C82850D8312B5322274EE12163E7475
:102CE000FC1215E78A0C8B0D8C108D11EA2405F56A
:102CF0000AEB3400F50B7C157D0079007A347B03F8
:102D000012333AE50A2402F50EE50B12ACB4851A2B
:102D100082851B83858212858313781212179A8508
:102D20000A82850B83A3A3A3A312B1DE12179AE52F
:102D30000A2405F512E50B3400F513781212179AE0
:102D4000850E82850F8312B538122A647406121517
:102D5000FD8A128B13AE12AF13E50C2402F50CE5BD
:102D60000D12B783EE4F700302AEA08017740212EB
:102D7000163212B52E88828983EAF0A3EBF0900315
:102D800034E004F0900334E0C39405400302AEA0A5
:102D9000E4F512F513781212179A75121D751303C4
:102DA000781212179A75121E751303781212179A59
:102DB00074061216321217B17910EEFCEFFD12B53F
:102DC00028122B8A74081215FDE9705E850A828527
:102DD0000B83A3A3A3A3A3A3A3E0F890031DE06820
:102DE000704812B1DE12179A7C1E7D03E50A240892
:102DF000FAE50B3400FB12333474021215FDE9605E
:102E0000298E828F83A3A3A3A312B52E900334E04F
:102E1000F512740278121215D474352512F58274E5
:102E2000033513F583EAF0A3EBF074021216328532
:102E30008212858313781212179A740212163212B4
:102E400017B1850E82850F8312BFF6122A707404A3
:102E50001215FD8A128B13AE12AF13900334E0F5F6
:102E600012751300740278121215D474342512F8F6
:102E700074033513F988828983A312A9CC700302E5
:102E8000AD64E82403F8E93400F9EE4F600302ADC5
:102E90006D8882898374FFF0A3F0900334E004F01E
:102EA000900334E0600A12B5241227C47900800B25
:102EB000850A82850B8312B793790A02B68874EA71
:102EC00012163E74FE1215E78C148D15EA2405F5D2
:102ED0000EEB12C00012A93E750A00750B00EA2421
:102EE00002F512EB3400F513851A82851B83858267
:102EF0000C85830D780C12179A850E82850F83A39B
:102F0000A3A3A312B0A012179AE50E2405F50CE5B1
:102F10000F12B783780C12179A850E82850F8312D1
:102F2000BFF4122A6474061215FD8A0C8B0DEA4553
:102F30000D700302B051EA2404F510EB12B09612A2
:102F4000A93E8A828B83A3A3A3E0F985128285130D
:102F50008312B52E122A52E9F50B600302B051E438
:102F6000F516F517781612179A75161D751703784A
:102F70001612179A75161E751703781612179A747B
:102F8000061216321217B17913AC0CAD0D851282F0
:102F900085138312B52E122B8A74081215FDE9F5DC
:102FA0000B600302B05190031DE0F8E50A7009E0E0
:102FB0002402900335F08017900335E0FCE82402EA
:102FC000FAE43400FBEA6C7001EB600302B0558553
:102FD0000A82AA8212B1D5941412B1CD5073851011
:102FE00082851183E0C0E074362A12B08DD0E0F003
:102FF000050A851082851183A3E0C0E0850A0C7460
:1030000036250C12B08DD0E0F0050A90031D12B0E9
:10301000A012179A7C1E7D03850A0C7436250CFAC3
:1030200074033400FB12332274021215FD90031D49
:10303000E0250AF50A74FF6E700374FF6F6012EEEC
:1030400024010EEF3400FFE50AC39414500302AECE
:10305000E8E50A601312B41985128285138312B54C
:103060002E1227CA79008014E50B7003750B0A85B0
:103070001482851583EEF0A3EFF0A90B74021215EC
:10308000FD7F0E021710850A0E7436250EF5827428
:10309000033400F583223400F511851082F5832274
:1030A00012BD232274EE12163E74FE1215E78C1028
:1030B0008D11EA2405F50EEB12ACB4750D009003EA
:1030C00034E4F0F50CEA2402F50AEB3400F50B8049
:1030D00049900334E0FA90031DE0F812B1D594173B
:1030E00012B1CD400D900334E0F87416C3989003EC
:1030F0001DF012B1DE12179A7C1E7D0374352AFA78
:1031000074033400FB12332274021215FD90031D68
:10311000E0F8900334E028F0050CE50E2416F58263
:10312000E50F12B091E0F8E50CC398400302B1B688
:10313000900334E0C39416507DE50CC333F8E433B8
:10314000F9E50E28FEE50F39FF851A82851B83AC51
:1031500082AD838E828F8312B52E122A6A8A128BD9
:1031600013AC12AD13EC4D7005750D018043E4F501
:1031700012F513781212179A75121D75130378122F
:1031800012179A75121E751303781212179A740685
:103190001216321217B17916850A82850B8312B581
:1031A0002E122B8A74081215FDE9F50D700302B07A
:1031B000D112B78F80107C347D03850A82850B8302
:1031C00012B52E1227DCA90D740202B68AE994000A
:1031D000C365D03322EA28F8E43400F9E822E0F5A8
:1031E0001275130078122274EA12163E74FC12153E
:1031F000E78A0E8B0F8C148D15EA2405F50CEB1263
:10320000B783750A00750B00E50C2402F512E50D75
:103210003400F513740212163285821085831178FA
:103220001012179A850C82850D83A3A3A3A312BC49
:10323000CF12179AE50C2405F510E50D3400F511B1
:10324000781012179A85128285138312B78912B5E6
:1032500028122A6474061215FD8A108B11AE10AF65
:1032600011E50E2402F510E50F3400F511804088B9
:1032700082898374FFF0050A12B08674FFF0050A94
:1032800090031DE0F50E750F00780E12179A7C1E44
:103290007D03850A0E7436250EFA74033400FB1282
:1032A000332274021215FD90031DE0250AF50AEE83
:1032B0004F60718E828F83A3A3A3E0F9851082856E
:1032C000118312B52E122A52E9F50BEE240412AC2A
:1032D000B1E97044E4F516F517781612179A7516C9
:1032E0001D751703781612179A75161E7517037831
:1032F0001612179A74081216321217B17911EEFCD1
:10330000EFFD85108285118312B52E122B8A740869
:103310001215FDE9F50B6027850E82850F8312B427
:103320000F12B79CE50A700302B3F512B4198510A9
:103330008285118312B52E1227E2790002B40A8524
:103340000A82AA82EA90031D7009E02404900335E2
:10335000F08022E0F8900335E0F516E82404FCE460
:103360003400FDEC65167001ED70C012B1D59412F9
:1033700012B1CD50B6850E82850F83E0C0E0743661
:103380002A12B08DD0E0F0050A850E82850F83A346
:10339000E0C0E012B086D0E012B42B85820E8583A7
:1033A0000F780E12179A74041216321217B1851282
:1033B0008285138312BFF6122A7074041215FD8AD7
:1033C0000E8B0FAE0EAF0F850A0E7436250EF874F5
:1033D000033400F9EE4F700302B26F851A82851B29
:1033E00083E08882898312B42BA3E0C0E012B08608
:1033F000D0E002B27DE50B7003750B0A850C828567
:103400000D8312B40F12B79CA90B740402B07E1284
:10341000BFE585148285158322900335E0F5F0E53C
:103420000A84900334F07C347D0322F0050A851A67
:1034300082851B832274EC12163E74FE1215E78AF5
:103440000A8B0B8C108D11EA2405FEEB3400FF85EE
:103450001A82851B83AC82AD838E828F8312B52E38
:10346000122A6A8A0C8B0DEE241812ACB1EA450DB3
:10347000700302B4FF12B6715032851A82851B8325
:1034800012B52E122B7E8A128B13EA4513606B79CC
:1034900012AC0CAD0D850A82850B8312B52E8512F8
:1034A0008285138312163CE9F50C7058E4F50CF58F
:1034B0000D780C12179A8E828F83A3A3E0F50C78F7
:1034C0000C12179AEE240312B780780C12179A8EFA
:1034D000828F8312B538122B9074061215FDE9F510
:1034E0000C7021850E82850F83E0701F850A82850E
:1034F0000B8312B52E1227E88011750C0E8009750A
:103500000C018004E50C600312B78F850E82850FD5
:1035100083E0600479008002A90C74021215FD7F1B
:103520000C0217107C347D03850C82850D8312B547
:103530003222E0FAA3E0FB22E0FCA3E0FD850A8250
:10354000850B8312B5322274EE12163E74FE1215EC
:10355000E78A0A8B0B8C0E8D0FEA2405FEEB3400F4
:10356000FF751000851A82851B83AC82AD838E8225
:103570008F8312B52E122A6A8A0C8B0DEA450D70C4
:103580000302B65D12B6715035851A82851B83120F
:10359000B52E122B7E8A108B11EA4511605E7912CE
:1035A000AC0CAD0D850A82850B8312B52E85108279
:1035B00085118312163CE9F510600302B660850A96
:1035C00082850B8312B877AA0CFB122B728A128B9E
:1035D00013A812A913E849701E7AFF7BFF122B7201
:1035E0008A128B13A812A913E849606C8882898318
:1035F000E50CF0A3E50DF0750C00800775100E804A
:103600005F050C90031AE0FAE50CC39A504AE50CEA
:1036100075F017A4FAABF088828983A3A3E02AFA95
:10362000A3E03BFB8A828B8312B789EC4D70D27585
:103630000C17750D00780C12179AEEFCEFFD123383
:103640002274021215FDEEFCEFFD850A82850B83C4
:1036500012B52E1227EE8014751009800375100123
:1036600012BFDD850E82850F8312B79CA91002B1AF
:10367000C8E50A2402F50AE50B3400F50B8A828BB3
:1036800083A3A3A3E0A2E52274041215FD7F0A021E
:10369000171074EC12163E8C128D13EA2405F50EE9
:1036A000EB12ACB4751100EA2402F50CEB12B783EF
:1036B000850C82F58312B52E122B728A0A8B0BEAC7
:1036C000450B700302B7757510008071850E8285F9
:1036D0000F83E06401704F8E828F83A3A31217B112
:1036E0008E828F83A3A3A3A3E0F51475150078142D
:1036F00012179AEE2405F514EF3400F5157814121C
:10370000179A12B528122B9074061215FDE9F511BF
:103710006014850E82850F83E4F012BFDD8512826E
:1037200085138312B79C7C177D007900EEFAEFFBBE
:1037300012333A8E828F83E4F0A3F0051090031ABF
:10374000E0F8E510C398501EE51075F017A4F8A92D
:10375000F0850A82850B83A3A312C00A12B789ECF5
:103760004D600302B6CC850A82850B8374FFF0A3FB
:10377000F0E511700612B5281227F4A91102B51F41
:10378000F50CEF3400F50D22A3E0FCA3E0FD228E42
:10379000828F8312BFE5851082851183E8F0A3E94B
:1037A000F022C082C083900316E06A7003A3E06B2E
:1037B00070067A167B0380047A007B0002AA8FC011
:1037C00082C08378008C828D83E06A7003A3E06BF3
:1037D0007010E875F003A4F8A9F0EC28FAED39FBB5
:1037E0008015088C828D83A3A3A3E06A7003A3E0F5
:1037F0006B60DF7A007B0002AA8F74F612163E120D
:103800002B3C8A828B83E582458370067A007B009D
:103810008007A3A3A3A312B52E02BE8E74F21216C4
:103820003EE9FE740E12163212B877741012163278
:1038300012BCEF8C828D83E064027036A312BFEB62
:10384000F50EA3E0F9A80E7402687003742969707C
:1038500021750E02750F00780E12179A780A12174A
:103860009A780C12179AEEF9122BB474061215FD01
:103870008002790102BF12E0F50CA3E0F50D22747D
:10388000E812163E74FB1215E7E9851A82851B8340
:10389000F08A188B19ECFEEDFF751200741D1216DC
:1038A0003212BFE1741D12163212B79C8E828F83C2
:1038B000A3A3A3E0A2E4502D741D12163212B52E5C
:1038C000122B7E8A828B83E5824583700302BCC003
:1038D000790AEEFCEFFDAA18AB1912163CE9F512B5
:1038E000600302BCC3741F12163212BCEF742112A3
:1038F000163212B8777423121632E0F510A3E0F5F1
:10390000118E828F83E06402600302BC6EA312BF3B
:10391000E1850A82850B83A3858214858315EE24B5
:103920000612ACB188828983E0FAA3E0F9EA2400A8
:10393000F516E439F517781612182401000028014D
:103940002863B90700022828BA032895B900295F1F
:10395000BB01298ABB02292BBB03295FBB042909B0
:10396000BC6EBCE5104511600302BC69850E828502
:103970000F8312BCE4FAE9FB8A828B83E0850C8218
:10398000850D8312BD1A12179A8A828B83A3E0FCDD
:10399000A3E002BBF3E5104511600302BC69850C8E
:1039A00082850D837401F012BCF7850A82850B8332
:1039B000F07C007D008E828F83A3A3A3A3E024016B
:1039C000FAA3E03400FB122A6AEA4B60418A828B38
:1039D00083E02402F8850C82850D83E028F0EA2438
:1039E00004F8EB3400F988828983E0851482851518
:1039F0008312BD2C12BD1A12179A8A828B8312B7BA
:103A000088E50A2403FAE50B3400FB02BBF8850CB9
:103A100082850D83E02404F07C047D007900AA14E3
:103A2000AB1512333A02BCC3E5104511600302BC6A
:103A30006912BCF7FEA3E0FF850C82850D83740438
:103A4000F0EE850A82850B83F0EF8514828515835D
:103A5000F07403121632AC82AD83EEFAEFFB122A39
:103A60006A8A0E8B0FEA450F700302BB0C8A828BA9
:103A700083A3A312A93A740112163285821085839A
:103A800011781012179A74051216321217B17CFFB2
:103A90007DFF122A7074041215FD8B11EA45117016
:103AA00033850E82850F8312BCCF12179A850E8242
:103AB000850F83A31217B17C027D007A3D7B8212B1
:103AC000289074041215FDE9700A740112163274FC
:103AD000FFF0A3F08E828F83E064027039750E02CE
:103AE000750F00780E12179A8E828F8312B788E5B1
:103AF0000A2404FAE50B3400FB1233227402121577
:103B0000FD850C82850D83E0240280097401121664
:103B100032EEF0A3EFF0740112163212BCE0F07432
:103B200001121632A312BCD802BC63E51045116025
:103B30000302BC69850E82850F8312B789AA18AB70
:103B400019122BA8850C82850D837402F0EA850A70
:103B500082850B83F0851482851583EB02BC66E5B4
:103B6000104511600302BC6912BCF7F8A3E0F985A7
:103B70000C82850D837402F0E8850A82850B83F040
:103B8000E985148285158302BC66850E82850F83C4
:103B900012B52E12331CEAFC8C82A882C39510E465
:103BA0009511405FE865107002E51170047C00809B
:103BB00022851A82851B83E0FAE5102AFAE5113482
:103BC00000FBC3EA98EB94005003E08005E510CCBD
:103BD000C39CFCEC850C82850D83F08C0C750D006C
:103BE000780C12179A850E82850F83E02510FCA3AE
:103BF000E03511FDAA0AAB0B12332274021215FD37
:103C000002BCC375120702BCC3E5104511705A858A
:103C10000E82850F8312BFE1850C82850D837407A8
:103C200012A94612BCD812A946A3E08514828515B4
:103C300083F0E82402FAE93400FB8A828B8312BC09
:103C4000D812BD0712BCE0A312BD1012BCE9F0E807
:103C50002405F8E93400F98882898312BCE9A312AB
:103C6000BD2CA3A3A3A3F0805A75120B8055741D1D
:103C700012163212B52E122B3C8A828B83E58245B6
:103C800083603D12BFE1880E890FE8450F603178EF
:103C90001012179A780C12179A780A12179A74064B
:103CA000121632E0F9EEFCEFFDAA18AB19850E8270
:103CB000850F8312163C74061215FDE9F512800378
:103CC00075120EA91274051215FD7F10021710E06F
:103CD000F510751100781022E0850A82850B832289
:103CE00012BD362212BFE5E82212BD36A3A322E0A0
:103CF000F50AA3E0F50B22850E82850F83E0F8A379
:103D0000E0F5838882E022A3A3F08A828B83A3223A
:103D1000F088828983A3A3A3A322F08A828B8312D3
:103D2000BD2322E0F50C750D00780C22F088828905
:103D300083A312BD3622E0850A82850B83A3A322CA
:103D400074EE12163E74FE1215E78A0C8B0DECFA17
:103D5000EDFB7414121632E0F512A3E0F51374169D
:103D6000121632E0FE7418121632E0F510A3E0F5D8
:103D700011851A82851B83AC82AD83122A6A8A0E52
:103D80008B0FEA450F6049851A82851B8312B52E79
:103D9000122B3C8A828B83E5824583602FA3A3127A
:103DA000BCEFE50A450B6024781012179A781212BE
:103DB000179AEEF9AC0EAD0FAA0CAB0D850A8285F1
:103DC0000B8312163C74041215FD8006790E8002D6
:103DD000790102B1C874F612163E74FE1215E7742A
:103DE0000C12163212BCE4851A82851B83F0740112
:103DF000121632E9F0E4F50AF50B780A12179A75F3
:103E00000A02780A12179A740412163285820A85F9
:103E1000830B780A12179A122B9074061215FD74F0
:103E2000021215FD806874F712163EEAFEEBFF8958
:103E30000A7C4D7D03122BA8EA5402600BA90AEEFE
:103E4000FAEFFB122A5E8002790102A84274F61290
:103E5000163E74FF6A700374FF6B70168C828D833C
:103E600012BE93E4F08C828D83A3A3A312BE93A30E
:103E70008018122B788A0A8B0BA80AA90BE84960D4
:103E80000D8882898374FF12A944A3A3E4F07F0202
:103E900002171074FFF0A3F08C828D83A3A3227409
:103EA000F612163E122B788A828B83E58245836058
:103EB00006A3A3E0FA80027A007B0080D174F2129C
:103EC000163E8A0A8B0BECFEEDFF740E121632E0E2
:103ED000F50C122B788A0E8B0FA80EA90FE84970EB
:103EE00026EEFCEFFD7AFF7BFF122B788A0E8B0FFC
:103EF000A80EA90FE8497004791180168882898379
:103F0000E50AF0A3E50BF088828983A3A3E50CF012
:103F100079007F0602171074EE12163EEAFEEBFFE0
:103F20008C0A8D0B890E741412163212BFE17416AE
:103F300012163212B52E750F00E849600302BFD584
:103F40007402650E600302BFD0741212163212BFE3
:103F5000EBFCA3E0F9EC2400F510E439F511EAF4E8
:103F6000F8EBF4F9EC58F8E51159F9E849705CE51B
:103F70000A2406F8ED3400F9880C890D8882F5834F
:103F800012BFF6122BA88A128B13E510651270046B
:103F9000E51165136042781012179A850C82850D21
:103FA0008312BFF6122BAE74021215FDE9F50F70E5
:103FB00027781012179A850A82850B83A3A312BF54
:103FC000F4122BC074021215FD800D750F8080084D
:103FD000750F0D8003750F0BA90F02B68D8E828FA2
:103FE0008312BFE522E0F8A3E0F92212BFE5888240
:103FF0008983E022A3A3E0FCA3E0FDEEFAEFFB221D
:104000003400F50F850E82F58322E028FEA3E03907
:10401000FF8E828F832274F212163EEAFEEBFF8936
:104020000D7401650D600E7402650D706A790112E0
:104030002D8EE97062EEFAEFFB122B728A0A8B0B5F
:10404000EA450B6047750C00800B7C177D007900FA
:1040500012333A050C90031AE0F8E50CC39850218E
:10406000E50C75F017A4F8A9F0850A82850B83A3E7
:10407000A3E028FAA3E039FB8A828B8312AA967008
:10408000C9850A82850B8374FFF0A3F07C4D7D0304
:10409000EEFAEFFB122BA202BF1274F212163E8A46
:1040A0000A8B0BECFEEDFF740E12163212B87790ED
:1040B0000DA2E0F4603D7A097B00123346EA4B60C2
:1040C000328A828B8374B1F0A3E412BD09A312BDBE
:1040D00007A3E50AF0A3E50B12C0F6EEF0A3EF127A
:1040E000C0F6A3A3E50CF0A3E50DF0900DA2E0F956
:1040F00012335202BF12F08A828B83A3A3A3A3A31D
:1041000022C082C0839061907404F0A37448F0A32D
:104110007402F09061807440F09061BC7403F09080
:1041200061877419F0906265741BF0906249E0C376
:10413000941390619C400A7409F090606674018049
:1041400007740DF0906066E4F090619A7433F0A308
:104150007455F09061A0743AF0900573E0640170BA
:1041600009C2919003DA746780059003DA7461F0F4
:104170009038D2E493906186F09038D4E493F46060
:1041800027E493540FF8906185E0686012E5C65407
:10419000804449F5C6E59E547F644970F8E8F053C1
:1041A000C680E59E547F70FA790512310602C3DDA0
:1041B000C082C083E9540FF9906185E0696012E51F
:1041C000C654804449F5C6E59E547F644970F8E9B9
:1041D000F053C680E59E547F70FA02C3DDC082C0F2
:1041E00083E5A8F853A87E906181E4F0A3F0A3F0E2
:1041F000C2BA539AFEC289759B00C2C275E90075A6
:10420000910075BF0075A91175B905906181F0A382
:1042100074C0F0A3E4F0D2BA439A0174805842A863
:1042200002C3DDC082C08374F81215E79003D8E0A2
:10423000F8A3E0F9E849700302C3519003D8E054B1
:104240004060237908851A82851B83AA82AB83127A
:104250002F68851A82851B83AA82AB83122C3E901D
:1042600003D8E054BFF0E054806010790C7A997B59
:1042700005122F689003D8E0547FF0E0A2E050319F
:1042800090619A7433F0A37455F09061A0743AF081
:10429000900573E064017009C2919003DA7467803D
:1042A000059003DA7461F0122C449003D8E054FEB8
:1042B000F0E05402603190619A743FF0A3745AF0B8
:1042C0009061A0747FF0900573E064017009D29151
:1042D0009003DA747180059003DA746AF0122C444A
:1042E0009003D8E054FDF0E0540460139038D0E41B
:1042F00093906186F0122C4A9003D8E054FBF0E0D2
:10430000540860139038D1E493906186F0122C4ADF
:104310009003D8E054F7F0E0541060139038D2E4E2
:1043200093906186F0122C4A9003D8E054EFF0E0AD
:104330005420600A122C4A9003D8E054DFF0A3E026
:104340005401600D122E90122C509003D9E054FEAF
:10435000F074081215FD02C3DDC082C083E9600558
:1043600014602A804F90619A7433F0A37455F090D2
:1043700061A0743AF0900573E064017009C29190F5
:1043800003DA7467802D9003DA7461802690619A55
:10439000743FF0A3745AF09061A0747FF09005739D
:1043A000E064017009D2919003DA74718005900382
:1043B000DA746AF08027C082C083E9600814600A5A
:1043C00014600C80139038D080089038D18003900E
:1043D00038D2E493906186F08003F0A3F0D083D0CC
:1043E00082020C7C74EC12163E74F41215E7851AE6
:1043F00082851B83AC82AD8375838175829D740435
:104400001214FA9038D093F4600302C570907808C3
:10441000E0C39402500302C5507404121632AC82F9
:10442000AD8375838175821674081214FA851A8219
:10443000851B838582148583157404121632AC8221
:10444000AD837510FF7511FF7FFF7E00750E4875F7
:104450000F78801574086E700302C4E474096E70DE
:104460000302C4E4740A6E607B850E82850F837834
:104470000A1214B78C828D83A90BE50CC9F8881237
:104480007418780A1213A7E512450AF8C3E098A336
:10449000E099850E82850F83780A1214B740188C34
:1044A000828D837418780A1213A7E512450AF8E082
:1044B000C398F8A3E0801C7418780A1213A7E512B9
:1044C000450AFAE9FB8C828D83E0F8A3E0F9EAC3A0
:1044D00098F8EB99F9C3E89510E995115006881002
:1044E0008911EEFF0EE50E2404F50EE50F3400F5FC
:1044F0000FEEC39413500302C45474FF651070048C
:1045000074FF651160238F0A7402780A1215D4743F
:1045100048250AF5827478350BF583780A1214B7AA
:10452000851482851583E50AF0EC2402FCED340045
:10453000FD851482851583A3858214858315740CEB
:10454000121632E5826C7003E5836D600302C4428B
:10455000750A01750B00780A12179A740212163246
:10456000AC82AD837A347B0E12361074021215FDC4
:10457000740C1215FD7F0C021710C082C08390616D
:10458000AE7468F0A3746AF090624574FBF0A30403
:10459000F053F4FD43FE029005737401F09061A0A6
:1045A000E0643A90619A70237433F0A37455F090EC
:1045B00061A0743AF0740164017009C2919003DA49
:1045C000746780289003DA74618021743FF0A374CB
:1045D0005AF09061A0747FF0740164017009D29167
:1045E0009003DA747180059003DA746A02C3DC7F89
:1045F00008021710C082C083900525E06401700A8C
:1046000090052AE06004790C8002790002C3DDC0C5
:1046100082C08375E1F1900528E0605B14600914A5
:10462000605F14605714705E122EA290051EE0F9B0
:104630007A1F7B051230887AD67BBE7C897D8E12EC
:1046400030BE7A557B557C557D00123094900529FB
:10465000E0F91230A079011230FA90051CE0F8A3BD
:10466000E0C82416F582E83400F58374BAF0A37428
:104670002EF0790002C3DD122EA880AF122EAE807C
:10468000AA122EB480A5791280EA74F012163E7533
:10469000D90D900509E0A2E0E4331313F890051E4C
:1046A000E0C4333354C0484401F5D9781C790588F7
:1046B000828983A3A3A3E0F5D988828983A3A882F2
:1046C000A983E864227003E9640570E37809790539
:1046D00088828983A3E0F5D988828983A3A882A9E7
:1046E00083E8640F7003E9640570E575E195900552
:1046F00009E0F97A0A7B0512308E900DC47442F0FD
:10470000A3742EF0A374B0F0A3742FF0A374B0F0D0
:10471000A3742FF0A374B0F0A3742FF0A37448F027
:10472000A3742EF0A374B0F0A3742FF0A37460F000
:10473000A3742EF0900DD274B0F0A3742FF0A37474
:10474000B0F0A3742FF0A374B0F0A3742FF0A3748F
:10475000B0F0A3742FF0A374B0F0A3742FF0A3747F
:10476000B0F0A3742FF0900528E0640190051C7050
:1047700012E0F8A3E0F5838882A3A3750A00750B05
:10478000088010E0F8A3E0F5838882A3A3750A04EB
:10479000750B00750C00750D00780A1213F2750E7A
:1047A000FF750FFF7510FF751100780A790E12144E
:1047B0005890051CE0F8A3E0C8240EF582E8340008
:1047C000F583780A1214C690051CE0F8A3E0C8240B
:1047D00014F582E83400F5837413F09003D6740264
:1047E000F002C5EF74F712163E90052EE02407F58F
:1047F000D990051EE0C4333354C0F5D9781C79052F
:1048000088828983A3A3A3E0F5D988828983A3A89A
:1048100082A983E864227003E9640570E390052EA1
:10482000E0601F781C7905FAE82413F582E934006A
:10483000F583E0F5D988828983A3A882A9831AEA3F
:1048400070E690054EE02407F5D990051EE0C433CC
:104850003354C04404F5D9781C790588828983A330
:10486000A3A3E0F5D988828983A3A882A983E864F9
:10487000227003E9640570E390054EE0601F781C28
:104880007905FAE82433F582E93400F583E0F5D9B7
:1048900088828983A3A882A9831AEA70E675E195C4
:1048A000900DC4744EF0A3742EF0A374B0F0A374F2
:1048B0002FF0A374B0F0A3742FF0A374B0F0A3741E
:1048C0002FF0A37448F0A3742EF0A374B0F0A37477
:1048D0002FF0A37460F0A3742EF0900DD274B0F09A
:1048E000A3742FF0A374B0F0A3742FF0A374B0F0EE
:1048F000A3742FF0A374B0F0A3742FF0A374B0F0DE
:10490000A3742FF0A374B0F0A3742FF090051CE0F3
:10491000F8A3E0C8240EF582E83400F58374FFF0B4
:10492000A3F0A3F0A3F090051CE0F8A3E0C82414C2
:10493000F582E83400F5837412F09003D67401F028
:10494000FF02171074F712163E90052EE02407F5AB
:10495000D990051EE0C4333354C04402F5D9781C05
:10496000790588828983A3A3A3E0F5D98882898306
:10497000A3A882A983E864227003E9640570E39028
:10498000052EE0601F781C7905FAE82413F582E90A
:104990003400F583E0F5D988828983A3A882A983AE
:1049A0001AEA70E675E195900DC4745AF0A3742E5E
:1049B000F0A3745AF0A3742EF0A3745AF0A3742ECB
:1049C000F0A3745AF0A3742EF0A3745AF0A3742EBB
:1049D000F0A3745AF0A3742EF0A37460F0A3742EA5
:1049E000F0900DD274B0F0A3742FF0A374B0F0A3C4
:1049F000742FF0A374B0F0A3742FF0A374B0F0A3DD
:104A0000742FF0A374B0F0A3742FF0A374B0F0A3CC
:104A1000742FF090051CE0F8A3E0C8240EF582E89E
:104A20003400F58374FFF0A3F0A3F0A3F090051C0D
:104A3000E0F8A3E0C82414F582E83400F583741488
:104A4000F09003D67404F002CD0B74F712163E906A
:104A5000052EE02407F5D990051EE0C4333354C079
:104A60004406F5D9781C790588828983A3A3A3E03D
:104A7000F5D988828983A3A882A983E86422700378
:104A8000E9640570E390052EE0601F781C7905FA53
:104A9000E82413F582E93400F583E0F5D9888289AA
:104AA00083A3A882A9831AEA70E690054EE0240742
:104AB000F5D990051EE0C4333354C04404F5D978C9
:104AC0001C790588828983A3A3A3E0F5D98882890C
