:020000042000DA
:1000000000980020B9040020C1040020D904002079
:1000100000000000000000000000000000000000E0
:10002000000000000000000000000000F1040020BB
:100030000000000000000000090500200B05002062
:100040009F250020053103000D3103007B26002091
:10005000872600208D310300E9260020F1260020AC
:100060000D0500200D0500200B270020AD310300F9
:10007000578102004B1B02004B1B02004B1B02006E
:100080004B1B02004B1B02004B1B0200851900207A
:100090008F19002099190020A3190020AD19002004
:020000042000DA
:100160003200000027070020F1160020AD0B002010
:10017000000000000000000063800200BD8002005B
:10018000F9140020FB800200198102003581020071
:100190005D81020049250020010700209F140020F6
:1001A000C114002000000000000000003F0000001B
:1001B000F48B002000040000740B080048010000CC
:1001C0006807080000040000C80C080020050000B3
:1001D000000000002000000048000000580000005F
:1001E0006800000004010000160100002801000062
:1001F0002E010000202A00008E2E000001000000C9
:1002000088130000D117002003340020393D00205E
:10021000C71A002019280300A57402001521002028
:1002200003000000D5200200AD0B002001000000FB
:10023000D74902000F490200831D0200E73D00205C
:100240003D3F00203B4000200782020071820200F7
:10025000C4540020AD830200938402004185020053
:1002600015860200378602005F860200758602004E
:10027000F9870200258902005D8A0200D38C020002
:10028000098D02000F900200438D0200278E0200AC
:10029000F98E0200478F020053130020D58F020011
:1002A00057390020775102002F5202001000000041
:1002B00020030000803E000000000000000000005D
:020000042000DA
:1002C000504600030003983A6400F401B80B000C98
:1002D000B80B120030003000CD009A01120024004B
:1002E00030006400B0001800280012001200D0078F
:1002F0000000FFFF00000000000000000000000000
:100300001F000002444131343538302D30310000B7
:1003100000000000000000000000000000000000DD
:0403200000000000D9
:020000042000DA
:10034000FFFF010000C201000000000000000000EB
:100350000000F4010100011B0A071AFFD200021578
:10036000585CDE931B0142CC9A1325009BEDC65EC0
:1003700000000000C5000000000009FF00605257A7
:100380002D424C450000000000000000000000006D
:100390000000000000000000000044413134353806
:1003A00078000000000000000000000000000000D5
:1003B000000000000000000000000000000000003D
:1003C000000000000000000000000000000000002D
:1003D0000000000000000000010000CAEA80D00711
:0403E000064064323D
:020000042000DA
:100440000348854604F0BCFB00480047C720020073
:10045000009800200621154A1180082101228A40B7
:10046000134B1A6000BF134989683E2291432E3115
:10047000104A916000210522120711801146098A55
:100480000F221202914389180522120711820020BF
:1004900005E000210122D20482181160001D032111
:1004A00009038842F5DB62B6704700000034005053
:1004B00080E100E0003300501548804715480047B0
:1004C00004207146084203D0EFF30980124908471F
:1004D000EFF308801049084704207146084203D012
:1004E000EFF309800D490847EFF308800B490847EF
:1004F00004207146084203D0EFF3098008490847F9
:10050000EFF3088006490847FEE7FEE7FEE7000034
:100510005504002041040020B10B0020F90D0020FB
:10052000710600207CB5002400BFFC48007801283B
:1005300007D1FB48406B002803D1F849087002F04E
:10054000C2FAF8480088F849098888421ADBF3485B
:100550000078012816D10020F2490880042168465D
:1005600001700E214170032181700121C170EF499A
:1005700081806D4600220621284604F033FB02F0FC
:10058000E9FB00BF04F034FBE948008801280FD1E3
:1005900004F034FBE749088008460088E6490880F3
:1005A000012004F031FB04F035FB0020E049088015
:1005B00000BF04F035FB002804D101246420DF498A
:1005C000086008E0DD4801680068401EDB4A1060F2
:1005D000002900DD012420467CBDF8B505460C4607
:1005E000174600BF2046103806463F2004F01EFB89
:1005F000002811D0D2488068322808D9D1488542D5
:1006000003D0CF4880683C2801D90020F8BD31468E
:10061000CB4804F011FB06E0304604F013FB012147
:100620003F2004F015FB0120F0E730B5C6490B1F51
:100630001A7800200BE0C300CB5C3F2B05D1C34CE4
:10064000C500C14BEB185C6030BD431CD8B2904272
:10065000F1DB00BFF8E730B5024693688C68181BE1
:1006600080B2BB4DA84201D9012030BD0020FCE77B
:100670008269203A917F082904D28A00B54B9A58A2
:10068000826101E000BFFEE7704710B5B248B34990
:100690000861B3484861B3488861B348C861B3484A
:1006A0000862B3484862B3488862B348C862B34836
:1006B0000863B3484863B3488863B348C863B14824
:1006C0005C30A64940310860B0484860B048886056
:1006D000B048C860C016C206D20E01219140AE4A91
:1006E000116000BF002100F01BFA0420C043C206C5
:1006F000D20E01219140A84A803A116000BF10BD7E
:1007000010B5A6480021016000F006FE002001217E
:100710008907096B49004908C20711430122920762
:10072000116300BF10BD1CB501209D490870082051
:100730009C49088004F092FA04F032FE00F0DCFBE1
:100740009948007898490870984800789749087047
:10075000012004F089FAFF2101310D20800104F00D
:1007600089FA01F0BCFE00F007FF00F07FFC0420D6
:1007700000F0CFF9072000F0CCF90A2000F0C9F909
:10078000062000F0C6F90B2000F0C3F9012000F0AC
:10079000C0F9022000F0BDF9002000F0BAF9844849
:1007A000006804F06DFAFFF740FF01208007006841
:1007B000FF210131884340188905086000F075FA6F
:1007C0007C480068AA2805D1142000F045FD1420BB
:1007D00000F055FD02F00CF9FFF792FFA220052171
:1007E0000907C88274484088E0218843A0307249D4
:1007F0004880012004F04AFA04F012FA022803D0DB
:1008000004F00EFA012812D108206649088000BFC2
:1008100005200007808A202108402028F8D00520E4
:100820000007408A802188430521090748826FE13B
:1008300005200007008980210840C0112AD0C80582
:10084000006B09020840C00B24D104F025FAC00750
:10085000C00F1FD1042004F025FA044604F0C8F9A3
:10086000002C11D00020009052480068AA2802D124
:10087000142000F004FD0421684604F019FA002851
:1008800001D000F079FD00BFFFF74CFE002800D03A
:100890003EE100BF00BF002000BF002800D037E1CC
:1008A00072B600BF00BF01F0A2FF0190694608794F
:1008B000042808D141480078012802D10220019083
:1008C00001E00320019068460079022803D06846C1
:1008D0000079032821D105200007008A04218843DC
:1008E000001D0521090708823548C069012870D913
:1008F00068460079032869D104F0E0F9002865D042
:1009000004F0E2F9002861D0032004F0E3F90028A4
:100910005CD002202B49087069E0F2E034550020D9
:10092000900308003A550020385500204040000050
:100930004855002078040800245500202055002048
:10094000800408001034000008060800105500203C
:1009500030750000A4540020942703000084004058
:1009600062B600DF28A30200704701DF1CCA020044
:10097000F8BD02DF40CB0200F5E703DF84D40200BC
:1009800004DF89B0BC330200F8BD05DFF8BD06DF27
:10099000EC0C030070BD07DF80E100E08C03080071
:1009A000F41108000033005000000800202A08005D
:1009B00004900020FC1108002000005054020800A0
:1009C000E0010020C406080003E0FFE702200190D8
:1009D0000DE068460079032807D104F07BF9002870
:1009E00003D001206B49087001E00220019000BF94
:1009F00000BF68460079022803D0684600790328C2
:100A000056D16548006904210843634908610520FF
:100A10000007408A202188430521090748820846AB
:100A2000008A02218843801C052109070882684644
:100A3000007902280FD10846408A04218843001D0E
:100A40000521090748820846408A1021884305216C
:100A5000090748822CE005200007408A04218843CA
:100A6000001D0521090748827F2080010988802216
:100A700091438031052212071180002101E04A1CB8
:100A8000D1B20A29FBDB05210907498A10229143CB
:100A90001031052212075182411E404A5161052141
:100AA000090709888022914305221207118000BF9F
:100AB0003B484088FF21013188433949488000BFC5
:100AC0006846007903280ED105200007408A80215E
:100AD00088430521090748820846408A0421884343
:100AE00005210907488200BF30BF6846047900F03D
:100AF000C1F800BF284800690421884326490861DD
:100B000004E068460079012800D130BF62B600BF1A
:100B10008EE6C206D20E01219140224A1160704732
:100B200010B500281BDA1C4A1C3203071B0F083BB8
:100B30009B089B00D2588307DC0EFF23A3409A43F7
:100B40008B071B0E8407E40EA3401A43124B1C3381
:100B50000407240F083CA408A4001A5118E0124A04
:100B600003231B02D21883089B00D2588307DC0E94
:100B7000FF23A3409A438B071B0E8407E40EA34078
:100B80001A43094B032424021B198408A4001A5198
:100B900010BD0000C406080000ED00E00080004029
:100BA0002000005080E200E000E100E0704700001B
:100BB00005210907098A04229143091D052212070C
:100BC00011821146098A02229143891C05221207CB
:100BD00011821146098940229143403105221207B2
:100BE0001181002101228A401E4B1A6000BF08219A
:100BF0001D4A11805905498A8022914380315A0546
:100C000051821A4A0168116141685161816891619C
:100C1000C168D16101691162416951628169916262
:100C2000C169D1621249896A11631149C96A516364
:100C30000F49096B91630E49C96BD1630C49496B2C
:100C40000A4A403211600A49896B51605905898A04
:100C500020221140202901D100BE01E000BFFEE7A3
:100C60007047000080E200E00033005040180800A8
:100C700000ED00E058480078002804D1574908707A
:100C80005749C87002E080205649087070475248A2
:100C90000078002805D10120504908705049C870DB
:100CA00002E081204F49087070474B4800780028C7
:100CB00006D102204949087001204949C87002E064
:100CC000822048490870704700B5474800780028DE
:100CD00004DD45480078401E4349087042480078CA
:100CE000002800DD00BD3F480078002809D03D48BD
:100CF00000788007800F3849087000203949087053
:100D000008E035480078002804D033480078401EB9
:100D1000314908703048027800202F490870002AB5
:100D200004D0012A03D0022A07D103E006E0FFF72E
:100D3000AEFF03E0FFF7B9FF00E000BF00BF00BF58
:100D4000D0E710B528480078401C27490870224891
:100D50000078002808D103F063FF0446601CC4B289
:100D6000FFF788FF1C48047010BD01201F49087060
:100D7000704700201D49087070471C480078704774
:100D8000002100BF00BFEFF310800246012080F376
:100D9000108800BF05200007008980231840C0117B
:100DA00007D11348008940084000401C104B1881AF
:100DB0000121002A04D1002080F3108800BF04E044
:100DC000012080F3108800BF00BF00BF08467047B5
:100DD0000848007870470000F51108005402080028
:100DE000C6060800F6110800F7110800F8110800FF
:100DF000003300501612080005210907498A802295
:100E000091438031052212075182174A016811600F
:100E10004168516081689160C168D1600169116168
:100E20004169516181699161C169D1610F49896AE3
:100E300011620E49C96A51620C49096B91620B49F2
:100E4000C96BD1620949496B11630849896B5163C8
:100E500005210907898A20221140202901D100BEDD
:100E600001E000BFFEE770470018080000ED00E059
:100E700076480069002802D00020C04300E001202D
:100E80007249086108460069C117020F0901114340
:100E900000016F4A13685268184311436C4A10608E
:100EA00051606A484069002802D00020C04300E039
:100EB00001206649486108464069C117C20E4901D0
:100EC00011434001624B1A685B6810431943604A42
:100ED00010605160704708B50020022303221202FF
:100EE0000421009004F0FAF80020012302460521B5
:100EF000009004F0F3F808BD10B505200007008A43
:100F00000221884305210907088200BF0520000748
:100F1000808A08210842F9D00520000780888021B6
:100F2000884380300521090788800321092003F0C8
:100F3000D7FEFFF7AAFBFFF7CEFF05200007408A88
:100F400020218843203005210907488210BD10B5B3
:100F50004048406806218843001D3E4948600846D5
:100F6000406840084000401C4860084640683821FE
:100F700088433830374948600846406840218843F4
:100F800034494860084640680321490288434018B4
:100F900030494860084640688915884340182D4903
:100FA0004860084640680721C9028843401829491B
:100FB00048600846406809148843264948600A206A
:100FC00001218140244A116000BF042100F007F88C
:100FD0000A2001218140214A116000BF10BD10B5D7
:100FE000002819DA1E4A03071B0F083B9B089B00C9
:100FF000D2588307DC0EFF23A3409A438B071B0EB6
:101000008407E40EA3401A43154B0407240F083C41
:10101000A408A4001A5118E00F4A03231B02D21897
:1010200083089B00D2588307DC0EFF23A3409A431A
:101030008B071B0E8407E40EA3401A43064B0324C0
:1010400024021B198408A4001A5110BD209000200E
:10105000285500200002004000E100E080E200E0AE
:101060001CED00E0AA20F7490860704700B5052094
:1010700000070089302188430521090708810846B7
:1010800000898021884380300521090708810846AE
:10109000008980088000401C0881084600890821DA
:1010A00088430830052109070881E7480088802126
:1010B00088438030E449088005200007408A0821E1
:1010C0008843052109074882084600894021884352
:1010D00040300521090708810846008A0421884319
:1010E00005210907088200BF05200007808A022128
:1010F0000842F9D0FFF7B6FFD2480068002833D184
:10110000D148008840084000401CCF49088008466C
:10111000408909010840401207D0CB480088C90027
:1011200088434018C849088006E0C7480088012164
:1011300009038843C4490880C3480088782188434C
:101140002830C14908800846008806218843801D50
:10115000BD49088005200007408A082188430830DF
:1011600005210907488235E0B6480068AA2831D130
:10117000B5488088F0218843B030B349888008465C
:101180008088032109028843FF300130AE498880FE
:101190000846808800090001888008468088490147
:1011A00088434018A8498880084680888901884378
:1011B0004018A549888008468088C901884340189E
:1011C000A149888005200007408A0821884305211D
:1011D000090748829C480088802188439A490880F2
:1011E000052000070089402188430521090708815F
:1011F00095484089012149020840401203D005204A
:10120000914960318880012080070068FF21013109
:101210008843890508608D4800683F21490288435A
:1012200001214903401889490860084600680903FC
:10123000884340188549086000BD03210902844A9B
:10124000918108215180002000E0401C9628FCD3A9
:1012500008217F4A918070477E4948800988890823
:101260008900C91C7B4A11801146098804229143D8
:10127000091D784A11800121774A11707047F0B535
:1012800087B0044674480078002843D000BF7148F6
:101290000088042108408010F9D16E48C08805906C
:1012A0006C488088049005980004049940180390C5
:1012B0006A4961430846039903F018FD0290002033
:1012C00065490870664902980860029803F0D2FBED
:1012D00007463946634803F017FB06468921C905CE
:1012E00003F0D5FA054603F0E5FB5F4908605C486A
:1012F000006803F0BFFB074603F0F0FB5B4A5C4B62
:101300000191009003F0F8FC054603F0FBFB5949FE
:10131000086000BF07B0F0BD70B500244948006800
:10132000AA280BD15048006819210903884202D924
:1013300000BF00BE00BFFF25EB3500E07C254E4816
:10134000201804B2601904B200BFA0B203F0DAFCA6
:1013500070BD70B53C4840881E210840451003F020
:10136000D7FC0446384840881E218843690008435A
:1013700035494880204670BDF8B50020009000BF78
:1013800001203E49C86300BF00BF00BF00BF3B480B
:10139000C06B0028FAD100BF01208007C46900BFDC
:1013A00037480068844202D200203549086000981E
:1013B000002812D0002000903148046003F01EFC89
:1013C00030490880012003F01FFC03F023FC06468F
:1013D000002E01D101200090F8BD29480068201A94
:1013E0001921C90188421FD32548046003F006FC77
:1013F0000546244909888D4204DD22480088281AC0
:1014000087B203E01F480088401B87B2182F0BDB10
:101410001C480580012003F0F7FB03F0FBFB0646A8
:10142000002E01D10120009000BFD5E738B5044659
:101430000B49096861430846134903F057FC0090C3
:10144000009838BDFC110800200000500002004048
:101450002030005000160050041208000024F40050
:101460000012080000247449081208007B14AE47DB
:10147000E17A443F0C12080001120000C000004055
:101480007C0408007804080040420F0008B50146BB
:10149000364800684843800A0090009808BD38B577
:1014A000044633480068002804D1204603F036FC87
:1014B000009003E02046FFF7B9FF0090009838BD88
:1014C00038B504462A480068002804D1204603F0B5
:1014D0002BFC009003E02046FFF7D8FF0090009817
:1014E00038BD00BF23494869C107C90F002901D190
:1014F000012070470020FCE738B5012400BF00BF81
:101500001C494869402101408909002907D000BFD2
:1015100018494869202101404909002901D10024C6
:1015200014E0002013490861009002E00098401C7C
:101530000090FF215F3100988842F7D3FFF7D1FF79
:10154000002802D103F0F6FB002400BF00BF2046B4
:1015500038BD10B50246D3009633CC0082341B1937
:1015600096331846FF30C33010BD00000812080043
:10157000FC11080000100050CB49CC48CA05128865
:1015800080239A438032CB051A8000BFC84A528913
:1015900008231A40082A03D00A46491E002AF5D11A
:1015A0000122C44B1A600288C34B1A80801C028837
:1015B000C24B1A8005221207128880239A43052302
:1015C0001B071A807047014600207047704770471C
:1015D000704702460020704700BF01218907096B50
:1015E000062211430122084610439107086300BFF9
:1015F00070477047B248B34908604C20B249088030
:10160000B248B14920390882B148B2494880B2484D
:10161000B2490880B0481930488022204881812092
:1016200080000882AE484882AE480883AC4811303A
:101630004883AD48A9492031888041200001AB4949
:101640008880AB48C880AA481030C881A848088262
:101650004882801C8882A6480B30C882FF20463012
:101660000883A44848835920A3490880A348A24975
:101670002031088043204880A1489F494882D520D6
:101680009D4920318880FF20D33008819D484881C2
:101690009D4888819D489E4908809E488A496039B6
:1016A00048800846C0881021884310308649603938
:1016B000C88092480A380881974883494039488051
:1016C000824881492039488208207F496039488111
:1016D0007A480088884940390882774800888F49CD
:1016E0000880704701460A46C80F801840107047AE
:1016F000F0B58DB00446002500268948606289480F
:10170000A062894860618948E06289482060894810
:101710002062894860608948E0617F210906284687
:1017200088430721090645180F21090228468843E6
:10173000052109024518FF2109042846884315217F
:1017400089044518280A000205464C355D480560A5
:101750005C484038006B012189058843594940396C
:1017600008630846406B1F210904884303210904CC
:10177000401854494039486371480068C912884389
:101780006F49086008460068091388436C4908607F
:1017900003E003A88655701CC6B2282EF9DB03A807
:1017A0002027019028200290B8033818029A019946
:1017B00003F0C6FA00BFFFF71DFF03F01FFA6149EF
:1017C0000880002003F020FA03F024FA0DB0F0BDE9
:1017D00070B500247F2109062046884307210906A9
:1017E00044180F21090220468843052109024418A4
:1017F000FF21090420468843152189044418200A42
:10180000000204464C342F4804602E484038406B98
:101810001F2109048843032109044018294940393C
:10182000486308060068C008C00009060860052073
:101830000007008980088000401C052109070881F5
:1018400008460089082188430830052109070881D6
:101850000846008A0F21090288434018052109071C
:1018600008823948006800280DD1114840890121BB
:1018700049020840401206D00D480088782188436C
:1018800008300B490880FFF7B5FE3048056B287813
:10189000002804D02E4800880B496039C8800120F8
:1018A00003F0F4F970BD0000A0860100087F040079
:1018B0002000005000800040560208004A03080043
:1018C0004C05540780000040602C00507F7F0000D2
:1018D000AC2900000022005009090000002400503B
:1018E0002204000030D00000EE110000002500505E
:1018F0002E02000044200000402800500D950000FA
:1019000002420000E4DC0000109200005378000066
:10191000002A00508B1000009DD5000000260050CA
:10192000C7150020CD150020D3150020D9150020A3
:10193000CF150020F3150020D1150020E51600205A
:101940000002004078040800FC110800200200207A
:101950005204080070B50446204603F0F1FB20460F
:10196000133880002F490D58002D01D0A84708E0FA
:1019700000BFE106C90E012088402B49086000BF66
:1019800000BF70BD10B51320FFF7E4FF10BD10B508
:101990001420FFF7DFFF10BD10B51520FFF7DAFFA9
:1019A00010BD10B51620FFF7D5FF10BD10B51720DC
:1019B000FFF7D0FF10BD10B5002819DA1B4A030746
:1019C0001B0F083B9B089B00D2588307DC0EFF23AC
:1019D000A3409A438B071B0E8407E40EA3401A43CF
:1019E000124B0407240F083CA408A4001A5118E065
:1019F0000F4A03231B02D21883089B00D258830787
:101A0000DC0EFF23A3409A438B071B0E8407E40ED2
:101A1000A3401A43064B032424021B198408A40084
:101A20001A5110BDC090002080E200E01CED00E0E3
:101A300000E100E070B5EFF31085012080F310881D
:101A4000264803F083F90446002D1DD0012080F3C1
:101A50001088002C23D020462038C08B2049884293
:101A60001DD16189208903F077F905000ED0214648
:101A70001031A38962892089A847002806D001284F
:101A80000DD002280BD105E00020E0E7204603F04E
:101A900069F904E0114821460C3003F0CDF8EFF36A
:101AA0001084012080F310880C480068002802D1BF
:101AB000012003F05DF9002C03D0012080F3108891
:101AC00070BD0020FAE710B5BC21064803F056F9B6
:101AD0000549012003F058F910BD0000A8050800D1
:101AE0003883000004060800351A0020F8B50D46BA
:101AF000064681002B48EA884458521C20686B89AE
:101B0000018F294F51430091014640314A89C989CB
:101B1000511A8AB2991A89B2B94214D29A4212D091
:101B2000294603F037F92D892049009803F0DEF8A3
:101B30002818801C4034E0823002401C80B204210E
:101B400003F086F8F8BD2821304603F029F9F8BDE6
:101B5000F8B50546870013480C46C059C988006887
:101B6000114E024640325389D2899A1A92B28B1A88
:101B70009BB2B34211D20B4E8A420ED003F016F93B
:101B8000F05905225F30611C03F0DAF82802401C8E
:101B900080B2052103F05CF8F8BD2821284603F047
:101BA000FFF8F8BD4C030800FF7F0000102700007D
:101BB00070B516460D46104603F038F8002869D077
:101BC000340A304603F032F8012812D0A87A1E28D1
:101BD00011D029460A310E2845D019DC801E030099
:101BE00003F0EAF80B255829582D58315839583D3B
:101BF0005800022070BD3146274803F0E3F8002169
:101C0000204603F0E5F80221304603F021F841E0D8
:101C100018283CD006DC102819D012282BD0162802
:101C200038D130E0522822D0D22833D127E02046C4
:101C300003F0D4F82EE0204603F0D6F82AE0204640
:101C400003F0D8F826E0204603F0DAF822E0204638
:101C500003F0DCF81EE0204603F0DEF81AE0204630
:101C600003F0E0F816E0204603F0E2F812E0204628
:101C700003F0E4F80EE0204603F0E6F80AE0204620
:101C800003F0E8F806E0204603F0EAF802E0204618
:101C900003F0ECF8002070BD01280000F3B581B01E
:101CA00001980C460102CA1D0E310223344803F08C
:101CB000E3F8047001990546022732488E00002C93
:101CC00006D0042C16D0062C10D0072C3FD108E0EB
:101CD000815905224968897C114069708059C77310
:101CE00035E0084603F0CEF8687030E080590F21E7
:101CF000C1732CE0044680594068417C012902D11F
:101D0000007E01280FD0019803F0C2F801210028BD
:101D1000A0590BD04268D07D00281CD001281AD0D1
:101D200004280DD00FE0002068700DE04068C27DEF
:101D3000022A01D0042A06D1007C02280BD102E03D
:101D4000107C022807D06F70A1590320C873284661
:101D500003F0A4F8FEBD6970F6E701460A78012099
:101D6000042A01D9002070474A78002A01D0012AAC
:101D7000F8D10A79082AF5D849790829F2D87047A4
:101D8000021C000028050800FFB589B00D460020A0
:101D90006946059008720B98000A009003F078F8E5
:101DA00007460B9802F042FF00287DD00B98297857
:101DB000000A8400764E01295ED0042904D0062949
:101DC00043D0072963D120E0687800281BD0305920
:101DD00010224068A91C02F0B3FF002F06D0315931
:101DE000C87B032807D0042808D050E03059C07BB6
:101DF000032803D04BE00B20C87348E0052100986E
:101E000003F052F843E00120B6E03059C07B0E28C1
:101E10003DD1009803F036F8002103E02A18401C59
:101E20009170C0B21028F9D3688A694608832946A0
:101E300006A808221431023002F082FF06ABAA1C69
:101E40003946009803F036F821E03059C07B0F285E
:101E50001DD1AA1C0A21009803F032F8002F04D0EB
:101E60003946009803F032F811E000231A4639464B
:101E7000009803F031F80AE0012F08D10B9802F026
:101E8000D5FE01281CD0002801D00220059068460C
:101E9000007A002811D002AA0521009803F010F85A
:101EA0006846027A602000E007E00243684602725A
:101EB00001233946009803F00FF805980DB0F0BDE6
:101EC0003059C07B0228E2D16878002851D0022125
:101ED0000B9802F0BDFE305907224068A91C17304C
:101EE00002F02EFFE878002804D130594068407C89
:101EF00001283AD0009802F0F5FF002837D0297A5F
:101F0000009802F0F5FF002833D0009802F0F6FFA9
:101F10000121009802F0F8FF00282CD030594068C9
:101F2000417E00292BD0042929D0C17E027D114099
:101F3000C17630594068017F427D11400177684683
:101F4000007A0028A7D13059022142680098173240
:101F500002F0B6FF305941684031897B002913D027
:101F600004210098FFF79AFE91E7022004E0062082
:101F700002E0082000E00320694608728BE7002198
:101F8000C17630594068D9E70B21C1737FE7000063
:101F90002805080070B50446007800250D2801D0FA
:101FA0000A2200E002225A494B7A002B06D00D2863
:101FB00004D0637C032B01D0432551E0097A8A4386
:101FC00039D10D2809D00E2802D00F2803D134E0D2
:101FD000607C032804D3402542E0607C0328FAD8C3
:101FE000A07C0428F7D20A2908D0607C012822D0DE
:101FF000022820D06078032809D811E002F08AFF77
:10200000012806D16078032803D0002801D0492593
:1020100026E002F07FFF002802D160780228F6D87F
:102020003020035D22462046E17C3132143000F03E
:1020300019F8054614E0422512E002F06BFF012872
:1020400007D16078052804D1A01D02F069FF00289F
:10205000DDD002F05FFF002802D160780228D6D8D8
:10206000284670BDFFB5002086B001216A46117078
:10207000044605910021002C06D0089D099A1F23D3
:102080009A4234D9402032E01C23069D079AF7E794
:102090006B185E78330002F08FFE1D2610101010B2
:1020A000101010101026262626262626262626263E
:1020B00026261010101010102600059B03E06F4616
:1020C000FF5CB74204D05B1E5BB2002BF7DA03E083
:1020D000002B01DB4A2006E0059B6F46FE54059B62
:1020E0005B1CDBB205936B5C491C5918C9B2914269
:1020F00001D20028CCD0914202D04A200AB0F0BDD3
:10210000641CE4B2022CF9D20028B3D0F6E7000038
:1021100098050800F8B506460C4615460127312EED
:1021200077D012DC0C2E75D008DC012E20D0022EC8
:1021300046D0072E60D00B2E41D17DE0102E6AD004
:10214000112E69D0122EF7D1DCE0412E6FD008DCC1
:10215000322E6DD0352E6CD0362E6BD0402EEBD17A
:1021600045E1422E67D0432E73D0442EE4D19CE14A
:102170000622EE49EE4802F0D9FE002808D00622D9
:10218000EB49284602F0DCFD062020700020F8BD57
:10219000E84800680078C007C00F10D020780628F3
:1021A00003DA00202070042709E00622E1480168D4
:1021B0009831284602F0C4FD0620207000278BE1EC
:1021C000DC48006800680221084214D020783E28CC
:1021D00003DA0020207004270DE0D6480068427E14
:1021E000D44801685A31284602F0AAFDD148006857
:1021F000407E207000276FE1CE480068006804210F
:10220000084213D02078022807DA00202070042723
:102210000CE08CE02DE048E05FE0C6480068817C7F
:102220002970C07C687002202070002754E1F7E01C
:1022300096E0AEE0C3E00AE1BE480068006808210D
:10224000084215D02078202804DA002020700427C6
:102250000EE013E1B7480068C27DB64801681A3144
:10226000284602F06DFDB3480068C07D207000274D
:1022700032E1B048006800681021084214D020788C
:10228000202803DA0020207004270DE0A948006808
:10229000027EA84801689831284602F051FDA54801
:1022A0000068007E2070002716E1A24800680068E0
:1022B0002021084210D02078042803DA0020207062
:1022C000042709E004229B480168091D284602F002
:1022D00037FD042020700027FEE096480068006863
:1022E000402108420DD02078012803DA0020207018
:1022F000042706E08F480068007D287002202070C7
:102300000027E9E08B4800680068802108420DD072
:102310002078012803DA00202070042706E0854891
:102320000068407D2870022020700027D4E081489A
:1023300000680068FF210131084210D0207804288D
:1023400003DA00202070042709E00422794801689C
:102350000C31284602F0F4FC042020700027BBE07A
:1023600074480068006801214902084210D02078B2
:10237000042803DA00202070042709E004226D48B5
:1023800001680831284602F0DBFC04202070002799
:10239000A2E06848006800680121890208420DD067
:1023A0002078012803DA00202070042706E0614825
:1023B0000068807D28700120207000278CE05D4837
:1023C000006800680121C90208420FD02078022865
:1023D00003DA00202070042708E056480068017CDA
:1023E0002970407C687002202070002774E05148FA
:1023F0000068006801210903084210D020780228F3
:1024000003DA00202070042709E04A48006882307F
:10241000017F2970407F68700220207000275BE0F8
:102420004448006800680121490308420ED0207822
:10243000012803DA00202070042707E03D480068E7
:10244000A0300078287001202070002744E039482F
:10245000006800680121890308420ED02078012815
:1024600003DA00202070042707E032480068A1301A
:10247000007828700120207000272DE02D4800688A
:1024800000680121C90308420ED02078012803DA30
:1024900000202070042707E026480068A23000785A
:1024A000287001202070002716E02248006800688C
:1024B0000121090408420ED02078012803DA002007
:1024C0002070042707E01B480068A33000782870BC
:1024D00001202070002700BF00BF384657E670B5C6
:1024E000154D164CA0060088802188438030A10637
:1024F000088000BF1248408908210840082803D0FE
:1025000028466D1E0028F5D101200E4908600622DC
:102510002146074802F014FC0520000700888021AE
:10252000884305210907088070BD0000383E03007C
:1025300010120800C0060800A0860100D47F040025
:102540002000005000800040F8B500BF0120800747
:10255000806B06463046FEF7B3FF07468A49384689
:1025600002F0C4FB05468849384602F0BFFB27202D
:102570000001441A002C00D1012400BF83484560AB
:1025800000BF00BF046000BF01208107096B082263
:102590009143C20011438207116300BFF8BD08B523
:1025A0000020009008207A49088005200007008854
:1025B000302188433030052109070880084600880B
:1025C00080088000C01C088002E000BF00BF00BF80
:1025D00005200007808A80210840C011F5D0052021
:1025E0000007408980088000052109074881694863
:1025F000408840084000674948800520000700885F
:102600003021884305210907088008460088800892
:10261000800008800846808A04210840801001D08C
:10262000FEF76AFC0520000700898021884380307E
:102630000521090708810846008A042188430521ED
:102640000907088200BF05200007808A022108428E
:10265000F9D003E00098002800D00CE04E48006854
:10266000012109050840000DF4D188020069042108
:1026700008408008EED000BF08BD10B502F05CFC39
:1026800002F060FC10BD10B502F062FC05200007EE
:10269000408A802188430521090748823C480089F7
:1026A000400840003A4908813C4800683F2800D073
:1026B00000BF01F03CFB01208007806904218843B2
:1026C000001D0907886102F049FC02F04DFC02F090
:1026D00051FC33480068AA2802D11420FEF7BCFD43
:1026E00000203049087010BD10B502F049FC10BD43
:1026F00010B501208007048A0820044204D002F0AB
:1027000045FC03202749087010BD70B52648008895
:102710008506AD0E204844682048C030066B3078EE
:10272000002802D1284602F037FC20480089FF210A
:1027300001310840001208D08020044205D0E00793
:10274000C00F02D0284602F02DFC802004420AD09F
:10275000E007C00F07D00220124908701448008813
:10276000401C134908800120C00304420AD0C01154
:10277000044207D001200B4908700E480088401C15
:102780000C49088070BD000071020000400000404C
:102790000033005020000050000200406001002083
:1027A000FC1108001612080000200050002C0050F8
:1027B0003A5500204655002070B50446E0026421D9
:1027C00002F094FA05466D1E284670BDF8B5044621
:1027D000204602F04FF906467A480168304602F07A
:1027E00056F8054602F066F900900098F8BDFEB56F
:1027F000002001900026744840690090FEF7BDFA61
:10280000002803D171480079022801D100200090EE
:1028100000BF6F48006800281DD16E48007800286E
:102820001CD000BF01216C4AD16300BF00BF00BFB4
:1028300000BF6949C96B0029FAD100BF012189078E
:10284000C86900BF1921C901884200D2B6E0002141
:10285000604A117002E000205E49087002F0A8FB97
:10286000002800D1AAE0012001905848C078002833
:1028700000D1A3E005200007808AC007C00F02D066
:10288000042001909AE002F007FA002800D095E0B9
:10289000524800683F2800D000BF4C48007900280B
:1028A00002D149480069009048488178684602F0A2
:1028B00085FB002800D181E044488178684602F019
:1028C000F7F9002800D179E0444800683F2800D09B
:1028D00000BF02F079FB002800D16FE03C4800689F
:1028E000AA2805D13E48FEF7DAFD0446032501E09B
:1028F0009724072501208007C06B800A8002711C85
:10290000084301218907C8630846C06B3549084060
:10291000A102084301218907C8630846C06BC002B1
:10292000C00A6905084301218907C8630420019092
:102930002748006800280FD10098FFF73DFF0746A1
:1029400022480079002801D0012000E00020014643
:10295000384602F03FFB12E01D480068AA280ED15D
:102960000098FFF733FF074618480079002801D088
:10297000012000E000200146384602F02BFB1A49F6
:10298000C86A804700BF00BF01218907086BC913CF
:102990000140C90B0029F6D000BF14480068FF2190
:1029A00001310842F9D002F01BFB05200007008925
:1029B0008021884305210907088100BF00BF0198D5
:1029C000FEBD00000C120800A0020020C606080090
:1029D000FC110800F4110800C00000406001002054
:1029E00001120000FF03E0FF1C0708000002004086
:1029F00010B5FEF73FF90020FE4908700220FE499D
:102A000008700020FD4908702520FD49087032201B
:102A1000FC4908800020FC490880FC490880FC49EA
:102A20000880FC490880FC490880FC490880FC4972
:102A30000880FC4800680121490588434018F9498D
:102A400008600020F8490880FEF781FA10BD08B53B
:102A5000E8480078002811D1EC490880EC4908804A
:102A6000EC490880EC490880E4480078009068460A
:102A700002F0BCFA0220DF49087000BF08BD7CB537
:102A800004460020E1490880E1490880E1490880C6
:102A9000E1490880E24908802078D8490870FFF7AA
:102AA000D6FF0421684601700E2141700321817018
:102AB0000121C170DD4981806D4600220621284632
:102AC00002F090F87CBD08B5CA48007800281FD1F4
:102AD000CD490880C948017868460170C848017826
:102AE00068464170C44801786846817002F084FAF3
:102AF00006E0684602F080FA002801D000BFFEE739
:102B0000CB48406B0028F4D00120BA49087000BFC0
:102B100008BD7CB504460421684601700F21417050
:102B2000032181700121C170C24981806D4600225C
:102B30000621284602F056F82078B04908706078DF
:102B4000AF490870A078AC49087020790002E1789C
:102B50000843AC490880FFF7B6FF7CBD08B5A5481F
:102B60000078002828D1A548017868460170252101
:102B70004170A14801786846817002F03DFAAE4884
:102B8000006A0121C90388434018AB49086208461E
:102B9000006A09148843A84908620846006A891433
:102BA0008843A54908620846006A400A4002086254
:102BB00005209049087000BF08BD7CB5044604217B
:102BC000684601700E214170032181700121C1709E
:102BD0009649303181806D4600220621284602F058
:102BE00001F8207885490870607883490870FFF7FC
:102BF000B5FF7CBDFEB50446002620784F2819D1CC
:102C000000208E4908808D492031088003208C499E
:102C100088800A20012181408A4A116000BF00BFDC
:102C200001218140884A116000BF012600207149BE
:102C3000087079E02078542839D10A2000F0B9FBD7
:102C40006578824F3878002811D1284602F0A4F91F
:102C50007A480088FF21013188434018774908806D
:102C600008460088000A00022843088010E07848DF
:102C700072490988C21291438918704A118011461D
:102C80000988090A0902425D11436C4A118000BF9C
:102C9000012080036A498880042068492031088027
:102CA0000220088001260620524908703CE0207866
:102CB000522839D10A2000F07CFB6578634F3878C0
:102CC000002811D1284602F067F95C480088FF21EE
:102CD0000131884340185949088008460088000A95
:102CE00000022843088010E0594854490988C2125C
:102CF00091438918514A118011460988090A09022D
:102D0000425D11434D4A118000BF012080034C49B0
:102D10008880012049492031088008200880012648
:102D200006203449087000BF002E12D004216846E6
:102D300001700E214170032181700121C1703B4956
:102D4000103981806D4600220621284601F04AFF95
:102D500000BFFEBD10B527480078012807D02548E0
:102D60000078022803D023480078052807D130498D
:102D7000486B00F0E9FD2E48343002F043F90020A2
:102D80001C49087010BD1CB50421684601700E2155
:102D90004170032181700121C1702449403181803B
:102DA0006C4600220621204601F01CFFFFF7D2FFEF
:102DB0000020214908621CBD1FB50421684601702E
:102DC0000E2141700B2181700121C1701749103112
:102DD00081800E4801886846C1800D480188684698
:102DE00001810C480188684641810D480188684688
:102DF00081812FE0345500203555002036550020C4
:102E000037550020385500203A5500203C55002009
:102E10003E550020405500204655002042550020D8
:102E2000445500200002004048550020204000008A
:102E3000900308001E200000C00000400020005049
:102E4000002C005000E100E080E200E0C4540020CB
:102E5000200008006C4600220E21204601F0C2FE30
:102E6000FFF778FF1FBD7CB504460421684601705A
:102E70000F214170032181700121C170FE498180C1
:102E80006D4600220621284601F0ACFE207801287C
:102E90001CD16078002806D1A078002803D1022038
:102EA000F64908710FE00120F44908716078192192
:102EB000890148433C214843A1781922920151439A
:102EC0004118EF484161FDF7E2FE09E02078022851
:102ED00004D1EA490871FDF7E8FE01E0FDF7CAFEFA
:102EE0007CBD0521090748807047F8B50346E54DCC
:102EF000E80500888026B0438030EE05308000BFB2
:102F0000E148408908263040082803D028466D1E35
:102F10000028F5D1DC48C08B0226B043801CDA4E75
:102F2000F083002035E00026D84F3E608600F6187A
:102F30003604B60C3E6100267E6104263E608600A3
:102F4000F61C8E5D36068700BF1CCF5D3F043E43F6
:102F500087007F1CCF5D3F023E438700CF5D344634
:102F60003C4300BFC94EB6680F273F0200963E4063
:102F70000127FF02BE42F5D0C44EB46100BFC34E6C
:102F8000B66800961027009E3E40102EF7D1461CD2
:102F9000B0B29042C7DB0520000700888026B0430E
:102FA000052636073080F8BDF0B585B00446A07818
:102FB000000261780843054600200190207801282E
:102FC00003D12846FFF78DFF5DE02078022808D165
:102FD0000120AF49086303200002AD49C0390861F0
:102FE00051E0207803280BD1052000074288A9482A
:102FF000401B904203DB511988B2FFF772FF42E099
:103000002078042809D1052000074288AA4203DB62
:10301000511B88B2FFF765FF35E02078052808D1FD
:1030200000209B490863012040029949C03908618A
:1030300029E02078062802D02078072823D160785C
:1030400001F087F90646701C02D10120019019E0B9
:10305000B01C02D10220019014E02078072811D181
:1030600000200090B0B20090012269468A48FFF724
:103070003CFF102000900122694687481438FFF772
:1030800034FF00BF00BF0421684601720E21417267
:10309000052181720121C1722078002805D1052007
:1030A000000740886946C8810CE02078062802D0D5
:1030B0002078072803D169460198C88102E00020E2
:1030C0006946C8818120C0016946888102AF00221B
:1030D0000821384601F086FD05B0F0BDF8B504467C
:1030E0000D461646674F0120800420180090F80511
:1030F0000088802188438030F905088000BF62483D
:10310000408908210840082803D038467F1E00283F
:10311000F5D101205D49086032462846009901F04A
:103120000FFE05200007008880218843052109073C
:103130000880F8BD30B587B00446042168460173A5
:103140000E2141730A2181730121C1734A49203143
:103150000182217881740021C17403A80172417237
:103160008172C17201732078002806D1022204A95D
:1031700003314948FFF7B2FF41E02078022807D128
:10318000062204A9033144484830FFF7A7FF36E080
:103190002078042807D1042204A903313E481438BA
:1031A000FFF79CFF2BE0207801280AD16078A178F6
:1031B000090208430290012202A93748FFF795FE51
:1031C0001DE0207803280ED10020019002900622F5
:1031D000611C01A801F0B4FD022201A92E4848306B
:1031E000FFF783FE0BE02078052808D1102002901D
:1031F000012202A928481438FFF777FE00BF03AD6B
:1032000000220D21284601F0EDFC07B030BD10B5BD
:1032100004462248006801F0FBFE00201F490860B8
:1032200010BDF8B5064630787178090208430746A4
:10323000B578A90008460830032101F0EFFE0446E6
:10324000042020700E206070A800401DA070012096
:10325000E07009483030A0800020A071E571A80618
:10326000020E214608313846FFF738FF0B4804604C
:10327000A8000146083113E070400000C6060800AF
:10328000A0020020A0860100200000500080004025
:10329000C0300050FFFF00008C7F00003055002040
:1032A000474A4848006801F09DFCF8BD7CB50446DB
:1032B000002520786178090208430646A5782A4649
:1032C000E11C3046FFF711FE0421684601700E2113
:1032D0004170052181700121C1703B49818000212D
:1032E0008171C5710022082101F07CFC7CBDF0B524
:1032F00085B004462078039000260025002704218D
:10330000684601700E214170092181700121C17050
:103310002D4910318180039981710021C1710172A1
:1033200041728172C1726078A17809020843E17824
:103330000904084321790906084306460398002832
:1033400006D0012813D002281ED0032829D121E05D
:10335000356869460D722804010E684641722802DC
:10336000010E68468172280E6946C87219E06079BC
:10337000A17909020843E17909040843217A090681
:103380000843054635600CE0378869460F723812ED
:10339000487206E06079A179090208430746378040
:1033A00000BF00BF00220C21684601F01BFC05B0E5
:1033B000F0BDC206D20E01219140044A116070474F
:1033C0000F32002030550020B040000080E100E0C6
:1033D00070B504461948856A2046A84770BD10B5E7
:1033E000052001F0C5FC00BF154800680446002C0C
:1033F00006D012484030017B0122204600F0ABF895
:1034000010BD10B5044620210D4801F0B7FC0C4852
:1034100001F00AFE0A480C3001F006FE01F00AFE37
:103420000849062001F0B0FC0749052001F0ACFC7A
:103430000649042001F0A8FC10BD0000E0010020B6
:103440006C03080041600200DF330020815F02004E
:10345000F7B505460E46FE48047B5320415D0298B1
:103460000818C1B2532041550298707034704A2038
:10347000405BB0804EE000BFF5482038816A2E20C6
:10348000604308180746F3480078022803D0F14843
:103490000078042827D1F0480088401CEE490880B5
:1034A000B878C007C00F04D0EC480088401CEB4936
:1034B0000880788808210840082804D1E848008856
:1034C000401CE7490880B879E64909884018400857
:1034D000E4490880E44840880012E449098840181B
:1034E0004008E24908805720405DC007C00F06D061
:1034F00078884021084202D1284601F0A1FD2146EA
:10350000481CC217520F1218D210D200821AD2B21F
:10351000144600BF0298411EC9B202910028AAD1E8
:1035200000BFCB48047300BF5820405D002811D075
:103530005320405D00280DD03078C54920398A6A73
:103540002E21414351188878C007C00F02D10021B5
:1035500058204155FEBDF8B505460E461746482091
:10356000415BC348C069814201D1002004E048208A
:10357000405D0002401C80B20090062302229002AF
:10358000009901F079FC0446324621462846FFF7AF
:103590005FFF002F02D00020A07003E021462846E4
:1035A00001F054FD204601F079FCF8BD30B502462B
:1035B0000C46B04B1B88FF258135AB438033AD4DA6
:1035C0002B802B461B885B085B005B1C2B802B46EB
:1035D0001B881825AB431033A64D2B80104603885B
:1035E0006B8000BF00BF00BFA24B1B8801256D038D
:1035F0002B405B13F8D001239E4DEB8000BF438826
:103600006B8000BF00BF00BF9A4B1B8801256D0374
:103610002B405B13F8D00123964DEB8000BF8388CD
:103620006B8000BF00BF00BF924B1B8801256D035C
:103630002B405B13F8D001238E4DEB8000BFC38875
:103640006B8000BF00BF00BF8A4B1B8801256D0344
:103650002B405B13F8D00123864DEB8000BF03891C
:103660006B8000BF00BF00BF824B1B8801256D032C
:103670002B405B13F8D001237E4DEB8000BF4389C4
:103680006B8000BF00BF00BF7A4B1B8801256D0314
:103690002B405B13F8D00123764DEB8000BF83896C
:1036A0006B8000BF00BF00BF724B1B8801256D03FC
:1036B0002B405B13F8D001236E4DEB8000BFC38914
:1036C0006B8000BF00BF00BF6A4B1B8801256D03E4
:1036D0002B405B13F8D00123664DEB8000BF038ABB
:1036E0006B8000BF00BF00BF624B1B8801256D03CC
:1036F0002B405B13F8D001235E4DEB8000BF438A63
:103700006B8000BF00BF00BF5A4B1B8801256D03B3
:103710002B405B13F8D00123564DEB8000BF838A0A
:103720006B8000BF00BF00BF524B1B8801256D039B
:103730002B405B13F8D001234E4DEB8000BFC38AB2
:103740006B8000BF00BF00BF4A4B1B8801256D0383
:103750002B405B13F8D00123464DEB8000BF038B59
:103760006B8000BF00BF00BF424B1B8801256D036B
:103770002B405B13F8D001233E4DEB8000BF438B01
:103780006B8000BF00BF00BF3A4B1B8801256D0353
:103790002B405B13F8D00123364DEB8000BF838BA9
:1037A0006B8000BF00BF00BF324B1B8801256D033B
:1037B0002B405B13F8D001232E4DEB8000BFC38B51
:1037C0006B8000BF00BF00BF2A4B1B8801256D0323
:1037D0002B405B13F8D00123264DEB8000BF038CF8
:1037E0006B8000BF00BF00BF224B1B8801256D030B
:1037F0002B405B13F8D001231E4DEB8000BF438CA0
:103800006B8000BF00BF00BF1A4B1B8801256D03F2
:103810002B405B13F8D00123164DEB8000BF2B46E5
:103820001B88FF258135AB43124D2B80838CDBB287
:103830006B8000BF00BF00BF0E4B1B8801256D03CE
:103840002B405B13F8D001230A4DEB8000BF13E03F
:1038500038030800345500203C5500203E55002018
:1038600040550020425500200029005044550020BA
:10387000E0010020001200502B461B88FF258135F7
:10388000AB4380332D4D2B802D4B5B886B8000BF6D
:1038900000BF00BF294B1B8801256D032B405B1324
:1038A000F8D00123254DEB8000BF911E2B461B88CD
:1038B000FF258135AB43214D2B800B786B8000BFFA
:1038C00000BF00BF1D4B1B8801256D032B405B1300
:1038D000F8D00123194DEB8000BF2B461B88FF2534
:1038E0008135AB438033154D2B80154B1B886B8086
:1038F00000BF00BF00BF114B1B8801256D032B408B
:103900005B13F8D001230D4DEB8000BF0D4B9B8A5C
:103910006B8000BF00BF00BF084B1B8801256D03F3
:103920002B405B13F8D00123044DEB8000BF2B46E6
:103930001B885B085B002B8030BD0000001200502C
:10394000002900500023005070B50446094805685E
:103950002046A84770BD10B50446002C04D00121B4
:103960008906204601F078FB03484168012088471A
:1039700010BD0000A00200201C07080010B50321A4
:10398000FD4881702038C068FC4A01210368FA486C
:103990000838984710BD0020F74920390A7E497E33
:1039A000F74B595C8A4208D1F3492039497E491CBA
:1039B000CAB2F14920394A7603E00022EE492039A3
:1039C0004A76ED492039497E032904DB0120002293
:1039D000E94920394A76704770B504460D46022100
:1039E000E54881702038C068E44A214603682846CB
:1039F000984770BD10B504460021DF482038417655
:103A00000476FFF7C8FFFFF7B9FF042001F02AFB97
:103A100010BD10B504460121D74881702038C06818
:103A2000D64A21460368D448801F9847042001F0F5
:103A30001FFB10BDF8B50546002D26D0CE48807876
:103A4000022818D1CC48C078012802D0052810D10E
:103A500000E000BFC84820380069002808D0C649E7
:103A60002039086901F07EF90020C3492039086136
:103A700000E000BF00BF012D03D10020FFF7BAFF17
:103A800002E000F007F9F8BD00BFBB4880780028CD
:103A900006D001281AD002287ED0032815D1ECE0E8
:103AA000B548C078012802D0052808D103E00320DA
:103AB000FFF7AFFF08E00820FFF7ABFF04E0AE49D7
:103AC000C878FFF797FF00BF00BFE0E0AA48C078C2
:103AD000012802D0052873D146E000F07FF9A648FE
:103AE00020380069C089002832D1A34820380069F5
:103AF0000089A449884211D09F4820380069008974
:103B0000A0493031884209D09B49203908690146D3
:103B100010310C46204601F0C1F916E0002096490C
:103B2000203909690881944920390969C881924876
:103B300020380069002808D08F492039086901F031
:103B400011F900208C492039086100F0A3F80AE03F
:103B5000894A203A126911461031874A203A12697F
:103B6000D089FFF739FF2CE0834CA41FE388A2889B
:103B70006188208801F080F90646304610382146D9
:103B80001A39086108460069C08900280BD1086904
:103B9000014610310E4600E015E0304601F07EF996
:103BA00000F078F80AE0744A203A126911461031A0
:103BB000714A203A1269D089FFF70EFF01E0FFE752
:103BC00000BF00BF63E06C48C078012802D0052820
:103BD00050D143E000F0ADF9674820380069008912
:103BE000012817D064482038006900891F2811D0A7
:103BF000614820380069008921280BD05E482038B0
:103C00000069008920280FD15B4820380069C089ED
:103C1000032809D1584920390869014610310C465A
:103C2000204601F03BF916E000205349203909698C
:103C30000881514920390969C8814F4820380069F5
:103C4000002808D04C492039086901F08BF8002081
:103C500049492039086100F01DF80CE04649203937
:103C60000869014610310C46204601F017F900F0B2
:103C700011F800E000BF00BF09E0FFF78CFE00284C
:103C800002D000F007F801E0FFF778FE00BF00BFA8
:103C900000BFF8E610B50021374881702038C068B1
:103CA000364A012103683448C01C9847042001F0BB
:103CB000D9F910BD10B50446032001F0DFF9022048
:103CC00001F0D0F910BD10B5032001F051F82A49D8
:103CD0002039486901F046F800BF274920390968B2
:103CE000002901D1012100E00021084600BF002881
:103CF00008D12148203801F029F80446204600F078
:103D0000A1FF13E000213F2000F0A2FF01F0BCF969
:103D100000280BD001F0BEF9002807D1082001F0DF
:103D2000A7F904223F21184801F0BAF910BD10B5D7
:103D30001648C46AA04710BD10B51549032001F00C
:103D400023F80D492039C96888688047FFF7A2FF2A
:103D500010BD70B505460C461646022001F088F9E4
:103D6000641E257004482038C0680A4A711C4368E4
:103D70002046984770BD0000A0040800353A002096
:103D8000E25400203040000002FC0000E00100206E
:103D9000C73C0020B53C002010B50E49C9688868B2
:103DA000804710BD10B500240A49C968C86880471B
:103DB0000446002C08D101F06DF9002804D002223D
:103DC0003F21054801F06CF9002C01D0012010BD05
:103DD0000020FCE78004080003FC000010B5CD487B
:103DE000C469A04710BDFEB5002600200190CA4A54
:103DF000107857783F0238430146084600BF00BF9D
:103E000000BF00BF044610461A38057F007F0090AF
:103E1000C249601A8C422ED00ADCC148201810D04A
:103E2000C04940180FD001280FD0022824D10EE03D
:103E3000102810D0202817D040280DD050281BD192
:103E40000BE001261FE01F261DE020261BE0212697
:103E5000FEF780FF17E016E015E0B348007805286C
:103E600001D1FEF790FF0EE0AF480078022801D1A3
:103E7000FEF7A2FF07E006E0AC4E3F200190681C71
:103E8000C0B2009000BF00BFA44884423ED0A34807
:103E9000203084423AD0A1481030844236D09F4826
:103EA0004030844232D09D48503084422ED0A048C9
:103EB000844201D1052D29D098486030844201D137
:103EC000032D23D08120C00184421FD0934880302D
:103ED00084421BD091489030844217D08F48A03044
:103EE000844213D08D48B03084420FD03F223046F8
:103EF000009B019900F0C0FF0746384610388649FC
:103F00001A39086108460069C58111E03F22304630
:103F1000009B019900F0B0FF0746384610387E49F3
:103F20001A39086108460069048108460069C5819C
:103F3000FEBD10B57748046AA04710BD10B576489D
:103F40001A3800690446103473481A380069008929
:103F5000724A4032811A90423FD013DC212824D08B
:103F600006DC012820D01F2821D020285BD126E0A4
:103F70006F494942401826D06E49401831D0102868
:103F800051D118E0502942D006DC20292DD030290B
:103F900035D0402947D136E060293CD070293ED049
:103FA000654808183FD101E03EE03DE03CE00420D8
:103FB0005D49087038E02046FEF761FD34E00320DB
:103FC0005949087030E054481A380069C0890528FA
:103FD00002D12046FEF79DFD26E02046FEF7EDFDCE
:103FE00022E02046FEF706FE1EE04B481A38006924
:103FF000C089032802D12046FEF735FF14E0204691
:10400000FEF7D2FF10E02046FFF794F80CE02046C0
:10401000FFF707F908E02046FFF748F904E02046DB
:10402000FFF765F900E000BF00BF10BD70B50446A2
:104030003848456A2046A84770BDF1B50023364888
:104040001A38406901460B31032233481A38406957
:104050000089432814D004DC242809D0422839D10F
:104060000AE044280FD0314C6442001932D121E0DB
:104070002B4B5B42521C2EE02D4B5B1E521C2AE048
:104080002B4B521C27E024481A384069064610364C
:10409000274B5B1CD21C8C1D708800BF00BF2546BF
:1040A00028702C466D1CFF273F0207403F122F70DF
:1040B00000BF10E0184D28786F783F02384304465F
:1040C000204600BF00BF00BF00BF0346521C0120B6
:1040D000487100E000BF00BF0E200870491C0A7044
:1040E000491C01200870491C0846491C00BF00BF3C
:1040F000044623702046641CFF252D021D402D120E
:10410000257000BF901C009C207003481A3840693D
:104110000B30F8BD200200209A0408001040000077
:10412000FDF3FFFFE6EBFFFF3455002001FC00002C
:104130001E2000000EE0FFFF4F44FFFF012002E0C1
:1041400000BF00BF401CFB498842F9DD704700B545
:104150000246FF2A01DCFF220132F748824200DDDD
:104160000246052000074280FFF7E8FF00BDF0B5DA
:1041700085B005460026002001900A21284600F05F
:1041800095FFC0B203900A21284600F08FFFCFB2FE
:104190000120B840C0B202900398002804D0012842
:1041A00004D0022808D104E0E44C05E0E34C2034BC
:1041B00002E0E24C403400BF00BFE148E149486101
:1041C000002088610846006904218843001DDD49FC
:1041D000086100BF00BFEFF310800090012080F362
:1041E000108800BF00262046029900F0E1FA0190F5
:1041F000D448006940084000D2490861D04901987C
:104200000E1A0098002804D100BF80F3108800BF68
:1042100004E0012080F3108800BF00BF00BF3046DB
:1042200005B0F0BDF1B58CB00C9800F045FF0391DE
:1042300002900C994943084600F03EFF0646C24AE8
:10424000C24B00F059FD04460022C14B00F09AFB1E
:1042500001910090039B029A00F04EFD0022BD4B9D
:104260000591049000F08EFB0791069000F04AFC47
:104270000A900C994943084600F01EFFB64AB74B16
:104280000791069000F038FD04460022B44B00F080
:1042900079FB064600F036FC09900C9800F00CFF04
:1042A0000646B04AB04B00F027FD0022AF4B079105
:1042B000069000F067FB044600F024FC0890099982
:1042C0000A9800F0DCFA0546089900F087FA0446DF
:1042D000A74900F083FA0B900B9800F0D2FB0DB0C9
:1042E000F0BDFEB504460D46002001900090A148A7
:1042F0000460A1480460A14805609E480068FFF77B
:1043000091FF06469D480068371A9D48381802906C
:1043100000BF0298864207DB96480068401E954918
:1043200008600120019006E092480068401C914915
:104330000860012000908F480068FFF773FF064671
:1043400001980128E5D100980128E2D18948006848
:10435000FEBD10B588B004467A2103910021029178
:104360000020052109070880082086490880FFF7FA
:10437000E5FE230000F020FD1E101A242E38424CCA
:10438000561919606C7884909C19191919A8B4C031
:10439000CCDDDCDBDAD9D8196848C08803210902F2
:1043A0008843FF3001306549C88029E163480089AE
:1043B000032109028843FF300130604908811FE171
:1043C0005E484089032109028843FF3001305B4980
:1043D000488115E159488089032109028843FF304B
:1043E0000130564988810BE15448C08903210902F4
:1043F0008843FF3001305149C88101E14F48008AAC
:10440000032109028843FF3001304C490882F7E05C
:104410004A48408A032109028843FF300130474956
:104420004882EDE04548808A032109028843FF3035
:10443000013042498882E3E040482030C0880321AF
:1044400009028843FF3001303C492031C880D7E061
:104450003A4820300089032109028843FF300130A7
:10446000364920310881CBE034482030408903218F
:1044700009028843FF300130304920314881BFE0D4
:104480002E4820308089032109028843FF30013003
:104490002A4920318881B3E028482030C08903218F
:1044A00009028843FF30013024492031C881A7E048
:1044B00022482030008A032109028843FF3001305E
:1044C0001E49203108829BE01C484030C0880321EF
:1044D00009028843FF30013018494031C8808FE01D
:1044E000164840300089032109028843FF3001301B
:1044F00012494031088183E010484030408903214F
:1045000009028843FF3001300C494031488177E08F
:104510000A4840308089032109028843FF30013076
:104520000649403188816BE060E055E04AE03FE0B9
:1045300034E029E0A0860100FF07000000300050B1
:10454000FFFFFF0000E000E0D7D0178C5B76FB3F59
:104550000088C34000408F401B2C4B5DFA5707403A
:10456000006AF8401B6560911D830E4000002440E6
:10457000FA1EF44A5C550020605500206455002066
:1045800037127A00003300507E48C08903210902A7
:104590008843FF3001307B49C88131E07948008A87
:1045A000032109028843FF3001307649088227E061
:1045B0007448408A032109028843FF300130714961
:1045C00048821DE06F48808A032109028843FF303A
:1045D00001306C49888213E06A48C08A03210902CD
:1045E0008843FF3001306749C88209E06548008B85
:1045F000032109028843FF3001306249088300BF6C
:1046000000BFFF200130FFF7A2FD2046FFF7AFFDFE
:1046100007905D48FFF79BFD2046FFF7A8FD05903A
:104620005A48FFF794FD2046FFF7A1FD0690079931
:104630000598401A56490860564906980860079838
:10464000642805DB0698642802DB0598642803DAF1
:104650000120C04308B010BD4F490798096888423F
:1046600004DC4D4905980968884202DA0020C043FD
:10467000F0E74648FFF76BFDFFF760FD2046FFF7C8
:1046800076FD4449086000BF00204449087001904D
:1046900000BF68460079401CC1B2019168460079AC
:1046A000012829D13948FFF752FD0520000740882D
:1046B0003B4908603748016839480068FFF711FE38
:1046C000384908600846006835490968401A364983
:1046D000086034480068FFF73AFD00BF00BF0520BE
:1046E000000740882E4908602046FFF740FD294911
:1046F00008608020049000BF68460079022829DB0A
:104700000498C10F0918491004910520000740883A
:10471000234908601F4800682449884205DA204878
:104720000068049940181E4908601A4800681F492B
:10473000884205DD1A4800680499401A1849086043
:1047400017480068FFF703FD2046FFF710FD1149E9
:10475000086000BF00BF0498022802DA0498811C98
:1047600008DC684600790A2804DC0A4800680F491A
:1047700088428ED105200007408809490860084614
:10478000006867E740300050FF070000A304000006
:104790007455002070550020505500208A55002087
:1047A0007C550020805500206C55002037127A007F
:1047B0003EB502880A42FCD102880A42FCD0054A72
:1047C000136801242343136002880A42FCD1024A81
:1047D00010683EBD10E000E018E000E0F8B50246C9
:1047E0004A40D40F42004B0052085B089A4202D262
:1047F0000246084611464A0023D0C30D4A00DDB2E6
:10480000120EAD1A202D35DA49020126490AF605A5
:104810008A19002C00D0524220214F1B1146B9406A
:104820002A411018C20D9A4221D0002C17D0012D18
:1048300008DCDA05801AD20F8019D207DBB200F04B
:1048400085F9F8BDDA05801A012340001B06C0185F
:1048500080185A428018CA0F1043490007E04908DF
:10486000C2071143DA05801A80194008801800F049
:1048700065F9F8BD61000122511A001BF7E701221A
:10488000D2075140AAE70122D2075040A6E70246CC
:1048900070B54A40D30FDB0740002DD04A002AD024
:1048A000010E140E091900021202400A520A84185D
:1048B000E50104465443000A120A2E045043A41989
:1048C0004219200CC543AA18120C01257F39521C2D
:1048D000AD0352191204240400D0521C104301D419
:1048E0004000491EC2B20C06C0092018401C4008F6
:1048F000802A02D003E0002070BD4008400000295B
:1049000000DA0020184370BD70B502464A40D50F4A
:1049100040004A00ED0740085208002814D0002A41
:1049200012D0C40DD30D41020120C0055202490A24
:10493000520AE41A091812187D34914201D3641CFA
:1049400000E04900002C01DA002070BD00239142F4
:1049500001D3891A0343400849000028F7D10029F0
:104960000AD0914202D10121C90705E0914201D24A
:10497000012101E00121C943E005C018401900F000
:10498000DDF870BDF0B50C465C4085B0E40FE4077F
:1049900003944C00002664085900944649080246D6
:1049A0000296224321D062460A431ED06200570D70
:1049B0004A000E032303550D012402462C49240509
:1049C000781B1B0B360B401823432643614600908F
:1049D0001C46501AB44103D30098401C009002E0DA
:1049E000921800985B41002803DA0020014605B0C8
:1049F000F0BD0020012109050746864611E0644606
:104A00001D46141BB54106D36546521BB34174467F
:104A100007430C43A646CD0740084908284392188F
:104A20005B4105460D43EAD11046184313D060465A
:104A3000194650407140084303D100220123DB078F
:104A400009E06046101AB34102D20122002302E0BD
:104A50000122D2435310009874460105381C61416D
:104A6000029C039D0019694100F02CFBBFE7000088
:104A7000FD03000010B500229623114600F066F8F1
:104A800010BDC20F410040020123400ADB05D207DE
:104A9000090EC0187F2901DA00207047962903DC2F
:104AA0009623591AC84001E096398840002AF4D06C
:104AB00040427047410040020122400AD205090EDF
:104AC00080187F2901DA00207047962903DC96229E
:104AD000511AC8407047963988407047C20FD207B4
:104AE000400040080BD0C10D0723DB01C91840026C
:104AF0000905400A1143C2084007114370470020CE
:104B000001467047CB0FDB07490010B54908024644
:104B10000A4307D00A0D07240903E401090B121BFD
:104B2000002A01DC002010BDC900440F0C43C10065
:104B3000E018D205801800F001F810BD002904DA51
:104B4000401C490001D140084000704770B4002467
:104B5000050C05D11024000402D1002922D0112413
:104B6000050E01D108340002050F01D1241D0001FA
:104B7000850F01D1A41C8000002801DB641C4000CB
:104B8000002908D020252E1B0D46F540A14000D05D
:104B90000121294308431B1B0106DB1D000A002BD2
:104BA00002DA002070BC7047DB0518188018002955
:104BB000F8DA401C4900F5D170BC4008400070474D
:104BC000064C0125064E05E02046E36807C82B4346
:104BD00098471034B442F7D3FBF736FCE854002072
:104BE0000855002003B40148019001BD2F81020047
:104BF00003B40148019001BDC92D030003B401486D
:104C0000019001BD938F020003B40148019001BDE2
:104C1000CD8C020003B40148019001BD418F020018
:104C200003B40148019001BD1F21020003B40148F3
:104C3000019001BDB326030003B40148019001BDFA
:104C40002F22020003B40148019001BD0B91020024
:104C500003B40148019001BD3126030003B40148AB
:104C6000019001BD551B020003B40148019001BD34
:104C70000F3B030003B40148019001BDCF2B03009B
:104C800003B40148019001BDCB2C030003B40148DB
:104C9000019001BD0990020003B40148019001BDDB
:104CA000C12D030003B40148019001BD0921030097
:104CB00003B40148019001BD2B69020003B401480F
:104CC000019001BDEB31030003B40148019001BD27
:104CD0003D32030003B40148019001BDD721030018
:104CE00003B40148019001BD5D80020003B4014896
:104CF000019001BDA73A030003B40148019001BD32
:104D0000913B030003B40148019001BD2F2F030024
:104D100003B40148019001BD998F020003B401481A
:104D2000019001BD2768020003B40148019001BD54
:104D30003968020003B40148019001BDB780020048
:104D400003B40148019001BD213B030003B40148B5
:104D5000019001BDBF22020003B40148019001BDD2
:104D6000EB26030003B40148019001BD3524030084
:104D700003B40148019001BDDD20030003B40148E4
:104D8000019001BD533B030003B40148019001BDF4
:104D90009D20030003B40148019001BD335002007F
:104DA00003B40148019001BD5548020003B4014815
:104DB000019001BD1F50020003B40148019001BDE4
:104DC000FD3D030003B40148019001BDA528030087
:104DD00003B40148019001BDD5AF020003B40148FE
:104DE000019001BDA1A5020003B40148019001BDDD
:104DF000E3A5020003B40148019001BD87A80200A9
:104E000003B40148019001BDA7A9020003B4014801
:104E1000019001BD93AA020003B40148019001BDB5
:104E200095AB020003B40148019001BDF9AB02004B
:104E300003B40148019001BD69AC020003B401480C
:104E4000019001BD17AD020003B40148019001BDFE
:104E500077AD020003B40148019001BDF1AD02003D
:104E600003B40148019001BD85AE020003B40148BE
:104E7000019001BD11AF020003B40148019001BDD2
:104E8000B123030003B40148019001BD49E50200CC
:104E900003B40148019001BDF9E3020003B40148E5
:104EA000019001BDE123030003B40148019001BD5D
:104EB0004BCD020003B40148019001BD99D102001D
:104EC00003B40148019001BDABD0020003B4014816
:104ED000019001BD69D0020003B40148019001BDF9
:104EE00077CF020003B40148019001BD01CC02005C
:104EF00003B40148019001BD29CC020003B401486C
:104F0000019001BD15D2020003B40148019001BD1A
:104F10008DD2020003B40148019001BD7F0C030053
:104F200003B40148019001BDAB0C030003B4014878
:104F3000019001BD773B030003B40148019001BD1E
:104F40001531030003B40148019001BD1B66020046
:104F500003B40148019001BD652C030003B401486E
:104F6000019001BDDB2E030003B40148019001BD97
:104F7000231D020003B40148019001BDC32C0300AE
:104F800003B40148019001BD3B66020003B401482F
:104F9000019001BD2B66020003B40148019001BDE0
:104FA000038D020003B40148019001BDCF8F0200C0
:104FB00003B40148019001BD7920030003B4014806
:104FC000019001BD2129030003B40148019001BDF6
:104FD000D990020003B40148019001BDC7680200E6
:104FE00003B40148019001BD0D2C030003B4014836
:104FF000019001BD7B6F020003B40148019001BD27
:10500000AF6E020003B40148019001BD655F02006C
:1050100003B40148019001BDD722030003B4014845
:10502000019001BD1522030003B40148019001BDA8
:105030002522020003B40148019001BD5B66020015
:1050400003B40148019001BD5D61020003B4014851
:10505000019001BD0D53020003B40148019001BD50
:105060007762020003B40148019001BDED2E0300F8
:1050700003B40148019001BDB72E030003B40148F9
:10508000019001BDB120030003B40148019001BDAE
:105090003F2F030003B40148019001BD472F0300D7
:1050A00003B40148019001BD2528030003B4014861
:1050B000019001BDD33A030003B40148019001BD42
:1050C000613C030003B40148019001BDCD3C0300E5
:1050D00003B40148019001BD8D3D0300FFB583B0CD
:1050E00006460F463A460124002520462946FFF78A
:1050F000EFFF320101910290FFF7EAFF0F4B1A68B0
:105100005B6810401940002358405940084300D1C3
:1051100000BE0C98002804D03946304600F0AEF8A6
:1051200003E03946304600F0D9F839463046069B50
:10513000059A00F003F907B0F0BD000028550020E3
:105140004D49C9890346133B01229A4091431A46AF
:1051500001239340DA07D20F01D0002385E00346F4
:10516000133B01229A4002231A4201D001237CE022
:105170000346133B01229A4004231A4201D0022322
:1051800073E00346133B01229A4008231A4201D0E0
:1051900003236AE00346133B01229A4010231A427C
:1051A00001D0042361E00346133B01229A402023EF
:1051B0001A4201D0052358E00346133B01229A40CE
:1051C00040231A4201D006234FE00346133B01223D
:1051D0009A4080231A4201D0072346E00346133B3E
:1051E00001229A40FF2301331A4201D008233CE0F8
:1051F0000346133B01229A4001235B021A4201D06D
:10520000092332E00346133B01229A4001239B020B
:105210001A4201D00A2328E00346133B01229A4098
:105220000123DB021A4201D00B231EE00346133B8D
:1052300001229A4001231B031A4201D00C2314E0DF
:105240000346133B01229A4001235B031A4201D01B
:105250000D230AE00346133B01229A4001239B03DE
:105260001A4201D00E2300E00F2301229A4011437D
:10527000014AD1817047000000140050F0B585B09C
:1052800004460D462A460126002730463946FFF7D8
:105290001FFF220102910390FFF71AFF0D4B1A68BE
:1052A0005B6810401940002358405940084300D122
:1052B00000BE032C00D1042460010749401801906E
:1052C0000198801C00900120A84081B200980180C4
:1052D00005B0F0BD2855002000300050F0B585B075
:1052E00004460D462A460126002730463946FFF778
:1052F000EFFE220102910390FFF7EAFE0D4B1A68C0
:105300005B6810401940002358405940084300D1C1
:1053100000BE032C00D1042460010749401801900D
:105320000198001D00900120A84081B200980180E2
:1053300005B0F0BD2855002000300050FFB585B005
:1053400004460D462A460126002730463946FFF717
:10535000BFFE220103910490FFF7BAFE0E4B1A68BC
:105360005B6810401940002358405940084300D161
:1053700000BE032C00D104246001084940180290AB
:1053800069000298801D0818019008990798014348
:105390000198018009B0F0BD285500200030005070
:1053A000F0B585B000240CE0002507E0002128209E
:1053B00060432B4A8018AA0081506D1C0A2DF5DB32
:1053C000641C042CF0DBFBF753FD0021254A11601F
:1053D0005160002440E000253AE00120A84080B25E
:1053E000029060002049085A0299084200D131E039
:1053F000282060431A494018A9004058401C03D196
:105400000194009500BE00BF282060431449401855
:10541000A9004058002800D119E028206043104915
:105420004018A9004658F7172A4630463946FFF774
:105430004FFE220103910490FFF74AFE094B1A68C0
:105440005B6810431943074A1060516000BF6D1C30
:105450000A2DC2DB00BF641C042CBCDB05B0F0BD10
:105460002090002028550020DA54002002E008C8CF
:10547000121F08C1002AFAD170477047002001E0CE
:1054800001C1121F002AFBD170470000FFFF00007E
:10549000DB05002002FC00007D92020003FC0000FE
:1054A0008992020057060020B11B00209D1C00209D
:1054B0005B1D0020891D0020ED1A0020511B0020DB
:1054C000951F00200101000A04280A040203AA0013
:1054D00055032A00A001FFFF2C01FF003F00FF033E
:1054E000FF015257210000008C5500202090002021
:1054F000B40000007C54002068070800202A08003F
:10550000E00500007C5400208C54002003000000C3
:105510000000000008550020A4040800020001005B
:105520006400000000000000000000000000000017
:10553000000000000000000000000000000000006B
:1055400000000000000000000000000006FFFFFF58
:1055500037127A0002000000000000000000000086
:10556000000000000000000000000000000000003B
:10557000000000000000000000000000000000002B
:0C5580000000000000000000000000001F
:040000052000044192
:00000001FF
