:100000000206B2C2AFF508614AFFFFC2AFF5086150
:100010005CFFFFC2AFF508616EFFFFC2AFF508617C
:1000200080FFFFC2AFF5086192FFFFC2AFF5086124
:10003000A4FFFFC2AFF50861B6FFFFC2AFF50861CC
:10004000C8FFFFC2AFF50861DAFFFFC2AFF5086174
:10005000ECFFFFC2AFF50861FEFFFFC2AFF50881FC
:1000600010FFFFC2AFF5088122FFFFC2AFF5088184
:1000700034FFFFC2AFF5088146FFFFC2AFF508812C
:1000800058FFFFC2AFF508816AFFFFC2AFF50881D4
:100090007CFFFFFF758701002274F712057FE9FEE0
:1000A000750A00750B08780A1206837C807D017A38
:1000B000007B001204927402120640900186E0F563
:1000C0000AA3E0F50B7409780A120694E50A2EF5E6
:1000D0000A74016E7006743D250AF50A53B4F3756F
:1000E000BC0075BC007CFC7D077A047B00EEF91235
:1000F00002BC74012EFFC3950A501B74086F700276
:100100007F457C007D087A007B00EFF91202BC0F6E
:10011000EFC3950A40E5E5BDF9E5BCFAE9FB7F02CE
:100120000205E574F612057F890CEAFEEBFF53BE6B
:10013000FBE59DA2E650FAE5C654804449F5C6E5C4
:100140009E547F644970F853C67FE59EA2E740FA4B
:1001500053C680E59E547F70FA43BE04906270746B
:1001600008F01200998E828F83E0F8A3E0F9EA6824
:100170007002EB6970498E828F83A3A3E8F0A3E934
:10018000F08E828F8374FFF0A3F07409F5D575D4D7
:1001900080750A01750B00780A120683EEFCEFFDEC
:1001A000850C0A7409780A120670FAAB0B1205194D
:1001B0007402120640C2AF75C9AB75C95B80FE7F81
:1001C000030205E574FC12065A750A04750B0078E3
:1001D0000A12068374021206CEAC82AD837A007BCB
:1001E0000079081204927402120640851A82E0F423
:1001F0007003A3E0F4603C851A82851B83E0F8A3BA
:10020000E0F9E849602D74021206CEE0687003A39D
:10021000E0697010750901024030C2AF75C9AB7555
:10022000C95B80FE851A82851B83AA82AB8379080D
:10023000120123780A12068374021206CEAC82AD34
:10024000837A007B007901120492740212064085C1
:100250001A82E0F47003A3E0F46051851A82851BD2
:1002600083E0F8A3E0F9E849604274021206CEE0A8
:10027000F8A3E0F9851A82851B83E0687003A3E088
:10028000697010750900020830C2AF75C9AB75C935
:100290005B80FE74FF68700374FF69700F851A82BB
:1002A000851B83AA82AB83790112012343BE03120B
:1002B0000094C2AF75C9AB75C95B80FE74F71205B7
:1002C0007FE9FEE5C7FF740F5EF50A750B00740B3E
:1002D000780A120670EA2400F8EB350BF9E82400DE
:1002E000E93480F9A2AFE433F50AC2AFEEC4540F8B
:1002F000FAE5C754F84AF5C7E9900980F0E8A3F099
:10030000A37470F0A374BDF0EC900985F0EDFC903F
:100310000984E054E04CF09009867420F0A3744204
:10032000F07409F5D575D48075D601000000000081
:1003300000000000000075D701E5D7A2E040FA8F69
:10034000C7E50AA2E092AF02011EE5096007E508D1
:10035000D2AF024033E508D2AF020833E5096007A7
:10036000E508D2AF02403BE508D2AF02083BE50901
:100370006007E508D2AF024043E508D2AF02084368
:10038000E5096007E508D2AF02404BE508D2AF02AD
:10039000084BE5096007E508D2AF024053E508D2F3
:1003A000AF020853E5096007E508D2AF02405BE5FC
:1003B00008D2AF02085BE5096007E508D2AF02404A
:1003C00063E508D2AF020863E5096007E508D2AF2C
:1003D00002406BE508D2AF02086BE5096007E5084B
:1003E000D2AF024073E508D2AF020873E509600797
:1003F000E508D2AF02407BE508D2AF02087BE509F1
:100400006007E508D2AF024083E508D2AF02088357
:10041000E5096007E508D2AF02408BE508D2AF02DC
:10042000088BE5096007E508D2AF024093E508D2E2
:10043000AF020893E5096007E508D2AF02409BE5EB
:1004400008D2AF02089BE5096007E508D2AF024079
:10045000A3E508D2AF0208A3E5096007E508D2AF1B
:100460000240ABE508D2AF0208ABE5096007E5083A
:10047000D2AF0240B3E508D2AF0208B3E509600786
:10048000E508D2AF0240BBE508D2AF0208BB0002CC
:10049000048E74F512057F890A740F550AF50C75E0
:1004A0000D00740B780C120670EA2400F8EB34800F
:1004B000F9E82400E9350DF9E5C7F50BA2AFE433FF
:1004C000F50CC2AFE50AC4540FFAE5C754F84AF573
:1004D000C7740B1206CEE0FEA3E0FFEE4F602CEED9
:1004E000FAEFFB88828983E08C828D83F088828991
:1004F00083A3A882A9838C828D83A3AC82AD83EA77
:1005000024FF1AEB34FFFBEA4B70D8850BC7E50CD0
:10051000A2E092AF7F040205E574F712057FED902B
:100520000980F0ECA3F0A37462F0A37473F0A3E06D
:10053000541FF074091206CEE0F50AA3E0F50BE5AE
:100540000A333354FC900985F07406780A12069435
:10055000E50A900984F09009867412F0A37442F0C1
:1005600053D1FE75D601EA906271F0EBA3F0906270
:1005700070E0D2E1F0E0A2E740FB7F020205E52552
:100580001AC582C0E0E51B34FFC583C0E0E51AC38D
:10059000958224F910AF0885831B85821A8008850F
:1005A000831B85821AD2AFCEF0A3E520F0A3780A90
:1005B000E608F0A3DEFAEFF0A3E58124FBF8E608F5
:1005C000F0A3E608F0A30808E608F0A3E608F0A305
:1005D00015811581D0E0FED0E0F815811581E8C0C5
:1005E000E0EEC0E022851B83851A82E0A3FEE0A333
:1005F000F520780AE0A3F608DFFAE0A3FFE0A3C045
:10060000E0E0A3C0E0E0A3C0E0E0A3C0E010AF08DA
:1006100085821A85831B800885821A85831BD2AF49
:10062000D083D08222251AF58210AF08F51A400235
:10063000151B8008F51A4002151BD2AF851B8322BB
:10064000C0D0251A10AF08F51A5002051B8008F516
:100650001A5002051BD2AFD0D022251A10AF08F5D0
:100660001A4002151B8008F51A4002151BD2AF2252
:10067000700422600D18C6C333C608C633C6D5E061
:10068000F4182274028000C0E0F404120625D0E0C1
:100690001206C122600C08C6C313C618C613C6D5FD
:1006A000E0F4221206DDB900030206AC1201C41206
:1006B00006D875D00075813F751A80751B0102063A
:1006C000A3CAC0E0E6F0A308DAFAD0E0FA22251ABD
:1006D000F582E4351BF5832200000080FB790122BE
:1006E000FFFFFFFFFFFFFFFFFFFFFFFFFFFFFFFF1A
:1006F000FFFFFFFFFFFFFFFFFFFFFFFFFFFFFFFF0A
:10070000FFFFFFFFFFFFFFFFFFFFFFFFFFFFFFFFF9
:10071000FFFFFFFFFFFFFFFFFFFFFFFFFFFFFFFFE9
:10072000FFFFFFFFFFFFFFFFFFFFFFFFFFFFFFFFD9
:10073000FFFFFFFFFFFFFFFFFFFFFFFFFFFFFFFFC9
:10074000FFFFFFFFFFFFFFFFFFFFFFFFFFFFFFFFB9
:10075000FFFFFFFFFFFFFFFFFFFFFFFFFFFFFFFFA9
:10076000FFFFFFFFFFFFFFFFFFFFFFFFFFFFFFFF99
:10077000FFFFFFFFFFFFFFFFFFFFFFFFFFFFFFFF89
:10078000FFFFFFFFFFFFFFFFFFFFFFFFFFFFFFFF79
:10079000FFFFFFFFFFFFFFFFFFFFFFFFFFFFFFFF69
:1007A000FFFFFFFFFFFFFFFFFFFFFFFFFFFFFFFF59
:1007B000FFFFFFFFFFFFFFFFFFFFFFFFFFFFFFFF49
:1007C000FFFFFFFFFFFFFFFFFFFFFFFFFFFFFFFF39
:1007D000FFFFFFFFFFFFFFFFFFFFFFFFFFFFFFFF29
:1007E000FFFFFFFFFFFFFFFFFFFFFFFFFFFFFFFF19
:1007F000FFFFFFFFFFFFFFFFFFFFFFFFFFFFFFFF09
:10080000401DFFFF0400007A41414141FFFFFFFF0F
:10081000FFFFFFFFFFFFFFFFFFFFFFFFFFFFFFFFE8
:10082000000102030405060708090A0BFFFFFFFF8A
:10083000020C47021FCFFFFFFFFFFFFFFFFFFFFF7D
:10084000FFFFFFFFFFFFFFFFFFFFFFFFFFFFFFFFB8
:10085000FFFFFFFFFFFFFFFFFFFFFF022766FFFF16
:10086000FFFFFF022751FFFFFFFFFFFFFFFFFFFF1B
:10087000FFFFFFFFFFFFFFFFFFFFFFFFFFFFFFFF88
:10088000FFFFFF022042FFFFFFFFFFFFFFFFFFFF11
:10089000FFFFFFFFFFFFFFFFFFFFFF022703FFFF39
:1008A000FFFFFFFFFFFFFFFFFFFFFF02272BFFFF01
:1008B000FFFFFF021E3B01FF0000B40000280028DC
:1008C00000283075A000A000A000A00000080008CB
:1008D000E001F000100010001000100010001000E7
:1008E00050005000500010001000D0070000000021
:1008F00000000F0001000500307507001000010026
:1009000081FF00000000FF8829A6298E29FF02022E
:100910000208025000A0000000E803023582010036
:10092000002882023182010000D60D0241820100BE
:1009300000B202023182010000D70D02458201009F
:1009400000C802023182010000D80D024782010076
:1009500000CA02023182010000D90D02578208004C
:1009600000CB02023182010000DA0D027182010027
:1009700000DB0DFF0100FF200235820100001F8215
:100980000231820100003F0E025D82000000000083
:10099000023B820300001803702F702F702F702FFE
:1009A000702F702F702F702F702F702F702F702F4F
:1009B000702F04321C32FE31FF12640401023582B2
:1009C0000100001C82023182010000810E025F8260
:1009D000010000820E023B820300006007026F826A
:1009E000010000830EFFFF0A02358201000022820F
:1009F000023182010000AF0E025982030000D708C5
:100A00004445565F4E414D4569446F020202020261
:100A10000235820100002B82023182010000D30ED8
:100A2000024F820100004281023182010000D40E97
:100A3000024D82010000DE08023182010000D50E65
:100A4000024B82010000F208023182010000D60E42
:100A50000249820100005581023182010000D70E57
:100A6000024382010000BD8001E803053F100AD067
:100A70000700000F0F0F0F0F0E040969446F0000ED
:100A80000000000000000000000000000000000264
:100A900001060319000303020918020106031900E5
:100AA000030302091807160918000000FCEE3500C0
:100AB00000F4350A0235820100002E8202318201E3
:100AC00000007B0F023982030000170A1C023582E6
:100AD0000100001982023182010000940F10308061
:100AE000020000320A023B82030000340A023A810B
:100AF0000100000E81023182010000940F1040803D
:100B0000020000330A023B820300003A0A023A81E3
:100B10000100002881FFFFFF00013075030201067C
:100B200000000000000000000000000000000000C5
:100B3000000000000000000000000000FFFF0600B1
:100B4000800CE803FF01201A0A1E0002002C010A93
:100B500002358201000025820231820100000E1060
:100B6000026582000000510D023B820300005E0D11
:100B70000231820100000F10026782030000640D41
:100B8000023B82030000700D023182010000101050
:100B90000269820300001110026B82010000131031
:100BA0000231820100001710026D82030000760DF1
:100BB000E5C754F84405F5C779012200000080FB21
:100BC000120BB0B90003020C31E479217808B800A7
:100BD000028004F709D8FCE479297802B800028081
:100BE00004F709D8FCE49002807800790B8002F0C9
:100BF000A3D8FCD9FA781C9008B67A01BA00028012
:100C000007E493A3F608DAF9900D7FAA82AB8390EC
:100C100008B778FA79038015E493A3AC82AD838A90
:100C2000828B83F0A3AA82AB838C828D83D8E9D98F
:100C3000E77582A375833F7400120C597582BB75EA
:100C4000830B7400120C5975D00075813F751A80A2
:100C5000751B02759F00020BC0C09FF59FE473D007
:100C60009F22D083D082C09FE493C0E0740193C0E0
:100C7000E0740293F59F22E066701008A3E06670AE
:100C80000A08A3E066700408A3E06622C00AC3E075
:100C900096F50A08A3E096420A08A3E096420A08DD
:100CA000A3E096420AA2D265D033E50A7001D3D000
:100CB0000A22C3E7960809E7960809E7960809E7B4
:100CC0009622C3E09608A3E09608A3E09608A3E066
:100CD0009622C00AC3E096F50A08A3E096420A08E5
:100CE000A3E096420A08A3E096450A7001D3D00A11
:100CF00022080808E630E71112136B120D090808E4
:100D000008C64480C618181822181818E9799EC613
:100D100008CAC608CBC608CCC6C370207996CACB11
:100D2000CC7019798ECBCC70137986CC700EF9808B
:100D30002ACA33CACB33CBCC33CC331930E7F2CC0D
:100D4000CBCA3350147004EA30E00DE4CA3ACACB7F
:100D50003BCBCC3CCC500209C3E913C6CC182313BF
:100D6000C6CB18C6CA18C6F922120DA920F0143035
:100D7000E72B74FFFCFBFA747F8022E4FCFBFA741F
:100D800080801AB48008BC00F2BB00EF800F50EBEB
:100D9000F9E4C39AFAE49BFBE49CFCE499C6CC1802
:100DA000C6CB18C6CA18C6F922E4C9C608CAC608FE
:100DB000CBC6D3330308CCC63392F0C3947F402E06
:100DC00094184019C9B90704CACBCC225025C309CD
:100DD000CA33CACB33CBCC33CC33D9F422F4600D35
:100DE000C9CCC313CB13CBCA13CAD9F6CC22E4FCAB
:100DF000FBFA2214FCFBFA22E6C333184618461805
:100E00004622E7C33319471947194722181818E62D
:100E1000084608700AE608C3337005E633F4220872
:100E200022191919E7094709700AE709C333700540
:100E3000E733F4220922E6084608C3134608336064
:100E400002E633F422E7094709C313470933600276
:100E5000E733F42200120E36604F120E456012E79F
:100E6000548066F6120E0C7011120E02703B0909C6
:100E700009F4F618F618F618F622120E217015125B
:100E80000DF808080860EAE6447FF618768018E452
:100E9000F618F622120DF86016120E027012E4F621
:100EA00008F608F608E65480F60909091818182209
:100EB000EAC0E0EBC0E0ECC0E0EDC0E0E687F0A403
:100EC000FBACF008E687F0A42CFCE435F0FA180936
:100ED000E687F0A42C4B60027401CA35F0FCE433C1
:100EE000FB09E687F0D2F7A42CCB35F0FC1908E615
:100EF00087F0A42BCC35F0FBE433FD0819E687F02E
:100F0000D2E7A42C4ACB35F0CD3400FC09E687F0BB
:100F1000D2E7A42DCC35F0FDE433FA0918E687F0CA
:100F2000D2F7A42CCD35F0CA3400FC08E687F0D205
:100F3000E7D2F7A42ACC35F07A7E20E70B0ACB3330
:100F4000CBCD33CDCC33CC33CB3350147004ED3018
:100F5000E00ED2F1E4CD3DCDCC3CCC3B5005DA05E2
:100F6000C2F1EB547FC63308E63392F0FBE7330956
:100F7000E733C39A502D2B70190C0D4C4D7015187A
:100F800006E608C333700D20F10AA2F013F6E41848
:100F9000800B4024E4F630F002768018F618F6183C
:100FA000F68024D33B14501074FFA2F013F6187689
:100FB00080E418F618F6800FA2F013F618E6330353
:100FC000F618ECF618EDF6D0E0FDD0E0FCD0E0FB32
:100FD000D0E0FA22120E456046120E36603DE968F6
:100FE0007008F618F618F618F622748067F71210D3
:100FF00008090909748067F722120E36601D120E67
:10100000457005191919801A120E0C701F120E2145
:10101000C37003E667331919194007181818220816
:10102000080874FFF618F618F618F622120E21605A
:1010300017120E02702192F0120DF870195017203D
:10104000F014080808090909E7F61819E7F618194D
:10105000E7F61819E7F622120DF860E6E869701F46
:101060000808E62480F608E436F618547FB47F0CAE
:10107000E654806007F6E418F618F622181822E9FC
:10108000C6CC08C6CD08C6CE08C6CFC0E0E8C0E0D2
:10109000EAC0E0EBC0E009E9F809E7FA09E7FBE696
:1010A000F918E6F8C3EC98ED99EE9AEBC2E7F5F083
:1010B000EFC2E795F0500E600CEBCFFBEACEFAE9F9
:1010C000CDF9E8CCF8EAA2E7D2E7FAEB33FB13F567
:1010D000F0EEA2E7D2E7FEEF33FFC5F013A2E73050
:1010E000E601B313C5F0C3C0E0C0F07F00C39BFBB3
:1010F000605E9418600F401D14601AD0E023F9D090
:10110000E0F80211DA8AF0E9486003D2F0E4AFF0C7
:10111000FAF9F8803BEB30E40D89F0EA6003D2F095
:10112000E4AFF0F9CAF8EB30E30D88F0EF6002D2DB
:10113000F0AFF0E4CAC9F8EB54076014FBC3EA133C
:10114000FAE913F9E813F8EF135002D2E0FFDBEDF0
:10115000D0E0C0E030E739C3E49FFFF5F0EC98FC45
:1011600042F0ED99FD42F0EE9AFE42F0D0E0F9D067
:10117000E0F8E5F0607AE923F9EE20E742D8028052
:1011800067C3EF33FFEC33FCED33FDEE33FE80EA53
:10119000EC28FCED39FDEE3AFED0E023F9D0E0F882
:1011A0004002801BC3EE13FEED13FDEC13FCEF13A6
:1011B0005002D2E0FF08B800067F7F74FF802EEF58
:1011C0003350178CF020F00260100CBC000C0DBDE9
:1011D00000080EBE000408E860DFE933E813FFEE04
:1011E0002313FE4F4D4C8008E95480FFE4FEFDFCC4
:1011F000EE33EF33F47004FCFD7E80D0E0FBD0E0F2
:10120000FAD0E0F8D0E0CFC618CEC618CDC618CCBC
:10121000C6F922080808EAC0E0EBC0E086F0E7A4BF
:10122000FA180986F0E7A42AFA180986F0E7A42A32
:10123000FA180986F0E7A42AFA1986F0E7A4FBE574
:10124000F02AFA190886F0E7A42BFBE5F03AFA1920
:101250000886F0E7A42BFBE5F03AFA18180986F0A7
:10126000E7A4C5F02BFBE43AFA1908E7C5F0C6A4D9
:1012700026F6E5F03BFBE43AFA1886F0E7A4F6E53B
:10128000F00826F6E43B08F6E43A08F6D0E0FBD096
:10129000E0FA22E4CFC0E0E4CEC0E0E4CDC0E0E478
:1012A000CCC0E075F020C3E633F608E633F608E676
:1012B00033F608E633F6181818EC33FCED33FDEE80
:1012C00033FEEF33FFC3EC9709ED9709EE9709EF73
:1012D00097191919400FFFEC97FC09ED97FD09EEDE
:1012E00097FE191906D5F0BEECF709EDF709EEF7F0
:1012F00009EFF7191919D0E0FCD0E0FDD0E0FED0DD
:10130000E0FF2212136E18181812129312135A19B2
:1013100019192212135A191919080808E618181869
:1013200020E7E012129312136E1818182209090907
:10133000E719191920E7DC080808E618181820E74B
:101340000302129312136E18181812129312136ECE
:1013500018181812135A19191922E4C397F709E437
:1013600097F709E497F709E497F722181818E4C3E8
:1013700096F608E496F608E496F608E496F62260F7
:1013800016080808C6C313C618C613C618C613C65F
:1013900018C613C6D5E0EA227009080808226016AC
:1013A000181818C6C333C608C633C608C633C608DD
:1013B000C633C6D5E0EA22E627F60809E637F6087E
:1013C00009E637F60809E637F622E026F608A3E034
:1013D00036F608A3E036F608A3E036F622E026F05B
:1013E00008A3E036F008A3E036F008A3E036F022C8
:1013F000C3E697F60809E697F60809E697F608099E
:10140000E697F622C3E0C696F608A3E0C696F6086D
:10141000A3E0C696F608A3E0C696F622C3E096F0CF
:1014200008A3E096F008A3E096F008A3E096F02267
:10143000E657F60809E657F60809E657F60809E6FA
:1014400057F622E056F608A3E056F608A3E056F653
:1014500008A3E056F622E056F008A3E056F008A3F1
:10146000E056F008A3E056F022E647F60809E64702
:10147000F60809E647F60809E647F622E046F608C8
:10148000A3E046F608A3E046F608A3E046F622E00D
:10149000F608A3E0F608A3E0F608A3E0F622E6F0DB
:1014A00008A3E6F008A3E6F008A3E6F022E0FAA31A
:1014B000E0FBA3E0FCA3E0FD22EAF0A3EBF0A3EC49
:1014C000F0A3EDF022CAC0E0E6F0A308DAFAD0E01B
:1014D000FA22CAC0E0E0A3C582CCC582C583CDC5CF
:1014E00083F0A3C582CCC582C583CDC583DAE6D09F
:1014F000E0CA22C3E498F8E499F91215348026C3AF
:10150000E49AFAE49BFBE920E7E9121534E498F841
:10151000E499F922C3E498F8E499F9121534E498AF
:10152000F8E499F9C3E49AFAE49BFB22EB20E7CFB5
:10153000E920E7E0B90010BB0008E88AF084F8AAC7
:10154000F022E4FBC8FA22EB70227B10C833C8C932
:1015500033C9335007C39AC3DBF280069A50012A7D
:10156000DBEAC833F4C8C933F4C9FA2275F008E4D9
:10157000C833C8C933C933C99AC99B5004C92AC9D9
:101580003BD5F0ECFBC833F4C8E4C9FA22600D087F
:10159000C6A2E713C618C613C6D5E0F322600C082E
:1015A000C6C313C618C613C6D5E0F4227004226061
:1015B0000D18C6C333C608C633C6D5E0F4182225B5
:1015C0001A10AF08F51A4002151B8008F51A4002E0
:1015D000151BD2AF22C0D0251A10AF08F51A500241
:1015E000051B8008F51A5002051BD2AFD0D022256A
:1015F0001AF58210AF08F51A4002151B8008F51A7B
:101600004002151BD2AF851B8322251AF582E435D3
:101610001BF58322E473251AC582C0E0E51B34FF65
:10162000C583C0E0E51AC3958224F810AF0885830E
:101630001B85821A800885831B85821AD2AFCEF063
:10164000A3E520F0A3780AE608F0A3DEFAEFF0A302
:10165000E58124FAF8E608F0A3E608F0A3E608F02E
:10166000A30808E608F0A3E608F0A315811581D0C9
:10167000E0FED0E0F8158115811581E8C0E0EEC0EC
:10168000E022251AC582C0E0E51B34FFC583C0E017
:10169000E51AC3958224F910AF0885831B85821A49
:1016A000800885831B85821AD2AFCEF0A3E520F097
:1016B000A3780AE608F0A3DEFAEFF0A3E58124FBA5
:1016C000F8E608F0A3E608F0A30808E608F0A3E6A9
:1016D00008F0A315811581D0E0FED0E0F815811542
:1016E00081E8C0E0EEC0E022851B83851A82E0A37A
:1016F000FEE0A3F520780AE0A3F608DFFAE0A3FFF6
:10170000E0A3C0E0E0A3C0E0E0A3C0E0E0A3C0E04D
:10171000E0A3C0E010AF0885821A85831B8008858E
:10172000821A85831BD2AFD083D082020C5F851BC7
:1017300083851A82E0A3FEE0A3F520780AE0A3F6F1
:1017400008DFFAE0A3FFE0A3C0E0E0A3C0E0E0A36D
:10175000C0E0E0A3C0E010AF0885821A85831B803B
:101760000885821A85831BD2AFD083D0822274046D
:101770008006740280027401C0E0F4041215EFD0F8
:10178000E01214C5227404800474028000CCC0E00E
:10179000EDC0E0E51AC39CCCAD1B50011D10AF0697
:1017A0008C1A8D1B80068C1A8D1BD2AF1214D2D0CE
:1017B000E0FDD0E0FC22D083D082E9C0E0E493A336
:1017C000C386F0C5F095F0F908E493A386F0C5F060
:1017D00095F0700BE493A3C3994005E9048002A33C
:1017E000E475F002A42582F582E5F03583F583D017
:1017F000E0F9E493A3C0E0E493C0E022D083D08278
:10180000ECC0E0EDC0E0E493A3FCE493A3FDED4C59
:10181000600D121848EC24FFFCED34FFFD80EFE46E
:1018200093A3FCE493A3FDED4C600D121887EC2408
:10183000FFFCED34FFFD80EFD0E0FDD0E0FCE49351
:10184000A3C0E0E493C0E022C0E0C3E49396087430
:1018500001939618400FE49366700808740193662C
:101860001870007019A3A3C3E493960874019396AB
:1018700018A3A3400DD0E0D0E0D0E0021838A3A315
:10188000A3A3A3A3D0E022C0E0C0F088F0E4936655
:1018900070080874019366187000A8F0A3A3700B79
:1018A000D0F0D0E0D0E0D0E0021838A3A3D0F0D040
:1018B000E022FFFF74F5121682EAFEEBFFEE2434FD
:1018C000F8EF3400F9880A890BEE2435F582EF34FD
:1018D00000F583E0F8EE2437F582EF3400F583E07D
:1018E000F50CEC850CF0A4FCAAF0850CF0EDA42A14
:1018F000FDE82CF8E43DF97A257B00121534EA85E1
:101900000A82850B83F0F8740758F97401B9000254
:101910008004C333D9FCFAE8131313541FF8EE28DC
:10192000F8EF3400F9E8245DF582E93400F583E04E
:101930005A6008EE2434F582EF802CEE2434F582D0
:10194000EF3400F583E0C0E0EE2436F582EF34009A
:10195000F583E0F5F0D0E084A8F0EE28F8EF34004D
:10196000F9E82438F582E93400F583E0F97F0402D0
:10197000172E74F5121682EAFEEBFFEE2434F58280
:10198000EF3400F583E0C0E0EE2435F582EF34005B
:10199000F583D0E0F08E828F83A3A3A3A3A3A3A398
:1019A000C082C0838E828F83A3A3A3A3A3E0F8A3E6
:1019B000E0F9D083D082E0C398F50AA3E099F50B53
:1019C000EE247FF582EF3400F583E064017069EE68
:1019D0002480F582EF3400F583E0F8A3E0F98E82ED
:1019E0008F83A3A3A3A3A3A3A3E0FCA3E0FD8E8204
:1019F0008F83A3A3A3A3A3E0FAA3E0FBC3EA9CEB1A
:101A00009D5010C3EC98ED99402EC3EA98EB995085
:101A100027800EC3EA98EB994007C3EC98ED9940F4
:101A2000177CDB7D04EEFAEFFB122ECEEE247FF561
:101A300082EF3400F583E4F0EE2434F8EF3400F95B
:101A4000E8FCE9FDEE2435F582EF3400F583E0F89B
:101A5000EE2437F582EF3400F583E0F50CE50A85D6
:101A60000CF0A4F50AAAF0850CF0E50BA42AF50BFE
:101A7000E8250AF8E4350BF97A257B00121534EADB
:101A80008C828D83F0F8740758F97401B9000280D4
:101A900004C333D9FCFAE8131313541FF8EE28F8E3
:101AA000EF3400F9E8245DF582E93400F583E05A6B
:101AB0006008EE2434F582EF802CEE2434F582EFBA
:101AC0003400F583E0C0E0EE2436F582EF3400F513
:101AD00083E0F5F0D0E084A8F0EE28F8EF3400F9C8
:101AE000E82438F582E93400F583E0F91226EF02A4
:101AF000196DC082C083851A82851B83E0F8A3E03C
:101B0000F9C3EA9CEB9D5010C3EC98ED99401BC3C0
:101B1000EA98EB995014800EC3EA98EB994007C3FA
:101B2000EC98ED994004790180027900D083D0824D
:101B300022EAC39CFAEB9DFB2274EF1216829003FB
:101B4000A1E064086005E06407702A9061C8E06065
:101B5000249003CFE0F4601DE0F875F003A4C8AA58
:101B6000F02AF974D128FE740339FF8E828F83A383
:101B7000A3A3E07003021C69906060E0C0E0EE2463
:101B800068F582EF3400F583D0E0F0750E44750FF0
:101B900005750A00750B00E5D914F50CE5D9540359
:101BA000F510601774036510605CE50C6010EE249E
:101BB00067F582EF3400F583E07003021C4E900558
:101BC0003FE06401602AEE2482F582EF3400F58361
:101BD000E06004780480027800850C0AE50AC39866
:101BE000FA95E0FB122D968A0A8B0BEA450B7005DD
:101BF0001230D28074EE2482F582EF3400F583E057
:101C000070048A0E8B0FE50C6012850E82850F839F
:101C1000F50DE5D9F0A3150DE50D70F6EE2482F56E
:101C200082EF3400F583E0604474FC250CF50C78F9
:101C30000E121772AC0CA910EEFAEFFB122F6A7499
:101C4000021215D5E97026AA0AAB0B123684793D2B
:101C50008E828F83A3A3A3A3E0FA7B00122C6AEEEB
:101C6000FAEFFB122EE6122F7C7900807474036564
:101C7000106056850C127513007812121772AC0E94
:101C8000AD0FAA0AAB0B122F4674021215D5EE2423
:101C900068F582EF3400F583E064807004747F801F
:101CA00001E0F50E780E121776E510F50E780E129B
:101CB0001776A90CAC0AAD0B9003CFE0FA7B0012AB
:101CC0002C2E74021215D580139003A1E0640860D5
:101CD0000BAC0EAD0FEEFAEFFB122FD61230DE7901
:101CE000017F0A02172E74F512168274FC1215BFBA
:101CF000EAFEEBFF890AA2AFE433F50BC2AF806ABC
:101D0000EE2463F8EF3400F97A007B00A2AFE433ED
:101D1000F50CC2AF88828983E0FCA3E0FDEC4D6046
:101D20003A88828983E0FAA3E0FB8A828B83E0FC15
:101D3000A3E0FD88828983ECF0A3EDF08A828B8397
:101D4000E4F0A3F088828983E0FCA3E0FDEC4D7011
:101D50000A88828983A3A3E4F0A3F0E50CA2E092B1
:101D6000AF1236849004E2E004F0EE2463F582EFD3
:101D70003400F583E0F8A3E0F9E849603DEE246320
:101D8000F582EF3400F583E02402FAA3E03400FB8F
:101D9000EA2402F50CEB3400F50D780C1217728A68
:101DA000828B83E0FCA3E0F9EEFAEFFB122F0A74BA
:101DB000021215D5E97003021D009004E2E0606391
:101DC0009004E3E0F89004E2E0C398500C740265DC
:101DD0000A70509004E4E0604A8E828F83A3A3A32C
:101DE000A3E0851A82851B83F0A3E4F09004E2E06F
:101DF000F8740212160AE8F0A3E4F09004E2E0F8A6
:101E00009004E1E028F0740212160AAC82AD8385DA
:101E10001A82851B83AA82AB837901122C3A900423
:101E2000E2E4F0E50BA2E092AF74041215D50219BA
:101E30006DFFFFFF8521878522C622C0E0C0D0E864
:101E4000C0E0E9C0E0EAC0E0EBC0E0ECC0E0EDC01B
:101E5000E0EEC0E0C00AC00BC00CC00DC082C08361
:101E6000C0F0A2AFE433FEC2AF759B00906182E088
:101E7000A2E05012E591A2E0500C7591FE7401654C
:101E8000217003121B39E0A2E55051E591A2E55003
:101E90004B7591DF9003A1E064076005E064087072
:101EA0002374016521703579019003CFE0FA75F054
:101EB00003A4CAA8F028FB74D12AFA74033BFB12CE
:101EC0001CE68018E0640D70139003C3E004F06416
:101ED000287002E4F07A00E0F91230E4906182E0C8
:101EE000A2E64003021F82E591A2E64003021F82A0
:101EF0007591BF9003A1E06405700812300C123098
:101F0000188003123012752100123072E99003A27A
:101F1000F07900123066122E447A017B009003A003
:101F2000E0F9123336907803E0644270559005432F
:101F3000E014F0704DC2AF121F3A00782AD0E0F6DC
:101F400018D0E0F6E59F54077005750BFF80037508
:101F50000B7FC4C0E07829E6F50A08E6550BF50BBF
:101F6000740B780A12159DD0E0250AF8906270E093
:101F7000A2E740F8E8C333906272F0906270E0D25A
:101F8000E0F0906181E0A2E35009E5E9A2E35003AB
:101F900075E9F7A3E0A2E75009E591A2E7500375C0
:101FA000917FEEA2E092AFD0F0D083D082D00DD05E
:101FB0000CD00BD00AD0E0FED0E0FDD0E0FCD0E0A9
:101FC000FBD0E0FAD0E0F9D0E0F8D0D0D0E032C0D9
:101FD000E0C0D0C082C083906183E0A2E05009E5F8
:101FE000BFA2E0500375BFFEE0A2E15009E5BFA229
:101FF000E1500375BFFDE0A2E25009E5BFA2E25047
:102000000375BFFBE0A2E35009E5BFA2E3500375EF
:10201000BFF7E0A2E45009E5BFA2E4500375BFEFAB
:10202000E0A2E55009E5BFA2E5500375BFDFE0A2DD
:10203000E65009E5BFA2E6500375BFBFD083D0824A
:102040008088C0E0C0D0E8C0E0E9C0E0EAC0E0EBD2
:10205000C0E0ECC0E0EDC0E0C0F0E5A7A2E6500FA4
:10206000E5A1A2E6500953A7BF75A1BF1220A7E5BD
:10207000A7A2E5500CE5A1A2E5500653A7DF75A184
:10208000DFE5A7A2E15009E5A1A2E1500375A1FD9A
:10209000E5A7A2E2500CE5A1A2E2500653A7FB750A
:1020A000A1FBD0F0021FB874F812168275210190BE
:1020B00003A1E064067015122F9A8A828B83A3A372
:1020C000A3A3A3A3E0FAA3E0FB122FFAA2AFE43389
:1020D000FED2AF9003A7E0640170187A207B0090D5
:1020E00003A0E0F91233DE7A207B009003A0E0F930
:1020F00012333C906182E0D2E6F0900540E060212E
:1021000085C62280169003A6E064017008E5C654D7
:10211000F84405F5C653BEFC121E347401652160F7
:10212000E4EEA2E092AF7F0102172EFF8E238F24F0
:10213000858228858327851A82851B83E0CEA3E0CC
:10214000CF852882852783EBC9EAC8EDCBECCA7519
:10215000F010C3E833C8E933C9EA33CAEB33CBC361
:10216000EA9EF526EB9FF525B35004AB25AA26EC95
:1021700033CCED33CDD5F0DAAE23AF242274E9129F
:10218000168274F81215BF851A82851B83ECF0A3A2
:10219000EDF08A0A8B0B9003A1E024F7C39405505D
:1021A00006750A01022314122F9A8A0C8B0DAE0CAD
:1021B000AF0DEE4F7003022311AC0AAD0B74021287
:1021C000160AAA82AB8312302A8E828F83A3A3754C
:1021D0000EFF750FFF7510FF751100780E12144376
:1021E000740212160A7512FF7513FF7514FF751528
:1021F000007812121443780E7912120CB2502A7819
:102200000E79121213F0750A01750BC8750C007562
:102210000D00780A790E120CB25052850E0A850F05
:102220000B85100C85110D80507516017517C8753A
:10223000180075190085120A85130B85140C851575
:102240000D780A790E1213F07816790A120CB24042
:102250001C750A00750B00750C00750D01780A7964
:10226000121213F0780A790E1213B7800C750A0156
:10227000750B00750C00750D007409780A1213981F
:10228000750E19F50FF510F511780A790E121293E3
:102290008E828F83A3A3A3A3A3A3E0F8A3E0F97A7C
:1022A000D07B03121534880E890FE4F510F51178F0
:1022B0000A790E1213B7740612160AE0F8A3E0F9B1
:1022C0007AD07B03121534E8FA8A0EE4F50F780A07
:1022D000790E120CB25007780A790E1213F090039F
:1022E000A1E06408600AE064066005E06405702D02
:1022F000750E0D780E790A120CB24021750EF47528
:102300000FFF7510FF7511FF780A790E1213B78051
:102310000C750A00750B00750C00750D00851A828E
:10232000851B83E0F8A3E0F5838882780A12149E67
:1023300074081215D57F1002172E74F71216821228
:10234000303C90053EE064017010906245E4F0A3DB
:10235000F053F4F343FE0C5390F3122FE8E5C65408
:10236000804449F5C6E59E547F644970F8906185C4
:10237000740FF090053CE0F47002A3E0604E90050D
:102380003DE0600814601B14602E8040750A0175E2
:102390000B0090053CE0780A1215ACE50AF4528077
:1023A000802A750A01750B0090053CE0780A121529
:1023B000ACE50AF452908014750A01750B00900583
:1023C0003CE0780A1215ACE50AF452A079007F02CD
:1023D00002172E74F7121682E9FEEAFF74016E707E
:1023E0000C7A807B009003A0E0F91233369037FC22
:1023F000E493F46008E493F9122E38800953C68000
:10240000E59E547F70FA122FEE90053EE064017055
:1024100003122E5090053CE0F47002A3E0604B9054
:10242000053DE0600814601A14602C803D750A01B7
:10243000750B0090053CE0780A1215ACE50A428065
:102440008028750A01750B0090053CE0780A12158A
:10245000ACE50A42908013750A01750B0090053CAB
:10246000E0780A1215ACE50A42A012303C122F9A0D
:102470008A0A8B0BA80AA90BE8496015E5E170FCF4
:10248000E82414F582E93400F583E0F46003E0F514
:10249000E174016F700A7A019003A0E0F91233AE83
:1024A0000223CE74ED1216828A0A8B0B8C0C8D0DD2
:1024B000741312160A780E12148F780A790E120C01
:1024C000B27512017513C875140075150050127895
:1024D0000A790E1213F07812790A120CB250168093
:1024E00010780E790A1213F07812790E120CB2409D
:1024F000047901800279007F0C02172E74ED121608
:10250000828A0A8B0B8C0C8D0D741312160A780EAE
:1025100012148F780E790A120CB24011780A790ED3
:102520001213F0AA0AAB0BAC0CAD0D802275120091
:102530007513007514007515017812790E1213F0D9
:102540007812790A1213B7AA12AB13AC14AD158026
:10255000A68A828B83750AFF750BFF750CFF750DBC
:1025600000780A1214567F0402172E74F512168290
:102570008C828D83780A12148F8A828B83780A1258
:10258000141CEA2404F8EB3400F98C828D83A3A395
:10259000A3A3E0FCA3E0FD88828983C3E09CF0A3B1
:1025A000E09DF088828983C3E09420A3E0944E40AC
:1025B000268A828B83750AFF750BFF750CFF750DDC
:1025C000FF780A1213DD8A828B83A3A3A3A3E024DE
:1025D00020F0A3E0344EF002255174F5121682E982
:1025E000FE9004F6E0FAA3E0FBEEC333F8E433F91F
:1025F00074DE28F582748039F583E02AF50AA3E0B9
:102600003BF50B780A1217727A407B427C0F7D00F3
:1026100012212C74021215D58A0A8B0B8C0C8D0D8D
:102620007410780A12137FAA0AAB0B7F0402172ECC
:1026300074F11216828A0E8B0F8C108D11740F128A
:10264000160AE0FAA3E0FB741112160AE0F50AA3D9
:10265000E0F50B780A121772EA2401F50AEB340050
:10266000F50BE4F50CF50D780E790A121213750AC4
:1026700071750B02780E790A121213AA0EAB0FAC09
:1026800010AD1112212C74021215D58B0BEA450BDB
:1026900060047A0180027A00EC2AFCED3400FD74BB
:1026A0001312160AE0F8A3E0F9E8FEE9FFECF8EDF2
:1026B000F97A717B02121534880A890B8E828F8316
:1026C000780A12149EECF8EDF97A717B0212153437
:1026D0008A0A8B0B7405780A1215AC8E828F83A33D
:1026E000A3A3A3E50AF0A3E50BF07F0802172EC011
:1026F00082C083E9906000F0D083D08222C2AF0212
:10270000000022C0E0C0D0E8C0E0E9C0E0E5A8F8E1
:10271000D2AFE589758900C2C5E8A2E7A2E792AF0A
:10272000D0E0F9D0E0F8D0D0D0E032C0E0C0D0E8BE
:10273000C0E0E9C0E0A2AFE433F8D2AFE58AA2E698
:102740004002E58A758A00758A00C2EBE8A2E08043
:10275000CDC0E0C0D0E8C0E0E9C0E0E5A8D2AF75E8
:102760008B00C2E880B4C0E0C0D0E8C0E0E9C0E0BF
:10277000E5A8D2AFC2C7751C00A2E7A2E792AFD00E
:10278000E0F9D0E0F8D0D0D0E032120C62F3B70715
:10279000120C620AB807120C623BB807120C627680
:1027A000B807120C62A0B807120C62CAB807120C64
:1027B00062E1B807120C62F8B807120C620FB90791
:1027C000120C6238B907120C624BB907120C626125
:1027D000B907120C6274B907120C629BB907120C8C
:1027E00062F6B306120C62FAB406120C6232B50637
:1027F000120C6255B506120C6260B506120C6283AB
:10280000B506120C6292B606120C6267B706120C7D
:1028100062E2B706120C626AB806120C62A5B8062C
:10282000120C62DCB806120C626AB906120C624322
:10283000BA06120C62A3BA06120C62AEBA06120CE9
:10284000622DBB06120C6230BB06120C6233BB0653
:10285000120C62C2BB06120C62C5BB06120C62F5FA
:10286000BB06120C621FBC06120C620DBD06120CD8
:1028700062BFBD06120C62D88407120C6200850785
:10288000120C622E8507120C62658507120C62C35A
:102890008507120C620E8607120C62598607120C0D
:1028A00062998607120C62DF8607120C620D870799
:1028B000120C62CA8707120C62D48707120C62E1FD
:1028C0008707120C62148807120C62E08807120C4A
:1028D00062EC8807120C62048907120C620E8907E9
:1028E000120C6255C307120C6263C307120C627BA1
:1028F000C307120C6293C307120C62F8BA05120CDC
:1029000062A4BB05120C621FBC05120C6240BD051F
:10291000120C627CBD05120C6225BE05120C620C05
:10292000BF05120C6270C005120C62C7C005120C04
:102930006248C105120C6238C205120C6285C205DC
:10294000120C620BC305120C623DC305120C6251DE
:10295000C505120C6293C505120C62B1C505120CB7
:102960006234C605120C6208C705120C62D0C70596
:10297000120C6255D606120C6228D706120C62D1D0
:10298000D706120C6224D806120C62D4D806120C98
:102990006260D906120C624CDA06120C627BDA060F
:1029A000120C628EDB06120C62D6DB06120C62ABD6
:1029B000DC06120C62E7DC06120C6203DD06120C68
:1029C00062D3C607120C62E69A07120C62FC9A07E1
:1029D000120C62229B07120C623E9C07120C62488A
:1029E0009C07120C627D9D07120C62759E07120CEB
:1029F00062B4EA06120C62E4EB06120C625EEC06AC
:102A0000120C628AEC06120C629DEC06120C62E754
:102A1000EC06120C62AEEE06120C622EEF04120CE3
:102A20006298EF04120C62F7F004120C6281F10458
:102A3000120C6291F104120C62BEF104120C6215C8
:102A4000F204120C62BEF204120C62C5F304120C02
:102A5000628FF404120C62EFF504120C6232F60479
:102A6000120C62D7F604120C6224F704120C624AAC
:102A7000F704120C6258F904120C625DF904120C8E
:102A80006262FB04120C62AFFB04120C6222FC04B3
:102A9000120C6255FC04120C62F7FC04120C62A0CA
:102AA000FD04120C62D8FD04120C62DBFD04120C52
:102AB0006223FE04120C6263FE04120C62BAFE046E
:102AC000120C6256A407120C626EA407120C62B6B6
:102AD000A407120C62CCA407120C6213A507120CF7
:102AE0006227A607120C62B4A607120C62FFA607A3
:102AF000120C6200A804120C620CA804120C6247AB
:102B0000A804120C628CA804120C624CA904120CCA
:102B100062DBA904120C6261AA04120C62C6AA0448
:102B2000120C62F2AA04120C622BAB04120C626942
:102B3000AD04120C624DAF04120C6233B104120CDE
:102B40006276B204120C62C4B404120C62D6B504EC
:102B5000120C6221B704120C6231B804120C624EDE
:102B6000B804120C6289B804120C62ABB804120CDF
:102B7000620EB904120C62CFBD04120C6264BE0472
:102B8000120C62B5BE04120C62DCBE04120C622E82
:102B9000BF04120C624CBF04120C62A6BF04120CDC
:102BA00062A5C004120C6229C104120C6295890747
:102BB000120C629F8907120C62E28907120C62FDF7
:102BC0008907120C628D8A07120C62B58A07120CF3
:102BD00062F28A07120C62298B07120C62528B0771
:102BE000120C62C78B07120C62DC8B07120C62F1AD
:102BF0008B07120C62228C07120C62368C07120CA7
:102C0000625B8C07120C62958C07120C62C18C07F8
:102C1000120C62F98C07120C62788D07120C62C1DB
:102C20008D07120C62EB8D07120C62168E07120CC8
:102C3000623CC207120C62E99A06120C62179B06EC
:102C4000120C62659C06120C62459D06120C6264B1
:102C50009D06120C62E19D06120C62249E06120C67
:102C6000627A9F06120C623BA006120C62C2A20698
:102C7000120C6263A306120C6259A406120C62566F
:102C8000A506120C62B0A606120C623BA706120C37
:102C9000626ABE07120C62D3BE07120C6227BF071E
:102CA000120C624EBF07120C627FBF07120C627AD1
:102CB000FB06120C62E7FB06120C622EFC06120CDD
:102CC0006246FD06120C6242FE06120C6225FF06E9
:102CD000120C6230BE06120C6272BE06120C624406
:102CE000BF06120C621DC006120C6217C106120C40
:102CF00062F9C106120C6262C206120C6218C306A7
:102D0000120C628CC306120C62F8C306120C62210C
:102D1000C406120C629BC406120C6234C506120C67
:102D20006299C506120C62AEC506120C62F4C506A5
:102D3000120C620DC606120C6272C606120C627587
:102D4000C606120C627F9E07120C62A79E07120C29
:102D500062E59E07120C62A39F07120C620AA0078D
:102D6000120C6226A007120C624EA007120C627EA3
:102D7000A007120C628DA007120C620AA107120CA8
:102D80006230A107120C6296AB05120C6274AD059D
:102D9000120C62A6AF05120C62E2AF05120C620FB4
:102DA000B005120C62F9B005120C6244B105120CA8
:102DB000628FB105120C62A1B105120C62E1B1057E
:102DC000120C6216B205120C6264B205120C629308
:102DD000B205120C62B6B205120C6203B305120CF6
:102DE0006288B305120C62A2B505120C62E1B70548
:102DF000120C6222B805120C62C4B905120C6205ED
:102E0000BA05120C6278BA05120C62CEBA05120C21
:102E100062D48D06120C62D28E06120C626B95067D
:102E2000120C628C9706120C62579906120C62BF44
:102E30009A06120C6290C104120C623FC204120C7A
:102E4000626CC204120C62B2C204120C62F2C304BD
:102E5000120C6288C504120C6202C604120C621DB8
:102E6000C604120C6298C604120C62F2C704120C5B
:102E70006252C904120C6258CA04120C62B9CB0423
:102E8000120C62D2CB04120C6230CC04120C621E03
:102E9000CD04120C6251CD04120C62C1CD04120C8F
:102EA000623BCE04120C6285CE04120C624FCF043A
:102EB000120C6224D004120C6203D104120C628E34
:102EC000D104120C62FCD104120C6270D204120CF8
:102ED000629BD204120C625AD304120C62BFD40457
:102EE000120C62DCD404120C62FBD404120C62ECEF
:102EF000D504120C6211D604120C623BD604120CDB
:102F000062B6D604120C6210D704120C6279D8048F
:102F1000120C6227D904120C6268D904120C6200E8
:102F20008006120C624E8006120C625A8006120C49
:102F300062388106120C62698106120C629A81065F
:102F4000120C621A8206120C62528206120C62A4E1
:102F50008206120C62E18206120C62FE8406120CDA
:102F600062248706120C620F8906120C62F98A0627
:102F7000120C62FDFF04120C62839705120C62B3FF
:102F80009705120C628C9E05120C6211A005120CA2
:102F9000620EA605120C62F6A605120C6233A70596
:102FA000120C6256A705120C6287A705120C6290DC
:102FB000A705120C629AA705120C6288A805120CCC
:102FC000627EA905120C62748205120C627386057A
:102FD000120C62798605120C62B48D05120C62CD5A
:102FE0009205120C62189707120C62AE9707120C2A
:102FF00062C49707120C623A9807120C62AE9807E7
:10300000120C62EC9807120C62609907120C62D9DC
:103010009907120C62E29907120C62EE9907120CE2
:1030200062039A07120C62419A07120C62579A07C0
:10303000120C62B69A07120C62CB9207120C62D87D
:103040009207120C62F29207120C62319307120C73
:10305000626F9307120C62D49307120C62E9930714
:10306000120C62F49307120C62019407120C62189E
:103070009407120C62269407120C62319407120C0A
:10308000623D9407120C624C9407120C625794072D
:10309000120C627A9407120C62219507120C6231AD
:1030A0009507120C624B9507120C62689507120C7B
:1030B00062849507120C62A99507120C62B49507F9
:1030C000120C62C99507120C62DD9507120C623E64
:1030D0009607120C62449607120C624A9607120C6D
:1030E00062509607120C62689607120C629B960754
:1030F000120C625AD805120C62DED805120C628DD1
:10310000D905120C62ECDA05120C620DDD05120C09
:1031100062F9DD05120C622EDE05120C6250DE052E
:10312000120C62FFDE05120C62F7E005120C622041
:10313000E105120C62B2E105120C62E4E105120C29
:1031400062F1E105120C6248E205120C626EE205C2
:10315000120C62DBE405120C62DEE505120C62362D
:10316000E605120C62E9C905120C62F3CA05120CDD
:1031700062DACB05120C62E4CB05120C6206CC05B8
:10318000120C6212CC05120C62ABCD05120C62DA85
:10319000CD05120C62F6CE05120C624FCF05120C53
:1031A00062B5D005120C6294D105120C62F0D10503
:1031B000120C625DD205120C6298D205120C62D715
:1031C000D205120C6290D505120C62AAD505120C1C
:1031D0006236D605120C6244D605120C629DD605E5
:1031E000120C62ABD605120C621ED705120C62825D
:1031F000D705120C62CCD705120C629CF405120C98
:1032000062BEF405120C62E4F605120C62F9F905CF
:10321000120C6211FB05120C62C4FB05120C62A6B3
:10322000FC05120C62ADB907120C62D2B907120C80
:103230006244BA07120C62DBCE06120C62E4CE06C0
:10324000120C62EDCE06120C62C4CF06120C62752F
:10325000D106120C62ABD106120C62E5D106120C3B
:10326000621BD206120C6255D206120C6289D2067B
:10327000120C62B5D206120C62FED206120C623833
:10328000D306120C6281D306120C62D9D306120C3B
:10329000620ED406120C6269D406120C62A3D40624
:1032A000120C62F4D406120C622AD506120C626467
:1032B000D506120C6292D506120C62B5D506120C18
:1032C00062EDC407120C6219C507120C6274C507BF
:1032D000120C627EC507120C628EC507120C62F4D6
:1032E000F506120C62FEF506120C623CF606120C94
:1032F0006285F606120C62BFF606120C6219F7061A
:10330000120C623AF706120C6243F706120C629036
:10331000F706120C62B9F706120C62C3F706120C1C
:10332000622FF806120C62C1F806120C620BF90645
:10333000120C6241F906120C62CDF906120C620EF3
:10334000FA06120C6245FA06120C6257FA06120CC3
:103350006276FA06120C627FFA06120C624CFB06C9
:10336000120C62008007120C62F78007120C6207D1
:103370008107120C62278107120C62338107120C3D
:1033800062468307120C62658307120C6202B6075D
:10339000120C6238B607120C626EB607120C62B9D4
:1033A000B707120C6241C607120C6257C607120C0F
:1033B0006261C607120C62ABC607120C623E8E0732
:1033C000120C62538E07120C62038F07120C6243B9
:1033D0008F07120C625C8F07120C62978F07120C1A
:1033E00062E48F07120C62169007120C6258900765
:1033F000120C62599207120C62B7C707120C62686E
:10340000C807120C627AC807120C6211C107120CAD
:103410006216C107120C622EC107120C6249C10765
:10342000120C6274C107120C62AAC107120C62F777
:10343000C107120C62F5A907120C6233AA07120C1D
:103440006207AB07120C62A8AB07120C6278A107E7
:10345000120C62A0A107120C62D6A107120C627CAA
:10346000A207120C62CDA207120C620AA407120C6A
:1034700062C5BF07120C62EABF07120C62C0C00728
:10348000120C62ECB307120C62AAB407120C62565B
:10349000B507120C62A9AC07120C62C5AC07120C7E
:1034A000628FAD07120C62A7FF04120C6298D90458
:1034B000120C62FDDB04120C629EDD04120C6252DF
:1034C000DE04120C62E5DE04120C626ADF04120CE8
:1034D000628FDF04120C62E5E204120C626BE304FB
:1034E000120C629EE404120C62D8E404120C620D09
:1034F000E504120C62CDE604120C622AE704120CF9
:103500006273E704120C62DEE704120C624FE804F7
:10351000120C6281E804120C6299E804120C62E257
:10352000E904120C62F2E904120C620DEB04120CB5
:10353000622FEB04120C6265EB04120C6219ED04AD
:10354000120C62A6ED04120C62E5ED04120C620985
:10355000EF04120C622CC407120C623DC407120C5B
:1035600062E2C407120C62C7C807120C62D2C80715
:10357000120C62D7C807120C62E7FF06120C6298A1
:10358000C507120C62A8C507120C62B4C507120C5D
:10359000623BC607120C62F4BC07120C6279BD07CD
:1035A000120C628ABD07120C62B2BD07120C624A8D
:1035B000BE07120C62F83F00120C6239AF07120C02
:1035C00062FDB007120C625EB107120C62A4B10773
:1035D000120C62BCA706120C62EDA706120C62A5C3
:1035E000AA06120C62C0AA06120C6204AD06120CE6
:1035F0006299AD06120C62F3AE06120C6264AF065D
:10360000120C62CCB006120C62E9B006120C622CED
:10361000B106120C624FB106120C626AB106120CAE
:103620006283B106120C629BB106120C6229A707D5
:10363000120C6239A707120C6267A707120C629E70
:10364000A707120C6211A907120C6278DD06120C92
:1036500062BADD06120C62D5DD06120C62A9DE0626
:10366000120C6297DF06120C62FAE106120C626C11
:10367000E206120C6254E306120C6240E406120CDD
:103680006252BB07120C62A4BB07120C622EBC076D
:10369000120C6295BC07120C62A7B107120C62D122
:1036A000B107120C629FB207120C627AB307120CB8
:1036B0006299C606120C6260C706120C6297C706B2
:1036C000120C62C1C706120C6221C806120C627786
:1036D000C806120C62DCC806120C6274C906120C11
:1036E0006283CA06120C621ACC06120C62A7CC06C0
:1036F000120C620ECD06120C6225CD06120C623F32
:10370000CE06120C627DCE06120C6284E605120C07
:103710006205EA05120C628DEB05120C62E4EB0502
:10372000120C6203EC05120C6281EC05120C62367D
:10373000EE05120C621BEF05120C6223F305120C4E
:1037400062F9F305120C62003800120C62123800A4
:10375000120C62243900120C62CF3900120C6299EB
:103760003B00120C62A73D00120C6257C707120CF7
:103770006284E406120C62B3E406120C6258E70697
:10378000120C62F9E806120C62E4E906120C627A85
:10379000EA06120C6285EA06120C629CEA06120C1A
:1037A0006261F006120C62B3F006120C6216F106AA
:1037B000120C62A8F106120C6273F306120C622D51
:1037C000F506120C6278F506120C628DF506120CE5
:1037D0006297F506120C62A1F506120C62CFF5068F
:1037E000120C62DCF506120C6216C807120C62CAD3
:1037F000FF05120C62A9C807FFFFFFFFFFFFFFFFD5
:10380000E9F874F828C3943C40047908800109025F
:103810000C5F74F012161674FE1215BF890A8A0C1A
:103820008B0B8C0E8D0F851A82851B83AC82AD832A
:1038300075838275825374021214D2900AF1E06586
:103840000A704EA3E0650C704890100CE0F8EBC3D2
:1038500098A2D265D03340030238E174FF650B7043
:103860001175100675110078101217727CFC7D0A14
:103870008016751002751100781012177212391621
:10388000740228FC740B39FDAA0EAB0F1232E280D1
:1038900072EAFEE4CEFF74FF650B7510028E11789C
:1038A000107044121772740212160AAC82AD837A39
:1038B000FEEFFB12359474021215D5851A82851B12
:1038C00083E06452701B740112160AE064447011A4
:1038D0007510067810121772AC0EAD0F7A00EF80DB
:1038E0001C7AFF7BFF8025121772AC0EAD0F1239C8
:1038F00016E428EF39F9E82406FAE93400FBA90AAE
:1039000012359474021215D57A007B0074021215D8
:10391000D57F080216E8EBF83395E0F9E8C333F8F1
:10392000E933F92274F612161674FC1215BF7E08DC
:10393000750A04750B00780A121772740212160ABF
:10394000AC82AD837A007B00EEF9123594740212DA
:1039500015D5851A82851B83E0F47029740112162F
:103960000AE0F47020740212160AE0F4701774036F
:1039700012160AE0F4700E8E0A74FF650A70027463
:10398000FF7010800BEEF9123744E9FE640870A056
:10399000750A08A90A1235ACA90A1237441235ACC7
:1039A000E50A900AF1F0A3E4F0FC7D01F97AFC7BD2
:1039B0000A1232FA90100C74FFF0E50A900AF3F044
:1039C000A3E4123F9074041215D57F020216E87426
:1039D000EC121616EAFEEBFF123366E97003023BA7
:1039E000571233728A0A8B0B8C0C8D0D90100CE0E1
:1039F000F460768A0E8B0F8C108D11900BFC780E74
:103A0000121404758381758285780E120CD2506E63
:103A1000123B85121398123B73121398780E791289
:103A20001213B77402780E12137F123B5C121772D6
:103A30007CFC7D0A1235A674021215D57C007D012E
:103A400079007AFC7B0A1232FA900AF2123D9B400E
:103A500018900AF1E0F9123744E9900AF1F01237B0
:103A6000441235AC900AF2E4F0900AFC780A121481
:103A70009EA3EEF0A3EFF090100CE4023B469010F2
:103A80000CE012391774FC28F8740A39F9E8FAE9DD
:103A9000FB900C00E0F8A3E0F9EEC398F50EEF9967
:103AA000F50F7408780E12158DE50E5407FC900B77
:103AB000FC780E12148FE50AC3950E33333354F895
:103AC0004C8A828B83A3A3A3A3A3A3F0900C00E052
:103AD000F8EEC3988A828B83A3A3A3A3A3A3A3F026
:103AE00090100C123D70405F123B85121398123BF0
:103AF00073121398780E79121213B77402780E129B
:103B0000137F123B5C1217727CFC7D0A1235A6747F
:103B1000021215D57C007D0179007AFC7B0A1232F5
:103B2000FA900AF2123D9B4018900AF1E0F9123720
:103B300044E9900AF1F01237441235AC900AF2E4ED
:103B4000F090100C74FFF0900BFC780A12149E9009
:103B50000C00EEF0A3EFF07F0C0216E8AA0EAB0FFC
:103B6000900BFA7452F0A37444F0750E40750F0078
:103B7000780E22A3E0F5123395E0F513F514F51550
:103B80007408781222900AF1E0F50E3395E0F50FF3
:103B9000F510F511740B780E2274EC12161674F0F1
:103BA0001215BFEAFEEBFF750A00750B00900AF5CF
:103BB000E0FBC3947C4003023C78851A82851B831A
:103BC000AC82AD83900AF4E0FA900AF3E0F9123780
:103BD0004A8B0BEA450B6003023CB3851A82851BB6
:103BE00083E0701D740112160AE07015123D9250A8
:103BF00003023C80123D68123744E9900AF3F080DA
:103C00007F740112160AE0F8851A82851B83E0A2F0
:103C1000E2500444F880025407F9900AFAE028F5CB
:103C20000AA3E039F50B123D7C75830A7582F6789C
:103C30000E1213CA780E12176EEEFAEFFB123378DB
:103C400074041215D5123D7C900AF6780E1213DD1D
:103C5000A3E50AF0A3E50BF0900AF5123D705003BE
:103C6000023D5C123D955003023D5C123D681237E7
:103C700044E9900AF3023D5B74FF6B6003023D5C14
:103C8000851A82851B83AC82AD83900AF5E0FB9098
:103C90000AF4E0FA900AF3E0F912374A8B0BEA458E
:103CA0000B6017123D92400B123D68123744E990A9
:103CB0000AF3F07A007B00023D60740512160AE0F8
:103CC000F9740412160AE0FAF50AE9F50B74031206
:103CD000160AE0F50EE4F50FF510F5117418780EDC
:103CE000121398740212160AE0F512E4F513F51493
:103CF000F51574107812121398780E79121214694F
:103D0000740112160AE0F512E4F514740878121220
:103D10001398780E7912121469851A82851B83E034
:103D2000F512E4F513780E7912121469850F1385D4
:103D30001014851115900AFAEAF0A3E50BF0900A29
:103D4000F6781212149E780E12176EEEFAEFFB122E
:103D5000337874041215D5900AF5E4F0AA0AAB0B77
:103D600074101215D5023B57E4F0900AF3E0F922E3
:103D7000E004F0C3947CA2D265D03322851A8285F8
:103D80001B83E0131313541FF50EE4F50FF510F524
:103D90001122900AF574FFF0900AF4E004F0C39445
:103DA00008A2D265D0332274E812161674F51215E3
:103DB000BF740412160AE4F0740312160AE4F0F554
:103DC0000B740912160AAC82AD8375838275825515
:103DD00074021214D20412160AE4F0740212160AC3
:103DE000E4F0750EFF750FFF7510FF7511FFEA4BBC
:103DF0007003023F7B1233848A128B138C148D154F
:103E0000750A08851A82851B83E4F0E0FEE4CEFF84
:103E1000750C028E0D780C121772740B12160AAC08
:103E200082AD837AFEEFFBA90A1235947402121553
:103E3000D5740912160AE064526003023F41740A05
:103E400012160AE064446003023F41750C04780CCA
:103E5000121772740712160AAC82AD837A00EFFB58
:103E6000A90A12359474021215D5740512160A782F
:103E700012120CD250478512168513178514188517
:103E80001519740512160A7816121404780E79168C
:103E9000120CB2502885120E85130F85141085154B
:103EA00011740512160A780E121404740112160AFF
:103EB000123F85C0E0740212160AD0E0F0740512B9
:103EC000160A7812120CD2503A85121685131785ED
:103ED0001418851519740512160A7816121404752B
:103EE00083817582D57816120CD24017750B017438
:103EF0000412160A123F85C0E0740312160AD0E0BD
:103F0000F0803EE50B6038740512160A7812120C28
:103F1000C2402C740512160A781612148F7816797E
:103F2000121213F07583817582D57816120CD24067
:103F30000E740412160AE0900AF3F0740380328EB5
:103F40000B851A82851B83E004F0C394085003029A
:103F50003E0BA90A123744E9F50A7408650A6003A2
:103F6000023E03740112160AE06010900AF3F07426
:103F70000212160AE0900AF4123F90740B1215D543
:103F80007F100216E8E50AF0851A82851B83E0227D
:103F9000F0A374FFF0A3E4F0A3F0A3F0A3F0A3F068
:103FA000A3F02253BEFBE59DA2E650FAE5C654807D
:103FB0004449F5C6E59E547F644970F853C67FE5D1
:103FC0009EA2E740FA53C680E59E547F70FA43BE36
:103FD000049062707408F079001233FC123582127A
:103FE00036F0123348D2AF79011233A812334E7A29
:103FF000007B00020C5FFFFF851C87C2AF020C5FD5
:020000040002F8
:10280000C082C083E9900E3EF002AB1E74F7121630
:1028100016E99002E0F07C187D037AFF7BFF122B13
:10282000869002E174FFF0A3F0A3E4F0A3F0790531
:10283000122B0E9002E0E0F9122A2A7A9E7B2B12CC
:102840002D487F010216E874F41216168A0A8B0BC3
:10285000EB548060309002E0E0F912331E8A0C8B5A
:102860000DAE0CAF0DEE4F60138E828F83E064B01F
:102870007003122B26EEFAEFFB12330CAA0AE50BBB
:102880006480FB80047A007B0002AAED74F21216C9
:102890001674FC1215BFEAFEEBFFEE4F60387402AF
:1028A00012160AEEF0A3EF12AD52ECF0A3ED12AD4A
:1028B00052AA82AB83122A1EE9F50A7073741212AF
:1028C000160A12B906E50C450D60658E828F8312DB
:1028D000A93AEE4F7005750A0280557A067B001200
:1028E00033968A0E8B0FA80EA90FE8497005750A5A
:1028F00013803D88828983E412A944A3A3EEF0A348
:10290000EF12BD9FE50CF0A3E50DF09002E612AAD0
:102910005B9002E66017E0FCA3E08003EAFCEBFDBD
:102920008C828D8312AA5B70F38C828D8312B82BFC
:10293000A90A74041215D502BFA1A3A3A3A3E0FEA4
:10294000A3E0FF22F0A3F0888289832274F5121697
:102950001674FC1215BF8A0A8B0BECFEEDFF900279
:10296000E612B5BD7C007D00800BEAFCEBFD8A829F
:102970008B8312B5BDEA4B605E8A828B83A3A3E092
:10298000650A7004A3E0650B70E08A828B8312C035
:1029900070EC4D70059002E680048C828D8312B835
:1029A0002B12339C851A82851B83AC82AD83AA0AC5
:1029B000AB0B122A24E97015EE4F60117402121647
:1029C0000A12B5BD8E828F83EAF0A3EBF074041275
:1029D00015D57F030216E8790180F274F2121616FB
:1029E000890CE975F017A4FEAFF09002E5E4F090D1
:1029F00002E312AA5B600A12339C9002E3E4F0A3A4
:102A0000F0EEFAEFFB1233968A0A8B0BEA450B6065
:102A10002FEEFCEFFD79001232FA9002E3E50AF0A6
:102A2000A3E50BF07B00800812AA45E4F0A3F00BAD
:102A3000EBC3950C40F2E50C9002E5F079008002C2
:102A4000791302BFA1EB75F017A4F8A9F09002E387
:102A5000E028FAA3E0398A82F5832212B5C1EA4B55
:102A60002274F4121616750A00750B00740C1216F7
:102A70000A12BD73FEE9FF800CE50A2401F50AE5A0
:102A80000B3400F50BC3E50A9CE50B9D5032850A1B
:102A90000C850B0D7403780C1215ACEA250CF8EBC1
:102AA000350DF988828983A3A3A3A3A3A312B90632
:102AB000EE650C7003EF650D70BFE8FAE9FB80046A
:102AC0007A007B00802774F41216167900EAA2E0DF
:102AD000501B750A61750B81780A1217727C047D90
:102AE000007A407B0E122B0274021215D57F04026D
:102AF00016E8C082C0839002E612AB25601C888273
:102B00008983A3A3E06A7003A3E06B888289837042
:102B1000E8A3A3A3A312B5BD80047A007B00D083F1
:102B2000D082020C5F12C074E8492274EE121616AD
:102B300074FC1215BFEAFEEBFF851A82851B83E445
:102B4000F0A3F0EE240212B80FEE240512AD40EE11
:102B50002404F510EF12B125E024FE603924FC6056
:102B60004624FE605224FE605E24FE700302AC45E3
:102B700024FE700302ACBD24FE700302ACCC24FE24
:102B8000700302ACDB24FC700302ACEA24FE700389
:102B900002ACF902AD369002FF7417F0A3E412AD57
:102BA0005A12279002AD36851A82851B83AC82ADFE
:102BB00083122B2C02AD06851A82851B83AC82AD55
:102BC00083122B3202AD06850E0A850F0B7402129A
:102BD000160AAC82AD83850A82850B8312B5BD12BD
:102BE0002A488A0E8B0FAC0EAD0FEC4D6042E4F517
:102BF0000EF50F780E121772750EFF750F02780E14
:102C0000121772750E00750F03780E121772740882
:102C100012160A121789791612B5B7122B6E74089C
:102C20001215D5E9F50E700B12B5B31227A8800F57
:102C3000750E01850A82850B8312AD4812B82B856B
:102C40000E0A02AD09740212160AAC82AD83850E1B
:102C500082850F8312B5BD122A488A128B13AC12DB
:102C6000AD13EC4D6043850E82850F83A3A312172D
:102C7000897512FF7513027812121772751200759A
:102C800013037812121772740812160A1217897930
:102C90001612B5B7122B6E74081215D5E9F50B7024
:102CA0000B12B5B31227AE800F750B01850E82850E
:102CB0000F8312AD4812B82B850B0A804C851A82FF
:102CC000851B83AC82AD83122B38803A851A8285AE
:102CD0001B83AC82AD83122B3E802B851A82851B11
:102CE00083AC82AD83122B44801C851A82851B83A2
:102CF000AC82AD83122B4A800D851A82851B83AC72
:102D000082AD83122B50E9F50AE50A60298E828F85
:102D100083A3E06414601F851082851183E0900214
:102D2000FF12AD5212C07090030012B82BE50AA337
:102D300012AD5A12278AEEFAEFFB122AC602B71713
:102D4000F50EEF3400F50F2212C074851A82851B30
:102D50008322F0851A82851B8322F07CFF7D028509
:102D60000C82850D8312B5C12274EE12161674FC06
:102D70001215BF8A0C8B0D8C108D11EA2405F50AF3
:102D8000EB3400F50B7C157D0079007AFF7B021295
:102D900032FAE50A2402F50EE50B12AD43851A82DC
:102DA000851B838582128583137812121772850A18
:102DB00082850B83A3A3A3A312B26D121772E50A37
:102DC0002405F512E50B3400F513781212177285FD
:102DD0000E82850F8312B5C7122A4274061215D5CA
:102DE0008A128B13AE12AF13E50C2402F50CE50D1D
:102DF00012B812EE4F700302AF2F80177402121632
:102E00000A12B5BD88828983EAF0A3EBF09002FF35
:102E1000E004F09002FFE0C39405400302AF2FE40A
:102E2000F512F51378121217727512E875130278FD
:102E3000121217727512E975130278121217727452
:102E40000612160A1217897910EEFCEFFD12B5B7BB
:102E5000122B6E74081215D5E9705E850A82850BF7
:102E600083A3A3A3A3A3A3A3E0F89002E8E0687060
:102E70004812B26D1217727CE97D02E50A2408FA45
:102E8000E50B3400FB1232F474021215D5E9602907
:102E90008E828F83A3A3A3A312B5BD9002FFE0F59A
:102EA00012740278121215AC74002512F5827403A4
:102EB0003513F583EAF0A3EBF0740212160A85824B
:102EC000128583137812121772740212160A1217DF
:102ED00089850E82850F8312C085122A4E740412D2
:102EE00015D58A128B13AE12AF139002FFE0F512C4
:102EF000751300740278121215AC74FF2512F87461
:102F0000023513F988828983A312AA5B700302AD8C
:102F1000F3E82403F8E93400F9EE4F600302ADFC56
:102F20008882898374FFF0A3F09002FFE004F090A0
:102F300002FFE0600A12B5B312279C7900800B856E
:102F40000A82850B8312B822790A02B71774EA1233
:102F5000161674FE1215BF8C148D15EA2405F50E95
:102F6000EB12C08F12A93E750A00750B00EA24020D
:102F7000F512EB3400F513851A82851B8385820CCC
:102F800085830D780C121772850E82850F83A3A39B
:102F9000A3A312B12F121772E50E2405F50CE50F4D
:102FA00012B812780C121772850E82850F8312C028
:102FB00083122A4274061215D58A0C8B0DEA450D30
:102FC000700302B0E0EA2404F510EB12B12512A957
:102FD0003E8A828B83A3A3A3E0F9851282851383A3
:102FE00012B5BD122A30E9F50B600302B0E0E4F53A
:102FF00016F51778161217727516E87517027816F7
:103000001217727516E97517027816121772740680
:1030100012160A1217897913AC0CAD0D8512828530
:10302000138312B5BD122B6E74081215D5E9F50B7A
:10303000600302B0E09002E8E0F8E50A7009E024DD
:1030400002900300F08017900300E0FCE82402FAED
:10305000E43400FBEA6C7001EB600302B0E4850A23
:1030600082AA8212B264941412B25C5073851082E8
:10307000851183E0C0E074012A12B11CD0E0F00594
:103080000A851082851183A3E0C0E0850A0C7401D3
:10309000250C12B11CD0E0F0050A9002E812B12F05
:1030A0001217727CE97D02850A0C7401250CFA74F2
:1030B000033400FB1232E274021215D59002E8E0EC
:1030C000250AF50A74FF6E700374FF6F6012EE2418
:1030D000010EEF3400FFE50AC39414500302AF77EA
:1030E000E50A601312B4A885128285138312B5BD58
:1030F0001227A279008014E50B7003750B0A851462
:1031000082851583EEF0A3EFF0A90B74021215D59A
:103110007F0E0216E8850A0E7401250EF5827403EF
:103120003400F583223400F511851082F5832212D4
:10313000BDB22274EE12161674FE1215BF8C108DDD
:1031400011EA2405F50EEB12AD43750D009002FF58
:10315000E4F0F50CEA2402F50AEB3400F50B8049A3
:103160009002FFE0FA9002E8E0F812B264941712BD
:10317000B25C400D9002FFE0F87416C3989002E82C
:10318000F012B26D1217727CE97D0274002AFA7493
:10319000033400FB1232E274021215D59002E8E00B
:1031A000F89002FFE028F0050CE50E2416F582E504
:1031B0000F12B120E0F8E50CC398400302B245902D
:1031C00002FFE0C39416507DE50CC333F8E433F9F5
:1031D000E50E28FEE50F39FF851A82851B83AC8238
:1031E000AD838E828F8312B5BD122A488A128B134B
:1031F000AC12AD13EC4D7005750D018043E4F51272
:10320000F51378121217727512E8751302781212FC
:1032100017727512E975130278121217727406127A
:10322000160A1217897916850A82850B8312B5BD95
:10323000122B6E74081215D5E9F50D700302B160FA
:1032400012B81E80107CFF7D02850A82850B8312D6
:10325000B5BD1227B4A90D740202B719E99400C3D1
:1032600065D03322EA28F8E43400F9E822E0F512C8
:1032700075130078122274EA12161674FC1215BF28
:103280008A0E8B0F8C148D15EA2405F50CEB12B801
:1032900012750A00750B00E50C2402F512E50D34D9
:1032A00000F513740212160A8582108583117810B6
:1032B000121772850C82850D83A3A3A3A312BD5E92
:1032C000121772E50C2405F510E50D3400F51178A0
:1032D0001012177285128285138312B81812B5B7AF
:1032E000122A4274061215D58A108B11AE10AF1136
:1032F000E50E2402F510E50F3400F51180408882B8
:10330000898374FFF0050A12B11574FFF0050A9065
:1033100002E8E0F50E750F00780E1217727CE97D59
:1033200002850A0E7401250EFA74033400FB123272
:10333000E274021215D59002E8E0250AF50AEE4F74
:1033400060718E828F83A3A3A3E0F985108285111B
:103350008312B5BD122A30E9F50BEE240412AD40FC
:10336000E97044E4F516F51778161217727516E829
:1033700075170278161217727516E9751702781606
:10338000121772740812160A1217897911EEFCEFDF
:10339000FD85108285118312B5BD122B6E74081243
:1033A00015D5E9F50B6027850E82850F8312B49E33
:1033B00012B82BE50A700302B48412B4A8851082F7
:1033C00085118312B5BD1227BA790002B499850A16
:1033D00082AA82EA9002E87009E02404900300F0D7
:1033E0008022E0F8900300E0F516E82404FCE434C1
:1033F00000FDEC65167001ED70C012B264941212FB
:10340000B25C50B6850E82850F83E0C0E074012A5D
:1034100012B11CD0E0F0050A850E82850F83A3E06F
:10342000C0E012B115D0E012B4BA85820E85830FC8
:10343000780E121772740412160A121789851282F6
:1034400085138312C085122A4E74041215D58A0E74
:103450008B0FAE0EAF0F850A0E7401250EF87403A4
:103460003400F9EE4F700302B2FE851A82851B8389
:10347000E08882898312B4BAA3E0C0E012B115D00B
:10348000E002B30CE50B7003750B0A850C82850D09
:103490008312B49E12B82BA90B740402B10D12C092
:1034A0007485148285158322900300E0F5F0E50A07
:1034B000849002FFF07CFF7D0222F0050A851A82CB
:1034C000851B832274EC12161674FE1215BF8A0A2D
:1034D0008B0B8C108D11EA2405FEEB3400FF851A4E
:1034E00082851B83AC82AD838E828F8312B5BD1221
:1034F0002A488A0C8B0DEE241812AD40EA450D7057
:103500000302B58E12B7005032851A82851B8312D2
:10351000B5BD122B628A128B13EA4513606B7912C8
:10352000AC0CAD0D850A82850B8312B5BD85128268
:10353000851383121614E9F50C7058E4F50CF50D9B
:10354000780C1217728E828F83A3A3E0F50C780C8F
:10355000121772EE240312B80F780C1217728E82B3
:103560008F8312B5C7122B7474061215D5E9F50CAA
:103570007021850E82850F83E0701F850A82850B7E
:103580008312B5BD1227C08011750C0E8009750C11
:10359000018004E50C600312B81E850E82850F833E
:1035A000E0600479008002A90C74021215D57F0C2A
:1035B0000216E87CFF7D02850C82850D8312B5C161
:1035C00022E0FAA3E0FB22E0FCA3E0FD850A82856D
:1035D0000B8312B5C12274EE12161674FE1215BFBB
:1035E0008A0A8B0B8C0E8D0FEA2405FEEB3400FF4C
:1035F000751000851A82851B83AC82AD838E828F05
:103600008312B5BD122A488A0C8B0DEA450D700352
:1036100002B6EC12B7005035851A82851B8312B5AD
:10362000BD122B628A108B11EA4511605E7912ACD3
:103630000CAD0D850A82850B8312B5BD8510828580
:103640001183121614E9F510600302B6EF850A82A1
:10365000850B8312B906AA0CFB122B568A128B1308
:10366000A812A913E849701E7AFF7BFF122B568A15
:10367000128B13A812A913E849606C88828983E52C
:103680000CF0A3E50DF0750C00800775100E805F3F
:10369000050C9002E5E0FAE50CC39A504AE50C757A
:1036A000F017A4FAABF088828983A3A3E02AFAA3D7
:1036B000E03BFB8A828B8312B818EC4D70D2750CFC
:1036C00017750D00780C121772EEFCEFFD1232E246
:1036D00074021215D5EEFCEFFD850A82850B83126C
:1036E000B5BD1227C680147510098003751001122C
:1036F000C06C850E82850F8312B82BA91002B257B9
:10370000E50A2402F50AE50B3400F50B8A828B8367
:10371000A3A3A3E0A2E52274041215D57F0A021622
:10372000E874EC1216168C128D13EA2405F50EEBD4
:1037300012AD43751100EA2402F50CEB12B81285A4
:103740000C82F58312B5BD122B568A0A8B0BEA4503
:103750000B700302B8047510008071850E82850F0E
:1037600083E06401704F8E828F83A3A31217898E2A
:10377000828F83A3A3A3A3E0F51475150078141218
:103780001772EE2405F514EF3400F51578141217AE
:103790007212B5B7122B7474061215D5E9F51160C3
:1037A00014850E82850F83E4F012C06C8512828529
:1037B000138312B82B7C177D007900EEFAEFFB1211
:1037C00032FA8E828F83E4F0A3F005109002E5E0D8
:1037D000F8E510C398501EE51075F017A4F8A9F08D
:1037E000850A82850B83A3A312C09912B818EC4DE9
:1037F000600302B75B850A82850B8374FFF0A3F038
:10380000E511700612B5B71227CCA91102B5AEF5B5
:103810000CEF3400F50D22A3E0FCA3E0FD228E8224
:103820008F8312C074851082851183E8F0A3E9F0BC
:1038300022C082C0839002E1E06A7003A3E06B7053
:10384000067AE17B0280047A007B0002AB1EC08214
:10385000C08378008C828D83E06A7003A3E06B7074
:1038600010E875F003A4F8A9F0EC28FAED39FB8014
:1038700015088C828D83A3A3A3E06A7003A3E06B79
:1038800060DF7A007B0002AB1E74F6121616122B54
:10389000208A828B83E582458370067A007B0080D4
:1038A00007A3A3A3A312B5BD02BF1D74F21216167F
:1038B000E9FE740E12160A12B906741012160A12D4
:1038C000BD7E8C828D83E064027036A312C07AF5CF
:1038D0000EA3E0F9A80E74026870037429697021C0
:1038E000750E02750F00780E121772780A12177291
:1038F000780C121772EEF9122B9874061215D580F7
:1039000002790102BFA1E0F50CA3E0F50D2274E8F5
:1039100012161674FB1215BFE9851A82851B83F0F7
:103920008A188B19ECFEEDFF751200741D12160A31
:1039300012C070741D12160A12B82B8E828F83A3C8
:10394000A3A3E0A2E4502D741D12160A12B5BD12F5
:103950002B628A828B83E5824583700302BD4F7997
:103960000AEEFCEFFDAA18AB19121614E9F5126065
:103970000302BD52741F12160A12BD7E7421121664
:103980000A12B906742312160AE0F510A3E0F51125
:103990008E828F83E06402600302BCFDA312C070BC
:1039A000850A82850B83A3858214858315EE240600
:1039B00012AD4088828983E0FAA3E0F9EA2400F599
:1039C00016E439F51778161217FC010000280128B3
:1039D000F2B907000228B7BA032824BA0029EEBBBF
:1039E000012919BC0229BABB0329EEBB042998BCE2
:1039F000FDBCE5104511600302BCF8850E82850F01
:103A00008312BD73FAE9FB8A828B83E0850C828581
:103A10000D8312BDA91217728A828B83A3E0FCA3C7
:103A2000E002BC82E5104511600302BCF8850C82FF
:103A3000850D837401F012BD86850A82850B83F0A3
:103A40007C007D008E828F83A3A3A3A3E02401FAD0
:103A5000A3E03400FB122A48EA4B60418A828B8340
:103A6000E02402F8850C82850D83E028F0EA240426
:103A7000F8EB3400F988828983E085148285158308
:103A800012BDBB12BDA91217728A828B8312B8179E
:103A9000E50A2403FAE50B3400FB02BC87850C829F
:103AA000850D83E02404F07C047D007900AA14AB2A
:103AB000151232FA02BD52E5104511600302BCF83E
:103AC00012BD86FEA3E0FF850C82850D837404F091
:103AD000EE850A82850B83F0EF851482851583F0CD
:103AE000740312160AAC82AD83EEFAEFFB122A4879
:103AF0008A0E8B0FEA450F700302BB9B8A828B8371
:103B0000A3A312A93A740112160A858210858311A3
:103B10007810121772740512160A1217897CFF7D2D
:103B2000FF122A4E74041215D58B11EA4511703319
:103B3000850E82850F8312BD5E121772850E8285F7
:103B40000F83A31217897C027D007A337B821228AF
:103B50006874041215D5E9700A740112160A74FF0C
:103B6000F0A3F08E828F83E064027039750E0275C7
:103B70000F00780E1217728E828F8312B817E50A23
:103B80002404FAE50B3400FB1232E274021215D55C
:103B9000850C82850D83E024028009740112160AC7
:103BA000EEF0A3EFF0740112160A12BD6FF074016B
:103BB00012160AA312BD6702BCF2E510451160039C
:103BC00002BCF8850E82850F8312B818AA18AB19AB
:103BD000122B8C850C82850D837402F0EA850A8293
:103BE000850B83F0851482851583EB02BCF5E51007
:103BF0004511600302BCF812BD86F8A3E0F9850CFC
:103C000082850D837402F0E8850A82850B83F0E9D2
:103C100085148285158302BCF5850E82850F83127B
:103C2000B5BD1232DCEAFC8C82A882C39510E49503
:103C300011405FE865107002E51170047C0080227D
:103C4000851A82851B83E0FAE5102AFAE511340013
:103C5000FBC3EA98EB94005003E08005E510CCC369
:103C60009CFCEC850C82850D83F08C0C750D007826
:103C70000C121772850E82850F83E02510FCA3E0DD
:103C80003511FDAA0AAB0B1232E274021215D502ED
:103C9000BD5275120702BD52E5104511705A850ECE
:103CA00082850F8312C070850C82850D8374071284
:103CB000A94612BD6712A946A3E085148285158323
:103CC000F0E82402FAE93400FB8A828B8312BD6794
:103CD00012BD9612BD6FA312BD9F12BD78F0E824ED
:103CE00005F8E93400F98882898312BD78A312BDF2
:103CF000BBA3A3A3A3F0805A75120B8055741D12A9
:103D0000160A12B5BD122B208A828B83E582458369
:103D1000603D12C070880E890FE8450F6031781041
:103D2000121772780C121772780A12177274061230
:103D3000160AE0F9EEFCEFFDAA18AB19850E828594
:103D40000F8312161474061215D5E9F51280037547
:103D5000120EA91274051215D57F100216E8E0F5AF
:103D600010751100781022E0850A82850B832212DB
:103D7000BDC52212C074E82212BDC5A3A322E0F57E
:103D80000AA3E0F50B22850E82850F83E0F8A3E0FD
:103D9000F5838882E022A3A3F08A828B83A322F09A
:103DA00088828983A3A3A3A322F08A828B8312BD76
:103DB000B222E0F50C750D00780C22F08882898320
:103DC000A312BDC522E0850A82850B83A3A32274BA
:103DD000EE12161674FE1215BF8A0C8B0DECFAED5E
:103DE000FB741412160AE0F512A3E0F51374161210
:103DF000160AE0FE741812160AE0F510A3E0F51199
:103E0000851A82851B83AC82AD83122A488A0E8B69
:103E10000FEA450F6049851A82851B8312B5BD12D2
:103E20002B208A828B83E5824583602FA3A312BD5A
:103E30007EE50A450B60247810121772781212176B
:103E400072EEF9AC0EAD0FAA0CAB0D850A82850B94
:103E50008312161474041215D58006790E80027927
:103E60000102B25774F612161674FE1215BF740CC6
:103E700012160A12BD73851A82851B83F074011213
:103E8000160AE9F0E4F50AF50B780A121772750ABA
:103E900002780A121772740412160A85820A858340
:103EA0000B780A121772122B7474061215D574024D
:103EB0001215D5806874F7121616EAFEEBFF890A10
:103EC0007C187D03122B8CEA5402600BA90AEEFACF
:103ED000EFFB122A3C8002790102A84274F6121606
:103EE0001674FF6A700374FF6B70168C828D8312D8
:103EF000BF22E4F08C828D83A3A3A312BF22A380F0
:103F000018122B5C8A0A8B0BA80AA90BE849600DD2
:103F10008882898374FF12A944A3A3E4F07F02027C
:103F200016E874FFF0A3F08C828D83A3A32274F6AD
:103F3000121616122B5C8A828B83E58245836006FB
:103F4000A3A3E0FA80027A007B0080D174F21216FB
:103F5000168A0A8B0BECFEEDFF740E12160AE0F5C2
:103F60000C122B5C8A0E8B0FA80EA90FE849702645
:103F7000EEFCEFFD7AFF7BFF122B5C8A0E8B0FA805
:103F80000EA90FE84970047911801688828983E5AB
:103F90000AF0A3E50BF088828983A3A3E50CF079EE
:103FA000007F060216E874EE121616EAFEEBFF8C8E
:103FB0000A8D0B890E741412160A12C07074161230
:103FC000160A12B5BD750F00E849600302C064749B
:103FD00002650E600302C05F741212160A12C07AE4
:103FE000FCA3E0F9EC2400F510E439F511EAF4F84B
:103FF000EBF4F9EC58F8E51159F9E849705CE50A79
:104000002406F8ED3400F9880C890D8882F58312B6
:10401000C085122B8C8A128B13E51065127004E593
:1040200011651360427810121772850C82850D831A
:1040300012C085122B9274021215D5E9F50F702764
:104040007810121772850A82850B83A3A312C0838E
:10405000122BA474021215D5800D750F808008757F
:104060000F0D8003750F0BA90F02B71C8E828F8373
:1040700012C07422E0F8A3E0F92212C07488828989
:1040800083E022A3A3E0FCA3E0FDEEFAEFFB2234E1
:1040900000F50F850E82F58322E028FEA3E039FFAC
:1040A0008E828F832274F2121616EAFEEBFF890DC0
:1040B0007401650D600E7402650D706A7901122D30
:1040C00066E97062EEFAEFFB122B568A0A8B0BEA56
:1040D000450B6047750C00800B7C177D0079001242
:1040E00032FA050C9002E5E0F8E50CC3985021E5A2
:1040F0000C75F017A4F8A9F0850A82850B83A3A399
:10410000E028FAA3E039FB8A828B8312AB2570C9C1
:10411000850A82850B8374FFF0A3F07C187D03EE83
:10412000FAEFFB122B8602BFA174F21216168A0A4E
:104130008B0BECFEEDFF740E12160A12B906900EF0
:104140003EE0F4603D7A097B00123306EA4B6032B0
:104150008A828B8374B1F0A3E412BD98A312BD963A
:10416000A3E50AF0A3E50B12C185EEF0A3EF12C19F
:1041700085A3A3E50CF0A3E50DF0900E3EE0F91247
:10418000331202BFA1F08A828B83A3A3A3A3A3222D
:10419000C082C0839061907404F0A37448F0A3744B
:1041A00002F09061807440F09061BC7403F0906103
:1041B000877419F0906265741BF0906249E0C394B3
:1041C0001390619C400A7409F09060667401800746
:1041D000740DF0906066E4F090619A7433F0A3740B
:1041E00055F09061A0743AF090053EE064017009CA
:1041F000C2919003A5746780059003A57461F09047
:1042000037FAE493906186F09037FCE493F46027EA
:10421000E493540FF8906185E0686012E5C654801D
:104220004449F5C6E59E547F644970F8E8F053C6EA
:1042300080E59E547F70FA79051230C602C3EBC048
:1042400082C083E9540FF9906185E0696012E5C688
:1042500054804449F5C6E59E547F644970F8E9F0FE
:1042600053C680E59E547F70FA02C3EBC082C083C0
:10427000E5A8F853A87E906181E4F0A3F0A3F0C212
:10428000BA539AFEC289759B00C2C275E900759146
:104290000075BF0075A91175B905906181F0A3740F
:1042A000C0F0A3E4F0D2BA439A0174805842A80245
:1042B000C3EBC082C08374F81215BF9003A3E0F86B
:1042C000A3E0F9E849700302C3E09003A3E054407F
:1042D00060237908851A82851B83AA82AB83122FFB
