:100000000206B2C2AFF508614AFFFFC2AFF5086150
:100010005CFFFFC2AFF508616EFFFFC2AFF508617C
:1000200080FFFFC2AFF5086192FFFFC2AFF5086124
:10003000A4FFFFC2AFF50861B6FFFFC2AFF50861CC
:10004000C8FFFFC2AFF50861DAFFFFC2AFF5086174
:10005000ECFFFFC2AFF50861FEFFFFC2AFF50881FC
:1000600010FFFFC2AFF5088122FFFFC2AFF5088184
:1000700034FFFFC2AFF5088146FFFFC2AFF508812C
:1000800058FFFFC2AFF508816AFFFFC2AFF50881D4
:100090007CFFFFFF758701002274F712057FE9FEE0
:1000A000750A00750B08780A1206837C807D017A38
:1000B000007B001204927402120640900186E0F563
:1000C0000AA3E0F50B7409780A120694E50A2EF5E6
:1000D0000A74016E7006743D250AF50A53B4F3756F
:1000E000BC0075BC007CFC7D077A047B00EEF91235
:1000F00002BC74012EFFC3950A501B74086F700276
:100100007F457C007D087A007B00EFF91202BC0F6E
:10011000EFC3950A40E5E5BDF9E5BCFAE9FB7F02CE
:100120000205E574F612057F890CEAFEEBFF53BE6B
:10013000FBE59DA2E650FAE5C654804449F5C6E5C4
:100140009E547F644970F853C67FE59EA2E740FA4B
:1001500053C680E59E547F70FA43BE04906270746B
:1001600008F01200998E828F83E0F8A3E0F9EA6824
:100170007002EB6970498E828F83A3A3E8F0A3E934
:10018000F08E828F8374FFF0A3F07409F5D575D4D7
:1001900080750A01750B00780A120683EEFCEFFDEC
:1001A000850C0A7409780A120670FAAB0B1205194D
:1001B0007402120640C2AF75C9AB75C95B80FE7F81
:1001C000030205E574FC12065A750A04750B0078E3
:1001D0000A12068374021206CEAC82AD837A007BCB
:1001E0000079081204927402120640851A82E0F423
:1001F0007003A3E0F4603C851A82851B83E0F8A3BA
:10020000E0F9E849602D74021206CEE0687003A39D
:10021000E0697010750901024030C2AF75C9AB7555
:10022000C95B80FE851A82851B83AA82AB8379080D
:10023000120123780A12068374021206CEAC82AD34
:10024000837A007B007901120492740212064085C1
:100250001A82E0F47003A3E0F46051851A82851BD2
:1002600083E0F8A3E0F9E849604274021206CEE0A8
:10027000F8A3E0F9851A82851B83E0687003A3E088
:10028000697010750900020830C2AF75C9AB75C935
:100290005B80FE74FF68700374FF69700F851A82BB
:1002A000851B83AA82AB83790112012343BE03120B
:1002B0000094C2AF75C9AB75C95B80FE74F71205B7
:1002C0007FE9FEE5C7FF740F5EF50A750B00740B3E
:1002D000780A120670EA2400F8EB350BF9E82400DE
:1002E000E93480F9A2AFE433F50AC2AFEEC4540F8B
:1002F000FAE5C754F84AF5C7E9900980F0E8A3F099
:10030000A37470F0A374BDF0EC900985F0EDFC903F
:100310000984E054E04CF09009867420F0A3744204
:10032000F07409F5D575D48075D601000000000081
:1003300000000000000075D701E5D7A2E040FA8F69
:10034000C7E50AA2E092AF02011EE5096007E508D1
:10035000D2AF024033E508D2AF020833E5096007A7
:10036000E508D2AF02403BE508D2AF02083BE50901
:100370006007E508D2AF024043E508D2AF02084368
:10038000E5096007E508D2AF02404BE508D2AF02AD
:10039000084BE5096007E508D2AF024053E508D2F3
:1003A000AF020853E5096007E508D2AF02405BE5FC
:1003B00008D2AF02085BE5096007E508D2AF02404A
:1003C00063E508D2AF020863E5096007E508D2AF2C
:1003D00002406BE508D2AF02086BE5096007E5084B
:1003E000D2AF024073E508D2AF020873E509600797
:1003F000E508D2AF02407BE508D2AF02087BE509F1
:100400006007E508D2AF024083E508D2AF02088357
:10041000E5096007E508D2AF02408BE508D2AF02DC
:10042000088BE5096007E508D2AF024093E508D2E2
:10043000AF020893E5096007E508D2AF02409BE5EB
:1004400008D2AF02089BE5096007E508D2AF024079
:10045000A3E508D2AF0208A3E5096007E508D2AF1B
:100460000240ABE508D2AF0208ABE5096007E5083A
:10047000D2AF0240B3E508D2AF0208B3E509600786
:10048000E508D2AF0240BBE508D2AF0208BB0002CC
:10049000048E74F512057F890A740F550AF50C75E0
:1004A0000D00740B780C120670EA2400F8EB34800F
:1004B000F9E82400E9350DF9E5C7F50BA2AFE433FF
:1004C000F50CC2AFE50AC4540FFAE5C754F84AF573
:1004D000C7740B1206CEE0FEA3E0FFEE4F602CEED9
:1004E000FAEFFB88828983E08C828D83F088828991
:1004F00083A3A882A9838C828D83A3AC82AD83EA77
:1005000024FF1AEB34FFFBEA4B70D8850BC7E50CD0
:10051000A2E092AF7F040205E574F712057FED902B
:100520000980F0ECA3F0A37462F0A37473F0A3E06D
:10053000541FF074091206CEE0F50AA3E0F50BE5AE
:100540000A333354FC900985F07406780A12069435
:10055000E50A900984F09009867412F0A37442F0C1
:1005600053D1FE75D601EA906271F0EBA3F0906270
:1005700070E0D2E1F0E0A2E740FB7F020205E52552
:100580001AC582C0E0E51B34FFC583C0E0E51AC38D
:10059000958224F910AF0885831B85821A8008850F
:1005A000831B85821AD2AFCEF0A3E520F0A3780A90
:1005B000E608F0A3DEFAEFF0A3E58124FBF8E608F5
:1005C000F0A3E608F0A30808E608F0A3E608F0A305
:1005D00015811581D0E0FED0E0F815811581E8C0C5
:1005E000E0EEC0E022851B83851A82E0A3FEE0A333
:1005F000F520780AE0A3F608DFFAE0A3FFE0A3C045
:10060000E0E0A3C0E0E0A3C0E0E0A3C0E010AF08DA
:1006100085821A85831B800885821A85831BD2AF49
:10062000D083D08222251AF58210AF08F51A400235
:10063000151B8008F51A4002151BD2AF851B8322BB
:10064000C0D0251A10AF08F51A5002051B8008F516
:100650001A5002051BD2AFD0D022251A10AF08F5D0
:100660001A4002151B8008F51A4002151BD2AF2252
:10067000700422600D18C6C333C608C633C6D5E061
:10068000F4182274028000C0E0F404120625D0E0C1
:100690001206C122600C08C6C313C618C613C6D5FD
:1006A000E0F4221206DDB900030206AC1201C41206
:1006B00006D875D00075813F751A80751B0102063A
:1006C000A3CAC0E0E6F0A308DAFAD0E0FA22251ABD
:1006D000F582E4351BF5832200000080FB790122BE
:1006E000FFFFFFFFFFFFFFFFFFFFFFFFFFFFFFFF1A
:1006F000FFFFFFFFFFFFFFFFFFFFFFFFFFFFFFFF0A
:10070000FFFFFFFFFFFFFFFFFFFFFFFFFFFFFFFFF9
:10071000FFFFFFFFFFFFFFFFFFFFFFFFFFFFFFFFE9
:10072000FFFFFFFFFFFFFFFFFFFFFFFFFFFFFFFFD9
:10073000FFFFFFFFFFFFFFFFFFFFFFFFFFFFFFFFC9
:10074000FFFFFFFFFFFFFFFFFFFFFFFFFFFFFFFFB9
:10075000FFFFFFFFFFFFFFFFFFFFFFFFFFFFFFFFA9
:10076000FFFFFFFFFFFFFFFFFFFFFFFFFFFFFFFF99
:10077000FFFFFFFFFFFFFFFFFFFFFFFFFFFFFFFF89
:10078000FFFFFFFFFFFFFFFFFFFFFFFFFFFFFFFF79
:10079000FFFFFFFFFFFFFFFFFFFFFFFFFFFFFFFF69
:1007A000FFFFFFFFFFFFFFFFFFFFFFFFFFFFFFFF59
:1007B000FFFFFFFFFFFFFFFFFFFFFFFFFFFFFFFF49
:1007C000FFFFFFFFFFFFFFFFFFFFFFFFFFFFFFFF39
:1007D000FFFFFFFFFFFFFFFFFFFFFFFFFFFFFFFF29
:1007E000FFFFFFFFFFFFFFFFFFFFFFFFFFFFFFFF19
:1007F000FFFFFFFFFFFFFFFFFFFFFFFFFFFFFFFF09
:10080000F7C3F7C36400007A41414141FFFFFFFF96
:10081000FFFFFFFFFFFFFFFFFFFFFFFFFFFFFFFFE8
:10082000000102030405060708090A0BFFFFFFFF8A
:10083000020C48021F2FFFFFFFFFFFFFFFFFFFFF1C
:10084000FFFFFFFFFFFFFFFFFFFFFFFFFFFFFFFFB8
:10085000FFFFFFFFFFFFFFFFFFFFFF0226C6FFFFB7
:10086000FFFFFF0226B1FFFFFFFFFFFFFFFFFFFFBC
:10087000FFFFFFFFFFFFFFFFFFFFFFFFFFFFFFFF88
:10088000FFFFFF021FA2FFFFFFFFFFFFFFFFFFFFB2
:10089000FFFFFFFFFFFFFFFFFFFFFF022663FFFFDA
:1008A000FFFFFFFFFFFFFFFFFFFFFF02268BFFFFA2
:1008B000FFFFFF021D9B01FF0000B400002800287D
:1008C00000283075A000A000A000A00000080008CB
:1008D000E001F000100010001000100010001000E7
:1008E00050005000500010001000D0070000000021
:1008F00000000F0001000500307507001000010026
:1009000081FF00000000FFE8280629EE28FF020210
:100910000208025000A0000000E803023582010036
:100920000015820231820100002F0F021E8101009A
:1009300000B202023182010000300F023B8201004E
:1009400000C802023182010000310F024182010021
:1009500000CA02023182010000320F0249820800FF
:1009600000CB02023182010000330F024F820100EE
:1009700000340FFF0100FF200235820100001882C1
:10098000023182010000980F025D82000000000029
:10099000022D820300001803002F002F002F002FCC
:1009A000002F002F002F002F002F002F002F002FCF
:1009B000002F9431AC318E31FF1264FFFFFF0235FE
:1009C000820100001E82023182010000DA0F025112
:1009D00082010000DB0F022D820300006407FFFF8D
:1009E0000A023582010000248202318201000001E6
:1009F00010024B82030000D6084445565F4E414D1D
:100A0000454D474D545F42415469446F00FF020217
:100A10000202020235820100002A820231820100B4
:100A2000002F100245820100002681023182010060
:100A3000003010024382010000DD08023182010013
:100A4000003110026582010000F1080231820100CC
:100A5000003210023F820100004581023182010014
:100A6000003310023D82010000A18001E803053F30
:100A7000100A88130000900120030100580220038F
:100A8000B00401002003040969446F000000000065
:100A9000000000000000000000000000020106034A
:100AA00019000303020918BA350000C03596350A4B
:100AB0000235820100002782023182010000D0103D
:100AC0000261820300000F0A1C023582010000212E
:100AD00082023182010000E9101050800200002AD9
:100AE0000A022D820300002C0A022F82010000F26C
:100AF00080023182010000E9101060800200002BAA
:100B00000A022D82030000320A022F820100000C2B
:100B100081FFFFFF0001030201060000000000004A
:100B200000000000000000000000000000000000C5
:100B3000000000000000FFFF0600800CE8030A052B
:100B400005000028372E3734373A37403746374CC0
:100B500037FFFFFFFFFFFF01201A0A1E0002002CD3
:100B6000010235820100001B8202318201000079FE
:100B700011025582000000B30E022D82030000C056
:100B80000E0231820100007A11025782030000C672
:100B90000E022D82030000D20E0231820100007B82
:100BA000110259820300007C11025B820100007E69
:100BB00011E5C754F84405F5C7790122000000800B
:100BC000FB120BB1B90003020C32E479217808B8AA
:100BD00000028004F709D8FCE479297802B8000201
:100BE0008004F709D8FCE49002807859790D8002DE
:100BF000F0A3D8FCD9FA781C9008B67A01BA0002A2
:100C00008007E493A3F608DAF9900ED8AA82AB83A2
:100C10009008B778FB79038015E493A3AC82AD8389
:100C20008A828B83F0A3AA82AB838C828D83D8E9DE
:100C3000D9E775821E7583D77407120C5A7582BC6A
:100C400075830B7400120C5A75D00075813F751AAC
:100C500080751B02759F00020BC1C09FF59FE47356
:100C6000D09F22D083D082C09FE493C0E0740193D0
:100C7000C0E0740293F59F22E066701008A3E0665E
:100C8000700A08A3E066700408A3E06622C3E79632
:100C90000809E7960809E7960809E79622C3E0964F
:100CA00008A3E09608A3E09608A3E09622C00AC332
:100CB000E096F50A08A3E096420A08A3E096420AE5
:100CC00008A3E096450A7001D3D00A22080808E676
:100CD00030E7111212DE120CE4080808C64480C680
:100CE00018181822181818E9799EC608CAC608CB21
:100CF000C608CCC6C370207996CACBCC7019798E41
:100D0000CBCC70137986CC700EF9802ACA33CACB4B
:100D100033CBCC33CC331930E7F2CCCBCA335014BD
:100D20007004EA30E00DE4CA3ACACB3BCBCC3CCCF1
:100D3000500209C3E913C6CC182313C6CB18C6CA80
:100D400018C6F922120D8420F01430E72B74FFFC32
:100D5000FBFA747F8022E4FCFBFA7480801AB48072
:100D600008BC00F2BB00EF800F50EBF9E4C39AFA25
:100D7000E49BFBE49CFCE499C6CC18C6CB18C6CA1D
:100D800018C6F922E4C9C608CAC608CBC6D33303BD
:100D900008CCC63392F0C3947F402E94184019C9F2
:100DA000B90704CACBCC225025C309CA33CACB33F6
:100DB000CBCC33CC33D9F422F4600DC9CCC313CBE4
:100DC00013CBCA13CAD9F6CC22E4FCFBFA2214FCDA
:100DD000FBFA22E6C33318461846184622E7C33307
:100DE00019471947194722181818E6084608700AC3
:100DF000E608C3337005E633F4220822191919E70F
:100E0000094709700AE709C3337005E733F422097B
:100E100022E6084608C3134608336002E633F4228C
:100E2000E7094709C3134709336002E733F4220097
:100E3000120E11604F120E206012E7548066F612F7
:100E40000DE77011120DDD703B090909F4F618F673
:100E500018F618F622120DFC7015120DD3080808AA
:100E600060EAE6447FF618768018E4F618F6221257
:100E70000DD36016120DDD7012E4F608F608F608C0
:100E8000E65480F609090918181822EAC0E0EBC0F8
:100E9000E0ECC0E0EDC0E0E687F0A4FBACF008E6D3
:100EA00087F0A42CFCE435F0FA1809E687F0A42CAE
:100EB0004B60027401CA35F0FCE433FB09E687F0AD
:100EC000D2F7A42CCB35F0FC1908E687F0A42BCC84
:100ED00035F0FBE433FD0819E687F0D2E7A42C4A8D
:100EE000CB35F0CD3400FC09E687F0D2E7A42DCC59
:100EF00035F0FDE433FA0918E687F0D2F7A42CCDDB
:100F000035F0CA3400FC08E687F0D2E7D2F7A42A0D
:100F1000CC35F07A7E20E70B0ACB33CBCD33CDCC6A
:100F200033CC33CB3350147004ED30E00ED2F1E407
:100F3000CD3DCDCC3CCC3B5005DA05C2F1EB547F26
:100F4000C63308E63392F0FBE73309E733C39A5020
:100F50002D2B70190C0D4C4D70151806E608C33377
:100F6000700D20F10AA2F013F6E418800B4024E47F
:100F7000F630F002768018F618F618F68024D33B87
:100F800014501074FFA2F013F6187680E418F618C7
:100F9000F6800FA2F013F618E63303F618ECF618F5
:100FA000EDF6D0E0FDD0E0FCD0E0FBD0E0FA22127C
:100FB0000E206046120E11603DE9687008F618F6C2
:100FC00018F618F622748067F7120FE309090974FE
:100FD0008067F722120E11601D120E20700519197C
:100FE00019801A120DE7701F120DFCC37003E6671B
:100FF0003319191940071818182208080874FFF641
:1010000018F618F618F622120DFC6017120DDD7096
:101010002192F0120DD37019501720F0140808080F
:10102000090909E7F61819E7F61819E7F61819E794
:10103000F622120DD360E6E869701F0808E62480E6
:10104000F608E436F618547FB47F0CE65480600747
:10105000F6E418F618F622181822E9C6CC08C6CD10
:1010600008C6CE08C6CFC0E0E8C0E0EAC0E0EBC0EA
:10107000E009E9F809E7FA09E7FBE6F918E6F8C339
:10108000EC98ED99EE9AEBC2E7F5F0EFC2E795F038
:10109000500E600CEBCFFBEACEFAE9CDF9E8CCF8C4
:1010A000EAA2E7D2E7FAEB33FB13F5F0EEA2E7D2C0
:1010B000E7FEEF33FFC5F013A2E730E601B313C537
:1010C000F0C3C0E0C0F07F00C39BFB605E9418607B
:1010D0000F401D14601AD0E023F9D0E0F80211B5DA
:1010E0008AF0E9486003D2F0E4AFF0FAF9F8803B07
:1010F000EB30E40D89F0EA6003D2F0E4AFF0F9CA16
:10110000F8EB30E30D88F0EF6002D2F0AFF0E4CA04
:10111000C9F8EB54076014FBC3EA13FAE913F9E8C2
:1011200013F8EF135002D2E0FFDBEDD0E0C0E03067
:10113000E739C3E49FFFF5F0EC98FC42F0ED99FD30
:1011400042F0EE9AFE42F0D0E0F9D0E0F8E5F0602F
:101150007AE923F9EE20E742D8028067C3EF33FF34
:10116000EC33FCED33FDEE33FE80EAEC28FCED3988
:10117000FDEE3AFED0E023F9D0E0F84002801BC338
:10118000EE13FEED13FDEC13FCEF135002D2E0FF63
:1011900008B800067F7F74FF802EEF3350178CF065
:1011A00020F00260100CBC000C0DBD00080EBE004B
:1011B0000408E860DFE933E813FFEE2313FE4F4D28
:1011C0004C8008E95480FFE4FEFDFCEE33EF33F47D
:1011D0007004FCFD7E80D0E0FBD0E0FAD0E0F8D0D7
:1011E000E0CFC618CEC618CDC618CCC6F92208085E
:1011F00008EAC0E0EBC0E086F0E7A4FA180986F040
:10120000E7A42AFA180986F0E7A42AFA180986F052
:10121000E7A42AFA1986F0E7A4FBE5F02AFA1908F0
:1012200086F0E7A42BFBE5F03AFA190886F0E7A46C
:101230002BFBE5F03AFA18180986F0E7A4C5F02B65
:10124000FBE43AFA1908E7C5F0C6A426F6E5F03B38
:10125000FBE43AFA1886F0E7A4F6E5F00826F6E48F
:101260003B08F6E43A08F6D0E0FBD0E0FA22E4CFFF
:10127000C0E0E4CEC0E0E4CDC0E0E4CCC0E075F076
:1012800020C3E633F608E633F608E633F608E6331D
:10129000F6181818EC33FCED33FDEE33FEEF33FF98
:1012A000C3EC9709ED9709EE9709EF9719191940C3
:1012B0000FFFEC97FC09ED97FD09EE97FE19190653
:1012C000D5F0BEECF709EDF709EEF709EFF71919BC
:1012D00019D0E0FCD0E0FDD0E0FED0E0FF221818ED
:1012E00018E4C396F608E496F608E496F608E49641
:1012F000F6226016080808C6C313C618C613C61817
:10130000C613C618C613C6D5E0EA22700908080835
:10131000226016181818C6C333C608C633C608C6D6
:1013200033C608C633C6D5E0EA22E627F60809E642
:1013300037F60809E637F60809E637F622E026F61A
:1013400008A3E036F608A3E036F608A3E036F62256
:10135000E026F008A3E036F008A3E036F008A3E0AA
:1013600036F022C3E697F60809E697F60809E697ED
:10137000F60809E697F622C3E0C696F608A3E0C68B
:1013800096F608A3E0C696F608A3E0C696F622C332
:10139000E096F008A3E096F008A3E096F008A3E03A
:1013A00096F022E657F60809E657F60809E657F6DA
:1013B0000809E657F622E056F608A3E056F608A319
:1013C000E056F608A3E056F622E056F008A3E056F1
:1013D000F008A3E056F008A3E056F022E046F60835
:1013E000A3E046F608A3E046F608A3E046F622E0AE
:1013F000F608A3E0F608A3E0F608A3E0F622E6F07C
:1014000008A3E6F008A3E6F008A3E6F022E0FAA3BA
:10141000E0FBA3E0FCA3E0FD22EAF0A3EBF0A3ECE9
:10142000F0A3EDF022CAC0E0E6F0A308DAFAD0E0BB
:10143000FA22CAC0E0E0A3C582CCC582C583CDC56F
:1014400083F0A3C582CCC582C583CDC583DAE6D03F
:10145000E0CA22C3E498F8E499F91214948026C3F0
:10146000E49AFAE49BFBE920E7E9121494E498F883
:10147000E499F922C3E498F8E499F9121494E498F1
:10148000F8E499F9C3E49AFAE49BFB22EB20E7CF56
:10149000E920E7E0B90010BB0008E88AF084F8AA68
:1014A000F022E4FBC8FA22EB70227B10C833C8C9D3
:1014B00033C9335007C39AC3DBF280069A50012A1E
:1014C000DBEAC833F4C8C933F4C9FA2275F008E47A
:1014D000C833C8C933C933C99AC99B5004C92AC97A
:1014E0003BD5F0ECFBC833F4C8E4C9FA22600D0820
:1014F000C6A2E713C618C613C6D5E0F322600C08CF
:10150000C6C313C618C613C6D5E0F4227004226001
:101510000D18C6C333C608C633C6D5E0F418222555
:101520001A10AF08F51A4002151B8008F51A400280
:10153000151BD2AF22C0D0251A10AF08F51A5002E1
:10154000051B8008F51A5002051BD2AFD0D022250A
:101550001AF58210AF08F51A4002151B8008F51A1B
:101560004002151BD2AF851B8322251AF582E43574
:101570001BF58322E473251AC582C0E0E51B34FF06
:10158000C583C0E0E51AC3958224F810AF088583AF
:101590001B85821A800885831B85821AD2AFCEF004
:1015A000A3E520F0A3780AE608F0A3DEFAEFF0A3A3
:1015B000E58124FAF8E608F0A3E608F0A3E608F0CF
:1015C000A30808E608F0A3E608F0A315811581D06A
:1015D000E0FED0E0F8158115811581E8C0E0EEC08D
:1015E000E022251AC582C0E0E51B34FFC583C0E0B8
:1015F000E51AC3958224F910AF0885831B85821AEA
:10160000800885831B85821AD2AFCEF0A3E520F037
:10161000A3780AE608F0A3DEFAEFF0A3E58124FB45
:10162000F8E608F0A3E608F0A30808E608F0A3E649
:1016300008F0A315811581D0E0FED0E0F8158115E2
:1016400081E8C0E0EEC0E022851B83851A82E0A31A
:10165000FEE0A3F520780AE0A3F608DFFAE0A3FF96
:10166000E0A3C0E0E0A3C0E0E0A3C0E0E0A3C0E0EE
:10167000E0A3C0E010AF0885821A85831B8008852F
:10168000821A85831BD2AFD083D082020C60851B67
:1016900083851A82E0A3FEE0A3F520780AE0A3F692
:1016A00008DFFAE0A3FFE0A3C0E0E0A3C0E0E0A30E
:1016B000C0E0E0A3C0E010AF0885821A85831B80DC
:1016C0000885821A85831BD2AFD083D0822274040E
:1016D0008006740280027401C0E0F40412154FD039
:1016E000E0121425227404800474028000CCC0E04F
:1016F000EDC0E0E51AC39CCCAD1B50011D10AF0638
:101700008C1A8D1B80068C1A8D1BD2AF121432D00E
:10171000E0FDD0E0FC22D083D082E9C0E0E493A3D6
:10172000C386F0C5F095F0F908E493A386F0C5F000
:1017300095F0700BE493A3C3994005E9048002A3DC
:10174000E475F002A42582F582E5F03583F583D0B7
:10175000E0F9E493A3C0E0E493C0E022D083D08218
:10176000ECC0E0EDC0E0E493A3FCE493A3FDED4CFA
:10177000600D1217A8EC24FFFCED34FFFD80EFE4B0
:1017800093A3FCE493A3FDED4C600D1217E7EC244A
:10179000FFFCED34FFFD80EFD0E0FDD0E0FCE493F2
:1017A000A3C0E0E493C0E022C0E0C3E493960874D1
:1017B00001939618400FE4936670080874019366CD
:1017C0001870007019A3A3C3E4939608740193964C
:1017D00018A3A3400DD0E0D0E0D0E0021798A3A357
:1017E000A3A3A3A3D0E022C0E0C0F088F0E49366F6
:1017F00070080874019366187000A8F0A3A3700B1A
:10180000D0F0D0E0D0E0D0E0021798A3A3D0F0D081
:10181000E022FFFF74F51215E2EAFEEBFFEE24343E
:10182000F8EF3400F9880A890BEE2435F582EF349D
:1018300000F583E0F8EE2437F582EF3400F583E01D
:10184000F50CEC850CF0A4FCAAF0850CF0EDA42AB4
:10185000FDE82CF8E43DF97A257B00121494EA8522
:101860000A82850B83F0F8740758F97401B90002F5
:101870008004C333D9FCFAE8131313541FF8EE287D
:10188000F8EF3400F9E8245DF582E93400F583E0EF
:101890005A6008EE2434F582EF802CEE2434F58271
:1018A000EF3400F583E0C0E0EE2436F582EF34003B
:1018B000F583E0F5F0D0E084A8F0EE28F8EF3400EE
:1018C000F9E82438F582E93400F583E0F97F040271
:1018D000168E74F51215E2EAFEEBFFEE2434F58263
:1018E000EF3400F583E0C0E0EE2435F582EF3400FC
:1018F000F583D0E0F08E828F83A3A3A3A3A3A3A339
:10190000C082C0838E828F83A3A3A3A3A3E0F8A386
:10191000E0F9D083D082E0C398F50AA3E099F50BF3
:10192000EE247FF582EF3400F583E064017069EE08
:101930002480F582EF3400F583E0F8A3E0F98E828D
:101940008F83A3A3A3A3A3A3A3E0FCA3E0FD8E82A4
:101950008F83A3A3A3A3A3E0FAA3E0FBC3EA9CEBBA
:101960009D5010C3EC98ED99402EC3EA98EB995026
:1019700027800EC3EA98EB994007C3EC98ED994095
:10198000177CDB7D04EEFAEFFB122E5EEE247FF572
:1019900082EF3400F583E4F0EE2434F8EF3400F9FC
:1019A000E8FCE9FDEE2435F582EF3400F583E0F83C
:1019B000EE2437F582EF3400F583E0F50CE50A8577
:1019C0000CF0A4F50AAAF0850CF0E50BA42AF50B9F
:1019D000E8250AF8E4350BF97A257B00121494EA1D
:1019E0008C828D83F0F8740758F97401B900028075
:1019F00004C333D9FCFAE8131313541FF8EE28F884
:101A0000EF3400F9E8245DF582E93400F583E05A0B
:101A10006008EE2434F582EF802CEE2434F582EF5A
:101A20003400F583E0C0E0EE2436F582EF3400F5B3
:101A300083E0F5F0D0E084A8F0EE28F8EF3400F968
:101A4000E82438F582E93400F583E0F912264F02E4
:101A500018CDC082C083851A82851B83E0F8A3E07D
:101A6000F9C3EA9CEB9D5010C3EC98ED99401BC361
:101A7000EA98EB995014800EC3EA98EB994007C39B
:101A8000EC98ED994004790180027900D083D082EE
:101A900022EAC39CFAEB9DFB2274EF1215E290033D
:101AA000A1E064086005E06407702A9061C8E06006
:101AB000249003CFE0F4601DE0F875F003A4C8AAF9
:101AC000F02AF974D128FE740339FF8E828F83A324
:101AD000A3A3E07003021BC9906060E0C0E0EE24A5
:101AE00068F582EF3400F583D0E0F0750E44750F91
:101AF00005750A00750B00E5D914F50CE5D95403FA
:101B0000F510601774036510605CE50C6010EE243E
:101B100067F582EF3400F583E07003021BAE900599
:101B20003FE06401602AEE2482F582EF3400F58301
:101B3000E06004780480027800850C0AE50AC39806
:101B4000FA95E0FB122D088A0A8B0BEA450B70050B
:101B50001230628074EE2482F582EF3400F583E067
:101B600070048A0E8B0FE50C6012850E82850F8340
:101B7000F50DE5D9F0A3150DE50D70F6EE2482F50F
:101B800082EF3400F583E0604474FC250CF50C789A
:101B90000E1216D2AC0CA910EEFAEFFB122EFA744C
:101BA00002121535E97026AA0AAB0B123650793DA0
:101BB0008E828F83A3A3A3A3E0FA7B00122BDCEE1B
:101BC000FAEFFB122E76122F0C79008074740365E5
:101BD000106056850C1275130078121216D2AC0ED6
:101BE000AD0FAA0AAB0B122ED67402121535EE24D5
:101BF00068F582EF3400F583E064807004747F80C0
:101C000001E0F50E780E1216D6E510F50E780E12DC
:101C100016D6A90CAC0AAD0B9003CFE0FA7B0012EC
:101C20002BA0740212153580139003A1E0640860A4
:101C30000BAC0EAD0FEEFAEFFB122F6612306E7981
:101C4000017F0A02168E74F51215E274FC12151F3C
:101C5000EAFEEBFF890AA2AFE433F50BC2AF806A5C
:101C6000EE2463F8EF3400F97A007B00A2AFE4338E
:101C7000F50CC2AF88828983E0FCA3E0FDEC4D60E7
:101C80003A88828983E0FAA3E0FB8A828B83E0FCB6
:101C9000A3E0FD88828983ECF0A3EDF08A828B8338
:101CA000E4F0A3F088828983E0FCA3E0FDEC4D70B2
:101CB0000A88828983A3A3E4F0A3F0E50CA2E09252
:101CC000AF1236509004E2E004F0EE2463F582EFA8
:101CD0003400F583E0F8A3E0F9E849603DEE2463C1
:101CE000F582EF3400F583E02402FAA3E03400FB30
:101CF000EA2402F50CEB3400F50D780C1216D28AAA
:101D0000828B83E0FCA3E0F9EEFAEFFB122E9A74CB
:101D100002121535E97003021C609004E2E0606372
:101D20009004E3E0F89004E2E0C398500C7402657C
:101D30000A70509004E4E0604A8E828F83A3A3A3CC
:101D4000A3E0851A82851B83F0A3E4F09004E2E00F
:101D5000F8740212156AE8F0A3E4F09004E2E0F8E7
:101D60009004E1E028F0740212156AAC82AD83851C
:101D70001A82851B83AA82AB837901122BAC900453
:101D8000E2E4F0E50BA2E092AF74041215350218FC
:101D9000CDFFFFFF8521878522C622C0E0C0D0E8A5
:101DA000C0E0E9C0E0EAC0E0EBC0E0ECC0E0EDC0BC
:101DB000E0EEC0E0C00AC00BC00CC00DC082C08302
:101DC000C0F0A2AFE433FEC2AF759B00906182E029
:101DD000A2E05012E591A2E0500C7591FE740165ED
:101DE000217003121A99E0A2E55051E591A2E55045
:101DF0004B7591DF9003A1E064076005E064087013
:101E00002374016521703579019003CFE0FA75F0F4
:101E100003A4CAA8F028FB74D12AFA74033BFB126E
:101E20001C468018E0640D70139003C3E004F06456
:101E3000287002E4F07A00E0F9123074906182E0D8
:101E4000A2E64003021EE2E591A2E64003021EE282
:101E50007591BF9003A1E064057008122F9C122FAA
:101E6000A88003122FA2752100123002E99003A26C
:101E7000F07900122FF6122DC87A017B009003A092
:101E8000E0F91232C6907803E06442705590054341
:101E9000E014F0704DC2AF121E9A00782AD0E0F61E
:101EA00018D0E0F6E59F54077005750BFF800375A9
:101EB0000B7FC4C0E07829E6F50A08E6550BF50B60
:101EC000740B780A1214FDD0E0250AF8906270E0D5
:101ED000A2E740F8E8C333906272F0906270E0D2FB
:101EE000E0F0906181E0A2E35009E5E9A2E350034C
:101EF00075E9F7A3E0A2E75009E591A2E750037561
:101F0000917FEEA2E092AFD0F0D083D082D00DD0FE
:101F10000CD00BD00AD0E0FED0E0FDD0E0FCD0E049
:101F2000FBD0E0FAD0E0F9D0E0F8D0D0D0E032C079
:101F3000E0C0D0C082C083906183E0A2E05009E598
:101F4000BFA2E0500375BFFEE0A2E15009E5BFA2C9
:101F5000E1500375BFFDE0A2E25009E5BFA2E250E7
:101F60000375BFFBE0A2E35009E5BFA2E350037590
:101F7000BFF7E0A2E45009E5BFA2E4500375BFEF4C
:101F8000E0A2E55009E5BFA2E5500375BFDFE0A27E
:101F9000E65009E5BFA2E6500375BFBFD083D082EB
:101FA0008088C0E0C0D0E8C0E0E9C0E0EAC0E0EB73
:101FB000C0E0ECC0E0EDC0E0C0F0E5A7A2E6500F45
:101FC000E5A1A2E6500953A7BF75A1BF122007E5FE
:101FD000A7A2E5500CE5A1A2E5500653A7DF75A125
:101FE000DFE5A7A2E15009E5A1A2E1500375A1FD3B
:101FF000E5A7A2E2500CE5A1A2E2500653A7FB75AB
:10200000A1FBD0F0021F1874F81215E2752101909F
:1020100003A1E064067015122F2A8A828B83A3A382
:10202000A3A3A3A3E0FAA3E0FB122F8AA2AFE43399
:10203000FED2AF9003A7E0640170187A207B009075
:1020400003A0E0F91233747A207B009003A0E0F93A
:102050001232CC906182E0D2E6F0900540E060213F
:1020600085C62280169003A6E064017008E5C65478
:10207000F84405F5C653BEFC121D94740165216039
:10208000E4EEA2E092AF7F0102168EFF8E238F2432
:10209000858228858327851A82851B83E0CEA3E06D
:1020A000CF852882852783EBC9EAC8EDCBECCA75BA
:1020B000F010C3E833C8E933C9EA33CAEB33CBC302
:1020C000EA9EF526EB9FF525B35004AB25AA26EC36
:1020D00033CCED33CDD5F0DAAE23AF242274E91240
:1020E00015E274F812151F851A82851B83ECF0A384
:1020F000EDF08A0A8B0B9003A1E024F7C3940550FE
:1021000006750A01022274122F2A8A0C8B0DAE0C5E
:10211000AF0DEE4F7003022271AC0AAD0B740212C8
:10212000156AAA82AB83122FBA8E828F83A3A375FE
:102130000EFF750FFF7510FF751100780E1213B6A4
:10214000740212156A7512FF7513FF7514FF751569
:102150000078121213B6780E7912120C8D502A786C
:102160000E7912121363750A01750BC8750C007590
:102170000D00780A790E120C8D5052850E0A850FCB
:102180000B85100C85110D80507516017517C875DB
:10219000180075190085120A85130B85140C851516
:1021A0000D780A790E1213637816790A120C8D4095
:1021B0001C750A00750B00750C00750D01780A7905
:1021C00012121363780A790E12132A800C750A0111
:1021D000750B00750C00750D007409780A12130B4D
:1021E000750E19F50FF510F511780A790E12126EA9
:1021F0008E828F83A3A3A3A3A3A3E0F8A3E0F97A1D
:10220000D07B03121494880E890FE4F510F5117831
:102210000A790E12132A740612156AE0F8A3E0F97F
:102220007AD07B03121494E8FA8A0EE4F50F780A48
:10223000790E120C8D5007780A790E1213639003F1
:10224000A1E06408600AE064066005E06405702DA2
:10225000750E0D780E790A120C8D4021750EF475ED
:102260000FFF7510FF7511FF780A790E12132A807F
:102270000C750A00750B00750C00750D00851A822F
:10228000851B83E0F8A3E0F5838882780A1213FEA9
:1022900074081215357F1002168E74F71215E212AB
:1022A0002FCC90053EE064017010906245E4F0A3ED
:1022B000F053F4F343FE0C5390F3122F78E5C65419
:1022C000804449F5C6E59E547F644970F890618565
:1022D000740FF090053CE0F47002A3E0604E9005AE
:1022E0003DE0600814601B14602E8040750A017583
:1022F0000B0090053CE0780A12150CE50AF45280B8
:10230000802A750A01750B0090053CE0780A1215C9
:102310000CE50AF452908014750A01750B009005C3
:102320003CE0780A12150CE50AF452A079007F020D
:1023300002168E74F71215E2E9FEEAFF74016E7060
:102340000C7A807B009003A0E0F91232C690386CC2
:10235000E493F46008E493F9122DBC800953C6801D
:10236000E59E547F70FA122F7E90053EE064017066
:1023700003122DE090053CE0F47002A3E0604B9066
:10238000053DE0600814601A14602C803D750A0158
:10239000750B0090053CE0780A12150CE50A4280A6
:1023A0008028750A01750B0090053CE0780A12152B
:1023B0000CE50A42908013750A01750B0090053CEC
:1023C000E0780A12150CE50A42A0122FCC122F2A2F
:1023D0008A0A8B0BA80AA90BE8496015E5E170FC95
:1023E000E82414F582E93400F583E0F46003E0F5B5
:1023F000E174016F700A7A019003A0E0F91233448E
:1024000002232E74ED1215E28A0A8B0B8C0C8D0DB3
:10241000741312156A780E1213EF780A790E120CE3
:102420008D7512017513C87514007515005012785A
:102430000A790E1213637812790A120C8D501680E5
:1024400010780E790A1213637812790E120C8D40EF
:10245000047901800279007F0C02168E74ED12154A
:10246000E28A0A8B0B8C0C8D0D741312156A780E90
:102470001213EF780E790A120C8D4011780A790E3A
:10248000121363AA0AAB0BAC0CAD0D8022751200BF
:102490007513007514007515017812790E12136307
:1024A0007812790A12132AAA12AB13AC14AD158054
:1024B000A68A828B83750AFF750BFF750CFF750D5D
:1024C00000780A1213C97F0402168E74F51215E201
:1024D0008C828D83780A1213EF8A828B83780A129A
:1024E000138FEA2404F8EB3400F98C828D83A3A3C4
:1024F000A3A3E0FCA3E0FD88828983C3E09CF0A352
:10250000E09DF088828983C3E09420A3E0944E404C
:10251000268A828B83750AFF750BFF750CFF750D7C
:10252000FF780A1213508A828B83A3A3A3A3E0240B
:1025300020F0A3E0344EF00224B174F51215E2E964
:10254000FE9004F6E0FAA3E0FBEEC333F8E433F9BF
:1025500074E228F582748039F583E02AF50AA3E055
:102560003BF50B780A1216D27A407B427C0F7D0035
:1025700012208C74021215358A0A8B0B8C0C8D0D6F
:102580007410780A1212F2AA0AAB0B7F0402168E9C
:1025900074F11215E28A0E8B0F8C108D11740F12CC
:1025A000156AE0FAA3E0FB741112156AE0F50AA3BC
:1025B000E0F50B780A1216D2EA2401F50AEB340092
:1025C000F50BE4F50CF50D780E790A1211EE750A8B
:1025D00071750B02780E790A1211EEAA0EAB0FACD0
:1025E00010AD1112208C74021215358B0BEA450BBD
:1025F00060047A0180027A00EC2AFCED3400FD745C
:102600001312156AE0F8A3E0F9E8FEE9FFECF8ED33
:10261000F97A717B02121494880A890B8E828F8357
:10262000780A1213FEECF8EDF97A717B0212149419
:102630008A0A8B0B7405780A12150C8E828F83A37D
:10264000A3A3A3E50AF0A3E50BF07F0802168EC052
:1026500082C083E9906000F0D083D08222C2AF02B2
:10266000000022C0E0C0D0E8C0E0E9C0E0E5A8F882
:10267000D2AFE589758900C2C5E8A2E7A2E792AFAB
:10268000D0E0F9D0E0F8D0D0D0E032C0E0C0D0E85F
:10269000C0E0E9C0E0A2AFE433F8D2AFE58AA2E639
:1026A0004002E58A758A00758A00C2EBE8A2E080E4
:1026B000CDC0E0C0D0E8C0E0E9C0E0E5A8D2AF7589
:1026C0008B00C2E880B4C0E0C0D0E8C0E0E9C0E060
:1026D000E5A8D2AFC2C7751C00A2E7A2E792AFD0AF
:1026E000E0F9D0E0F8D0D0D0E032120C6368C60731
:1026F000120C637FC607120C63B0C607120C63EBA3
:10270000C607120C6315C707120C633FC707120CEC
:102710006356C707120C636DC707120C6384C707A3
:10272000120C63ADC707120C63C0C707120C63D647
:10273000C707120C63E9C707120C6310C807120C15
:1027400063B0BE06120C63B4BF06120C63ECBF0686
:10275000120C630FC006120C631AC006120C633D04
:10276000C006120C634CC106120C6321C206120C87
:10277000639CC206120C6324C306120C635FC3067B
:10278000120C6396C306120C6324C406120C63FD7C
:10279000C406120C635DC506120C6368C506120CF4
:1027A00063E7C506120C63EAC506120C63EDC506A5
:1027B000120C637CC606120C637FC606120C63AF54
:1027C000C606120C63D9C606120C63C7C706120CE4
:1027D0006379C806120C63A99A07120C63D19A0791
:1027E000120C63FF9A07120C63369B07120C63945A
:1027F0009B07120C63DF9B07120C632A9C07120CC9
:10280000636A9C07120C63B09C07120C63DE9C0782
:10281000120C639B9D07120C63A59D07120C63B2FB
:102820009D07120C63E59D07120C63B19E07120C05
:1028300063BD9E07120C63D59E07120C63DF9E07D3
:10284000120C6308D207120C6316D207120C632E07
:10285000D207120C6346D207120C63AFEF04120CBE
:10286000635BF004120C63D6F004120C63F7F104FE
:10287000120C6333F204120C63DCF204120C63C317
:10288000F304120C6327F504120C637EF504120C9A
:1028900063FFF504120C63EFF604120C633CF704BB
:1028A000120C63C2F704120C63F4F704120C6308F1
:1028B000FA04120C634AFA04120C6368FA04120C4C
:1028C00063EBFA04120C63BFFB04120C6387FC0475
:1028D000120C6349E206120C631CE306120C63C57A
:1028E000E306120C6318E406120C63C8E406120C2B
:1028F0006354E506120C6340E606120C636FE606AD
:10290000120C6382E706120C63CAE706120C639F7F
:10291000E806120C63DBE806120C63F7E806120CFB
:102920006386D507120C634FB107120C6365B107BC
:10293000120C638BB107120C63A7B207120C63B1C0
:10294000B207120C63E6B307120C63DEB407120C75
:1029500063008007120C63308107120C63AA8107A1
:10296000120C63D68107120C63E98107120C6333E2
:102970008207120C63FA8307120C63C1D005120C94
:10298000632BD105120C638AD205120C6314D30594
:10299000120C6324D305120C6351D305120C63A8E7
:1029A000D305120C6351D405120C6358D505120CD3
:1029B0006322D605120C6382D705120C63C5D705B6
:1029C000120C636AD805120C63B7D805120C63DDCC
:1029D000D805120C63EBDA05120C63F0DA05120C61
:1029E00063F5DC05120C6342DD05120C63B5DD05F1
:1029F000120C63E8DD05120C638ADE05120C6333EA
:102A0000DF05120C636BDF05120C636EDF05120C21
:102A100063B6DF05120C63F6DF05120C634DE005AB
:102A2000120C63E1B707120C63F9B707120C63418C
:102A3000B807120C6357B807120C639EB807120C44
:102A400063B2B907120C633FBA07120C638ABA0764
:102A5000120C6300A804120C630CA804120C634748
:102A6000A804120C638CA804120C634CA904120C69
:102A700063DBA904120C6361AA04120C63C6AA04E6
:102A8000120C63F2AA04120C632BAB04120C6369E0
:102A9000AD04120C634DAF04120C6333B104120C7D
:102AA0006376B204120C63C4B404120C63D6B5048A
:102AB000120C6321B704120C6331B804120C634E7C
:102AC000B804120C6389B804120C63ABB804120C7E
:102AD000630EB904120C63CFBD04120C6364BE0410
:102AE000120C63B5BE04120C63DCBE04120C632E20
:102AF000BF04120C634CBF04120C63A6BF04120C7B
:102B000063A5C004120C6329C104120C63338B0744
:102B1000120C633D8B07120C63808B07120C639BB6
:102B20008B07120C632B8C07120C63538C07120C4F
:102B300063908C07120C63C78C07120C63F08C0730
:102B4000120C63658D07120C637A8D07120C638F6C
:102B50008D07120C63C08D07120C63D48D07120C05
:102B600063F98D07120C63338E07120C635F8E07B7
:102B7000120C638D8E07120C63D88E07120C63370C
:102B80008F07120C63B68F07120C63E18F07120CCC
:102B9000632A9007120C63549007120C637F90070E
:102BA000120C6309D007120C63E99A06120C631722
:102BB0009B06120C63659C06120C63459D06120C65
:102BC00063649D06120C63E19D06120C63249E064D
:102BD000120C637A9F06120C633BA006120C63C2B0
:102BE000A206120C6363A306120C6359A406120C0E
:102BF0006356A506120C63B0A606120C633BA7062B
:102C0000120C63A0FE04120C6309FF04120C635D36
:102C1000FF04120C6384FF04120C63B5FF04120C52
:102C20006395A807120C6302A907120C6349A90750
:102C3000120C6361AA07120C635DAB07120C6340B0
:102C4000AC07120C639ED106120C63E0D106120C85
:102C500063B2D206120C638BD306120C6385D406C2
:102C6000120C6367D506120C63D0D506120C63866E
:102C7000D606120C63FAD606120C6366D706120C3F
:102C8000638FD706120C6309D806120C63A2D8060C
:102C9000120C6307D906120C631CD906120C63626E
:102CA000D906120C637BD906120C63E0D906120C0C
:102CB00063E3D906120C63E8B407120C6310B5077E
:102CC000120C634EB507120C630CB607120C63733B
:102CD000B607120C638FB607120C63B7B607120C57
:102CE00063E7B607120C63F6B607120C6373B707F7
:102CF000120C6399B707120C63B5BF05120C6393EE
:102D0000C105120C63C5C305120C6301C405120C86
:102D1000632EC405120C6318C505120C6363C50548
:102D2000120C63AEC505120C63C0C505120C63001E
:102D3000C605120C6335C605120C6383C605120C5A
:102D400063B2C605120C63D5C605120C6322C70513
:102D5000120C63A7C705120C63C1C905120C6300EE
:102D6000CC05120C6341CC05120C63E3CD05120CAB
:102D70006324CE05120C6397CE05120C63E3CE05D7
:102D8000120C6391CF05120C636CD005120C639684
:102D9000D005120C63D48D06120C63D28E06120C71
:102DA000636B9506120C638C9706120C6357990699
:102DB000120C63BF9A06120C6390C104120C633F9D
:102DC000C204120C636CC204120C63B2C204120C73
:102DD00063E8C304120C6345C404120C6373C40497
:102DE000120C6309C604120C6383C604120C639EA2
:102DF000C604120C6319C704120C6373C804120CC6
:102E000063D3C904120C63D9CA04120C633ACC040C
:102E1000120C6353CC04120C63B1CC04120C639FEC
:102E2000CD04120C63D2CD04120C6342CE04120CFA
:102E300063BCCE04120C6306CF04120C63D0CF0423
:102E4000120C63A5D004120C6384D104120C630F1E
:102E5000D204120C637DD204120C63F1D204120C62
:102E6000631CD304120C63DBD304120C6340D5043F
:102E7000120C635DD504120C637CD504120C636DD7
:102E8000D604120C6392D604120C63BCD604120C46
:102E90006337D704120C6391D704120C63FAD80479
:102EA000120C63A8D904120C63E9D904120C630054
:102EB0008006120C634E8006120C635A8006120CB8
:102EC00063388106120C63698106120C639A8106CD
:102ED000120C631A8206120C63528206120C63A44F
:102EE0008206120C63E18206120C63FE8406120C49
:102EF00063248706120C630F8906120C63F98A0695
:102F0000120C63EA3F00120C63A2AB05120C63D2F1
:102F1000AB05120C63ABB205120C6330B405120C96
:102F2000632DBA05120C6315BB05120C6352BB0569
:102F3000120C6375BB05120C63A6BB05120C63AFC4
:102F4000BB05120C63B9BB05120C63A7BC05120CC0
:102F5000639DBD05120C63688205120C63678605CC
:102F6000120C636D8605120C63A88D05120C63C1EB
:102F70009205120C630FFC06120C63A5FC06120CE2
:102F800063BBFC06120C6331FD06120C63A5FD0643
:102F9000120C63E3FD06120C6357FE06120C63D09D
:102FA000FE06120C63D9FE06120C63E5FE06120C37
:102FB00063FAFE06120C6338FF06120C634EFF061E
:102FC000120C63ADFF06120C6302AD07120C630F07
:102FD000AD07120C6329AD07120C6368AD07120C24
:102FE00063A6AD07120C630BAE07120C6320AE078D
:102FF000120C632BAE07120C6338AE07120C634F32
:10300000AE07120C635DAE07120C6368AE07120CBC
:103010006374AE07120C6383AE07120C638EAE07A7
:10302000120C63B1AE07120C6358AF07120C636841
:10303000AF07120C6382AF07120C639FAF07120C2D
:1030400063BBAF07120C63E0AF07120C63EBAF0773
:10305000120C6300B007120C6314B007120C6375F6
:10306000B007120C637BB007120C6381B007120C1F
:103070006387B007120C639FB007120C63D2B007CE
:10308000120C63ABEF05120C632FF005120C63DE1C
:10309000F005120C633DF205120C635EF405120C90
:1030A000634AF505120C637FF505120C63A1F50563
:1030B000120C6350F605120C6348F805120C63718C
:1030C000F805120C6303F905120C6335F905120CAF
:1030D0006342F905120C6399F905120C63BFF905F7
:1030E000120C632CFC05120C632FFD05120C638778
:1030F000FD05120C633AE105120C6344E205120C63
:10310000632BE305120C6335E305120C6357E305EB
:10311000120C6363E305120C63FCE405120C632BD1
:10312000E505120C6347E605120C63A0E605120CD8
:103130006306E805120C63E5E805120C6341E90536
:10314000120C63AEE905120C63E9E905120C632861
:10315000EA05120C63E1EC05120C63FBEC05120CA2
:103160006387ED05120C6395ED05120C63EEED051A
:10317000120C63FCED05120C636FEE05120C63D3A9
:10318000EE05120C631DEF05120C6382B306120CE0
:1031900063A4B306120C63CAB506120C63DFB8064B
:1031A000120C63F7B906120C63AABA06120C638CF0
:1031B000BB06120C6384CB07120C63A9CB07120C5D
:1031C000631BCC07120C63703800120C6379380053
:1031D000120C63823800120C63593900120C630A16
:1031E0003B00120C63403B00120C637A3B00120C54
:1031F00063B03B00120C63EA3B00120C631E3C0000
:10320000120C634A3C00120C63933C00120C63CD19
:103210003C00120C63163D00120C636E3D00120C54
:1032200063A33D00120C63FE3D00120C63383E00A8
:10323000120C63893E00120C63BF3E00120C63F94E
:103240003E00120C63273F00120C634A3F00120C31
:1032500063A0D307120C63CCD307120C6327D407E7
:10326000120C6331D407120C6341D407120C63AD06
:103270008507120C63B78507120C63F58507120CDE
:10328000633E8607120C63788607120C63D28607AA
:10329000120C63F38607120C63FC8607120C634959
:1032A0008707120C63728707120C637C8707120C66
:1032B00063E88707120C637A8807120C63C48807D7
:1032C000120C63FA8807120C63868907120C63C715
:1032D0008907120C63FE8907120C63108A07120C0F
:1032E000632F8A07120C63388A07120C63058B0759
:1032F000120C635DF606120C63A3F706120C63AFA3
:10330000F706120C6350F806120C6361F806120CF3
:10331000636AF806120C637DFA06120C639CFA06C7
:10332000120C63D5FD05120C630BFE05120C6341F4
:10333000FE05120C638CFF05120C63F4D407120C0B
:10334000630AD507120C6314D507120C635ED50708
:10335000120C6308A407120C631DA407120C63CDA2
:10336000A407120C630DA507120C6326A507120C07
:103370006361A507120C63AEA507120C63E0A507F5
:10338000120C6322A607120C6323A807120C6369B0
:10339000D607120C6371D707120C6383D707120C80
:1033A0006322D107120C6327D107120C6339D107AE
:1033B000120C6354D107120C637FD107120C63B552
:1033C000D107120C63E9D107120C63B4BA07120CCF
:1033D0006314BB07120C63A7BB07120C634ABC073C
:1033E000120C6361BC07120C63E8BC07120C630586
:1033F000BD07120C639ABF07120C63CEBF07120CF5
:103400006374C007120C63C5C007120C63CBCE07F0
:10341000120C63F0CE07120C63BACF07120C63666E
:103420009F07120C63EAA007120C6384A107120C19
:103430006383A207120C63DAA207120C63C0A3070E
:10344000120C63D7C907120C63F3C907120C63BDD2
:10345000CA07120C63C8D607120C6319DA04120CDF
:10346000637EDC04120C631FDE04120C63D3DE04E3
:10347000120C6366DF04120C63EBDF04120C6310A2
:10348000E004120C6366E304120C63ECE304120C18
:10349000631FE504120C6359E504120C638EE50406
:1034A000120C634EE704120C63ABE704120C63F4D6
:1034B000E704120C635FE804120C63D0E804120CFA
:1034C0006302E904120C631AE904120C6363EA0450
:1034D000120C6373EA04120C638EEB04120C63B0DB
:1034E000EB04120C63E6EB04120C639AED04120C6D
:1034F0006327EE04120C6366EE04120C638AEF0479
:10350000120C63DFD207120C63F0D207120C639522
:10351000D307120C63B2D707120C63BDD707120C86
:1035200063C2D707120C63CED707120C634BD407C4
:10353000120C635BD407120C6367D407120C63EEA2
:10354000D407120C6322C807120C63A7C807120C19
:1035500063B8C807120C63E0C807120C6378C90788
:10356000120C638DC907120C63F83F00120C632C18
:10357000BD07120C63F0BE07120C6351BF07120C9B
:103580006397BF07120C63EAC806120C630FC906E3
:10359000120C6335C906120C634DC906120C63A2E6
:1035A000C906120C6314CC06120C631BCE06120C57
:1035B000632ECE06120C6351CE06120C6364CE0647
:1035C000120C632BCF06120C6391CF06120C633CD6
:1035D000D006120C6361D006120C6387D006120C61
:1035E00063A0D006120C63BBD006120C63D4D006C5
:1035F000120C63EDD006120C6333C407120C634344
:10360000C407120C6371C407120C639EC407120C2A
:1036100063D6C507120C636CE906120C63AEE906AB
:10362000120C63C9E906120C639DEA06120C638B47
:10363000EB06120C63F1ED06120C6363EE06120C3E
:10364000634BEF06120C6337F006120C6329CD07AB
:10365000120C637BCD07120C6305CE07120C636C52
:10366000CE07120C63EEC107120C6318C207120CCE
:1036700063E6C207120C63C1C307120C6307DA06C4
:10368000120C63CEDA06120C6305DB06120C632FF4
:10369000DB06120C638FDB06120C63E5DB06120CF3
:1036A000634ADC06120C63E2DC06120C63F1DD06F1
:1036B000120C6388DF06120C6315E006120C637CA3
:1036C000E006120C6393E006120C63ADE106120CE7
:1036D00063EBE106120C63BCA706120C63F5A906A6
:1036E000120C6353AA06120C63A3AA06120C63BA47
:1036F000AA06120C63DCAA06120C635AAB06120C63
:1037000063E2AC06120C63E5AD06120C6306B2066A
:10371000120C63DFB206120C63A79007120C63F859
:103720009007120C63809107120C63899207120CA8
:10373000639B9207120C63BA9207120C63CC920738
:10374000120C63E19207120C63219307120C63447D
:103750009307120C635B9307120C63889307120C98
:1037600063AD9307120C63309407120C63D1940776
:10377000120C63F69407120C63559507120C6377CD
:103780009705120C63899705120C633F9805120C7C
:1037900063419A05120C639D9A05120C635C9C05AB
:1037A000120C63719D05120C63139E05120C63834A
:1037B000A005120C63DCA005120C6349A105120CD4
:1037C0006370A205120C636AA405120C63DFA405E2
:1037D000120C6377A505120C631CA705120C63F18C
:1037E000A705120C630AD607120C637BF006120CB5
:1037F00063AEF006120C6322F306120C63C3F406E8
:10380000120C639EF506120C6331F606120C63442B
:10381000F606120C63C19507120C63039607120C8F
:1038200063C19607120C638F9707120C63289907E0
:10383000120C636C9907120C63819907120C63894F
:103840009907120C63919907120C63BF9907120C28
:1038500063CC9907120C63E49907120C63C6FF0549
:10386000120C63DDFF06FFFF31B1E1FFFFFFFFFF39
:10387000C082C0837901023C14C082C083790202F5
:103880003C1474F51215768A0A8B0BECFEEDFFEEF4
:103890004F6005EA450B7005790202393B8E828F35
:1038A00083E9123C8C8A828B831239418A828B8312
:1038B000123940EA2402FAEB3400FB1230C8E91254
:1038C0003942850A82850B83A3A3A3123940123A99
:1038D000F588828983E054086004D2F08002C2F047
:1038E000A2F012394C541060047A0280027A008EE1
:1038F000828F83E04A123952542060047A04800295
:103900007A008E828F83E04A12394688828983E06A
:10391000A2E012394C540260047A0280027A008ECE
:10392000828F83E04A123952540460047804800282
:1039300078008E828F83E048F079007F030216487A
:10394000A3E08E828F83F0A30EAF8322E4338E82B6
:103950008F83F088828983E02274ED121576EAFE67
:10396000EBFF8C0A8D0BEE4F6005EC450B70057973
:1039700002023AF08E828F83A3AE82AF83E08C8204
:103980008D83123B008C828D83A385820C85830DF1
:103990008E828F83E0850C82850D83123B00E0F9D7
:1039A000EC2402FAED3400FB1230CE8E828F83A31A
:1039B0000EAF83E50A2404F50EE50B3400F50FE0A5
:1039C000850E82850F83F08E828F83A3E0F514A38A
:1039D0000E0EAF83A2E0E433F510751100E514A2DA
:1039E000E15004D2F08002C2F0A2F0E433F5127587
:1039F0001300E514A2E25004D2F08002C2F0123AA1
:103A0000F5E8FAE9FB8A828B83E054F7FCA3E0FD3A
:103A10007403781012150CEC451054EFFC74047804
:103A20001212150CEC451254DFFCA2F0E433F51031
:103A30007405781012150CEC4510FC8A828B83F00B
:103A4000A3EDF08E828F83E0F514A2E0E433FEE56F
:103A500014A2E15004D2F08002C2F0A2F0E433F8E4
:103A6000E514A2E25004D2F08002C2F0EC54FE4E03
:103A700054FDFCE8C333F8EC48F8EDF9E8543BFC9E
:103A8000A2F0E433F5107402781012150CEC451016
:103A90008A828B83F0A3E9F07A217B001227DA8AED
:103AA000108B11A810A911850E82850F83E0C39891
:103AB000E499401A7A227B001227DA8A10850E8256
:103AC000850F83E0FAC3E5109AEB94005004791255
:103AD000801E850A82850B83E0C39405500C850CFB
:103AE00082850D83E0C39402400479188002790036
:103AF0007F0B021648E50A2405F8E50B3400F9228D
:103B0000F08E828F83A30EAF832274F6121576ECAB
:103B1000FEEDFFEE4F6004EA4B70047902801E8ECA
:103B2000828F837403123C801216D2EAFCEBFDEE06
:103B3000FAEFFB12327274021215357900023D69F8
:103B400074F6121576ECFEEDFFEA4B6004EE4F7052
:103B50000479028022750A10750B00780A1216D2B9
:103B60008A828B83A3AC82AD83EEFAEFFB123272B2
:103B700074021215357900023D6974F6121576EC5F
:103B8000FEEDFFEE4F6004EA4B70047902801E8E5A
:103B9000828F837404123C801216D2EAFCEBFDEE95
:103BA000FAEFFB12327274021215357900023D6988
:103BB00074F6121576ECFEEDFFEA4B6004EE4F70E2
:103BC0000479028022750A10750B00780A1216D249
:103BD0008A828B83A3AC82AD83EEFAEFFB12327242
:103BE00074021215357900023D69C082C083EC4D24
:103BF0006004EA4B7004790280188C828D8374050E
:103C0000F0A3AC82AD838A828B83E08C828D83F0BB
:103C1000790080031231D0D083D082020C60C08240
:103C2000C083EA4B6004EC4D70047902801A8A82EA
:103C30008B83A3E0F88C828D83F0C3940A5003E851
:103C4000700479188002790080CD74F6121576EC34
:103C5000FEEDFFEE4F6004EA4B70047902801E8E89
:103C6000828F837406123C801216D2EAFCEBFDEEC2
:103C7000FAEFFB12327274021215357900023D69B7
:103C8000123C8C750A10750B00780A22F0A3AE82E4
:103C9000AF832274F6121576ECFEEDFFEA4B60045A
:103CA000EE4F700479028022750A10750B00780AB5
:103CB0001216D28A828B83A3AC82AD83EEFAEFFB1D
:103CC00012327274021215357900023D6974F612CF
:103CD0001576EAFEEBFFECFAEDFBEA4B6004EE4FE3
:103CE00070047902802E8A828B837407123DE58EE0
:103CF000828F83A3123DF3750A08750B00780A12B0
:103D000016D2EE2402FCEF3400FD1232727402125D
:103D100015357900805374F6121576ECFEEDFFEA46
:103D20004B6004EE4F70047902803E8A828B83A33D
:103D3000AA82AB83E0FCA3E0F8E4C8F9EC8E828FA2
:103D400083F0A3E9F0750A08880B780A1216D2EA04
:103D50002402FCEB3400FDEE2402FAEF3400FB12E7
:103D60003272740212153579007F0202164874F619
:103D7000121576ECFEEDFFEE4F6004EA4B7004790D
:103D800002801E8E828F837408123C801216D2EA43
:103D9000FCEBFDEEFAEFFB1232727402121535796C
:103DA0000080C674F6121576EAFEEBFFECFAEDFB26
:103DB000EA4B6004EE4F7004790280278A828B837D
:103DC0007409123DE5750A06750B00780A1216D2C1
:103DD0008E828F83A3AC82AD83123272740212156D
:103DE0003579008084F0A3AA82AB838E828F831200
:103DF0003DF322E08A828B83F0A30AAB832274F620
:103E0000121576ECFEEDFFEA4B6004EE4F7004797C
:103E1000028022750A10750B00780A1216D28A8267
:103E20008B83A3AC82AD83EEFAEFFB123272740285
:103E30001215357900023D6974F6121576ECFEED27
:103E4000FFEA4B6004EE4F7004790280398A828B5E
:103E500083A3AA82AB83E08E828F83F08A828B83D6
:103E6000A30AAB83750A06750B00780A1216D2EA0C
:103E7000FCEBFD8E828F83A3AA82AB831232727415
:103E8000021215357900023D6974F6121576ECFEC2
:103E9000EDFFEE4F6004EA4B70047902801E8E82C3
:103EA0008F83740A123C801216D2EAFCEBFDEEFA04
:103EB000EFFB12327274021215357900023D6974FB
:103EC000F6121576ECFEEDFFEA4B6004EE4F70043F
:103ED00079028022750A10750B00780A1216D28AB0
:103EE000828B83A3AC82AD83EEFAEFFB1232727445
:103EF000021215357900023D6974F7121576ECFE51
:103F0000EDFFEE4F6004EA4B7004790280148E825C
:103F10008F83740B123C8C1230C8E98E828F83F031
:103F200079007F01021648C082C083EA4B6004EC2E
:103F30004D7004790280108A828B83A3E0F9ECFA39
:103F4000EDFB1230CE7900023C1774F31215767433
:103F5000FA12151F8A0A8B0B890EECFEEDFF741303
:103F600012156AE0F8A3E0F9880C890D851A82859C
:103F70001B837406F0A3E4F0850E82AA82FB74040E
:103F800012156AEAF0A3E4F0122CAE740212156A5C
:103F9000EAF0A3EBF0740212156AE0FCA3E0FDEC7A
:103FA0004D6036EEFAEFFB850C82850D8312157499
:103FB000E9FE7013851A82851B83AC82AD83AA0A41
:103FC000AB0B122C06E9FEEE6011740212156AE0CA
:103FD000FAA3E0FB12365080027E1312309EEEF9F7
:103FE00074061215357F05021648020C60FFFFFFAC
:103FF000FFFFFFFFFFFFFFFF851C87C2AF020C60C2
:10400000201A1700470237FF200137FF3000200237
:1040100037FE27FF3001200030002000300037FF3E
:10402000200137FF20003001200037FF200037FF3C
:104030003002200037FF200030002000300027FF32
:10404000300020003000300027FF30002000300119
:104050002000300027FF300030002000300020001A
:10406000300027FF3001200037FF200030003002F1
:1040700027FF3000200037FF2000300127FF3001EC
:1040800037FF20003000200130002000300127FFE2
:10409000300127FF3000300127FF3000200137FFBB
:1040A000200130002000300037FF200237FF2000C1
:1040B00037FF200237FF27FF30012001300030009A
:1040C00027FF300127FF3000200037FF200237FF95
:1040D0003000200030012001300027FF300127FE92
:1040E000300137FF20013000200030002000300078
:1040F00020003000200137FF300127FF74025244B6
:104100009A1C170045022001300027FF300027FFCE
:10411000300130002000300020003000200030004E
:10412000200137FF200137FE30012000300027FF3B
:104130003001200030002001300037FF2001300026
:10414000200030002000300027FF300127FF300121
:10415000300027FF300127FF300120003000200110
:1041600037FF37FF2001300127FE3001200137FFE4
:1041700027FF300120003000300127FE30012000F1
:10418000300027FF3000200237FF300127FF3000CA
:10419000200037FF2001300020003000200137FFD1
:1041A0003000200030002000300027FF300227FFC1
:1041B000300137FF2000300127FF37FF200030009B
:1041C000200237FF3000200137FF200030002000A0
:1041D000300020003001200037FF300027FF300181
:1041E000200137FF2001300027FF300137FF200179
:1041F00030002000300027FF300227FE72025244B8
:10420000FFFFFFFFFFFFFFFFFFFFFFFFFFFFFFFFBE
:10421000FFFFFFFFFFFFFFFFFFFFFFFFFFFFFFFFAE
:10422000FFFFFFFFFFFFFFFFFFFFFFFFFFFFFFFF9E
:10423000FFFFFFFFFFFFFFFFFFFFFFFFFFFFFFFF8E
:1048000058211700470220013000200037FF200008
:10481000300237FF200037FF20013000200037FF33
:104820002001300037FE2001300227FF3000200039
:10483000300127FF37FF2000300127FF10021FFF44
:1048400010001FFF18003000200137FF300227FF43
:104850003000200037FF2000300127FF3001200109
:1048600037FF30002000300020003000200037FFEC
:10487000200130003000200030002000300127FFF0
:10488000300127FF300027FF3001300020003000CA
:104890002000300127FF300020003000300027FFCB
:1048A0003001200037FF20013000200030002000C0
:1048B000300137FF27FF300227FF30002001300092
:1048C000200037FF30002000300120003FFF300083
:1048D0004800300048012FFF30003000200137FF32
:1048E0002000300127FF3000200137FF300127FF73
:1048F000300127FF300020003000200171025244B7
:10490000CF2317004802200237FE200010011FFFAE
:1049100010011FFF10011FFF1000180118001000E8
:1049200018001000180010001FFF10001FFF1002D9
:104930001FFF180117FF180117FF180110001800BA
:10494000100018001FFF10011FFF100018011001B8
:104950001FFE100118011FFE1000180010011800A2
:1049600010011FFF10001800100018001FFE100299
:10497000180017FF180217FF180010001FFF18017A
:104980001001180017FF180010001FFF10011FFF73
:1049900010011FFF180110001FFF10011800100167
:1049A0001FFE1000180118001000180010001FFF53
:1049B0001000180117FF180110011FFE1800100049
:1049C000180117FF180110011FFF17FE1801180129
:1049D00017FF200127FF300127FF300020003000A3
:1049E00030002000300127FF37FF200237FF200072
:1049F0003001200037FF30012000300074015244A4
:104A00004725170048023000200030002000300108
:104A1000300027FF3000200137FF20003000200049
:104A200037FF20013001300027FF300127FF300021
:104A3000200030002000300137FE200137FF200128
:104A40003000200030012000300027FF300137FF08
:104A500020003000200030002001300127FF37FF08
:104A60003000200030002000300020013000200005
:104A70003001200037FF300127FE3000200137FFD2
:104A800020013000200137FF3000200030002000DE
:104A900037FF200030012000300027FF30010000E8
:104AA0000000000000000000000000000000000006
:104AB00000000000000000000000000000000000F6
:104AC00000000000000000000000000000000000E6
:104AD00000000000000000000000000000000000D6
:104AE00000000000000000000000000000000000C6
:104AF000000000000000000000000000840152449B
:104B0000D22717004A0227FF3001200037FF27FF76
:104B1000300127FF3000300120003000200037FF37
:104B200018011FFF10011FFF180217FE18001000C8
:104B3000180110011FFF10011FFF100018001800BE
:104B40001000180017FF180117FF180010011800B7
:104B50001FFF10014FFF30024FFF3000480037FFAA
:104B6000480030014800480137FF48003000480045
:104B700030004800300148004FFF37FE480337FF40
:104B8000480137FF4800280030002001300037FF7F
:104B900020013000200137FF27FF3001200037FFC0
:104BA00030002000300020003001200137FD2002BD
:104BB000300027FF3000300127FF30002001300097
:104BC00027FF3000200030013000200037FF200197
:104BD00030002000300020003000200037FF30007F
:104BE0002001300027FF300120003000200137FF76
:104BF00037FF2001300027FF3000200072025244AE
:104C00004A2A17004A0227FF3000200037FF3000F1
:104C1000200137FF2001300027FF37FF200130003F
:104C2000300027FF30002000300127FF3000200037
:104C300030003000200137FE20003000200030011D
:104C400027FF300127FF37FF3001200037FF20000A
:104C5000300127FF37FF2001300137FF200137FFE8
:104C6000200030002000300020003001200037FFFD
:104C70003000200030002000300027FE30012000EE
:104C8000300030002000300020003000200037FFCE
:104C900027FF3002200037FF3000200137FF2001BE
:104CA00037FF200037FF200137FF3001200037FF9A
:104CB0002000300127FE3001200137FE20003001A6
:104CC00037FF200037FF200137FF2001300127FF89
:104CD00030003000200137FF27FE300227FF300070
:104CE000200030003000200237FD2001300020007D
:104CF00037FF2001300027FF30013000740252449A
:104D0000C22C17003F02300120003000200037FF86
:104D100027FF30023000200037FE20013001200044
:104D200037FF200030002000300137FF200037FF20
:104D300020013000200137FF27FF300137FF20011D
:104D4000300127FF3000200137FF27FF300127FF08
:104D500030013000200137FF200137FE20013000F4
:104D6000200030003000200030002000300127FFFC
:104D700030002000300027FF30003001200037FFD6
:104D80002001300127FF37FF2000300237FF2001CC
:104D9000300027FF3001200037FF2001300027FFBF
:104DA000300030012000300127FE3001200137FEA5
:104DB000200130003000200030002000300127FFAB
:104DC000300127FE3001200130003000200030018A
:104DD00027FF3000200030012000300037FF200086
:104DE0003000200137FF2001300127FF3000300064
:104DF00027FF30012000300127FF300174025244A8
:104E00003A2F1700430237FF200137FF30012000FF
:104E1000300127FE300120003000200037FF300233
:104E2000200037FF2000300020003000200037FF36
:104E30002001300030002001300027FF3001200029
:104E400037FF20013000300020003000200030000B
:104E500027FF30012000300020003000300020000B
:104E600037FF20013000200137FF200130003000E3
:104E7000200037FF20003001200037FF20013001E3
:104E800027FE3001300020003000200030002000DC
:104E9000300027FF30013000200137FF20003000B4
:104EA000200137FF200030002000300237FE2000B4
:104EB000300127FF30002000300127FF3000300094
:104EC0002000300120003000200037FF200130009A
:104ED00030002000300027FF3000200137FF200085
:104EE000300120003000300027FF300127FF300163
:104EF000200030002001300037FF200074025244AF
:104F0000B431170046022001300027FF37FF20018F
:104F100030002000300137FF20003000200137FF33
:104F20002000300127FF30003000200137FF200132
:104F300037FF27FF30012000300127FF300130000C
:104F40002000300027FF300127FF3000200137FF0D
:104F500030012000300127FF300127FE3001200002
:104F600037FF200237FF37FF2000300227FF3000D5
:104F7000200030002000300030002000300127FFEA
:104F80003000200137FF2000300127FF30003000C3
:104F900017FF1801100018001000180010011FFE64
:104FA000180217FF18001000180110011FFF17FF4B
:104FB0001801180017FF180010011FFF1000180239
:104FC00017FE180227FF4800480037FF480030014D
:104FD0004FFF3000480130004800480030014FFFCB
:104FE0003001480030004FFE3000480130014FFFD3
:104FF000480037FF480137FF380120007102524452
:105000002B341700480220003000300027FF280111
:105010001000180017FF18011000180010001800E9
:10502000180010011FFF100018001000180117FFD2
:10503000180018001000180110001FFE10011800C1
:1050400010001800100018011FFF100018001000B9
:10505000180010011FFF10011FFF180110001FFF93
:105060001000180017FF180217FF180010011FFF8B
:1050700018001001180010001FFF10001800100089
:1050800018011FFF10021FFE10011FFF1000180063
:10509000100018011FFF1000180110001800100068
:1050A000180010001FFF300048014FFF300048017A
:1050B0003000480030014FFF30004800480137FF02
:1050C0004FFF300148003000480037FF48013000F2
:1050D0004800480030014FFE30024FFF30014FFFC3
:1050E00030004801480037FF4FFF300148003000D2
:1050F000480037FF480130014FFF48002202524468
:10510000533617004A02480037FE480037FF480070
:1051100030014FFF480137FF4FFF3000480137FE95
:10512000480037FF480130004FFF480037FF480272
:1051300037FD48013000480030004800480030008A
:105140004FFF3000380227FF300027FF300127FFD4
:10515000300137FE200237FF2000300020013001EF
:1051600027FF37FF37FF200130002000300127FFE5
:10517000300020013000200137FF37FF200137FFCA
:10518000200137FF20013000200037FF30002001D0
:10519000300027FF30012000300027FF30013000B1
:1051A000200137FF200030012000300127FE3000B1
:1051B0002001300137FF200037FF2001300127FF99
:1051C00030002001300037FF200137FF2001300080
:1051D000200037FE20023000200030003000200187
:1051E00037FE20013000200137FF27FF300137FF55
:1051F0002002300027FF37FF20013000C402524454
:105200001B3917004502300127FF30003000200015
:10521000300127FF3000200137FF200137FF300029
:10522000200030012000300127FE30002001300036
:1052300027FE3002300027FF300020003000200120
:1052400030002000300037FE200237FF2000300100
:1052500027FF300127FF300020013000300027FFFA
:10526000300127FF300127FF3000200030003001DF
:10527000200037FF20013000200037FF200237FEDA
:1052800020003000300120003000200137FF2000D6
:1052900030002000300030002000300020013000BD
:1052A00027FF3001200037FF2000300137FF2000AA
:1052B00037FF200130012000300027FF3000300090
:1052C000200030002000300020003000200030009E
:1052D00020003000300127FF3000200137FF200080
:1052E00037FF200237FF30002001300027FF300158
:1052F00027FF3000200037FF3001200174025244A4
:10530000953B17004602200137FF2001300027FFA0
:10531000300227FF37FF300120003000200137FE28
:105320002001300027FF3000300227FE300120002E
:1053300037FE200237FF200037FF20023000300008
:10534000200037FF200137FF20003001200037FF09
:10535000300227FF3000200037FF2002300027FFF7
:105360003000200137FF30002000300127FE3000E0
:1053700020013000200237FE300127FE300227FFD7
:105380003000200037FF2000300227FE30003001BF
:105390002000300127FE3001200037FF20013000BF
:1053A000300020003000200030002001300027FFB6
:1053B00030012000300037FF2001300127FF30008E
:1053C00027FF300127FF3001300127FE3000200188
:1053D00037FF200137FF200137FF2000300137FF62
:1053E000200130002000300020003000200030017B
:1053F00037FF27FF300020003001200072025244A6
:105400000D3E1700480227FE3002200037FF300013
:105410002000300227FE300127FF3000200137FF37
:1054200037FF200130012000300020003000200034
:10543000300037FF200137FF200137FF2000300107
:105440002000300127FF300037FF200237FE200008
:105450003001200137FF27FF3001300027FF3001E6
:1054600027FF300127FE3002200037FE200337FEE1
:1054700030002000300127FF3000200037FF2001DE
:10548000300137FF27FF300127FF3000200137FFB1
:105490002000300127FF30013000200037FF2001BD
:1054A00037FF27FF300227FF37FF3001200037FF8B
:1054B000200137FF2000300027FE3002200030009E
:1054C000300020003000200030002000300020009C
:1054D0003000300020003000200037FF2000300076
:1054E0002001300127FF37FF3001200137FF200165
:1054F0003000200037FF2000300137FF7402524493
:10550000854017004502300020013000200037FFA1
:1055100020013000200037FF3001200137FF20013B
:1055200037FF2001300127FE30003002200030001C
:1055300027FF300020003000200030002000300124
:1055400030002000300127FE30002001300127FF0D
:10555000300030002000300127FF37FF200237FFE6
:105560002000300127FF3001300027FF30012001EB
:1055700037FF27FF300120003000300127FF3000C7
:10558000200137FF200137FF27FF300237FF2000BF
:10559000300127FF37FF200130002001300027FFB6
:1055A000300137FF200237FE200237FF27FF30008F
:1055B000280137FF300227FF3001200037FF20018C
:1055C00037FF200137FF20013000300027FF300176
:1055D00027FF37FF2000300120003000300120007D
:1055E00037FF200137FF2001280020003000200075
:1055F00037FF300120003000200030007402524498
:10560000FD4217004C02300027FF30003000200020
:1056100037FF200237FE200130002000300127FE36
:10562000300130002000300127FF30002000300220
:1056300027FF3000300027FF30002001300027FF17
:10564000300227FE30012000300037FF27FF3001F5
:105650002000300227FE3001200030003001200001
:10566000300027FE3000200137FF200337FF37FFCF
:105670002000300027FF3001200137FE20013000DC
:10568000200037FF3001200137FE200130002000CC
:105690003001200037FF300127FF300020003001AB
:1056A000200037FF20003000200037FF300227FFA6
:1056B00030002001300027FF30002001300037FF8C
:1056C000200137FE20013000200137FF200030008C
:1056D0002001300037FF2001300027FF300120007B
:1056E00037FF200237FF37FF20013000200037FE50
:1056F0002001300127FF30002000300174025244A5
:10570000FFFFFFFFFFFFFFFFFFFFFFFFFFFFFFFFA9
:10571000FFFFFFFFFFFFFFFFFFFFFFFFFFFFFFFF99
:10572000FFFFFFFFFFFFFFFFFFFFFFFFFFFFFFFF89
:10573000FFFFFFFFFFFFFFFFFFFFFFFFFFFFFFFF79
:10574000FFFFFFFFFFFFFFFFFFFFFFFFFFFFFFFF69
:10575000FFFFFFFFFFFFFFFFFFFFFFFFFFFFFFFF59
:10576000FFFFFFFFFFFFFFFFFFFFFFFFFFFFFFFF49
:10577000FFFFFFFFFFFFFFFFFFFFFFFFFFFFFFFF39
:10578000FFFFFFFFFFFFFFFFFFFFFFFFFFFFFFFF29
:10579000FFFFFFFFFFFFFFFFFFFFFFFFFFFFFFFF19
:1057A000FFFFFFFFFFFFFFFFFFFFFFFFFFFFFFFF09
:1057B000FFFFFFFFFFFFFFFFFFFFFFFFFFFFFFFFF9
:1057C000FFFFFFFFFFFFFFFFFFFFFFFFFFFFFFFFE9
:1057D000FFFFFFFFFFFFFFFFFFFFFFFFFFFFFFFFD9
:1057E000FFFFFFFFFFFFFFFFFFFFFFFFFFFFFFFFC9
:1057F000FFFFFFFFFFFFFFFFFFFFFFFFFFFFFFFFB9
:10580000B54517004D02200037FF2001300027FE6C
:10581000300130002000300027FF300027FF300229
:1058200027FF30003000200037FF2000300020002C
:105830003000200037FF27FF300337FF27FE3001FD
:1058400027FF3001200037FF200137FF3001200003
:1058500037FE200130002000300027FF300237FEE5
:10586000200237FF27FF30002001300027FF3001E2
:1058700027FF3000300027FE300227FF30012000D4
:1058800037FF20003000300027FF300127FF3001B4
:105890002000300027FF300127FF300137FF2000B4
:1058A00030002000300027FF3000200337FE37FE95
:1058B000200237FF200030002000300027FF300199
:1058C00020003000300027FF30012000300027FE8C
:1058D00030012000300137FF2000300027FF300169
:1058E000200037FF200130002000300037FF20006B
:1058F0003000200137FE20013000200072025244A7
:105900002D48170041023001200137FE200137FFEA
:105910002000300127FF300120003000300127FF38
:10592000300027FF30002001300027FF300030001A
:1059300027FF3001200137FE20003001200137FF12
:1059400027FF30003001200137FE200137FF200102
:1059500037FF2001300037FF200137FF20003001E2
:1059600027FF37FF200137FF20023000300027FFDC
:105970003000200137FF200137FF200037FF3000C3
:1059800020003000200130002000300020003000D6
:10599000200037FF3000200137FF2000300127FFB3
:1059A0003001200037FF300127FF30002000300099
:1059B000200030002000300030002000300027FFA1
:1059C0003001200037FF200137FF200137FF300072
:1059D000200137FF200137FE200237FF2000300072
:1059E0003000200030002000300020003000200176
:1059F00037FF200130003000200037FF740252448E
:105A0000FFFFFFFFFFFFFFFFFFFFFFFFFFFFFFFFA6
:105A1000FFFFFFFFFFFFFFFFFFFFFFFFFFFFFFFF96
:105A2000FFFFFFFFFFFFFFFFFFFFFFFFFFFFFFFF86
:105A3000FFFFFFFFFFFFFFFFFFFFFFFFFFFFFFFF76
:10600000314B17003F02200137FE200237FF37FFD8
:1060100020013000200137FF200137FF2001300030
:10602000200030002FFF2000300120003000200130
:1060300037FF200030003000200137FF200137FFFC
:10604000200030002001300020003000300027FF09
:10605000300220003000200037FE200237FF3001E0
:10606000200137FF27FF30012000300020003000E2
:1060700027FF3000300020013000200030002000D9
:1060800030002000300137FF20003001200037FEB3
:1060900020013000200030002000300130002000BE
:1060A00037FF2000300127FF3000200237FE30008C
:1060B000200237FF200137FF27FF3001200137FF83
:1060C000200030003000200137FF2000300127FF82
:1060D000300120003001300027FF300027FF300260
:1060E000200037FF2000300037FF2001300127FF5C
:1060F000300127FF3000200137FF20017102524498
:10610000A84D170045023000200137FF200137FE5F
:106110002001300027FF3001300027FF300227FF29
:1061200030002000300027FF3002200137FE300110
:10613000200037FF2001300127FF30002000300110
:1061400037FF200030002000300020003001200008
:1061500037FF2000300130002000300020003000E8
:1061600027FF3002200037FF300027FF300227FFD3
:1061700037FF2002300027FF3000200137FE3001BA
:10618000200137FF200130002000300027FF3002BF
:1061900037FF200037FF2001300027FF30012000AB
:1061A000300027FF3001300127FF300127FF30008A
:1061B000200030002000300030002000300020019E
:1061C00037FE2001300127FF30002000300137FE6C
:1061D000200237FF20013000200030002000300076
:1061E000300027FF300227FF300027FF3001200159
:1061F00037FF30002000300020003001740252448C
:10620000205017004A02300027FF3001200037FFDE
:106210003000200030002000300027FF3001200037
:1062200030003001200037FF200130002000300016
:1062300027FF300127FF30013000200037FE20010A
:106240003000200137FE20013000300020003001F6
:1062500027FF3000200237FF200037FF20013000E9
:1062600030002000300027FF37FF200130002001E0
:1062700037FF3001200137FE2000300227FF3000B9
:1062800027FF30012000300030002000300127FEC1
:1062900030012000300020003000300127FF3000A6
:1062A000200137FF2000300020013000200037FFA0
:1062B000300127FF300027FE3002200137FF200089
:1062C00030003000200037FF2001300127FF300070
:1062D000200137FF300020003000200137FF20016F
:1062E00037FF200030002000300030002000300058
:1062F000200030002000300127FE3002740252449A
:106300009A5217004B02200037FF200037FF20026F
:106310003000200037FE2002300037FF200130001F
:1063200027FE30012000300127FF3001300027FE1A
:10633000300120003000200038002801300127FE05
:106340003001200027FF3000200030002000300105
:10635000200037FF300020003001200030002000F6
:10636000300027FE37FF20023000300127FF3001C8
:1063700027FF3000200137FF2000300030002001CF
:1063800037FE200137FF2001300027FF30002001B9
:10639000300037FF200237FF20003000200030009F
:1063A00020003001300027FF3000200030012000A5
:1063B00037FF2000300137FF200030002000300080
:1063C0002000300127FF300127FF300237FE200078
:1063D00030002000300127FF3000200137FE30015F
:1063E0002000300127FF300020003001200037FF5F
:1063F000200030003001200037FE2001720252449C
:10640000125517004B02200037FE200130003001EA
:1064100020003FFF200137FE200237FF2000300020
:106420002000300030002000300127FE3001200124
:1064300037FF200030003000200137FE200137FFF9
:10644000200137FF2000300020003000300127FEFF
:106450003001200037FF20003000200030003001E4
:1064600027FF300227FF37FE2001300020003000D8
:1064700027FF300237FF200037FF2002300027FFC0
:1064800037FF2000300137FF2000300127FF37FFA2
:106490002000300227FF300027FF3000300227FFA6
:1064A0003000200137FF2000300127FE300130008E
:1064B0002000300027FF300127FF3000200137FF88
:1064C0002001300037FE2002300027FE300120007E
:1064D000300127FE300237FF2000300027FF300157
:1064E000200030002000300037FF20013000200065
:1064F000300027FF300227FE300020017302524493
:106500008B571700460230002000300027FF300074
:1065100020013000200037FF300127FF300020002D
:1065200037FF20013000200130002000300037FF0D
:106530002000300127FF30002000300127FF30000D
:106540003000200030002000300027FF3001200103
:1065500037FF2000300137FF200137FF20003000D7
:10656000200137FF200030003000200030002000E4
:1065700037FF200137FF2000300227FE30013000B6
:1065800027FF300020003000200237FE20003001BD
:1065900037FF2002300027FF300127FF300027FFA0
:1065A0003000200237FF300020003000200137FF8C
:1065B000200037FF200237FF30002000300027FF87
:1065C0003001200037FF2001300020003000300073
:1065D00020003000200037FF200337FF200030006C
:1065E000300027FF300027FF3002200137FE200156
:1065F0003000200037FF3001200137FF7402524481
:10660000035A1700470237FF200137FF20003002EE
:1066100037FE200137FE200130002000300120002D
:1066200037FF30012000300127FE3000200130010B
:1066300027FF300120003000300027FF300020000D
:106640003000200137FF2001300037FF200137FFE5
:10665000200237FE20013000200137FF20003001EA
